{
  "_format": "hh-sol-artifact-1",
  "contractName": "SaltVaultToken",
  "sourceName": "contracts/ExternalContracts/SaltVaultToken.sol",
  "abi": [
    {
      "inputs": [],
      "stateMutability": "nonpayable",
      "type": "constructor"
    },
    {
      "anonymous": false,
      "inputs": [
        {
          "indexed": true,
          "internalType": "address",
          "name": "owner",
          "type": "address"
        },
        {
          "indexed": true,
          "internalType": "address",
          "name": "spender",
          "type": "address"
        },
        {
          "indexed": false,
          "internalType": "uint256",
          "name": "value",
          "type": "uint256"
        }
      ],
      "name": "Approval",
      "type": "event"
    },
    {
      "anonymous": false,
      "inputs": [
        {
          "indexed": false,
          "internalType": "address",
          "name": "from",
          "type": "address"
        },
        {
          "indexed": false,
          "internalType": "uint256",
          "name": "amountTokensErased",
          "type": "uint256"
        }
      ],
      "name": "Burn",
      "type": "event"
    },
    {
      "anonymous": false,
      "inputs": [
        {
          "indexed": false,
          "internalType": "uint256",
          "name": "amountTokensErased",
          "type": "uint256"
        }
      ],
      "name": "GarbageCollected",
      "type": "event"
    },
    {
      "anonymous": false,
      "inputs": [
        {
          "indexed": false,
          "internalType": "address",
          "name": "recipient",
          "type": "address"
        },
        {
          "indexed": false,
          "internalType": "uint256",
          "name": "numTokens",
          "type": "uint256"
        }
      ],
      "name": "Minted",
      "type": "event"
    },
    {
      "anonymous": false,
      "inputs": [
        {
          "indexed": true,
          "internalType": "address",
          "name": "previousOwner",
          "type": "address"
        },
        {
          "indexed": true,
          "internalType": "address",
          "name": "newOwner",
          "type": "address"
        }
      ],
      "name": "OwnershipTransferred",
      "type": "event"
    },
    {
      "anonymous": false,
      "inputs": [
        {
          "indexed": false,
          "internalType": "uint256",
          "name": "previousPrice",
          "type": "uint256"
        },
        {
          "indexed": false,
          "internalType": "uint256",
          "name": "currentPrice",
          "type": "uint256"
        },
        {
          "indexed": false,
          "internalType": "uint256",
          "name": "totalSupply",
          "type": "uint256"
        }
      ],
      "name": "PriceChange",
      "type": "event"
    },
    {
      "anonymous": false,
      "inputs": [
        {
          "indexed": false,
          "internalType": "address",
          "name": "seller",
          "type": "address"
        },
        {
          "indexed": false,
          "internalType": "uint256",
          "name": "amountSVT",
          "type": "uint256"
        },
        {
          "indexed": false,
          "internalType": "uint256",
          "name": "amountUSDC",
          "type": "uint256"
        }
      ],
      "name": "Redeemed",
      "type": "event"
    },
    {
      "anonymous": false,
      "inputs": [
        {
          "indexed": false,
          "internalType": "address",
          "name": "account",
          "type": "address"
        }
      ],
      "name": "SellDownAccount",
      "type": "event"
    },
    {
      "anonymous": false,
      "inputs": [
        {
          "indexed": false,
          "internalType": "address",
          "name": "addr",
          "type": "address"
        },
        {
          "indexed": false,
          "internalType": "bool",
          "name": "value",
          "type": "bool"
        }
      ],
      "name": "SetContract",
      "type": "event"
    },
    {
      "anonymous": false,
      "inputs": [
        {
          "indexed": false,
          "internalType": "address",
          "name": "newReceiver",
          "type": "address"
        }
      ],
      "name": "SetFeeReceiver",
      "type": "event"
    },
    {
      "anonymous": false,
      "inputs": [
        {
          "indexed": false,
          "internalType": "uint256",
          "name": "newPercentage",
          "type": "uint256"
        }
      ],
      "name": "SetFeeReceiverPercentage",
      "type": "event"
    },
    {
      "anonymous": false,
      "inputs": [
        {
          "indexed": false,
          "internalType": "uint256",
          "name": "mintFee",
          "type": "uint256"
        },
        {
          "indexed": false,
          "internalType": "uint256",
          "name": "transferFee",
          "type": "uint256"
        },
        {
          "indexed": false,
          "internalType": "uint256",
          "name": "sellFee",
          "type": "uint256"
        },
        {
          "indexed": false,
          "internalType": "uint256",
          "name": "contractFee",
          "type": "uint256"
        }
      ],
      "name": "SetFees",
      "type": "event"
    },
    {
      "anonymous": false,
      "inputs": [
        {
          "indexed": false,
          "internalType": "address",
          "name": "Contract",
          "type": "address"
        },
        {
          "indexed": false,
          "internalType": "bool",
          "name": "feeExempt",
          "type": "bool"
        }
      ],
      "name": "SetPermissions",
      "type": "event"
    },
    {
      "anonymous": false,
      "inputs": [
        {
          "indexed": false,
          "internalType": "address",
          "name": "underlying",
          "type": "address"
        }
      ],
      "name": "SetUnderlying",
      "type": "event"
    },
    {
      "anonymous": false,
      "inputs": [
        {
          "indexed": false,
          "internalType": "uint256",
          "name": "blockNo",
          "type": "uint256"
        }
      ],
      "name": "TokenActivated",
      "type": "event"
    },
    {
      "anonymous": false,
      "inputs": [
        {
          "indexed": true,
          "internalType": "address",
          "name": "from",
          "type": "address"
        },
        {
          "indexed": true,
          "internalType": "address",
          "name": "to",
          "type": "address"
        },
        {
          "indexed": false,
          "internalType": "uint256",
          "name": "value",
          "type": "uint256"
        }
      ],
      "name": "Transfer",
      "type": "event"
    },
    {
      "anonymous": false,
      "inputs": [
        {
          "indexed": false,
          "internalType": "bool",
          "name": "flag",
          "type": "bool"
        }
      ],
      "name": "presaleStatus",
      "type": "event"
    },
    {
      "inputs": [
        {
          "internalType": "bool",
          "name": "_flag",
          "type": "bool"
        }
      ],
      "name": "activateToken",
      "outputs": [],
      "stateMutability": "nonpayable",
      "type": "function"
    },
    {
      "inputs": [
        {
          "internalType": "address",
          "name": "holder",
          "type": "address"
        },
        {
          "internalType": "address",
          "name": "spender",
          "type": "address"
        }
      ],
      "name": "allowance",
      "outputs": [
        {
          "internalType": "uint256",
          "name": "",
          "type": "uint256"
        }
      ],
      "stateMutability": "view",
      "type": "function"
    },
    {
      "inputs": [
        {
          "internalType": "address",
          "name": "spender",
          "type": "address"
        },
        {
          "internalType": "uint256",
          "name": "amount",
          "type": "uint256"
        }
      ],
      "name": "approve",
      "outputs": [
        {
          "internalType": "bool",
          "name": "",
          "type": "bool"
        }
      ],
      "stateMutability": "nonpayable",
      "type": "function"
    },
    {
      "inputs": [
        {
          "internalType": "address",
          "name": "account",
          "type": "address"
        }
      ],
      "name": "balanceOf",
      "outputs": [
        {
          "internalType": "uint256",
          "name": "",
          "type": "uint256"
        }
      ],
      "stateMutability": "view",
      "type": "function"
    },
    {
      "inputs": [
        {
          "internalType": "uint256",
          "name": "amount",
          "type": "uint256"
        }
      ],
      "name": "burn",
      "outputs": [],
      "stateMutability": "nonpayable",
      "type": "function"
    },
    {
      "inputs": [],
      "name": "calculatePrice",
      "outputs": [
        {
          "internalType": "uint256",
          "name": "",
          "type": "uint256"
        }
      ],
      "stateMutability": "view",
      "type": "function"
    },
    {
      "inputs": [],
      "name": "contractFee",
      "outputs": [
        {
          "internalType": "uint256",
          "name": "",
          "type": "uint256"
        }
      ],
      "stateMutability": "view",
      "type": "function"
    },
    {
      "inputs": [
        {
          "internalType": "address",
          "name": "",
          "type": "address"
        }
      ],
      "name": "contracts",
      "outputs": [
        {
          "internalType": "bool",
          "name": "",
          "type": "bool"
        }
      ],
      "stateMutability": "view",
      "type": "function"
    },
    {
      "inputs": [
        {
          "internalType": "address",
          "name": "",
          "type": "address"
        }
      ],
      "name": "customFee",
      "outputs": [
        {
          "internalType": "uint256",
          "name": "",
          "type": "uint256"
        }
      ],
      "stateMutability": "view",
      "type": "function"
    },
    {
      "inputs": [],
      "name": "decimals",
      "outputs": [
        {
          "internalType": "uint8",
          "name": "",
          "type": "uint8"
        }
      ],
      "stateMutability": "pure",
      "type": "function"
    },
    {
      "inputs": [
        {
          "internalType": "address",
          "name": "_address",
          "type": "address"
        }
      ],
      "name": "determineFeeForAddress",
      "outputs": [
        {
          "internalType": "uint256",
          "name": "",
          "type": "uint256"
        }
      ],
      "stateMutability": "view",
      "type": "function"
    },
    {
      "inputs": [],
      "name": "feeReceiver",
      "outputs": [
        {
          "internalType": "address",
          "name": "",
          "type": "address"
        }
      ],
      "stateMutability": "view",
      "type": "function"
    },
    {
      "inputs": [],
      "name": "feeReceiverPercentage",
      "outputs": [
        {
          "internalType": "uint256",
          "name": "",
          "type": "uint256"
        }
      ],
      "stateMutability": "view",
      "type": "function"
    },
    {
      "inputs": [
        {
          "internalType": "address",
          "name": "holder",
          "type": "address"
        }
      ],
      "name": "getValueOfHoldings",
      "outputs": [
        {
          "internalType": "uint256",
          "name": "",
          "type": "uint256"
        }
      ],
      "stateMutability": "view",
      "type": "function"
    },
    {
      "inputs": [
        {
          "internalType": "address",
          "name": "",
          "type": "address"
        }
      ],
      "name": "hasCustomFee",
      "outputs": [
        {
          "internalType": "bool",
          "name": "",
          "type": "bool"
        }
      ],
      "stateMutability": "view",
      "type": "function"
    },
    {
      "inputs": [
        {
          "internalType": "address",
          "name": "",
          "type": "address"
        }
      ],
      "name": "isApprovedCaller",
      "outputs": [
        {
          "internalType": "bool",
          "name": "",
          "type": "bool"
        }
      ],
      "stateMutability": "view",
      "type": "function"
    },
    {
      "inputs": [
        {
          "internalType": "address",
          "name": "_address",
          "type": "address"
        }
      ],
      "name": "isCurrentContractFeeExempt",
      "outputs": [
        {
          "internalType": "bool",
          "name": "",
          "type": "bool"
        }
      ],
      "stateMutability": "view",
      "type": "function"
    },
    {
      "inputs": [
        {
          "internalType": "address",
          "name": "_address",
          "type": "address"
        }
      ],
      "name": "isReadyForTrdContracts",
      "outputs": [
        {
          "internalType": "bool",
          "name": "",
          "type": "bool"
        }
      ],
      "stateMutability": "view",
      "type": "function"
    },
    {
      "inputs": [
        {
          "internalType": "address",
          "name": "",
          "type": "address"
        }
      ],
      "name": "isTransferFeeExempt",
      "outputs": [
        {
          "internalType": "bool",
          "name": "",
          "type": "bool"
        }
      ],
      "stateMutability": "view",
      "type": "function"
    },
    {
      "inputs": [],
      "name": "mintFee",
      "outputs": [
        {
          "internalType": "uint256",
          "name": "",
          "type": "uint256"
        }
      ],
      "stateMutability": "view",
      "type": "function"
    },
    {
      "inputs": [
        {
          "internalType": "uint256",
          "name": "numTokens",
          "type": "uint256"
        }
      ],
      "name": "mintWithBacking",
      "outputs": [
        {
          "internalType": "uint256",
          "name": "",
          "type": "uint256"
        }
      ],
      "stateMutability": "nonpayable",
      "type": "function"
    },
    {
      "inputs": [],
      "name": "name",
      "outputs": [
        {
          "internalType": "string",
          "name": "",
          "type": "string"
        }
      ],
      "stateMutability": "pure",
      "type": "function"
    },
    {
      "inputs": [],
      "name": "non_holder",
      "outputs": [
        {
          "internalType": "uint256",
          "name": "",
          "type": "uint256"
        }
      ],
      "stateMutability": "view",
      "type": "function"
    },
    {
      "inputs": [],
      "name": "owner",
      "outputs": [
        {
          "internalType": "address",
          "name": "",
          "type": "address"
        }
      ],
      "stateMutability": "view",
      "type": "function"
    },
    {
      "inputs": [
        {
          "internalType": "address",
          "name": "",
          "type": "address"
        }
      ],
      "name": "preSaleAmount",
      "outputs": [
        {
          "internalType": "uint256",
          "name": "",
          "type": "uint256"
        }
      ],
      "stateMutability": "view",
      "type": "function"
    },
    {
      "inputs": [],
      "name": "presaleOpen",
      "outputs": [
        {
          "internalType": "bool",
          "name": "",
          "type": "bool"
        }
      ],
      "stateMutability": "view",
      "type": "function"
    },
    {
      "inputs": [
        {
          "internalType": "bool",
          "name": "_flag",
          "type": "bool"
        }
      ],
      "name": "presaleToggle",
      "outputs": [],
      "stateMutability": "nonpayable",
      "type": "function"
    },
    {
      "inputs": [
        {
          "internalType": "address",
          "name": "_address",
          "type": "address"
        }
      ],
      "name": "removeCustomFee",
      "outputs": [],
      "stateMutability": "nonpayable",
      "type": "function"
    },
    {
      "inputs": [],
      "name": "renounceOwnership",
      "outputs": [],
      "stateMutability": "nonpayable",
      "type": "function"
    },
    {
      "inputs": [],
      "name": "saltVaultBulls",
      "outputs": [
        {
          "internalType": "address",
          "name": "",
          "type": "address"
        }
      ],
      "stateMutability": "view",
      "type": "function"
    },
    {
      "inputs": [
        {
          "internalType": "uint256",
          "name": "tokenAmount",
          "type": "uint256"
        }
      ],
      "name": "sell",
      "outputs": [
        {
          "internalType": "uint256",
          "name": "",
          "type": "uint256"
        }
      ],
      "stateMutability": "nonpayable",
      "type": "function"
    },
    {
      "inputs": [
        {
          "internalType": "address",
          "name": "account",
          "type": "address"
        }
      ],
      "name": "sellDownExternalAccount",
      "outputs": [],
      "stateMutability": "nonpayable",
      "type": "function"
    },
    {
      "inputs": [],
      "name": "sellFee",
      "outputs": [
        {
          "internalType": "uint256",
          "name": "",
          "type": "uint256"
        }
      ],
      "stateMutability": "view",
      "type": "function"
    },
    {
      "inputs": [
        {
          "internalType": "uint256",
          "name": "tokenAmount",
          "type": "uint256"
        },
        {
          "internalType": "address",
          "name": "recipient",
          "type": "address"
        }
      ],
      "name": "sellTo",
      "outputs": [
        {
          "internalType": "uint256",
          "name": "",
          "type": "uint256"
        }
      ],
      "stateMutability": "nonpayable",
      "type": "function"
    },
    {
      "inputs": [
        {
          "internalType": "address",
          "name": "_address",
          "type": "address"
        },
        {
          "internalType": "bool",
          "name": "value",
          "type": "bool"
        }
      ],
      "name": "setApprovedCallerRole",
      "outputs": [],
      "stateMutability": "nonpayable",
      "type": "function"
    },
    {
      "inputs": [
        {
          "internalType": "address",
          "name": "_add",
          "type": "address"
        },
        {
          "internalType": "bool",
          "name": "_value",
          "type": "bool"
        }
      ],
      "name": "setContract",
      "outputs": [],
      "stateMutability": "nonpayable",
      "type": "function"
    },
    {
      "inputs": [
        {
          "internalType": "address[]",
          "name": "_address",
          "type": "address[]"
        },
        {
          "internalType": "uint256[]",
          "name": "_fee",
          "type": "uint256[]"
        }
      ],
      "name": "setCustomFee",
      "outputs": [],
      "stateMutability": "nonpayable",
      "type": "function"
    },
    {
      "inputs": [
        {
          "internalType": "address",
          "name": "newReceiver",
          "type": "address"
        }
      ],
      "name": "setFeeReceiver",
      "outputs": [],
      "stateMutability": "nonpayable",
      "type": "function"
    },
    {
      "inputs": [
        {
          "internalType": "uint256",
          "name": "newPercentage",
          "type": "uint256"
        }
      ],
      "name": "setFeeReceiverPercentage",
      "outputs": [],
      "stateMutability": "nonpayable",
      "type": "function"
    },
    {
      "inputs": [
        {
          "internalType": "uint256",
          "name": "_mintFee",
          "type": "uint256"
        },
        {
          "internalType": "uint256",
          "name": "_transferFee",
          "type": "uint256"
        },
        {
          "internalType": "uint256",
          "name": "_sellFee",
          "type": "uint256"
        },
        {
          "internalType": "uint256",
          "name": "_contractFee",
          "type": "uint256"
        }
      ],
      "name": "setFees",
      "outputs": [],
      "stateMutability": "nonpayable",
      "type": "function"
    },
    {
      "inputs": [
        {
          "internalType": "address[]",
          "name": "_addresses",
          "type": "address[]"
        },
        {
          "internalType": "uint256",
          "name": "_allocation",
          "type": "uint256"
        }
      ],
      "name": "setPresaleAmountBulk",
      "outputs": [],
      "stateMutability": "nonpayable",
      "type": "function"
    },
    {
      "inputs": [
        {
          "internalType": "address",
          "name": "_address",
          "type": "address"
        },
        {
          "internalType": "uint256",
          "name": "_allocation",
          "type": "uint256"
        }
      ],
      "name": "setPresaleAmountFromApprovedCaller",
      "outputs": [],
      "stateMutability": "nonpayable",
      "type": "function"
    },
    {
      "inputs": [
        {
          "internalType": "address",
          "name": "_saltVaultBulls",
          "type": "address"
        }
      ],
      "name": "setSaltVaultBullsAddress",
      "outputs": [],
      "stateMutability": "nonpayable",
      "type": "function"
    },
    {
      "inputs": [
        {
          "internalType": "address",
          "name": "Contract",
          "type": "address"
        },
        {
          "internalType": "bool",
          "name": "transferFeeExempt",
          "type": "bool"
        }
      ],
      "name": "setTransferFeeExempt",
      "outputs": [],
      "stateMutability": "nonpayable",
      "type": "function"
    },
    {
      "inputs": [
        {
          "internalType": "address",
          "name": "_underlyingToken",
          "type": "address"
        }
      ],
      "name": "setUnderlyingToken",
      "outputs": [],
      "stateMutability": "nonpayable",
      "type": "function"
    },
    {
      "inputs": [],
      "name": "symbol",
      "outputs": [
        {
          "internalType": "string",
          "name": "",
          "type": "string"
        }
      ],
      "stateMutability": "pure",
      "type": "function"
    },
    {
      "inputs": [],
      "name": "tokenActivated",
      "outputs": [
        {
          "internalType": "bool",
          "name": "",
          "type": "bool"
        }
      ],
      "stateMutability": "view",
      "type": "function"
    },
    {
      "inputs": [],
      "name": "totalSupply",
      "outputs": [
        {
          "internalType": "uint256",
          "name": "",
          "type": "uint256"
        }
      ],
      "stateMutability": "view",
      "type": "function"
    },
    {
      "inputs": [
        {
          "internalType": "address",
          "name": "recipient",
          "type": "address"
        },
        {
          "internalType": "uint256",
          "name": "amount",
          "type": "uint256"
        }
      ],
      "name": "transfer",
      "outputs": [
        {
          "internalType": "bool",
          "name": "",
          "type": "bool"
        }
      ],
      "stateMutability": "nonpayable",
      "type": "function"
    },
    {
      "inputs": [],
      "name": "transferFee",
      "outputs": [
        {
          "internalType": "uint256",
          "name": "",
          "type": "uint256"
        }
      ],
      "stateMutability": "view",
      "type": "function"
    },
    {
      "inputs": [
        {
          "internalType": "address",
          "name": "sender",
          "type": "address"
        },
        {
          "internalType": "address",
          "name": "recipient",
          "type": "address"
        },
        {
          "internalType": "uint256",
          "name": "amount",
          "type": "uint256"
        }
      ],
      "name": "transferFrom",
      "outputs": [
        {
          "internalType": "bool",
          "name": "",
          "type": "bool"
        }
      ],
      "stateMutability": "nonpayable",
      "type": "function"
    },
    {
      "inputs": [
        {
          "internalType": "address",
          "name": "newOwner",
          "type": "address"
        }
      ],
      "name": "transferOwnership",
      "outputs": [],
      "stateMutability": "nonpayable",
      "type": "function"
    },
    {
      "inputs": [],
      "name": "underlying",
      "outputs": [
        {
          "internalType": "contract IERC20",
          "name": "",
          "type": "address"
        }
      ],
      "stateMutability": "view",
      "type": "function"
    },
    {
      "inputs": [],
      "name": "underlyingBalance",
      "outputs": [
        {
          "internalType": "uint256",
          "name": "",
          "type": "uint256"
        }
      ],
      "stateMutability": "view",
      "type": "function"
    },
    {
      "inputs": [
        {
          "internalType": "contract IERC20",
          "name": "token",
          "type": "address"
        }
      ],
      "name": "withdrawNonStableToken",
      "outputs": [],
      "stateMutability": "nonpayable",
      "type": "function"
    },
    {
      "stateMutability": "payable",
      "type": "receive"
    }
  ],
  "bytecode": "0x608060405262017318600d5562017318600e5562017318600f556201731860105562015f9060115534801561003357600080fd5b5061003d3361004c565b6001805561ea6060135561009c565b600080546001600160a01b038381166001600160a01b0319831681178455604051919092169283917f8be0079c531659141344cd1fd0a4f28419497f9722a3daafe3b4186f6b6457e09190a35050565b612d4d80620000ac6000396000f3fe6080604052600436106103545760003560e01c80637dfcabd9116101c6578063cea9e192116100f7578063e8cacd7211610095578063efdcd9741161006f578063efdcd97414610a92578063f1e4bb6c14610ab2578063f2fde38b14610ad2578063f542c86714610af257600080fd5b8063e8cacd7214610a32578063ea991ce214610a52578063eaeaddee14610a7257600080fd5b8063d41977cd116100d1578063d41977cd14610996578063d90b03b7146109ac578063dd62ed3e146109cc578063e4849b3214610a1257600080fd5b8063cea9e19214610941578063cf8f0d0614610961578063d348b4091461098157600080fd5b8063aaffb0a511610164578063bee6348a1161013e578063bee6348a146108a7578063c2b1d734146108c8578063c4b5b06a146108e8578063ccc8d8771461090857600080fd5b8063aaffb0a514610851578063acb2ad6f14610871578063b3f006741461088757600080fd5b806391309118116101a057806391309118146107bf57806395d89b41146107ef578063a56c4ced1461081b578063a9059cbb1461083157600080fd5b80637dfcabd9146107615780638da5cb5b146107815780638fe672561461079f57600080fd5b806342966c68116102a057806369dc9ff31161023e5780636fcba377116102185780636fcba377146106c657806370a08231146106e6578063715018a61461071c578063721eaecd1461073157600080fd5b806369dc9ff31461063e5780636e7cf03f1461066e5780636f307dc3146106a657600080fd5b8063549b47291161027a578063549b47291461059f57806355445017146105cf57806359356c5c146105f057806367392e481461060557600080fd5b806342966c68146105325780634b719b47146105525780634d419abc1461057257600080fd5b80631aa5a82d1161030d5780632b14ca56116102e75780632b14ca56146104c05780632b4a6c51146104d6578063313ce567146104f65780633f5f18251461051257600080fd5b80631aa5a82d146104605780631f02a29c1461048057806323b872dd146104a057600080fd5b806306fdde0314610369578063095ea7b3146103b4578063113c2ba3146103e4578063132620fe1461041f57806313966db51461043557806318160ddd1461044b57600080fd5b366103645761036230610b12565b005b600080fd5b34801561037557600080fd5b5060408051808201909152601081526f29b0b63a102b30bab63a102a37b5b2b760811b60208201525b6040516103ab91906127a2565b60405180910390f35b3480156103c057600080fd5b506103d46103cf366004612805565b610bd8565b60405190151581526020016103ab565b3480156103f057600080fd5b506104116103ff366004612831565b60096020526000908152604090205481565b6040519081526020016103ab565b34801561042b57600080fd5b5061041160115481565b34801561044157600080fd5b50610411600d5481565b34801561045757600080fd5b50600354610411565b34801561046c57600080fd5b5061036261047b366004612831565b610c45565b34801561048c57600080fd5b5061041161049b366004612831565b610db7565b3480156104ac57600080fd5b506103d46104bb36600461284e565b610dd9565b3480156104cc57600080fd5b50610411600e5481565b3480156104e257600080fd5b506103626104f1366004612831565b610e80565b34801561050257600080fd5b50604051600681526020016103ab565b34801561051e57600080fd5b5061041161052d36600461288f565b610f03565b34801561053e57600080fd5b5061036261054d36600461288f565b610f30565b34801561055e57600080fd5b5061036261056d366004612987565b611003565b34801561057e57600080fd5b5061041161058d366004612831565b60076020526000908152604090205481565b3480156105ab57600080fd5b506103d46105ba366004612831565b60066020526000908152604090205460ff1681565b3480156105db57600080fd5b50600c546103d490600160a01b900460ff1681565b3480156105fc57600080fd5b50610411611156565b34801561061157600080fd5b506103d4610620366004612831565b6001600160a01b03166000908152600b602052604090205460ff1690565b34801561064a57600080fd5b506103d4610659366004612831565b600a6020526000908152604090205460ff1681565b34801561067a57600080fd5b50600c5461068e906001600160a01b031681565b6040516001600160a01b0390911681526020016103ab565b3480156106b257600080fd5b5060025461068e906001600160a01b031681565b3480156106d257600080fd5b506103626106e1366004612a42565b6111c8565b3480156106f257600080fd5b50610411610701366004612831565b6001600160a01b031660009081526004602052604090205490565b34801561072857600080fd5b50610362611272565b34801561073d57600080fd5b506103d461074c366004612831565b60086020526000908152604090205460ff1681565b34801561076d57600080fd5b5061036261077c366004612a82565b611286565b34801561078d57600080fd5b506000546001600160a01b031661068e565b3480156107ab57600080fd5b506104116107ba366004612831565b611318565b3480156107cb57600080fd5b506103d46107da366004612831565b600b6020526000908152604090205460ff1681565b3480156107fb57600080fd5b5060408051808201909152600381526214d59560ea1b602082015261039e565b34801561082757600080fd5b5061041160135481565b34801561083d57600080fd5b506103d461084c366004612805565b61146e565b34801561085d57600080fd5b5061036261086c366004612805565b61148e565b34801561087d57600080fd5b50610411600f5481565b34801561089357600080fd5b5060125461068e906001600160a01b031681565b3480156108b357600080fd5b50600c546103d490600160a81b900460ff1681565b3480156108d457600080fd5b506103626108e3366004612abb565b611523565b3480156108f457600080fd5b50610362610903366004612a82565b611626565b34801561091457600080fd5b506103d4610923366004612831565b6001600160a01b031660009081526006602052604090205460ff1690565b34801561094d57600080fd5b5061036261095c36600461288f565b611659565b34801561096d57600080fd5b5061036261097c366004612831565b6116f4565b34801561098d57600080fd5b50610411611736565b3480156109a257600080fd5b5061041160105481565b3480156109b857600080fd5b506103626109c7366004612abb565b611740565b3480156109d857600080fd5b506104116109e7366004612ad8565b6001600160a01b03918216600090815260056020908152604080832093909416825291909152205490565b348015610a1e57600080fd5b50610411610a2d36600461288f565b611851565b348015610a3e57600080fd5b50610362610a4d366004612a82565b611866565b348015610a5e57600080fd5b50610362610a6d366004612b06565b61192e565b348015610a7e57600080fd5b50610362610a8d366004612831565b6119a8565b348015610a9e57600080fd5b50610362610aad366004612831565b6119d1565b348015610abe57600080fd5b50610362610acd366004612831565b611a4d565b348015610ade57600080fd5b50610362610aed366004612831565b611b6e565b348015610afe57600080fd5b50610411610b0d366004612b4b565b611be4565b6001600160a01b0381166000908152600460205260409020546103e8811115610bd4576000610b3f611bf9565b9050610b4a82611c2e565b610b548383611c83565b6040518281527f8a1c945864c85a9dee42b8734075761f7a16095a8384ab751f2417c5767e227e9060200160405180910390a17f046aa811b2923fd55b4ca06375b4045117d4584c66fc40880a8ab8ee32d88ed181610bb1611bf9565b6003546040805193845260208401929092529082015260600160405180910390a1505b5050565b3360008181526005602090815260408083206001600160a01b038716808552925280832085905551919290917f8c5be1e5ebec7d5bd14f71427d1e84f3dd0314c0f7b2291e5b200ac8c7c3b92590610c339086815260200190565b60405180910390a35060015b92915050565b610c4d611d60565b6002546001600160a01b0390811690821603610cb05760405162461bcd60e51b815260206004820181905260248201527f43616e6e6f7420576974686472617720556e6465726c79696e6720417373657460448201526064015b60405180910390fd5b6001600160a01b038116610cd65760405162461bcd60e51b8152600401610ca790612b70565b6040516370a0823160e01b81523060048201526001600160a01b0382169063a9059cbb90339083906370a0823190602401602060405180830381865afa158015610d24573d6000803e3d6000fd5b505050506040513d601f19601f82011682018060405250810190610d489190612b96565b6040516001600160e01b031960e085901b1681526001600160a01b03909216600483015260248201526044016020604051808303816000875af1158015610d93573d6000803e3d6000fd5b505050506040513d601f19601f82011682018060405250810190610bd49190612baf565b6001600160a01b038116600090815260046020526040812054610c3f90611dba565b6000610de3611dcf565b6040805180820182526016815275496e73756666696369656e7420416c6c6f77616e636560501b6020808301919091526001600160a01b0387166000908152600582528381203382529091529190912054610e3f918490611e28565b6001600160a01b0385166000908152600560209081526040808320338452909152902055610e6e848484611e54565b9050610e7960018055565b9392505050565b610e88611d60565b6001600160a01b038116610eae5760405162461bcd60e51b8152600401610ca790612b70565b600280546001600160a01b0319166001600160a01b0383169081179091556040519081527f9280fa092f9e80f9befbee5157d2c0b8ea9876a99c0a5207433a5e4efe813b15906020015b60405180910390a150565b6000610f0d611dcf565b610f1630610b12565b610f208233612084565b9050610f2b60018055565b919050565b610f38611dcf565b33600090815260046020526040902054818110801590610f585750600081115b610f945760405162461bcd60e51b815260206004820152600d60248201526c5a65726f20486f6c64696e677360981b6044820152606401610ca7565b6000610f9e611bf9565b9050610fa983611c2e565b610fb33384611c83565b610fbc816121d6565b60408051338152602081018590527fcc16f5dbb4873280815c1ee09dbd06736cffcc184412cf7a71a0fdb75d397ca5910160405180910390a1505061100060018055565b50565b61100b611d60565b60005b82518110156111515762015f9082828151811061102d5761102d612bcc565b60200260200101511015801561105f5750620186a082828151811061105457611054612bcc565b602002602001015111155b6110995760405162461bcd60e51b815260206004820152600b60248201526a496e76616c69642066656560a81b6044820152606401610ca7565b8181815181106110ab576110ab612bcc565b6020026020010151600760008584815181106110c9576110c9612bcc565b60200260200101516001600160a01b03166001600160a01b031681526020019081526020016000208190555060016008600085848151811061110d5761110d612bcc565b6020908102919091018101516001600160a01b03168252810191909152604001600020805460ff19169115159190911790558061114981612bf8565b91505061100e565b505050565b6002546040516370a0823160e01b81523060048201526000916001600160a01b0316906370a0823190602401602060405180830381865afa15801561119f573d6000803e3d6000fd5b505050506040513d601f19601f820116820180604052508101906111c39190612b96565b905090565b6111d0611d60565b620173188410156111e057600080fd5b620173188310156111f057600080fd5b6201731882101561120057600080fd5b6201731881101561121057600080fd5b600d849055600f839055600e82905560108190556040805185815260208101859052908101839052606081018290527f747eaccb30a9769474f1620ae0dd833b1ffb89520dcac6833b33df942b7c0c499060800160405180910390a150505050565b61127a611d60565b6112846000612268565b565b61128e611d60565b6001600160a01b0382166112b45760405162461bcd60e51b8152600401610ca790612b70565b6001600160a01b038216600081815260066020908152604091829020805460ff19168515159081179091558251938452908301527fd0444b45a0ac5fd0ea9b910a05d75621679a6fa7c73922fe24c17c5824cd3ff391015b60405180910390a15050565b6001600160a01b03811660009081526008602052604081205460ff161561135557506001600160a01b031660009081526007602052604090205490565b600c5460405163246b9cf360e01b81526001600160a01b03848116600483015290911690600090829063246b9cf390602401602060405180830381865afa1580156113a4573d6000803e3d6000fd5b505050506040513d601f19601f820116820180604052508101906113c89190612b96565b9050806000036113de575062015f909392505050565b6101f48110156113f45750620173189392505050565b6103e881101561140a5750620174129392505050565b6109c481101561142057506201750c9392505050565b6113888110156114365750620176069392505050565b611d4c81101561144c5750620177009392505050565b6127108110156114625750620177fa9392505050565b50620178f49392505050565b6000611478611dcf565b611483338484611e54565b9050610c3f60018055565b336000908152600b602052604090205460ff1615156001146114f25760405162461bcd60e51b815260206004820152601860248201527f4e6f7420416e20417574686f72697a65642043616c6c657200000000000000006044820152606401610ca7565b6001600160a01b0382166000908152600960205260408120805483929061151a908490612c11565b90915550505050565b61152b611d60565b600c546001600160a01b03166000908152600b602052604090205460ff1661158f5760405162461bcd60e51b81526020600482015260176024820152766d757374207365742073616c745661756c7442756c6c7360481b6044820152606401610ca7565b6002546001600160a01b03166115b75760405162461bcd60e51b8152600401610ca790612c24565b6012546001600160a01b03166115df5760405162461bcd60e51b8152600401610ca790612c67565b600c805460ff60a01b1916600160a01b831515021790556040514381527f43f7deefc1f4e825772604a0bc01b8362eb1eef895e6bd4db39bfab68c1e94c890602001610ef8565b61162e611d60565b6001600160a01b03919091166000908152600b60205260409020805460ff1916911515919091179055565b611661611d60565b600a611671620186a06009612cab565b61167b9190612cc2565b8111156116bf5760405162461bcd60e51b8152602060048201526012602482015271496e76616c69642050657263656e7461676560701b6044820152606401610ca7565b60138190556040518181527fe91c6023755286bf3e349700ba6c7ec17636b08b007390b26d2e0e149b66c85d90602001610ef8565b6116fc611d60565b600c80546001600160a01b039092166001600160a01b0319909216821790556000908152600b60205260409020805460ff19166001179055565b60006111c3611bf9565b611748611d60565b600c546001600160a01b03166000908152600b602052604090205460ff166117ac5760405162461bcd60e51b81526020600482015260176024820152766d757374207365742073616c745661756c7442756c6c7360481b6044820152606401610ca7565b6002546001600160a01b03166117d45760405162461bcd60e51b8152600401610ca790612c24565b6012546001600160a01b03166117fc5760405162461bcd60e51b8152600401610ca790612c67565b600c805460ff60a81b1916600160a81b8315158102919091179182905560405160ff9190920416151581527f64f8c3a5b7a33da2ab28de4e739fc25fecb37dadaac9df12049ec3bbc8fd20ed90602001610ef8565b600061185b611dcf565b610f203383336122b8565b61186e611d60565b6001600160a01b0382166000908152600a602052604090205481151560ff9091161515036118d25760405162461bcd60e51b815260206004820152601160248201527015985b1d5948185b1c9958591e481cd95d607a1b6044820152606401610ca7565b6001600160a01b0382166000818152600a6020908152604091829020805460ff19168515159081179091558251938452908301527f48ecc5804384517c5752d692233964a86b36b97b08d38098b5d7f192023f9535910161130c565b611936611d60565b60005b825181101561115157816009600085848151811061195957611959612bcc565b60200260200101516001600160a01b03166001600160a01b0316815260200190815260200160002060008282546119909190612c11565b909155508190506119a081612bf8565b915050611939565b6119b0611d60565b6001600160a01b03166000908152600860205260409020805460ff19169055565b6119d9611d60565b6001600160a01b0381166119ff5760405162461bcd60e51b8152600401610ca790612b70565b601280546001600160a01b0319166001600160a01b0383169081179091556040519081527fffb40bfdfd246e95f543d08d9713c339f1d90fa9265e39b4f562f9011d7c919f90602001610ef8565b611a55611dcf565b611a5d611d60565b6001600160a01b038116611a835760405162461bcd60e51b8152600401610ca790612b70565b6001600160a01b038116600090815260046020526040902054611ad65760405162461bcd60e51b815260206004820152600b60248201526a16995c9bc8105b5bdd5b9d60aa1b6044820152606401610ca7565b6001600160a01b0381166000908152600660209081526040808320805460ff191660011790556004909152902054611b10908290816122b8565b506001600160a01b038116600081815260066020908152604091829020805460ff1916905590519182527f454fcc66032b4de006483c9f681cd97d7c4cc4c285b201a55fddc6faa2303e5e910160405180910390a161100060018055565b611b76611d60565b6001600160a01b038116611bdb5760405162461bcd60e51b815260206004820152602660248201527f4f776e61626c653a206e6577206f776e657220697320746865207a65726f206160448201526564647265737360d01b6064820152608401610ca7565b61100081612268565b6000611bee611dcf565b6114833384846122b8565b6000600354600014611c26576111c3600354611c20620f4240611c1a611156565b906124aa565b906124b6565b50620f424090565b6000620186a060135483611c429190612cab565b611c4c9190612cc2565b9050600081118015611c6857506012546001600160a01b031615155b15610bd457601254610bd4906001600160a01b0316826124c2565b6040805180820182526014815273496e73756666696369656e742042616c616e636560601b6020808301919091526001600160a01b038516600090815260049091529190912054611cd5918390611e28565b6001600160a01b038316600090815260046020908152604091829020929092558051808201909152600f81526e4e6567617469766520537570706c7960881b91810191909152600354611d29918390611e28565b6003556040518181526000906001600160a01b03841690600080516020612cf8833981519152906020015b60405180910390a35050565b6000546001600160a01b031633146112845760405162461bcd60e51b815260206004820181905260248201527f4f776e61626c653a2063616c6c6572206973206e6f7420746865206f776e65726044820152606401610ca7565b6000610c3f620f4240611c2084611c1a611bf9565b600260015403611e215760405162461bcd60e51b815260206004820152601f60248201527f5265656e7472616e637947756172643a207265656e7472616e742063616c6c006044820152606401610ca7565b6002600155565b60008184841115611e4c5760405162461bcd60e51b8152600401610ca791906127a2565b505050900390565b60006001600160a01b03831615801590611e7657506001600160a01b03841615155b611eb55760405162461bcd60e51b815260206004820152601060248201526f5472616e7366657220546f205a65726f60801b6044820152606401610ca7565b60008211611ef95760405162461bcd60e51b81526020600482015260116024820152705472616e7366657220416d74205a65726f60781b6044820152606401610ca7565b6000611f03611bf9565b90506000611f1086611318565b90506000611f25620186a0611c2087856124aa565b90506000611f33868361253a565b9050611f9b8660405180604001604052806014815260200173496e73756666696369656e742042616c616e636560601b815250600460008c6001600160a01b03166001600160a01b0316815260200190815260200160002054611e289092919063ffffffff16565b6001600160a01b03808a166000908152600460205260408082209390935590891681522054611fca9083612546565b6001600160a01b038816600090815260046020526040902055801561203257611ff281611c2e565b600354611fff908261253a565b6003556040518181526000906001600160a01b038a1690600080516020612cf88339815191529060200160405180910390a35b61203b846121d6565b866001600160a01b0316886001600160a01b0316600080516020612cf88339815191528460405161206e91815260200190565b60405180910390a3506001979650505050505050565b600c54600090600160a01b900460ff166120d65760405162461bcd60e51b8152602060048201526013602482015272151bdad95b88139bdd081058dd1a5d985d1959606a1b6044820152606401610ca7565b6002546040516370a0823160e01b81526001600160a01b03848116600483015260009216906370a0823190602401602060405180830381865afa158015612121573d6000803e3d6000fd5b505050506040513d601f19601f820116820180604052508101906121459190612b96565b90506000811180156121575750808411155b61219a5760405162461bcd60e51b8152602060048201526014602482015273496e73756666696369656e742042616c616e636560601b6044820152606401610ca7565b60006121a4611bf9565b905060006121b0611156565b905060006121bd87612552565b90506121cb8682848661267a565b979650505050505050565b60006121e0611bf9565b9050818110156122265760405162461bcd60e51b8152602060048201526011602482015270141c9a58d94810d85b9b9bdd0811985b1b607a1b6044820152606401610ca7565b6003546040805184815260208101849052908101919091527f046aa811b2923fd55b4ca06375b4045117d4584c66fc40880a8ab8ee32d88ed19060600161130c565b600080546001600160a01b038381166001600160a01b0319831681178455604051919092169283917f8be0079c531659141344cd1fd0a4f28419497f9722a3daafe3b4186f6b6457e09190a35050565b600080831180156122e157506001600160a01b0384166000908152600460205260409020548311155b6122ea57600080fd5b6001600160a01b0384161580159061230a57506001600160a01b03821615155b61231357600080fd5b600061231d611bf9565b9050600061232a86611318565b9050600061233f620186a0611c2088856124aa565b9050600061234c82611dba565b3360009081526006602052604090205490915060ff1661237f576000612372888461253a565b905061237d81611c2e565b505b6123898888611c83565b60025460405163a9059cbb60e01b81526001600160a01b038881166004830152602482018490529091169063a9059cbb906044016020604051808303816000875af11580156123dc573d6000803e3d6000fd5b505050506040513d601f19601f820116820180604052508101906124009190612baf565b61244c5760405162461bcd60e51b815260206004820152601b60248201527f556e6465726c79696e67205472616e73666572204661696c75726500000000006044820152606401610ca7565b612455846121d6565b604080516001600160a01b038a168152602081018990529081018290527ff3a670cd3af7d64b488926880889d08a8585a138ff455227af6737339a1ec2629060600160405180910390a1979650505050505050565b6000610e798284612cab565b6000610e798284612cc2565b6001600160a01b0382166000908152600460205260409020546124e59082612546565b6001600160a01b03831660009081526004602052604090205560035461250b9082612546565b6003556040518181526001600160a01b03831690600090600080516020612cf883398151915290602001611d54565b6000610e798284612ce4565b6000610e798284612c11565b60008061255d611156565b6002546040516323b872dd60e01b8152336004820152306024820152604481018690529192506001600160a01b0316906323b872dd906064016020604051808303816000875af11580156125b5573d6000803e3d6000fd5b505050506040513d601f19601f820116820180604052508101906125d99190612baf565b61261d5760405162461bcd60e51b81526020600482015260156024820152744661696c757265205472616e736665722046726f6d60581b6044820152606401610ca7565b6000612627611156565b90508181116126685760405162461bcd60e51b815260206004820152600d60248201526c16995c9bc8149958d95a5d9959609a1b6044820152606401610ca7565b6126728282612ce4565b949350505050565b6000806003546000146126a5576126a084611c20876003546124aa90919063ffffffff16565b6126a7565b845b905060006126b487611318565b905060006126c9620186a0611c2085856124aa565b9050600081116127095760405162461bcd60e51b815260206004820152600b60248201526a16995c9bc8105b5bdd5b9d60aa1b6044820152606401610ca7565b61271388826124c2565b6001600160a01b03881660009081526006602052604090205460ff1661274c57600061273f848361253a565b905061274a81611c2e565b505b612755856121d6565b604080516001600160a01b038a168152602081018390527f30385c845b448a36257a6a1716e6ad2e1bc2cbe333cde1e69fe849ad6511adfe910160405180910390a1979650505050505050565b600060208083528351808285015260005b818110156127cf578581018301518582016040015282016127b3565b506000604082860101526040601f19601f8301168501019250505092915050565b6001600160a01b038116811461100057600080fd5b6000806040838503121561281857600080fd5b8235612823816127f0565b946020939093013593505050565b60006020828403121561284357600080fd5b8135610e79816127f0565b60008060006060848603121561286357600080fd5b833561286e816127f0565b9250602084013561287e816127f0565b929592945050506040919091013590565b6000602082840312156128a157600080fd5b5035919050565b634e487b7160e01b600052604160045260246000fd5b604051601f8201601f1916810167ffffffffffffffff811182821017156128e7576128e76128a8565b604052919050565b600067ffffffffffffffff821115612909576129096128a8565b5060051b60200190565b600082601f83011261292457600080fd5b81356020612939612934836128ef565b6128be565b82815260059290921b8401810191818101908684111561295857600080fd5b8286015b8481101561297c57803561296f816127f0565b835291830191830161295c565b509695505050505050565b6000806040838503121561299a57600080fd5b823567ffffffffffffffff808211156129b257600080fd5b6129be86838701612913565b93506020915081850135818111156129d557600080fd5b85019050601f810186136129e857600080fd5b80356129f6612934826128ef565b81815260059190911b82018301908381019088831115612a1557600080fd5b928401925b82841015612a3357833582529284019290840190612a1a565b80955050505050509250929050565b60008060008060808587031215612a5857600080fd5b5050823594602084013594506040840135936060013592509050565b801515811461100057600080fd5b60008060408385031215612a9557600080fd5b8235612aa0816127f0565b91506020830135612ab081612a74565b809150509250929050565b600060208284031215612acd57600080fd5b8135610e7981612a74565b60008060408385031215612aeb57600080fd5b8235612af6816127f0565b91506020830135612ab0816127f0565b60008060408385031215612b1957600080fd5b823567ffffffffffffffff811115612b3057600080fd5b612b3c85828601612913565b95602094909401359450505050565b60008060408385031215612b5e57600080fd5b823591506020830135612ab0816127f0565b6020808252600c908201526b5a65726f204164647265737360a01b604082015260600190565b600060208284031215612ba857600080fd5b5051919050565b600060208284031215612bc157600080fd5b8151610e7981612a74565b634e487b7160e01b600052603260045260246000fd5b634e487b7160e01b600052601160045260246000fd5b600060018201612c0a57612c0a612be2565b5060010190565b80820180821115610c3f57610c3f612be2565b60208082526023908201527f4d757374207365742074686520756e6465726c79696e6720746f6b656e2066696040820152621c9cdd60ea1b606082015260800190565b60208082526024908201527f4d757374207365742074686520666565526563656976657220746f6b656e20666040820152631a5c9cdd60e21b606082015260800190565b8082028115828204841417610c3f57610c3f612be2565b600082612cdf57634e487b7160e01b600052601260045260246000fd5b500490565b81810381811115610c3f57610c3f612be256feddf252ad1be2c89b69c2b068fc378daa952ba7f163c4a11628f55a4df523b3efa2646970667358221220499fabd837010018089c6b36d78d18d97d091529ae050348315ed9182ec41aec64736f6c63430008140033",
  "linkReferences": {},
  "deployedLinkReferences": {}
}