{"contracts/facets/VaultCouncilFacet.sol":{"VaultCouncilFacet":{"abi":[{"inputs":[{"internalType":"address","name":"token","type":"address"}],"name":"SafeERC20FailedOperation","type":"error"},{"inputs":[{"internalType":"uint256","name":"profitAmount","type":"uint256"}],"name":"depositRewardsForVaultCouncil","outputs":[],"stateMutability":"nonpayable","type":"function"},{"inputs":[{"internalType":"uint256","name":"amount","type":"uint256"}],"name":"distributeProfitsToCouncil","outputs":[],"stateMutability":"nonpayable","type":"function"}],"evm":{"bytecode":{"linkReferences":{},"object":"608060405234801561001057600080fd5b50610643806100206000396000f3fe608060405234801561001057600080fd5b50600436106100365760003560e01c8063a39f5b801461003b578063e83a208414610050575b600080fd5b61004e6100493660046104d2565b610063565b005b61004e61005e3660046104d2565b61015f565b61006b6101ae565b603d5460009061007b9083610501565b905060005b603d5481101561011a57600080603d0182815481106100a1576100a1610523565b6000918252602080832090910154601e546001600160a01b03908116845260588352604080852083865284528085205490911680855260079093528320805491945091928692916100f3908490610539565b909155506101039050848661054c565b9450505080806101129061055f565b915050610080565b5081156101565781600060080160008282546101369190610539565b909155505060408054839190600090610150908490610539565b90915550505b50506000600b55565b600054610177906001600160a01b031633308461023c565b806000600b01600082825461018c9190610539565b9091555050604080548291906000906101a6908490610539565b909155505050565b7fc8fcad8db84d3cc18b4c41d551ea0ee66dd599cde068d998e57d5e09332c131c600401546001600160a01b0316331461023a5760405162461bcd60e51b815260206004820152602260248201527f4c69624469616d6f6e643a204d75737420626520636f6e7472616374206f776e60448201526132b960f11b60648201526084015b60405180910390fd5b565b604080516001600160a01b0385811660248301528416604482015260648082018490528251808303909101815260849091019091526020810180516001600160e01b03166323b872dd60e01b17905261029690859061029c565b50505050565b60006102b16001600160a01b03841683610304565b905080516000141580156102d65750808060200190518101906102d49190610578565b155b156102ff57604051635274afe760e01b81526001600160a01b0384166004820152602401610231565b505050565b606061034683836040518060400160405280601e81526020017f416464726573733a206c6f772d6c6576656c2063616c6c206661696c6564000081525061034f565b90505b92915050565b606061035e8484600085610368565b90505b9392505050565b6060824710156103c95760405162461bcd60e51b815260206004820152602660248201527f416464726573733a20696e73756666696369656e742062616c616e636520666f6044820152651c8818d85b1b60d21b6064820152608401610231565b6001600160a01b0385163b6104205760405162461bcd60e51b815260206004820152601d60248201527f416464726573733a2063616c6c20746f206e6f6e2d636f6e74726163740000006044820152606401610231565b600080866001600160a01b0316858760405161043c91906105be565b60006040518083038185875af1925050503d8060008114610479576040519150601f19603f3d011682016040523d82523d6000602084013e61047e565b606091505b509150915061048e828286610499565b979650505050505050565b606083156104a8575081610361565b8251156104b85782518084602001fd5b8160405162461bcd60e51b815260040161023191906105da565b6000602082840312156104e457600080fd5b5035919050565b634e487b7160e01b600052601160045260246000fd5b60008261051e57634e487b7160e01b600052601260045260246000fd5b500490565b634e487b7160e01b600052603260045260246000fd5b80820180821115610349576103496104eb565b81810381811115610349576103496104eb565b600060018201610571576105716104eb565b5060010190565b60006020828403121561058a57600080fd5b8151801515811461036157600080fd5b60005b838110156105b557818101518382015260200161059d565b50506000910152565b600082516105d081846020870161059a565b9190910192915050565b60208152600082518060208401526105f981604085016020870161059a565b601f01601f1916919091016040019291505056fea264697066735822122041af0e0e19cc69da1db096e9983e03d3d75ec234f5c69c6fb1bd61bbf227d01464736f6c63430008140033","opcodes":"PUSH1 0x80 PUSH1 0x40 MSTORE CALLVALUE DUP1 ISZERO PUSH2 0x10 JUMPI PUSH1 0x0 DUP1 REVERT JUMPDEST POP PUSH2 0x643 DUP1 PUSH2 0x20 PUSH1 0x0 CODECOPY PUSH1 0x0 RETURN INVALID PUSH1 0x80 PUSH1 0x40 MSTORE CALLVALUE DUP1 ISZERO PUSH2 0x10 JUMPI PUSH1 0x0 DUP1 REVERT JUMPDEST POP PUSH1 0x4 CALLDATASIZE LT PUSH2 0x36 JUMPI PUSH1 0x0 CALLDATALOAD PUSH1 0xE0 SHR DUP1 PUSH4 0xA39F5B80 EQ PUSH2 0x3B JUMPI DUP1 PUSH4 0xE83A2084 EQ PUSH2 0x50 JUMPI JUMPDEST PUSH1 0x0 DUP1 REVERT JUMPDEST PUSH2 0x4E PUSH2 0x49 CALLDATASIZE PUSH1 0x4 PUSH2 0x4D2 JUMP JUMPDEST PUSH2 0x63 JUMP JUMPDEST STOP JUMPDEST PUSH2 0x4E PUSH2 0x5E CALLDATASIZE PUSH1 0x4 PUSH2 0x4D2 JUMP JUMPDEST PUSH2 0x15F JUMP JUMPDEST PUSH2 0x6B PUSH2 0x1AE JUMP JUMPDEST PUSH1 0x3D SLOAD PUSH1 0x0 SWAP1 PUSH2 0x7B SWAP1 DUP4 PUSH2 0x501 JUMP JUMPDEST SWAP1 POP PUSH1 0x0 JUMPDEST PUSH1 0x3D SLOAD DUP2 LT ISZERO PUSH2 0x11A JUMPI PUSH1 0x0 DUP1 PUSH1 0x3D ADD DUP3 DUP2 SLOAD DUP2 LT PUSH2 0xA1 JUMPI PUSH2 0xA1 PUSH2 0x523 JUMP JUMPDEST PUSH1 0x0 SWAP2 DUP3 MSTORE PUSH1 0x20 DUP1 DUP4 KECCAK256 SWAP1 SWAP2 ADD SLOAD PUSH1 0x1E SLOAD PUSH1 0x1 PUSH1 0x1 PUSH1 0xA0 SHL SUB SWAP1 DUP2 AND DUP5 MSTORE PUSH1 0x58 DUP4 MSTORE PUSH1 0x40 DUP1 DUP6 KECCAK256 DUP4 DUP7 MSTORE DUP5 MSTORE DUP1 DUP6 KECCAK256 SLOAD SWAP1 SWAP2 AND DUP1 DUP6 MSTORE PUSH1 0x7 SWAP1 SWAP4 MSTORE DUP4 KECCAK256 DUP1 SLOAD SWAP2 SWAP5 POP SWAP2 SWAP3 DUP7 SWAP3 SWAP2 PUSH2 0xF3 SWAP1 DUP5 SWAP1 PUSH2 0x539 JUMP JUMPDEST SWAP1 SWAP2 SSTORE POP PUSH2 0x103 SWAP1 POP DUP5 DUP7 PUSH2 0x54C JUMP JUMPDEST SWAP5 POP POP POP DUP1 DUP1 PUSH2 0x112 SWAP1 PUSH2 0x55F JUMP JUMPDEST SWAP2 POP POP PUSH2 0x80 JUMP JUMPDEST POP DUP2 ISZERO PUSH2 0x156 JUMPI DUP2 PUSH1 0x0 PUSH1 0x8 ADD PUSH1 0x0 DUP3 DUP3 SLOAD PUSH2 0x136 SWAP2 SWAP1 PUSH2 0x539 JUMP JUMPDEST SWAP1 SWAP2 SSTORE POP POP PUSH1 0x40 DUP1 SLOAD DUP4 SWAP2 SWAP1 PUSH1 0x0 SWAP1 PUSH2 0x150 SWAP1 DUP5 SWAP1 PUSH2 0x539 JUMP JUMPDEST SWAP1 SWAP2 SSTORE POP POP JUMPDEST POP POP PUSH1 0x0 PUSH1 0xB SSTORE JUMP JUMPDEST PUSH1 0x0 SLOAD PUSH2 0x177 SWAP1 PUSH1 0x1 PUSH1 0x1 PUSH1 0xA0 SHL SUB AND CALLER ADDRESS DUP5 PUSH2 0x23C JUMP JUMPDEST DUP1 PUSH1 0x0 PUSH1 0xB ADD PUSH1 0x0 DUP3 DUP3 SLOAD PUSH2 0x18C SWAP2 SWAP1 PUSH2 0x539 JUMP JUMPDEST SWAP1 SWAP2 SSTORE POP POP PUSH1 0x40 DUP1 SLOAD DUP3 SWAP2 SWAP1 PUSH1 0x0 SWAP1 PUSH2 0x1A6 SWAP1 DUP5 SWAP1 PUSH2 0x539 JUMP JUMPDEST SWAP1 SWAP2 SSTORE POP POP POP JUMP JUMPDEST PUSH32 0xC8FCAD8DB84D3CC18B4C41D551EA0EE66DD599CDE068D998E57D5E09332C131C PUSH1 0x4 ADD SLOAD PUSH1 0x1 PUSH1 0x1 PUSH1 0xA0 SHL SUB AND CALLER EQ PUSH2 0x23A JUMPI PUSH1 0x40 MLOAD PUSH3 0x461BCD PUSH1 0xE5 SHL DUP2 MSTORE PUSH1 0x20 PUSH1 0x4 DUP3 ADD MSTORE PUSH1 0x22 PUSH1 0x24 DUP3 ADD MSTORE PUSH32 0x4C69624469616D6F6E643A204D75737420626520636F6E7472616374206F776E PUSH1 0x44 DUP3 ADD MSTORE PUSH2 0x32B9 PUSH1 0xF1 SHL PUSH1 0x64 DUP3 ADD MSTORE PUSH1 0x84 ADD JUMPDEST PUSH1 0x40 MLOAD DUP1 SWAP2 SUB SWAP1 REVERT JUMPDEST JUMP JUMPDEST PUSH1 0x40 DUP1 MLOAD PUSH1 0x1 PUSH1 0x1 PUSH1 0xA0 SHL SUB DUP6 DUP2 AND PUSH1 0x24 DUP4 ADD MSTORE DUP5 AND PUSH1 0x44 DUP3 ADD MSTORE PUSH1 0x64 DUP1 DUP3 ADD DUP5 SWAP1 MSTORE DUP3 MLOAD DUP1 DUP4 SUB SWAP1 SWAP2 ADD DUP2 MSTORE PUSH1 0x84 SWAP1 SWAP2 ADD SWAP1 SWAP2 MSTORE PUSH1 0x20 DUP2 ADD DUP1 MLOAD PUSH1 0x1 PUSH1 0x1 PUSH1 0xE0 SHL SUB AND PUSH4 0x23B872DD PUSH1 0xE0 SHL OR SWAP1 MSTORE PUSH2 0x296 SWAP1 DUP6 SWAP1 PUSH2 0x29C JUMP JUMPDEST POP POP POP POP JUMP JUMPDEST PUSH1 0x0 PUSH2 0x2B1 PUSH1 0x1 PUSH1 0x1 PUSH1 0xA0 SHL SUB DUP5 AND DUP4 PUSH2 0x304 JUMP JUMPDEST SWAP1 POP DUP1 MLOAD PUSH1 0x0 EQ ISZERO DUP1 ISZERO PUSH2 0x2D6 JUMPI POP DUP1 DUP1 PUSH1 0x20 ADD SWAP1 MLOAD DUP2 ADD SWAP1 PUSH2 0x2D4 SWAP2 SWAP1 PUSH2 0x578 JUMP JUMPDEST ISZERO JUMPDEST ISZERO PUSH2 0x2FF JUMPI PUSH1 0x40 MLOAD PUSH4 0x5274AFE7 PUSH1 0xE0 SHL DUP2 MSTORE PUSH1 0x1 PUSH1 0x1 PUSH1 0xA0 SHL SUB DUP5 AND PUSH1 0x4 DUP3 ADD MSTORE PUSH1 0x24 ADD PUSH2 0x231 JUMP JUMPDEST POP POP POP JUMP JUMPDEST PUSH1 0x60 PUSH2 0x346 DUP4 DUP4 PUSH1 0x40 MLOAD DUP1 PUSH1 0x40 ADD PUSH1 0x40 MSTORE DUP1 PUSH1 0x1E DUP2 MSTORE PUSH1 0x20 ADD PUSH32 0x416464726573733A206C6F772D6C6576656C2063616C6C206661696C65640000 DUP2 MSTORE POP PUSH2 0x34F JUMP JUMPDEST SWAP1 POP JUMPDEST SWAP3 SWAP2 POP POP JUMP JUMPDEST PUSH1 0x60 PUSH2 0x35E DUP5 DUP5 PUSH1 0x0 DUP6 PUSH2 0x368 JUMP JUMPDEST SWAP1 POP JUMPDEST SWAP4 SWAP3 POP POP POP JUMP JUMPDEST PUSH1 0x60 DUP3 SELFBALANCE LT ISZERO PUSH2 0x3C9 JUMPI PUSH1 0x40 MLOAD PUSH3 0x461BCD PUSH1 0xE5 SHL DUP2 MSTORE PUSH1 0x20 PUSH1 0x4 DUP3 ADD MSTORE PUSH1 0x26 PUSH1 0x24 DUP3 ADD MSTORE PUSH32 0x416464726573733A20696E73756666696369656E742062616C616E636520666F PUSH1 0x44 DUP3 ADD MSTORE PUSH6 0x1C8818D85B1B PUSH1 0xD2 SHL PUSH1 0x64 DUP3 ADD MSTORE PUSH1 0x84 ADD PUSH2 0x231 JUMP JUMPDEST PUSH1 0x1 PUSH1 0x1 PUSH1 0xA0 SHL SUB DUP6 AND EXTCODESIZE PUSH2 0x420 JUMPI PUSH1 0x40 MLOAD PUSH3 0x461BCD PUSH1 0xE5 SHL DUP2 MSTORE PUSH1 0x20 PUSH1 0x4 DUP3 ADD MSTORE PUSH1 0x1D PUSH1 0x24 DUP3 ADD MSTORE PUSH32 0x416464726573733A2063616C6C20746F206E6F6E2D636F6E7472616374000000 PUSH1 0x44 DUP3 ADD MSTORE PUSH1 0x64 ADD PUSH2 0x231 JUMP JUMPDEST PUSH1 0x0 DUP1 DUP7 PUSH1 0x1 PUSH1 0x1 PUSH1 0xA0 SHL SUB AND DUP6 DUP8 PUSH1 0x40 MLOAD PUSH2 0x43C SWAP2 SWAP1 PUSH2 0x5BE JUMP JUMPDEST PUSH1 0x0 PUSH1 0x40 MLOAD DUP1 DUP4 SUB DUP2 DUP6 DUP8 GAS CALL SWAP3 POP POP POP RETURNDATASIZE DUP1 PUSH1 0x0 DUP2 EQ PUSH2 0x479 JUMPI PUSH1 0x40 MLOAD SWAP2 POP PUSH1 0x1F NOT PUSH1 0x3F RETURNDATASIZE ADD AND DUP3 ADD PUSH1 0x40 MSTORE RETURNDATASIZE DUP3 MSTORE RETURNDATASIZE PUSH1 0x0 PUSH1 0x20 DUP5 ADD RETURNDATACOPY PUSH2 0x47E JUMP JUMPDEST PUSH1 0x60 SWAP2 POP JUMPDEST POP SWAP2 POP SWAP2 POP PUSH2 0x48E DUP3 DUP3 DUP7 PUSH2 0x499 JUMP JUMPDEST SWAP8 SWAP7 POP POP POP POP POP POP POP JUMP JUMPDEST PUSH1 0x60 DUP4 ISZERO PUSH2 0x4A8 JUMPI POP DUP2 PUSH2 0x361 JUMP JUMPDEST DUP3 MLOAD ISZERO PUSH2 0x4B8 JUMPI DUP3 MLOAD DUP1 DUP5 PUSH1 0x20 ADD REVERT JUMPDEST DUP2 PUSH1 0x40 MLOAD PUSH3 0x461BCD PUSH1 0xE5 SHL DUP2 MSTORE PUSH1 0x4 ADD PUSH2 0x231 SWAP2 SWAP1 PUSH2 0x5DA JUMP JUMPDEST PUSH1 0x0 PUSH1 0x20 DUP3 DUP5 SUB SLT ISZERO PUSH2 0x4E4 JUMPI PUSH1 0x0 DUP1 REVERT JUMPDEST POP CALLDATALOAD SWAP2 SWAP1 POP JUMP JUMPDEST PUSH4 0x4E487B71 PUSH1 0xE0 SHL PUSH1 0x0 MSTORE PUSH1 0x11 PUSH1 0x4 MSTORE PUSH1 0x24 PUSH1 0x0 REVERT JUMPDEST PUSH1 0x0 DUP3 PUSH2 0x51E JUMPI PUSH4 0x4E487B71 PUSH1 0xE0 SHL PUSH1 0x0 MSTORE PUSH1 0x12 PUSH1 0x4 MSTORE PUSH1 0x24 PUSH1 0x0 REVERT JUMPDEST POP DIV SWAP1 JUMP JUMPDEST PUSH4 0x4E487B71 PUSH1 0xE0 SHL PUSH1 0x0 MSTORE PUSH1 0x32 PUSH1 0x4 MSTORE PUSH1 0x24 PUSH1 0x0 REVERT JUMPDEST DUP1 DUP3 ADD DUP1 DUP3 GT ISZERO PUSH2 0x349 JUMPI PUSH2 0x349 PUSH2 0x4EB JUMP JUMPDEST DUP2 DUP2 SUB DUP2 DUP2 GT ISZERO PUSH2 0x349 JUMPI PUSH2 0x349 PUSH2 0x4EB JUMP JUMPDEST PUSH1 0x0 PUSH1 0x1 DUP3 ADD PUSH2 0x571 JUMPI PUSH2 0x571 PUSH2 0x4EB JUMP JUMPDEST POP PUSH1 0x1 ADD SWAP1 JUMP JUMPDEST PUSH1 0x0 PUSH1 0x20 DUP3 DUP5 SUB SLT ISZERO PUSH2 0x58A JUMPI PUSH1 0x0 DUP1 REVERT JUMPDEST DUP2 MLOAD DUP1 ISZERO ISZERO DUP2 EQ PUSH2 0x361 JUMPI PUSH1 0x0 DUP1 REVERT JUMPDEST PUSH1 0x0 JUMPDEST DUP4 DUP2 LT ISZERO PUSH2 0x5B5 JUMPI DUP2 DUP2 ADD MLOAD DUP4 DUP3 ADD MSTORE PUSH1 0x20 ADD PUSH2 0x59D JUMP JUMPDEST POP POP PUSH1 0x0 SWAP2 ADD MSTORE JUMP JUMPDEST PUSH1 0x0 DUP3 MLOAD PUSH2 0x5D0 DUP2 DUP5 PUSH1 0x20 DUP8 ADD PUSH2 0x59A JUMP JUMPDEST SWAP2 SWAP1 SWAP2 ADD SWAP3 SWAP2 POP POP JUMP JUMPDEST PUSH1 0x20 DUP2 MSTORE PUSH1 0x0 DUP3 MLOAD DUP1 PUSH1 0x20 DUP5 ADD MSTORE PUSH2 0x5F9 DUP2 PUSH1 0x40 DUP6 ADD PUSH1 0x20 DUP8 ADD PUSH2 0x59A JUMP JUMPDEST PUSH1 0x1F ADD PUSH1 0x1F NOT AND SWAP2 SWAP1 SWAP2 ADD PUSH1 0x40 ADD SWAP3 SWAP2 POP POP JUMP INVALID LOG2 PUSH5 0x6970667358 0x22 SLT KECCAK256 COINBASE 0xAF 0xE 0xE NOT 0xCC PUSH10 0xDA1DB096E9983E03D3D7 0x5E 0xC2 CALLVALUE CREATE2 0xC6 SWAP13 PUSH16 0xB1BD61BBF227D01464736F6C63430008 EQ STOP CALLER "},"methodIdentifiers":{"depositRewardsForVaultCouncil(uint256)":"e83a2084","distributeProfitsToCouncil(uint256)":"a39f5b80"}}}}}