{"contracts/facets/AdminSetterFacet.sol":{"AdminSetterFacet":{"abi":[{"inputs":[{"internalType":"address","name":"_usdcTokenContract","type":"address"},{"internalType":"address","name":"_coreTeamWallet","type":"address"},{"internalType":"address","name":"_royaltiesWallet","type":"address"},{"internalType":"address","name":"_procurementWallet","type":"address"},{"internalType":"address","name":"_gemTokenBurnWallet","type":"address"}],"name":"setAddresses","outputs":[],"stateMutability":"nonpayable","type":"function"},{"inputs":[{"internalType":"address","name":"_address","type":"address"},{"internalType":"bool","name":"authorized","type":"bool"}],"name":"setAuthorizeAdminForGemTokenFacet","outputs":[],"stateMutability":"nonpayable","type":"function"},{"inputs":[{"internalType":"address","name":"_externalContract","type":"address"},{"internalType":"bool","name":"authorized","type":"bool"}],"name":"setAuthorizeExternalContractsForERC721Facet","outputs":[],"stateMutability":"nonpayable","type":"function"}],"evm":{"bytecode":{"linkReferences":{},"object":"608060405234801561001057600080fd5b506102ce806100206000396000f3fe608060405234801561001057600080fd5b50600436106100415760003560e01c80635dd68acd14610046578063e3a723da1461005b578063f4606d211461006e575b600080fd5b6100596100543660046101f7565b610081565b005b61005961006936600461025c565b6100e8565b61005961007c36600461025c565b61011b565b61008961014e565b600080546001600160a01b03199081166001600160a01b03978816179091556002805482169587169590951790945560038054851693861693909317909255600480548416918516919091179055600580549092169216919091179055565b6100f061014e565b6001600160a01b03919091166000908152603160205260409020805460ff1916911515919091179055565b61012361014e565b6001600160a01b03919091166000908152605260205260409020805460ff1916911515919091179055565b7fc8fcad8db84d3cc18b4c41d551ea0ee66dd599cde068d998e57d5e09332c131c600401546001600160a01b031633146101d95760405162461bcd60e51b815260206004820152602260248201527f4c69624469616d6f6e643a204d75737420626520636f6e7472616374206f776e60448201526132b960f11b606482015260840160405180910390fd5b565b80356001600160a01b03811681146101f257600080fd5b919050565b600080600080600060a0868803121561020f57600080fd5b610218866101db565b9450610226602087016101db565b9350610234604087016101db565b9250610242606087016101db565b9150610250608087016101db565b90509295509295909350565b6000806040838503121561026f57600080fd5b610278836101db565b91506020830135801515811461028d57600080fd5b80915050925092905056fea26469706673582212204b9e456e4eb899b7cd40576a9edbe2666dce6a358abfae26e699e904bd1de98564736f6c63430008140033","opcodes":"PUSH1 0x80 PUSH1 0x40 MSTORE CALLVALUE DUP1 ISZERO PUSH2 0x10 JUMPI PUSH1 0x0 DUP1 REVERT JUMPDEST POP PUSH2 0x2CE DUP1 PUSH2 0x20 PUSH1 0x0 CODECOPY PUSH1 0x0 RETURN INVALID PUSH1 0x80 PUSH1 0x40 MSTORE CALLVALUE DUP1 ISZERO PUSH2 0x10 JUMPI PUSH1 0x0 DUP1 REVERT JUMPDEST POP PUSH1 0x4 CALLDATASIZE LT PUSH2 0x41 JUMPI PUSH1 0x0 CALLDATALOAD PUSH1 0xE0 SHR DUP1 PUSH4 0x5DD68ACD EQ PUSH2 0x46 JUMPI DUP1 PUSH4 0xE3A723DA EQ PUSH2 0x5B JUMPI DUP1 PUSH4 0xF4606D21 EQ PUSH2 0x6E JUMPI JUMPDEST PUSH1 0x0 DUP1 REVERT JUMPDEST PUSH2 0x59 PUSH2 0x54 CALLDATASIZE PUSH1 0x4 PUSH2 0x1F7 JUMP JUMPDEST PUSH2 0x81 JUMP JUMPDEST STOP JUMPDEST PUSH2 0x59 PUSH2 0x69 CALLDATASIZE PUSH1 0x4 PUSH2 0x25C JUMP JUMPDEST PUSH2 0xE8 JUMP JUMPDEST PUSH2 0x59 PUSH2 0x7C CALLDATASIZE PUSH1 0x4 PUSH2 0x25C JUMP JUMPDEST PUSH2 0x11B JUMP JUMPDEST PUSH2 0x89 PUSH2 0x14E JUMP JUMPDEST PUSH1 0x0 DUP1 SLOAD PUSH1 0x1 PUSH1 0x1 PUSH1 0xA0 SHL SUB NOT SWAP1 DUP2 AND PUSH1 0x1 PUSH1 0x1 PUSH1 0xA0 SHL SUB SWAP8 DUP9 AND OR SWAP1 SWAP2 SSTORE PUSH1 0x2 DUP1 SLOAD DUP3 AND SWAP6 DUP8 AND SWAP6 SWAP1 SWAP6 OR SWAP1 SWAP5 SSTORE PUSH1 0x3 DUP1 SLOAD DUP6 AND SWAP4 DUP7 AND SWAP4 SWAP1 SWAP4 OR SWAP1 SWAP3 SSTORE PUSH1 0x4 DUP1 SLOAD DUP5 AND SWAP2 DUP6 AND SWAP2 SWAP1 SWAP2 OR SWAP1 SSTORE PUSH1 0x5 DUP1 SLOAD SWAP1 SWAP3 AND SWAP3 AND SWAP2 SWAP1 SWAP2 OR SWAP1 SSTORE JUMP JUMPDEST PUSH2 0xF0 PUSH2 0x14E JUMP JUMPDEST PUSH1 0x1 PUSH1 0x1 PUSH1 0xA0 SHL SUB SWAP2 SWAP1 SWAP2 AND PUSH1 0x0 SWAP1 DUP2 MSTORE PUSH1 0x31 PUSH1 0x20 MSTORE PUSH1 0x40 SWAP1 KECCAK256 DUP1 SLOAD PUSH1 0xFF NOT AND SWAP2 ISZERO ISZERO SWAP2 SWAP1 SWAP2 OR SWAP1 SSTORE JUMP JUMPDEST PUSH2 0x123 PUSH2 0x14E JUMP JUMPDEST PUSH1 0x1 PUSH1 0x1 PUSH1 0xA0 SHL SUB SWAP2 SWAP1 SWAP2 AND PUSH1 0x0 SWAP1 DUP2 MSTORE PUSH1 0x52 PUSH1 0x20 MSTORE PUSH1 0x40 SWAP1 KECCAK256 DUP1 SLOAD PUSH1 0xFF NOT AND SWAP2 ISZERO ISZERO SWAP2 SWAP1 SWAP2 OR SWAP1 SSTORE JUMP JUMPDEST PUSH32 0xC8FCAD8DB84D3CC18B4C41D551EA0EE66DD599CDE068D998E57D5E09332C131C PUSH1 0x4 ADD SLOAD PUSH1 0x1 PUSH1 0x1 PUSH1 0xA0 SHL SUB AND CALLER EQ PUSH2 0x1D9 JUMPI PUSH1 0x40 MLOAD PUSH3 0x461BCD PUSH1 0xE5 SHL DUP2 MSTORE PUSH1 0x20 PUSH1 0x4 DUP3 ADD MSTORE PUSH1 0x22 PUSH1 0x24 DUP3 ADD MSTORE PUSH32 0x4C69624469616D6F6E643A204D75737420626520636F6E7472616374206F776E PUSH1 0x44 DUP3 ADD MSTORE PUSH2 0x32B9 PUSH1 0xF1 SHL PUSH1 0x64 DUP3 ADD MSTORE PUSH1 0x84 ADD PUSH1 0x40 MLOAD DUP1 SWAP2 SUB SWAP1 REVERT JUMPDEST JUMP JUMPDEST DUP1 CALLDATALOAD PUSH1 0x1 PUSH1 0x1 PUSH1 0xA0 SHL SUB DUP2 AND DUP2 EQ PUSH2 0x1F2 JUMPI PUSH1 0x0 DUP1 REVERT JUMPDEST SWAP2 SWAP1 POP JUMP JUMPDEST PUSH1 0x0 DUP1 PUSH1 0x0 DUP1 PUSH1 0x0 PUSH1 0xA0 DUP7 DUP9 SUB SLT ISZERO PUSH2 0x20F JUMPI PUSH1 0x0 DUP1 REVERT JUMPDEST PUSH2 0x218 DUP7 PUSH2 0x1DB JUMP JUMPDEST SWAP5 POP PUSH2 0x226 PUSH1 0x20 DUP8 ADD PUSH2 0x1DB JUMP JUMPDEST SWAP4 POP PUSH2 0x234 PUSH1 0x40 DUP8 ADD PUSH2 0x1DB JUMP JUMPDEST SWAP3 POP PUSH2 0x242 PUSH1 0x60 DUP8 ADD PUSH2 0x1DB JUMP JUMPDEST SWAP2 POP PUSH2 0x250 PUSH1 0x80 DUP8 ADD PUSH2 0x1DB JUMP JUMPDEST SWAP1 POP SWAP3 SWAP6 POP SWAP3 SWAP6 SWAP1 SWAP4 POP JUMP JUMPDEST PUSH1 0x0 DUP1 PUSH1 0x40 DUP4 DUP6 SUB SLT ISZERO PUSH2 0x26F JUMPI PUSH1 0x0 DUP1 REVERT JUMPDEST PUSH2 0x278 DUP4 PUSH2 0x1DB JUMP JUMPDEST SWAP2 POP PUSH1 0x20 DUP4 ADD CALLDATALOAD DUP1 ISZERO ISZERO DUP2 EQ PUSH2 0x28D JUMPI PUSH1 0x0 DUP1 REVERT JUMPDEST DUP1 SWAP2 POP POP SWAP3 POP SWAP3 SWAP1 POP JUMP INVALID LOG2 PUSH5 0x6970667358 0x22 SLT KECCAK256 0x4B SWAP15 GASLIMIT PUSH15 0x4EB899B7CD40576A9EDBE2666DCE6A CALLDATALOAD DUP11 0xBF 0xAE 0x26 0xE6 SWAP10 0xE9 DIV 0xBD SAR 0xE9 DUP6 PUSH5 0x736F6C6343 STOP ADDMOD EQ STOP CALLER "},"methodIdentifiers":{"setAddresses(address,address,address,address,address)":"5dd68acd","setAuthorizeAdminForGemTokenFacet(address,bool)":"e3a723da","setAuthorizeExternalContractsForERC721Facet(address,bool)":"f4606d21"}}}}}