{"contracts/facets/VaultFacet.sol":{"VaultFacet":{"abi":[{"inputs":[{"internalType":"address","name":"token","type":"address"}],"name":"SafeERC20FailedOperation","type":"error"},{"anonymous":false,"inputs":[{"indexed":true,"internalType":"uint256","name":"tokenId","type":"uint256"},{"indexed":true,"internalType":"uint256","name":"vaultId","type":"uint256"},{"indexed":false,"internalType":"uint256","name":"compoundingRate","type":"uint256"}],"name":"CompoundingRateUpdated","type":"event"},{"anonymous":false,"inputs":[{"indexed":true,"internalType":"uint256","name":"vaultIndex","type":"uint256"},{"indexed":false,"internalType":"uint256","name":"startIndex","type":"uint256"},{"indexed":false,"internalType":"uint256","name":"endIndex","type":"uint256"}],"name":"ProfitsDepositedToVault","type":"event"},{"anonymous":false,"inputs":[{"indexed":true,"internalType":"uint256","name":"vaultIndex","type":"uint256"},{"indexed":false,"internalType":"uint256","name":"totalRewardPoints","type":"uint256"},{"indexed":false,"internalType":"uint256","name":"profitAmount","type":"uint256"}],"name":"VaultRewardPointsCalculated","type":"event"},{"inputs":[{"internalType":"string","name":"vaultName","type":"string"},{"internalType":"address","name":"walletAddress","type":"address"},{"internalType":"address","name":"approvedControlWallet","type":"address"}],"name":"addNewVault","outputs":[],"stateMutability":"nonpayable","type":"function"},{"inputs":[{"internalType":"uint256","name":"tokenId","type":"uint256"},{"internalType":"uint256","name":"vaultIndex","type":"uint256"},{"internalType":"uint256","name":"grains","type":"uint256"},{"internalType":"uint256","name":"pillars","type":"uint256"},{"internalType":"uint256","name":"sheets","type":"uint256"},{"internalType":"uint256","name":"cubes","type":"uint256"}],"name":"allocateSaltToVault","outputs":[],"stateMutability":"nonpayable","type":"function"},{"inputs":[{"internalType":"uint256","name":"vaultIndex","type":"uint256"},{"internalType":"uint256","name":"profitAmount","type":"uint256"}],"name":"depositProfitsAndcalculateVaultRewardPoints","outputs":[],"stateMutability":"nonpayable","type":"function"},{"inputs":[{"internalType":"uint256","name":"tokenId","type":"uint256"},{"internalType":"uint256","name":"vaultId","type":"uint256"}],"name":"getCompoundingRateForIndex","outputs":[{"internalType":"uint256","name":"","type":"uint256"}],"stateMutability":"view","type":"function"},{"inputs":[{"internalType":"uint256","name":"tokenId","type":"uint256"},{"internalType":"uint256","name":"vaultId","type":"uint256"}],"name":"getContinousMonthsCompoundingForIndex","outputs":[{"internalType":"uint256","name":"","type":"uint256"}],"stateMutability":"view","type":"function"},{"inputs":[{"internalType":"uint256","name":"tokenId","type":"uint256"},{"internalType":"uint256","name":"vaultId","type":"uint256"}],"name":"getDepositedSaltForIndex","outputs":[{"internalType":"uint256","name":"","type":"uint256"}],"stateMutability":"view","type":"function"},{"inputs":[{"internalType":"uint256","name":"tokenId","type":"uint256"},{"internalType":"uint256","name":"vaultId","type":"uint256"}],"name":"getIsIndexEligibleForBonusDuringSaltDeposit","outputs":[{"internalType":"bool","name":"","type":"bool"}],"stateMutability":"view","type":"function"},{"inputs":[{"internalType":"uint256","name":"vaultIndex","type":"uint256"},{"internalType":"uint256","name":"startIndex","type":"uint256"},{"internalType":"uint256","name":"endIndex","type":"uint256"}],"name":"rewardVaultIndex","outputs":[],"stateMutability":"nonpayable","type":"function"},{"inputs":[{"internalType":"uint256","name":"tokenId","type":"uint256"},{"internalType":"uint256","name":"vaultId","type":"uint256"},{"internalType":"uint256","name":"compoundingRate","type":"uint256"}],"name":"setCompoundingRate","outputs":[],"stateMutability":"nonpayable","type":"function"}],"evm":{"bytecode":{"linkReferences":{},"object":"608060405234801561001057600080fd5b506117af806100206000396000f3fe608060405234801561001057600080fd5b50600436106100935760003560e01c806396240876116100665780639624087614610109578063a6e1034d1461011c578063d7b8788a1461012f578063dd5d0b0014610142578063f82b94d81461015557600080fd5b80630888357b146100985780630fbcdcbf146100ad5780633f36237e146100d5578063572ddb4c146100f6575b600080fd5b6100ab6100a6366004611331565b610168565b005b6100c06100bb366004611331565b610397565b60405190151581526020015b60405180910390f35b6100e86100e3366004611331565b6103dd565b6040519081526020016100cc565b6100e8610104366004611331565b61041f565b6100ab610117366004611380565b610461565b6100ab61012a366004611452565b6104de565b6100e861013d366004611331565b610978565b6100ab610150366004611495565b6109ba565b6100ab610163366004611495565b610dfc565b600080603a01838154811061017f5761017f6114c1565b60009182526020909120600d9091020160078101549091506001600160a01b031633146101c75760405162461bcd60e51b81526004016101be906114d7565b60405180910390fd5b603a548311156102105760405162461bcd60e51b815260206004820152601460248201527324b73b30b634b2102b30bab63a10273ab6b132b960611b60448201526064016101be565b600054610228906001600160a01b0316333085610f75565b8181600401600082825461023c9190611524565b92505081905550818160050160008282546102579190611524565b909155505060408054839190600090610271908490611524565b909155506000905060015b601e546001600160a01b03166000908152605e6020526040902054811161034e57601e546001600160a01b03166000908152605e602052604081208054839081106102c9576102c96114c1565b6000918252602080832090910154808352818052604080842060088901909352909220549192509080156103385781546000908152601f60205260408120600201546103159083611537565b6000858152600a89016020526040902081905590506103348187611524565b9550505b50505080806103469061154e565b91505061027c565b5060028201819055604080518281526020810185905285917f4a7c32ca92b6741752bafb1173da5c7b3dd1ea73bef90cad6ff03bc405b08677910160405180910390a250505050565b6000806000603a0183815481106103b0576103b06114c1565b60009182526020808320878452600c600d90930201919091019052604090205460ff169150505b92915050565b6000806000603a0183815481106103f6576103f66114c1565b600091825260208083208784526009600d90930201919091019052604090205491505092915050565b6000806000603a018381548110610438576104386114c1565b60009182526020808320878452600b600d90930201919091019052604090205491505092915050565b610469610fd5565b603a8054600181018255600091909152600d027fa2999d817b6757290b50e8ecf3fa939673403dd35c97de392fdb343b4015ce9e01806104a985826115ef565b506006810180546001600160a01b039485166001600160a01b0319918216179091556007909101805492909316911617905550565b6011546001036105305760405162461bcd60e51b815260206004820152601960248201527f5265656e7472616e637920666c6167207472696767657265640000000000000060448201526064016101be565b6001601155601e546001600160a01b0390811660009081526058602090815260408083208a84529091529020541633146105a75760405162461bcd60e51b8152602060048201526018602482015277165bdd48191bc81b9bdd081bdddb881d1a1a5cc8109d5b1b60421b60448201526064016101be565b600086815260208052604090206001810154851180156105ca5750838160020154105b80156105d95750828160030154105b80156105e85750818160040154105b156106465760405162461bcd60e51b815260206004820152602860248201527f4e6f7420656e6f7567682073616c7420696e207468652062756c6c732073616c6044820152671d081dd85b1b195d60c21b60648201526084016101be565b8481600101600082825461065a91906116af565b925050819055508381600201600082825461067591906116af565b925050819055508281600301600082825461069091906116af565b92505081905550818160040160008282546106ab91906116af565b909155505060325460009081906106c29088611537565b6106cc9082611524565b6036549091506106dc9088611537565b6106e69083611524565b6033549092506106f69087611537565b6107009082611524565b6037549091506107109087611537565b61071a9083611524565b60345490925061072a9086611537565b6107349082611524565b6038549091506107449086611537565b61074e9083611524565b60355490925061075e9085611537565b6107689082611524565b6039549091506107789085611537565b6107829083611524565b9150600061078f8361105e565b905061079b8184611524565b9250600080603a018a815481106107b4576107b46114c1565b90600052602060002090600d02019050838160010160008282546107d89190611524565b909155505060008b8152600c8201602052604090205460ff1615610846576000606461080586600a611537565b61080f91906116c2565b905061081b8186611524565b60008d8152600b840160209081526040808320839055600c86019091529020805460ff191690559450505b60008b815260088201602052604081208054869290610866908490611524565b92505081905550838560050160008282546108819190611524565b909155505060058501546113881180159061089e5750603c546064115b80156108b9575060008b8152603e602052604090205460ff16155b1561091157603c54603d80548d929081106108d6576108d66114c1565b6000918252602082200191909155603c8054916108f28361154e565b909155505060008b8152603e60205260409020805460ff191660011790555b60008b815260088201602052604081208054869290610931908490611524565b909155506064905061094484605a611537565b61094e91906116c2565b8160030160008282546109619190611524565b909155505060006011555050505050505050505050565b6000806000603a018381548110610991576109916114c1565b600091825260208083208784526008600d90930201919091019052604090205491505092915050565b600080603a0184815481106109d1576109d16114c1565b60009182526020909120600d9091020160078101549091506001600160a01b03163314610a105760405162461bcd60e51b81526004016101be906114d7565b828211610a5f5760405162461bcd60e51b815260206004820152601860248201527f7374617274206973206c6172676572207468616e20656e64000000000000000060448201526064016101be565b601e546001600160a01b03166000908152605e6020526040902054821115610a9f57601e546001600160a01b03166000908152605e602052604090205491505b60078101546001600160a01b03163314610acb5760405162461bcd60e51b81526004016101be906114d7565b8060020154600003610b1f5760405162461bcd60e51b815260206004820181905260248201527f746f74616c526577617264506f696e7473206973206e6f74207365742079657460448201526064016101be565b6004810154835b838111610d1857600081815260088401602052604090205415610d065760028301546000828152600a850160205260408120546004860154919291610b6b9190611537565b610b7591906116c2565b60008381526009860160205260408120549192506064610b958385611537565b610b9f91906116c2565b90506000610bad82856116af565b905082606403610c0d576000858152600b880160205260408120805491610bd38361154e565b90915550506000858152600b8801602052604090205460041015610c0d576000858152600c880160205260409020805460ff191660011790555b8115610c8a576000610c236304c4b400846116c2565b90506000610c308261105e565b610c3a9083611524565b905080896001016000828254610c509190611524565b9091555050600087815260088a01602052604081208054839290610c75908490611524565b90915550610c85905084896116af565b975050505b8015610d0157601e546001600160a01b0390811660009081526058602090815260408083208984528252808320549093168252600790529081208054839290610cd4908490611524565b90915550610ce4905081876116af565b9550806000600a016000828254610cfb9190611524565b90915550505b505050505b80610d108161154e565b915050610b26565b508015610d54578060006008016000828254610d349190611524565b9091555050600a8054829190600090610d4e908490611524565b90915550505b60015b601e546001600160a01b03166000908152605e60205260409020548111610db257600081815260088401602052604090205415610da0576000818152600a840160205260408120555b80610daa8161154e565b915050610d57565b5060006004830155604080518581526020810185905286917f955dbe96be2a4761fc3d581ffbd13c26516a8646b84af033986a73af11693b4a910160405180910390a25050505050565b601e546001600160a01b039081166000908152605860209081526040808320878452909152902054163314610e6e5760405162461bcd60e51b8152602060048201526018602482015277165bdd48191bc81b9bdd081bdddb881d1a1a5cc8109d5b1b60421b60448201526064016101be565b6000818152603b602052604090205460ff1615610ef35760405162461bcd60e51b815260206004820152603960248201527f4d75737420626520616e20617070726f76656420436f6d706f756e64696e672060448201527f526174652c20652e6720446976697369626c652062792031300000000000000060648201526084016101be565b600080603a018381548110610f0a57610f0a6114c1565b90600052602060002090600d02019050818160090160008681526020019081526020016000208190555082847fac8b46cf760e1b26e4a382b3883026833ffebb4c395347373bc7357a437d28cd84604051610f6791815260200190565b60405180910390a350505050565b604080516001600160a01b0385811660248301528416604482015260648082018490528251808303909101815260849091019091526020810180516001600160e01b03166323b872dd60e01b179052610fcf9085906110ff565b50505050565b7fc8fcad8db84d3cc18b4c41d551ea0ee66dd599cde068d998e57d5e09332c131c600401546001600160a01b0316331461105c5760405162461bcd60e51b815260206004820152602260248201527f4c69624469616d6f6e643a204d75737420626520636f6e7472616374206f776e60448201526132b960f11b60648201526084016101be565b565b604154603f54600091106110865760465460649061107c9084611537565b6103d791906116c2565b604254603f54116110a15760475460649061107c9084611537565b604354603f54116110bc5760485460649061107c9084611537565b604454603f54116110d75760495460649061107c9084611537565b604554603f54116110f257604a5460649061107c9084611537565b506000919050565b919050565b60006111146001600160a01b03841683611167565b9050805160001415801561113957508080602001905181019061113791906116e4565b155b1561116257604051635274afe760e01b81526001600160a01b03841660048201526024016101be565b505050565b60606111a983836040518060400160405280601e81526020017f416464726573733a206c6f772d6c6576656c2063616c6c206661696c656400008152506111b0565b9392505050565b60606111bf84846000856111c7565b949350505050565b6060824710156112285760405162461bcd60e51b815260206004820152602660248201527f416464726573733a20696e73756666696369656e742062616c616e636520666f6044820152651c8818d85b1b60d21b60648201526084016101be565b6001600160a01b0385163b61127f5760405162461bcd60e51b815260206004820152601d60248201527f416464726573733a2063616c6c20746f206e6f6e2d636f6e747261637400000060448201526064016101be565b600080866001600160a01b0316858760405161129b919061172a565b60006040518083038185875af1925050503d80600081146112d8576040519150601f19603f3d011682016040523d82523d6000602084013e6112dd565b606091505b50915091506112ed8282866112f8565b979650505050505050565b606083156113075750816111a9565b8251156113175782518084602001fd5b8160405162461bcd60e51b81526004016101be9190611746565b6000806040838503121561134457600080fd5b50508035926020909101359150565b634e487b7160e01b600052604160045260246000fd5b80356001600160a01b03811681146110fa57600080fd5b60008060006060848603121561139557600080fd5b833567ffffffffffffffff808211156113ad57600080fd5b818601915086601f8301126113c157600080fd5b8135818111156113d3576113d3611353565b604051601f8201601f19908116603f011681019083821181831017156113fb576113fb611353565b8160405282815289602084870101111561141457600080fd5b82602086016020830137600060208483010152809750505050505061143b60208501611369565b915061144960408501611369565b90509250925092565b60008060008060008060c0878903121561146b57600080fd5b505084359660208601359650604086013595606081013595506080810135945060a0013592509050565b6000806000606084860312156114aa57600080fd5b505081359360208301359350604090920135919050565b634e487b7160e01b600052603260045260246000fd5b6020808252601a908201527f6d75737420626520616e20617070726f7665642077616c6c6574000000000000604082015260600190565b634e487b7160e01b600052601160045260246000fd5b808201808211156103d7576103d761150e565b80820281158282048414176103d7576103d761150e565b6000600182016115605761156061150e565b5060010190565b600181811c9082168061157b57607f821691505b60208210810361159b57634e487b7160e01b600052602260045260246000fd5b50919050565b601f82111561116257600081815260208120601f850160051c810160208610156115c85750805b601f850160051c820191505b818110156115e7578281556001016115d4565b505050505050565b815167ffffffffffffffff81111561160957611609611353565b61161d816116178454611567565b846115a1565b602080601f831160018114611652576000841561163a5750858301515b600019600386901b1c1916600185901b1785556115e7565b600085815260208120601f198616915b8281101561168157888601518255948401946001909101908401611662565b508582101561169f5787850151600019600388901b60f8161c191681555b5050505050600190811b01905550565b818103818111156103d7576103d761150e565b6000826116df57634e487b7160e01b600052601260045260246000fd5b500490565b6000602082840312156116f657600080fd5b815180151581146111a957600080fd5b60005b83811015611721578181015183820152602001611709565b50506000910152565b6000825161173c818460208701611706565b9190910192915050565b6020815260008251806020840152611765816040850160208701611706565b601f01601f1916919091016040019291505056fea264697066735822122097822a679bcee06a49c27c96c68fe85e4a5a166731d1b2424c2043be3431837f64736f6c63430008140033","opcodes":"PUSH1 0x80 PUSH1 0x40 MSTORE CALLVALUE DUP1 ISZERO PUSH2 0x10 JUMPI PUSH1 0x0 DUP1 REVERT JUMPDEST POP PUSH2 0x17AF DUP1 PUSH2 0x20 PUSH1 0x0 CODECOPY PUSH1 0x0 RETURN INVALID PUSH1 0x80 PUSH1 0x40 MSTORE CALLVALUE DUP1 ISZERO PUSH2 0x10 JUMPI PUSH1 0x0 DUP1 REVERT JUMPDEST POP PUSH1 0x4 CALLDATASIZE LT PUSH2 0x93 JUMPI PUSH1 0x0 CALLDATALOAD PUSH1 0xE0 SHR DUP1 PUSH4 0x96240876 GT PUSH2 0x66 JUMPI DUP1 PUSH4 0x96240876 EQ PUSH2 0x109 JUMPI DUP1 PUSH4 0xA6E1034D EQ PUSH2 0x11C JUMPI DUP1 PUSH4 0xD7B8788A EQ PUSH2 0x12F JUMPI DUP1 PUSH4 0xDD5D0B00 EQ PUSH2 0x142 JUMPI DUP1 PUSH4 0xF82B94D8 EQ PUSH2 0x155 JUMPI PUSH1 0x0 DUP1 REVERT JUMPDEST DUP1 PUSH4 0x888357B EQ PUSH2 0x98 JUMPI DUP1 PUSH4 0xFBCDCBF EQ PUSH2 0xAD JUMPI DUP1 PUSH4 0x3F36237E EQ PUSH2 0xD5 JUMPI DUP1 PUSH4 0x572DDB4C EQ PUSH2 0xF6 JUMPI JUMPDEST PUSH1 0x0 DUP1 REVERT JUMPDEST PUSH2 0xAB PUSH2 0xA6 CALLDATASIZE PUSH1 0x4 PUSH2 0x1331 JUMP JUMPDEST PUSH2 0x168 JUMP JUMPDEST STOP JUMPDEST PUSH2 0xC0 PUSH2 0xBB CALLDATASIZE PUSH1 0x4 PUSH2 0x1331 JUMP JUMPDEST PUSH2 0x397 JUMP JUMPDEST PUSH1 0x40 MLOAD SWAP1 ISZERO ISZERO DUP2 MSTORE PUSH1 0x20 ADD JUMPDEST PUSH1 0x40 MLOAD DUP1 SWAP2 SUB SWAP1 RETURN JUMPDEST PUSH2 0xE8 PUSH2 0xE3 CALLDATASIZE PUSH1 0x4 PUSH2 0x1331 JUMP JUMPDEST PUSH2 0x3DD JUMP JUMPDEST PUSH1 0x40 MLOAD SWAP1 DUP2 MSTORE PUSH1 0x20 ADD PUSH2 0xCC JUMP JUMPDEST PUSH2 0xE8 PUSH2 0x104 CALLDATASIZE PUSH1 0x4 PUSH2 0x1331 JUMP JUMPDEST PUSH2 0x41F JUMP JUMPDEST PUSH2 0xAB PUSH2 0x117 CALLDATASIZE PUSH1 0x4 PUSH2 0x1380 JUMP JUMPDEST PUSH2 0x461 JUMP JUMPDEST PUSH2 0xAB PUSH2 0x12A CALLDATASIZE PUSH1 0x4 PUSH2 0x1452 JUMP JUMPDEST PUSH2 0x4DE JUMP JUMPDEST PUSH2 0xE8 PUSH2 0x13D CALLDATASIZE PUSH1 0x4 PUSH2 0x1331 JUMP JUMPDEST PUSH2 0x978 JUMP JUMPDEST PUSH2 0xAB PUSH2 0x150 CALLDATASIZE PUSH1 0x4 PUSH2 0x1495 JUMP JUMPDEST PUSH2 0x9BA JUMP JUMPDEST PUSH2 0xAB PUSH2 0x163 CALLDATASIZE PUSH1 0x4 PUSH2 0x1495 JUMP JUMPDEST PUSH2 0xDFC JUMP JUMPDEST PUSH1 0x0 DUP1 PUSH1 0x3A ADD DUP4 DUP2 SLOAD DUP2 LT PUSH2 0x17F JUMPI PUSH2 0x17F PUSH2 0x14C1 JUMP JUMPDEST PUSH1 0x0 SWAP2 DUP3 MSTORE PUSH1 0x20 SWAP1 SWAP2 KECCAK256 PUSH1 0xD SWAP1 SWAP2 MUL ADD PUSH1 0x7 DUP2 ADD SLOAD SWAP1 SWAP2 POP PUSH1 0x1 PUSH1 0x1 PUSH1 0xA0 SHL SUB AND CALLER EQ PUSH2 0x1C7 JUMPI PUSH1 0x40 MLOAD PUSH3 0x461BCD PUSH1 0xE5 SHL DUP2 MSTORE PUSH1 0x4 ADD PUSH2 0x1BE SWAP1 PUSH2 0x14D7 JUMP JUMPDEST PUSH1 0x40 MLOAD DUP1 SWAP2 SUB SWAP1 REVERT JUMPDEST PUSH1 0x3A SLOAD DUP4 GT ISZERO PUSH2 0x210 JUMPI PUSH1 0x40 MLOAD PUSH3 0x461BCD PUSH1 0xE5 SHL DUP2 MSTORE PUSH1 0x20 PUSH1 0x4 DUP3 ADD MSTORE PUSH1 0x14 PUSH1 0x24 DUP3 ADD MSTORE PUSH20 0x24B73B30B634B2102B30BAB63A10273AB6B132B9 PUSH1 0x61 SHL PUSH1 0x44 DUP3 ADD MSTORE PUSH1 0x64 ADD PUSH2 0x1BE JUMP JUMPDEST PUSH1 0x0 SLOAD PUSH2 0x228 SWAP1 PUSH1 0x1 PUSH1 0x1 PUSH1 0xA0 SHL SUB AND CALLER ADDRESS DUP6 PUSH2 0xF75 JUMP JUMPDEST DUP2 DUP2 PUSH1 0x4 ADD PUSH1 0x0 DUP3 DUP3 SLOAD PUSH2 0x23C SWAP2 SWAP1 PUSH2 0x1524 JUMP JUMPDEST SWAP3 POP POP DUP2 SWAP1 SSTORE POP DUP2 DUP2 PUSH1 0x5 ADD PUSH1 0x0 DUP3 DUP3 SLOAD PUSH2 0x257 SWAP2 SWAP1 PUSH2 0x1524 JUMP JUMPDEST SWAP1 SWAP2 SSTORE POP POP PUSH1 0x40 DUP1 SLOAD DUP4 SWAP2 SWAP1 PUSH1 0x0 SWAP1 PUSH2 0x271 SWAP1 DUP5 SWAP1 PUSH2 0x1524 JUMP JUMPDEST SWAP1 SWAP2 SSTORE POP PUSH1 0x0 SWAP1 POP PUSH1 0x1 JUMPDEST PUSH1 0x1E SLOAD PUSH1 0x1 PUSH1 0x1 PUSH1 0xA0 SHL SUB AND PUSH1 0x0 SWAP1 DUP2 MSTORE PUSH1 0x5E PUSH1 0x20 MSTORE PUSH1 0x40 SWAP1 KECCAK256 SLOAD DUP2 GT PUSH2 0x34E JUMPI PUSH1 0x1E SLOAD PUSH1 0x1 PUSH1 0x1 PUSH1 0xA0 SHL SUB AND PUSH1 0x0 SWAP1 DUP2 MSTORE PUSH1 0x5E PUSH1 0x20 MSTORE PUSH1 0x40 DUP2 KECCAK256 DUP1 SLOAD DUP4 SWAP1 DUP2 LT PUSH2 0x2C9 JUMPI PUSH2 0x2C9 PUSH2 0x14C1 JUMP JUMPDEST PUSH1 0x0 SWAP2 DUP3 MSTORE PUSH1 0x20 DUP1 DUP4 KECCAK256 SWAP1 SWAP2 ADD SLOAD DUP1 DUP4 MSTORE DUP2 DUP1 MSTORE PUSH1 0x40 DUP1 DUP5 KECCAK256 PUSH1 0x8 DUP10 ADD SWAP1 SWAP4 MSTORE SWAP1 SWAP3 KECCAK256 SLOAD SWAP2 SWAP3 POP SWAP1 DUP1 ISZERO PUSH2 0x338 JUMPI DUP2 SLOAD PUSH1 0x0 SWAP1 DUP2 MSTORE PUSH1 0x1F PUSH1 0x20 MSTORE PUSH1 0x40 DUP2 KECCAK256 PUSH1 0x2 ADD SLOAD PUSH2 0x315 SWAP1 DUP4 PUSH2 0x1537 JUMP JUMPDEST PUSH1 0x0 DUP6 DUP2 MSTORE PUSH1 0xA DUP10 ADD PUSH1 0x20 MSTORE PUSH1 0x40 SWAP1 KECCAK256 DUP2 SWAP1 SSTORE SWAP1 POP PUSH2 0x334 DUP2 DUP8 PUSH2 0x1524 JUMP JUMPDEST SWAP6 POP POP JUMPDEST POP POP POP DUP1 DUP1 PUSH2 0x346 SWAP1 PUSH2 0x154E JUMP JUMPDEST SWAP2 POP POP PUSH2 0x27C JUMP JUMPDEST POP PUSH1 0x2 DUP3 ADD DUP2 SWAP1 SSTORE PUSH1 0x40 DUP1 MLOAD DUP3 DUP2 MSTORE PUSH1 0x20 DUP2 ADD DUP6 SWAP1 MSTORE DUP6 SWAP2 PUSH32 0x4A7C32CA92B6741752BAFB1173DA5C7B3DD1EA73BEF90CAD6FF03BC405B08677 SWAP2 ADD PUSH1 0x40 MLOAD DUP1 SWAP2 SUB SWAP1 LOG2 POP POP POP POP JUMP JUMPDEST PUSH1 0x0 DUP1 PUSH1 0x0 PUSH1 0x3A ADD DUP4 DUP2 SLOAD DUP2 LT PUSH2 0x3B0 JUMPI PUSH2 0x3B0 PUSH2 0x14C1 JUMP JUMPDEST PUSH1 0x0 SWAP2 DUP3 MSTORE PUSH1 0x20 DUP1 DUP4 KECCAK256 DUP8 DUP5 MSTORE PUSH1 0xC PUSH1 0xD SWAP1 SWAP4 MUL ADD SWAP2 SWAP1 SWAP2 ADD SWAP1 MSTORE PUSH1 0x40 SWAP1 KECCAK256 SLOAD PUSH1 0xFF AND SWAP2 POP POP JUMPDEST SWAP3 SWAP2 POP POP JUMP JUMPDEST PUSH1 0x0 DUP1 PUSH1 0x0 PUSH1 0x3A ADD DUP4 DUP2 SLOAD DUP2 LT PUSH2 0x3F6 JUMPI PUSH2 0x3F6 PUSH2 0x14C1 JUMP JUMPDEST PUSH1 0x0 SWAP2 DUP3 MSTORE PUSH1 0x20 DUP1 DUP4 KECCAK256 DUP8 DUP5 MSTORE PUSH1 0x9 PUSH1 0xD SWAP1 SWAP4 MUL ADD SWAP2 SWAP1 SWAP2 ADD SWAP1 MSTORE PUSH1 0x40 SWAP1 KECCAK256 SLOAD SWAP2 POP POP SWAP3 SWAP2 POP POP JUMP JUMPDEST PUSH1 0x0 DUP1 PUSH1 0x0 PUSH1 0x3A ADD DUP4 DUP2 SLOAD DUP2 LT PUSH2 0x438 JUMPI PUSH2 0x438 PUSH2 0x14C1 JUMP JUMPDEST PUSH1 0x0 SWAP2 DUP3 MSTORE PUSH1 0x20 DUP1 DUP4 KECCAK256 DUP8 DUP5 MSTORE PUSH1 0xB PUSH1 0xD SWAP1 SWAP4 MUL ADD SWAP2 SWAP1 SWAP2 ADD SWAP1 MSTORE PUSH1 0x40 SWAP1 KECCAK256 SLOAD SWAP2 POP POP SWAP3 SWAP2 POP POP JUMP JUMPDEST PUSH2 0x469 PUSH2 0xFD5 JUMP JUMPDEST PUSH1 0x3A DUP1 SLOAD PUSH1 0x1 DUP2 ADD DUP3 SSTORE PUSH1 0x0 SWAP2 SWAP1 SWAP2 MSTORE PUSH1 0xD MUL PUSH32 0xA2999D817B6757290B50E8ECF3FA939673403DD35C97DE392FDB343B4015CE9E ADD DUP1 PUSH2 0x4A9 DUP6 DUP3 PUSH2 0x15EF JUMP JUMPDEST POP PUSH1 0x6 DUP2 ADD DUP1 SLOAD PUSH1 0x1 PUSH1 0x1 PUSH1 0xA0 SHL SUB SWAP5 DUP6 AND PUSH1 0x1 PUSH1 0x1 PUSH1 0xA0 SHL SUB NOT SWAP2 DUP3 AND OR SWAP1 SWAP2 SSTORE PUSH1 0x7 SWAP1 SWAP2 ADD DUP1 SLOAD SWAP3 SWAP1 SWAP4 AND SWAP2 AND OR SWAP1 SSTORE POP JUMP JUMPDEST PUSH1 0x11 SLOAD PUSH1 0x1 SUB PUSH2 0x530 JUMPI PUSH1 0x40 MLOAD PUSH3 0x461BCD PUSH1 0xE5 SHL DUP2 MSTORE PUSH1 0x20 PUSH1 0x4 DUP3 ADD MSTORE PUSH1 0x19 PUSH1 0x24 DUP3 ADD MSTORE PUSH32 0x5265656E7472616E637920666C61672074726967676572656400000000000000 PUSH1 0x44 DUP3 ADD MSTORE PUSH1 0x64 ADD PUSH2 0x1BE JUMP JUMPDEST PUSH1 0x1 PUSH1 0x11 SSTORE PUSH1 0x1E SLOAD PUSH1 0x1 PUSH1 0x1 PUSH1 0xA0 SHL SUB SWAP1 DUP2 AND PUSH1 0x0 SWAP1 DUP2 MSTORE PUSH1 0x58 PUSH1 0x20 SWAP1 DUP2 MSTORE PUSH1 0x40 DUP1 DUP4 KECCAK256 DUP11 DUP5 MSTORE SWAP1 SWAP2 MSTORE SWAP1 KECCAK256 SLOAD AND CALLER EQ PUSH2 0x5A7 JUMPI PUSH1 0x40 MLOAD PUSH3 0x461BCD PUSH1 0xE5 SHL DUP2 MSTORE PUSH1 0x20 PUSH1 0x4 DUP3 ADD MSTORE PUSH1 0x18 PUSH1 0x24 DUP3 ADD MSTORE PUSH24 0x165BDD48191BC81B9BDD081BDDDB881D1A1A5CC8109D5B1B PUSH1 0x42 SHL PUSH1 0x44 DUP3 ADD MSTORE PUSH1 0x64 ADD PUSH2 0x1BE JUMP JUMPDEST PUSH1 0x0 DUP7 DUP2 MSTORE PUSH1 0x20 DUP1 MSTORE PUSH1 0x40 SWAP1 KECCAK256 PUSH1 0x1 DUP2 ADD SLOAD DUP6 GT DUP1 ISZERO PUSH2 0x5CA JUMPI POP DUP4 DUP2 PUSH1 0x2 ADD SLOAD LT JUMPDEST DUP1 ISZERO PUSH2 0x5D9 JUMPI POP DUP3 DUP2 PUSH1 0x3 ADD SLOAD LT JUMPDEST DUP1 ISZERO PUSH2 0x5E8 JUMPI POP DUP2 DUP2 PUSH1 0x4 ADD SLOAD LT JUMPDEST ISZERO PUSH2 0x646 JUMPI PUSH1 0x40 MLOAD PUSH3 0x461BCD PUSH1 0xE5 SHL DUP2 MSTORE PUSH1 0x20 PUSH1 0x4 DUP3 ADD MSTORE PUSH1 0x28 PUSH1 0x24 DUP3 ADD MSTORE PUSH32 0x4E6F7420656E6F7567682073616C7420696E207468652062756C6C732073616C PUSH1 0x44 DUP3 ADD MSTORE PUSH8 0x1D081DD85B1B195D PUSH1 0xC2 SHL PUSH1 0x64 DUP3 ADD MSTORE PUSH1 0x84 ADD PUSH2 0x1BE JUMP JUMPDEST DUP5 DUP2 PUSH1 0x1 ADD PUSH1 0x0 DUP3 DUP3 SLOAD PUSH2 0x65A SWAP2 SWAP1 PUSH2 0x16AF JUMP JUMPDEST SWAP3 POP POP DUP2 SWAP1 SSTORE POP DUP4 DUP2 PUSH1 0x2 ADD PUSH1 0x0 DUP3 DUP3 SLOAD PUSH2 0x675 SWAP2 SWAP1 PUSH2 0x16AF JUMP JUMPDEST SWAP3 POP POP DUP2 SWAP1 SSTORE POP DUP3 DUP2 PUSH1 0x3 ADD PUSH1 0x0 DUP3 DUP3 SLOAD PUSH2 0x690 SWAP2 SWAP1 PUSH2 0x16AF JUMP JUMPDEST SWAP3 POP POP DUP2 SWAP1 SSTORE POP DUP2 DUP2 PUSH1 0x4 ADD PUSH1 0x0 DUP3 DUP3 SLOAD PUSH2 0x6AB SWAP2 SWAP1 PUSH2 0x16AF JUMP JUMPDEST SWAP1 SWAP2 SSTORE POP POP PUSH1 0x32 SLOAD PUSH1 0x0 SWAP1 DUP2 SWAP1 PUSH2 0x6C2 SWAP1 DUP9 PUSH2 0x1537 JUMP JUMPDEST PUSH2 0x6CC SWAP1 DUP3 PUSH2 0x1524 JUMP JUMPDEST PUSH1 0x36 SLOAD SWAP1 SWAP2 POP PUSH2 0x6DC SWAP1 DUP9 PUSH2 0x1537 JUMP JUMPDEST PUSH2 0x6E6 SWAP1 DUP4 PUSH2 0x1524 JUMP JUMPDEST PUSH1 0x33 SLOAD SWAP1 SWAP3 POP PUSH2 0x6F6 SWAP1 DUP8 PUSH2 0x1537 JUMP JUMPDEST PUSH2 0x700 SWAP1 DUP3 PUSH2 0x1524 JUMP JUMPDEST PUSH1 0x37 SLOAD SWAP1 SWAP2 POP PUSH2 0x710 SWAP1 DUP8 PUSH2 0x1537 JUMP JUMPDEST PUSH2 0x71A SWAP1 DUP4 PUSH2 0x1524 JUMP JUMPDEST PUSH1 0x34 SLOAD SWAP1 SWAP3 POP PUSH2 0x72A SWAP1 DUP7 PUSH2 0x1537 JUMP JUMPDEST PUSH2 0x734 SWAP1 DUP3 PUSH2 0x1524 JUMP JUMPDEST PUSH1 0x38 SLOAD SWAP1 SWAP2 POP PUSH2 0x744 SWAP1 DUP7 PUSH2 0x1537 JUMP JUMPDEST PUSH2 0x74E SWAP1 DUP4 PUSH2 0x1524 JUMP JUMPDEST PUSH1 0x35 SLOAD SWAP1 SWAP3 POP PUSH2 0x75E SWAP1 DUP6 PUSH2 0x1537 JUMP JUMPDEST PUSH2 0x768 SWAP1 DUP3 PUSH2 0x1524 JUMP JUMPDEST PUSH1 0x39 SLOAD SWAP1 SWAP2 POP PUSH2 0x778 SWAP1 DUP6 PUSH2 0x1537 JUMP JUMPDEST PUSH2 0x782 SWAP1 DUP4 PUSH2 0x1524 JUMP JUMPDEST SWAP2 POP PUSH1 0x0 PUSH2 0x78F DUP4 PUSH2 0x105E JUMP JUMPDEST SWAP1 POP PUSH2 0x79B DUP2 DUP5 PUSH2 0x1524 JUMP JUMPDEST SWAP3 POP PUSH1 0x0 DUP1 PUSH1 0x3A ADD DUP11 DUP2 SLOAD DUP2 LT PUSH2 0x7B4 JUMPI PUSH2 0x7B4 PUSH2 0x14C1 JUMP JUMPDEST SWAP1 PUSH1 0x0 MSTORE PUSH1 0x20 PUSH1 0x0 KECCAK256 SWAP1 PUSH1 0xD MUL ADD SWAP1 POP DUP4 DUP2 PUSH1 0x1 ADD PUSH1 0x0 DUP3 DUP3 SLOAD PUSH2 0x7D8 SWAP2 SWAP1 PUSH2 0x1524 JUMP JUMPDEST SWAP1 SWAP2 SSTORE POP POP PUSH1 0x0 DUP12 DUP2 MSTORE PUSH1 0xC DUP3 ADD PUSH1 0x20 MSTORE PUSH1 0x40 SWAP1 KECCAK256 SLOAD PUSH1 0xFF AND ISZERO PUSH2 0x846 JUMPI PUSH1 0x0 PUSH1 0x64 PUSH2 0x805 DUP7 PUSH1 0xA PUSH2 0x1537 JUMP JUMPDEST PUSH2 0x80F SWAP2 SWAP1 PUSH2 0x16C2 JUMP JUMPDEST SWAP1 POP PUSH2 0x81B DUP2 DUP7 PUSH2 0x1524 JUMP JUMPDEST PUSH1 0x0 DUP14 DUP2 MSTORE PUSH1 0xB DUP5 ADD PUSH1 0x20 SWAP1 DUP2 MSTORE PUSH1 0x40 DUP1 DUP4 KECCAK256 DUP4 SWAP1 SSTORE PUSH1 0xC DUP7 ADD SWAP1 SWAP2 MSTORE SWAP1 KECCAK256 DUP1 SLOAD PUSH1 0xFF NOT AND SWAP1 SSTORE SWAP5 POP POP JUMPDEST PUSH1 0x0 DUP12 DUP2 MSTORE PUSH1 0x8 DUP3 ADD PUSH1 0x20 MSTORE PUSH1 0x40 DUP2 KECCAK256 DUP1 SLOAD DUP7 SWAP3 SWAP1 PUSH2 0x866 SWAP1 DUP5 SWAP1 PUSH2 0x1524 JUMP JUMPDEST SWAP3 POP POP DUP2 SWAP1 SSTORE POP DUP4 DUP6 PUSH1 0x5 ADD PUSH1 0x0 DUP3 DUP3 SLOAD PUSH2 0x881 SWAP2 SWAP1 PUSH2 0x1524 JUMP JUMPDEST SWAP1 SWAP2 SSTORE POP POP PUSH1 0x5 DUP6 ADD SLOAD PUSH2 0x1388 GT DUP1 ISZERO SWAP1 PUSH2 0x89E JUMPI POP PUSH1 0x3C SLOAD PUSH1 0x64 GT JUMPDEST DUP1 ISZERO PUSH2 0x8B9 JUMPI POP PUSH1 0x0 DUP12 DUP2 MSTORE PUSH1 0x3E PUSH1 0x20 MSTORE PUSH1 0x40 SWAP1 KECCAK256 SLOAD PUSH1 0xFF AND ISZERO JUMPDEST ISZERO PUSH2 0x911 JUMPI PUSH1 0x3C SLOAD PUSH1 0x3D DUP1 SLOAD DUP14 SWAP3 SWAP1 DUP2 LT PUSH2 0x8D6 JUMPI PUSH2 0x8D6 PUSH2 0x14C1 JUMP JUMPDEST PUSH1 0x0 SWAP2 DUP3 MSTORE PUSH1 0x20 DUP3 KECCAK256 ADD SWAP2 SWAP1 SWAP2 SSTORE PUSH1 0x3C DUP1 SLOAD SWAP2 PUSH2 0x8F2 DUP4 PUSH2 0x154E JUMP JUMPDEST SWAP1 SWAP2 SSTORE POP POP PUSH1 0x0 DUP12 DUP2 MSTORE PUSH1 0x3E PUSH1 0x20 MSTORE PUSH1 0x40 SWAP1 KECCAK256 DUP1 SLOAD PUSH1 0xFF NOT AND PUSH1 0x1 OR SWAP1 SSTORE JUMPDEST PUSH1 0x0 DUP12 DUP2 MSTORE PUSH1 0x8 DUP3 ADD PUSH1 0x20 MSTORE PUSH1 0x40 DUP2 KECCAK256 DUP1 SLOAD DUP7 SWAP3 SWAP1 PUSH2 0x931 SWAP1 DUP5 SWAP1 PUSH2 0x1524 JUMP JUMPDEST SWAP1 SWAP2 SSTORE POP PUSH1 0x64 SWAP1 POP PUSH2 0x944 DUP5 PUSH1 0x5A PUSH2 0x1537 JUMP JUMPDEST PUSH2 0x94E SWAP2 SWAP1 PUSH2 0x16C2 JUMP JUMPDEST DUP2 PUSH1 0x3 ADD PUSH1 0x0 DUP3 DUP3 SLOAD PUSH2 0x961 SWAP2 SWAP1 PUSH2 0x1524 JUMP JUMPDEST SWAP1 SWAP2 SSTORE POP POP PUSH1 0x0 PUSH1 0x11 SSTORE POP POP POP POP POP POP POP POP POP POP POP JUMP JUMPDEST PUSH1 0x0 DUP1 PUSH1 0x0 PUSH1 0x3A ADD DUP4 DUP2 SLOAD DUP2 LT PUSH2 0x991 JUMPI PUSH2 0x991 PUSH2 0x14C1 JUMP JUMPDEST PUSH1 0x0 SWAP2 DUP3 MSTORE PUSH1 0x20 DUP1 DUP4 KECCAK256 DUP8 DUP5 MSTORE PUSH1 0x8 PUSH1 0xD SWAP1 SWAP4 MUL ADD SWAP2 SWAP1 SWAP2 ADD SWAP1 MSTORE PUSH1 0x40 SWAP1 KECCAK256 SLOAD SWAP2 POP POP SWAP3 SWAP2 POP POP JUMP JUMPDEST PUSH1 0x0 DUP1 PUSH1 0x3A ADD DUP5 DUP2 SLOAD DUP2 LT PUSH2 0x9D1 JUMPI PUSH2 0x9D1 PUSH2 0x14C1 JUMP JUMPDEST PUSH1 0x0 SWAP2 DUP3 MSTORE PUSH1 0x20 SWAP1 SWAP2 KECCAK256 PUSH1 0xD SWAP1 SWAP2 MUL ADD PUSH1 0x7 DUP2 ADD SLOAD SWAP1 SWAP2 POP PUSH1 0x1 PUSH1 0x1 PUSH1 0xA0 SHL SUB AND CALLER EQ PUSH2 0xA10 JUMPI PUSH1 0x40 MLOAD PUSH3 0x461BCD PUSH1 0xE5 SHL DUP2 MSTORE PUSH1 0x4 ADD PUSH2 0x1BE SWAP1 PUSH2 0x14D7 JUMP JUMPDEST DUP3 DUP3 GT PUSH2 0xA5F JUMPI PUSH1 0x40 MLOAD PUSH3 0x461BCD PUSH1 0xE5 SHL DUP2 MSTORE PUSH1 0x20 PUSH1 0x4 DUP3 ADD MSTORE PUSH1 0x18 PUSH1 0x24 DUP3 ADD MSTORE PUSH32 0x7374617274206973206C6172676572207468616E20656E640000000000000000 PUSH1 0x44 DUP3 ADD MSTORE PUSH1 0x64 ADD PUSH2 0x1BE JUMP JUMPDEST PUSH1 0x1E SLOAD PUSH1 0x1 PUSH1 0x1 PUSH1 0xA0 SHL SUB AND PUSH1 0x0 SWAP1 DUP2 MSTORE PUSH1 0x5E PUSH1 0x20 MSTORE PUSH1 0x40 SWAP1 KECCAK256 SLOAD DUP3 GT ISZERO PUSH2 0xA9F JUMPI PUSH1 0x1E SLOAD PUSH1 0x1 PUSH1 0x1 PUSH1 0xA0 SHL SUB AND PUSH1 0x0 SWAP1 DUP2 MSTORE PUSH1 0x5E PUSH1 0x20 MSTORE PUSH1 0x40 SWAP1 KECCAK256 SLOAD SWAP2 POP JUMPDEST PUSH1 0x7 DUP2 ADD SLOAD PUSH1 0x1 PUSH1 0x1 PUSH1 0xA0 SHL SUB AND CALLER EQ PUSH2 0xACB JUMPI PUSH1 0x40 MLOAD PUSH3 0x461BCD PUSH1 0xE5 SHL DUP2 MSTORE PUSH1 0x4 ADD PUSH2 0x1BE SWAP1 PUSH2 0x14D7 JUMP JUMPDEST DUP1 PUSH1 0x2 ADD SLOAD PUSH1 0x0 SUB PUSH2 0xB1F JUMPI PUSH1 0x40 MLOAD PUSH3 0x461BCD PUSH1 0xE5 SHL DUP2 MSTORE PUSH1 0x20 PUSH1 0x4 DUP3 ADD DUP2 SWAP1 MSTORE PUSH1 0x24 DUP3 ADD MSTORE PUSH32 0x746F74616C526577617264506F696E7473206973206E6F742073657420796574 PUSH1 0x44 DUP3 ADD MSTORE PUSH1 0x64 ADD PUSH2 0x1BE JUMP JUMPDEST PUSH1 0x4 DUP2 ADD SLOAD DUP4 JUMPDEST DUP4 DUP2 GT PUSH2 0xD18 JUMPI PUSH1 0x0 DUP2 DUP2 MSTORE PUSH1 0x8 DUP5 ADD PUSH1 0x20 MSTORE PUSH1 0x40 SWAP1 KECCAK256 SLOAD ISZERO PUSH2 0xD06 JUMPI PUSH1 0x2 DUP4 ADD SLOAD PUSH1 0x0 DUP3 DUP2 MSTORE PUSH1 0xA DUP6 ADD PUSH1 0x20 MSTORE PUSH1 0x40 DUP2 KECCAK256 SLOAD PUSH1 0x4 DUP7 ADD SLOAD SWAP2 SWAP3 SWAP2 PUSH2 0xB6B SWAP2 SWAP1 PUSH2 0x1537 JUMP JUMPDEST PUSH2 0xB75 SWAP2 SWAP1 PUSH2 0x16C2 JUMP JUMPDEST PUSH1 0x0 DUP4 DUP2 MSTORE PUSH1 0x9 DUP7 ADD PUSH1 0x20 MSTORE PUSH1 0x40 DUP2 KECCAK256 SLOAD SWAP2 SWAP3 POP PUSH1 0x64 PUSH2 0xB95 DUP4 DUP6 PUSH2 0x1537 JUMP JUMPDEST PUSH2 0xB9F SWAP2 SWAP1 PUSH2 0x16C2 JUMP JUMPDEST SWAP1 POP PUSH1 0x0 PUSH2 0xBAD DUP3 DUP6 PUSH2 0x16AF JUMP JUMPDEST SWAP1 POP DUP3 PUSH1 0x64 SUB PUSH2 0xC0D JUMPI PUSH1 0x0 DUP6 DUP2 MSTORE PUSH1 0xB DUP9 ADD PUSH1 0x20 MSTORE PUSH1 0x40 DUP2 KECCAK256 DUP1 SLOAD SWAP2 PUSH2 0xBD3 DUP4 PUSH2 0x154E JUMP JUMPDEST SWAP1 SWAP2 SSTORE POP POP PUSH1 0x0 DUP6 DUP2 MSTORE PUSH1 0xB DUP9 ADD PUSH1 0x20 MSTORE PUSH1 0x40 SWAP1 KECCAK256 SLOAD PUSH1 0x4 LT ISZERO PUSH2 0xC0D JUMPI PUSH1 0x0 DUP6 DUP2 MSTORE PUSH1 0xC DUP9 ADD PUSH1 0x20 MSTORE PUSH1 0x40 SWAP1 KECCAK256 DUP1 SLOAD PUSH1 0xFF NOT AND PUSH1 0x1 OR SWAP1 SSTORE JUMPDEST DUP2 ISZERO PUSH2 0xC8A JUMPI PUSH1 0x0 PUSH2 0xC23 PUSH4 0x4C4B400 DUP5 PUSH2 0x16C2 JUMP JUMPDEST SWAP1 POP PUSH1 0x0 PUSH2 0xC30 DUP3 PUSH2 0x105E JUMP JUMPDEST PUSH2 0xC3A SWAP1 DUP4 PUSH2 0x1524 JUMP JUMPDEST SWAP1 POP DUP1 DUP10 PUSH1 0x1 ADD PUSH1 0x0 DUP3 DUP3 SLOAD PUSH2 0xC50 SWAP2 SWAP1 PUSH2 0x1524 JUMP JUMPDEST SWAP1 SWAP2 SSTORE POP POP PUSH1 0x0 DUP8 DUP2 MSTORE PUSH1 0x8 DUP11 ADD PUSH1 0x20 MSTORE PUSH1 0x40 DUP2 KECCAK256 DUP1 SLOAD DUP4 SWAP3 SWAP1 PUSH2 0xC75 SWAP1 DUP5 SWAP1 PUSH2 0x1524 JUMP JUMPDEST SWAP1 SWAP2 SSTORE POP PUSH2 0xC85 SWAP1 POP DUP5 DUP10 PUSH2 0x16AF JUMP JUMPDEST SWAP8 POP POP POP JUMPDEST DUP1 ISZERO PUSH2 0xD01 JUMPI PUSH1 0x1E SLOAD PUSH1 0x1 PUSH1 0x1 PUSH1 0xA0 SHL SUB SWAP1 DUP2 AND PUSH1 0x0 SWAP1 DUP2 MSTORE PUSH1 0x58 PUSH1 0x20 SWAP1 DUP2 MSTORE PUSH1 0x40 DUP1 DUP4 KECCAK256 DUP10 DUP5 MSTORE DUP3 MSTORE DUP1 DUP4 KECCAK256 SLOAD SWAP1 SWAP4 AND DUP3 MSTORE PUSH1 0x7 SWAP1 MSTORE SWAP1 DUP2 KECCAK256 DUP1 SLOAD DUP4 SWAP3 SWAP1 PUSH2 0xCD4 SWAP1 DUP5 SWAP1 PUSH2 0x1524 JUMP JUMPDEST SWAP1 SWAP2 SSTORE POP PUSH2 0xCE4 SWAP1 POP DUP2 DUP8 PUSH2 0x16AF JUMP JUMPDEST SWAP6 POP DUP1 PUSH1 0x0 PUSH1 0xA ADD PUSH1 0x0 DUP3 DUP3 SLOAD PUSH2 0xCFB SWAP2 SWAP1 PUSH2 0x1524 JUMP JUMPDEST SWAP1 SWAP2 SSTORE POP POP JUMPDEST POP POP POP POP JUMPDEST DUP1 PUSH2 0xD10 DUP2 PUSH2 0x154E JUMP JUMPDEST SWAP2 POP POP PUSH2 0xB26 JUMP JUMPDEST POP DUP1 ISZERO PUSH2 0xD54 JUMPI DUP1 PUSH1 0x0 PUSH1 0x8 ADD PUSH1 0x0 DUP3 DUP3 SLOAD PUSH2 0xD34 SWAP2 SWAP1 PUSH2 0x1524 JUMP JUMPDEST SWAP1 SWAP2 SSTORE POP POP PUSH1 0xA DUP1 SLOAD DUP3 SWAP2 SWAP1 PUSH1 0x0 SWAP1 PUSH2 0xD4E SWAP1 DUP5 SWAP1 PUSH2 0x1524 JUMP JUMPDEST SWAP1 SWAP2 SSTORE POP POP JUMPDEST PUSH1 0x1 JUMPDEST PUSH1 0x1E SLOAD PUSH1 0x1 PUSH1 0x1 PUSH1 0xA0 SHL SUB AND PUSH1 0x0 SWAP1 DUP2 MSTORE PUSH1 0x5E PUSH1 0x20 MSTORE PUSH1 0x40 SWAP1 KECCAK256 SLOAD DUP2 GT PUSH2 0xDB2 JUMPI PUSH1 0x0 DUP2 DUP2 MSTORE PUSH1 0x8 DUP5 ADD PUSH1 0x20 MSTORE PUSH1 0x40 SWAP1 KECCAK256 SLOAD ISZERO PUSH2 0xDA0 JUMPI PUSH1 0x0 DUP2 DUP2 MSTORE PUSH1 0xA DUP5 ADD PUSH1 0x20 MSTORE PUSH1 0x40 DUP2 KECCAK256 SSTORE JUMPDEST DUP1 PUSH2 0xDAA DUP2 PUSH2 0x154E JUMP JUMPDEST SWAP2 POP POP PUSH2 0xD57 JUMP JUMPDEST POP PUSH1 0x0 PUSH1 0x4 DUP4 ADD SSTORE PUSH1 0x40 DUP1 MLOAD DUP6 DUP2 MSTORE PUSH1 0x20 DUP2 ADD DUP6 SWAP1 MSTORE DUP7 SWAP2 PUSH32 0x955DBE96BE2A4761FC3D581FFBD13C26516A8646B84AF033986A73AF11693B4A SWAP2 ADD PUSH1 0x40 MLOAD DUP1 SWAP2 SUB SWAP1 LOG2 POP POP POP POP POP JUMP JUMPDEST PUSH1 0x1E SLOAD PUSH1 0x1 PUSH1 0x1 PUSH1 0xA0 SHL SUB SWAP1 DUP2 AND PUSH1 0x0 SWAP1 DUP2 MSTORE PUSH1 0x58 PUSH1 0x20 SWAP1 DUP2 MSTORE PUSH1 0x40 DUP1 DUP4 KECCAK256 DUP8 DUP5 MSTORE SWAP1 SWAP2 MSTORE SWAP1 KECCAK256 SLOAD AND CALLER EQ PUSH2 0xE6E JUMPI PUSH1 0x40 MLOAD PUSH3 0x461BCD PUSH1 0xE5 SHL DUP2 MSTORE PUSH1 0x20 PUSH1 0x4 DUP3 ADD MSTORE PUSH1 0x18 PUSH1 0x24 DUP3 ADD MSTORE PUSH24 0x165BDD48191BC81B9BDD081BDDDB881D1A1A5CC8109D5B1B PUSH1 0x42 SHL PUSH1 0x44 DUP3 ADD MSTORE PUSH1 0x64 ADD PUSH2 0x1BE JUMP JUMPDEST PUSH1 0x0 DUP2 DUP2 MSTORE PUSH1 0x3B PUSH1 0x20 MSTORE PUSH1 0x40 SWAP1 KECCAK256 SLOAD PUSH1 0xFF AND ISZERO PUSH2 0xEF3 JUMPI PUSH1 0x40 MLOAD PUSH3 0x461BCD PUSH1 0xE5 SHL DUP2 MSTORE PUSH1 0x20 PUSH1 0x4 DUP3 ADD MSTORE PUSH1 0x39 PUSH1 0x24 DUP3 ADD MSTORE PUSH32 0x4D75737420626520616E20617070726F76656420436F6D706F756E64696E6720 PUSH1 0x44 DUP3 ADD MSTORE PUSH32 0x526174652C20652E6720446976697369626C6520627920313000000000000000 PUSH1 0x64 DUP3 ADD MSTORE PUSH1 0x84 ADD PUSH2 0x1BE JUMP JUMPDEST PUSH1 0x0 DUP1 PUSH1 0x3A ADD DUP4 DUP2 SLOAD DUP2 LT PUSH2 0xF0A JUMPI PUSH2 0xF0A PUSH2 0x14C1 JUMP JUMPDEST SWAP1 PUSH1 0x0 MSTORE PUSH1 0x20 PUSH1 0x0 KECCAK256 SWAP1 PUSH1 0xD MUL ADD SWAP1 POP DUP2 DUP2 PUSH1 0x9 ADD PUSH1 0x0 DUP7 DUP2 MSTORE PUSH1 0x20 ADD SWAP1 DUP2 MSTORE PUSH1 0x20 ADD PUSH1 0x0 KECCAK256 DUP2 SWAP1 SSTORE POP DUP3 DUP5 PUSH32 0xAC8B46CF760E1B26E4A382B3883026833FFEBB4C395347373BC7357A437D28CD DUP5 PUSH1 0x40 MLOAD PUSH2 0xF67 SWAP2 DUP2 MSTORE PUSH1 0x20 ADD SWAP1 JUMP JUMPDEST PUSH1 0x40 MLOAD DUP1 SWAP2 SUB SWAP1 LOG3 POP POP POP POP JUMP JUMPDEST PUSH1 0x40 DUP1 MLOAD PUSH1 0x1 PUSH1 0x1 PUSH1 0xA0 SHL SUB DUP6 DUP2 AND PUSH1 0x24 DUP4 ADD MSTORE DUP5 AND PUSH1 0x44 DUP3 ADD MSTORE PUSH1 0x64 DUP1 DUP3 ADD DUP5 SWAP1 MSTORE DUP3 MLOAD DUP1 DUP4 SUB SWAP1 SWAP2 ADD DUP2 MSTORE PUSH1 0x84 SWAP1 SWAP2 ADD SWAP1 SWAP2 MSTORE PUSH1 0x20 DUP2 ADD DUP1 MLOAD PUSH1 0x1 PUSH1 0x1 PUSH1 0xE0 SHL SUB AND PUSH4 0x23B872DD PUSH1 0xE0 SHL OR SWAP1 MSTORE PUSH2 0xFCF SWAP1 DUP6 SWAP1 PUSH2 0x10FF JUMP JUMPDEST POP POP POP POP JUMP JUMPDEST PUSH32 0xC8FCAD8DB84D3CC18B4C41D551EA0EE66DD599CDE068D998E57D5E09332C131C PUSH1 0x4 ADD SLOAD PUSH1 0x1 PUSH1 0x1 PUSH1 0xA0 SHL SUB AND CALLER EQ PUSH2 0x105C JUMPI PUSH1 0x40 MLOAD PUSH3 0x461BCD PUSH1 0xE5 SHL DUP2 MSTORE PUSH1 0x20 PUSH1 0x4 DUP3 ADD MSTORE PUSH1 0x22 PUSH1 0x24 DUP3 ADD MSTORE PUSH32 0x4C69624469616D6F6E643A204D75737420626520636F6E7472616374206F776E PUSH1 0x44 DUP3 ADD MSTORE PUSH2 0x32B9 PUSH1 0xF1 SHL PUSH1 0x64 DUP3 ADD MSTORE PUSH1 0x84 ADD PUSH2 0x1BE JUMP JUMPDEST JUMP JUMPDEST PUSH1 0x41 SLOAD PUSH1 0x3F SLOAD PUSH1 0x0 SWAP2 LT PUSH2 0x1086 JUMPI PUSH1 0x46 SLOAD PUSH1 0x64 SWAP1 PUSH2 0x107C SWAP1 DUP5 PUSH2 0x1537 JUMP JUMPDEST PUSH2 0x3D7 SWAP2 SWAP1 PUSH2 0x16C2 JUMP JUMPDEST PUSH1 0x42 SLOAD PUSH1 0x3F SLOAD GT PUSH2 0x10A1 JUMPI PUSH1 0x47 SLOAD PUSH1 0x64 SWAP1 PUSH2 0x107C SWAP1 DUP5 PUSH2 0x1537 JUMP JUMPDEST PUSH1 0x43 SLOAD PUSH1 0x3F SLOAD GT PUSH2 0x10BC JUMPI PUSH1 0x48 SLOAD PUSH1 0x64 SWAP1 PUSH2 0x107C SWAP1 DUP5 PUSH2 0x1537 JUMP JUMPDEST PUSH1 0x44 SLOAD PUSH1 0x3F SLOAD GT PUSH2 0x10D7 JUMPI PUSH1 0x49 SLOAD PUSH1 0x64 SWAP1 PUSH2 0x107C SWAP1 DUP5 PUSH2 0x1537 JUMP JUMPDEST PUSH1 0x45 SLOAD PUSH1 0x3F SLOAD GT PUSH2 0x10F2 JUMPI PUSH1 0x4A SLOAD PUSH1 0x64 SWAP1 PUSH2 0x107C SWAP1 DUP5 PUSH2 0x1537 JUMP JUMPDEST POP PUSH1 0x0 SWAP2 SWAP1 POP JUMP JUMPDEST SWAP2 SWAP1 POP JUMP JUMPDEST PUSH1 0x0 PUSH2 0x1114 PUSH1 0x1 PUSH1 0x1 PUSH1 0xA0 SHL SUB DUP5 AND DUP4 PUSH2 0x1167 JUMP JUMPDEST SWAP1 POP DUP1 MLOAD PUSH1 0x0 EQ ISZERO DUP1 ISZERO PUSH2 0x1139 JUMPI POP DUP1 DUP1 PUSH1 0x20 ADD SWAP1 MLOAD DUP2 ADD SWAP1 PUSH2 0x1137 SWAP2 SWAP1 PUSH2 0x16E4 JUMP JUMPDEST ISZERO JUMPDEST ISZERO PUSH2 0x1162 JUMPI PUSH1 0x40 MLOAD PUSH4 0x5274AFE7 PUSH1 0xE0 SHL DUP2 MSTORE PUSH1 0x1 PUSH1 0x1 PUSH1 0xA0 SHL SUB DUP5 AND PUSH1 0x4 DUP3 ADD MSTORE PUSH1 0x24 ADD PUSH2 0x1BE JUMP JUMPDEST POP POP POP JUMP JUMPDEST PUSH1 0x60 PUSH2 0x11A9 DUP4 DUP4 PUSH1 0x40 MLOAD DUP1 PUSH1 0x40 ADD PUSH1 0x40 MSTORE DUP1 PUSH1 0x1E DUP2 MSTORE PUSH1 0x20 ADD PUSH32 0x416464726573733A206C6F772D6C6576656C2063616C6C206661696C65640000 DUP2 MSTORE POP PUSH2 0x11B0 JUMP JUMPDEST SWAP4 SWAP3 POP POP POP JUMP JUMPDEST PUSH1 0x60 PUSH2 0x11BF DUP5 DUP5 PUSH1 0x0 DUP6 PUSH2 0x11C7 JUMP JUMPDEST SWAP5 SWAP4 POP POP POP POP JUMP JUMPDEST PUSH1 0x60 DUP3 SELFBALANCE LT ISZERO PUSH2 0x1228 JUMPI PUSH1 0x40 MLOAD PUSH3 0x461BCD PUSH1 0xE5 SHL DUP2 MSTORE PUSH1 0x20 PUSH1 0x4 DUP3 ADD MSTORE PUSH1 0x26 PUSH1 0x24 DUP3 ADD MSTORE PUSH32 0x416464726573733A20696E73756666696369656E742062616C616E636520666F PUSH1 0x44 DUP3 ADD MSTORE PUSH6 0x1C8818D85B1B PUSH1 0xD2 SHL PUSH1 0x64 DUP3 ADD MSTORE PUSH1 0x84 ADD PUSH2 0x1BE JUMP JUMPDEST PUSH1 0x1 PUSH1 0x1 PUSH1 0xA0 SHL SUB DUP6 AND EXTCODESIZE PUSH2 0x127F JUMPI PUSH1 0x40 MLOAD PUSH3 0x461BCD PUSH1 0xE5 SHL DUP2 MSTORE PUSH1 0x20 PUSH1 0x4 DUP3 ADD MSTORE PUSH1 0x1D PUSH1 0x24 DUP3 ADD MSTORE PUSH32 0x416464726573733A2063616C6C20746F206E6F6E2D636F6E7472616374000000 PUSH1 0x44 DUP3 ADD MSTORE PUSH1 0x64 ADD PUSH2 0x1BE JUMP JUMPDEST PUSH1 0x0 DUP1 DUP7 PUSH1 0x1 PUSH1 0x1 PUSH1 0xA0 SHL SUB AND DUP6 DUP8 PUSH1 0x40 MLOAD PUSH2 0x129B SWAP2 SWAP1 PUSH2 0x172A JUMP JUMPDEST PUSH1 0x0 PUSH1 0x40 MLOAD DUP1 DUP4 SUB DUP2 DUP6 DUP8 GAS CALL SWAP3 POP POP POP RETURNDATASIZE DUP1 PUSH1 0x0 DUP2 EQ PUSH2 0x12D8 JUMPI PUSH1 0x40 MLOAD SWAP2 POP PUSH1 0x1F NOT PUSH1 0x3F RETURNDATASIZE ADD AND DUP3 ADD PUSH1 0x40 MSTORE RETURNDATASIZE DUP3 MSTORE RETURNDATASIZE PUSH1 0x0 PUSH1 0x20 DUP5 ADD RETURNDATACOPY PUSH2 0x12DD JUMP JUMPDEST PUSH1 0x60 SWAP2 POP JUMPDEST POP SWAP2 POP SWAP2 POP PUSH2 0x12ED DUP3 DUP3 DUP7 PUSH2 0x12F8 JUMP JUMPDEST SWAP8 SWAP7 POP POP POP POP POP POP POP JUMP JUMPDEST PUSH1 0x60 DUP4 ISZERO PUSH2 0x1307 JUMPI POP DUP2 PUSH2 0x11A9 JUMP JUMPDEST DUP3 MLOAD ISZERO PUSH2 0x1317 JUMPI DUP3 MLOAD DUP1 DUP5 PUSH1 0x20 ADD REVERT JUMPDEST DUP2 PUSH1 0x40 MLOAD PUSH3 0x461BCD PUSH1 0xE5 SHL DUP2 MSTORE PUSH1 0x4 ADD PUSH2 0x1BE SWAP2 SWAP1 PUSH2 0x1746 JUMP JUMPDEST PUSH1 0x0 DUP1 PUSH1 0x40 DUP4 DUP6 SUB SLT ISZERO PUSH2 0x1344 JUMPI PUSH1 0x0 DUP1 REVERT JUMPDEST POP POP DUP1 CALLDATALOAD SWAP3 PUSH1 0x20 SWAP1 SWAP2 ADD CALLDATALOAD SWAP2 POP JUMP JUMPDEST PUSH4 0x4E487B71 PUSH1 0xE0 SHL PUSH1 0x0 MSTORE PUSH1 0x41 PUSH1 0x4 MSTORE PUSH1 0x24 PUSH1 0x0 REVERT JUMPDEST DUP1 CALLDATALOAD PUSH1 0x1 PUSH1 0x1 PUSH1 0xA0 SHL SUB DUP2 AND DUP2 EQ PUSH2 0x10FA JUMPI PUSH1 0x0 DUP1 REVERT JUMPDEST PUSH1 0x0 DUP1 PUSH1 0x0 PUSH1 0x60 DUP5 DUP7 SUB SLT ISZERO PUSH2 0x1395 JUMPI PUSH1 0x0 DUP1 REVERT JUMPDEST DUP4 CALLDATALOAD PUSH8 0xFFFFFFFFFFFFFFFF DUP1 DUP3 GT ISZERO PUSH2 0x13AD JUMPI PUSH1 0x0 DUP1 REVERT JUMPDEST DUP2 DUP7 ADD SWAP2 POP DUP7 PUSH1 0x1F DUP4 ADD SLT PUSH2 0x13C1 JUMPI PUSH1 0x0 DUP1 REVERT JUMPDEST DUP2 CALLDATALOAD DUP2 DUP2 GT ISZERO PUSH2 0x13D3 JUMPI PUSH2 0x13D3 PUSH2 0x1353 JUMP JUMPDEST PUSH1 0x40 MLOAD PUSH1 0x1F DUP3 ADD PUSH1 0x1F NOT SWAP1 DUP2 AND PUSH1 0x3F ADD AND DUP2 ADD SWAP1 DUP4 DUP3 GT DUP2 DUP4 LT OR ISZERO PUSH2 0x13FB JUMPI PUSH2 0x13FB PUSH2 0x1353 JUMP JUMPDEST DUP2 PUSH1 0x40 MSTORE DUP3 DUP2 MSTORE DUP10 PUSH1 0x20 DUP5 DUP8 ADD ADD GT ISZERO PUSH2 0x1414 JUMPI PUSH1 0x0 DUP1 REVERT JUMPDEST DUP3 PUSH1 0x20 DUP7 ADD PUSH1 0x20 DUP4 ADD CALLDATACOPY PUSH1 0x0 PUSH1 0x20 DUP5 DUP4 ADD ADD MSTORE DUP1 SWAP8 POP POP POP POP POP POP PUSH2 0x143B PUSH1 0x20 DUP6 ADD PUSH2 0x1369 JUMP JUMPDEST SWAP2 POP PUSH2 0x1449 PUSH1 0x40 DUP6 ADD PUSH2 0x1369 JUMP JUMPDEST SWAP1 POP SWAP3 POP SWAP3 POP SWAP3 JUMP JUMPDEST PUSH1 0x0 DUP1 PUSH1 0x0 DUP1 PUSH1 0x0 DUP1 PUSH1 0xC0 DUP8 DUP10 SUB SLT ISZERO PUSH2 0x146B JUMPI PUSH1 0x0 DUP1 REVERT JUMPDEST POP POP DUP5 CALLDATALOAD SWAP7 PUSH1 0x20 DUP7 ADD CALLDATALOAD SWAP7 POP PUSH1 0x40 DUP7 ADD CALLDATALOAD SWAP6 PUSH1 0x60 DUP2 ADD CALLDATALOAD SWAP6 POP PUSH1 0x80 DUP2 ADD CALLDATALOAD SWAP5 POP PUSH1 0xA0 ADD CALLDATALOAD SWAP3 POP SWAP1 POP JUMP JUMPDEST PUSH1 0x0 DUP1 PUSH1 0x0 PUSH1 0x60 DUP5 DUP7 SUB SLT ISZERO PUSH2 0x14AA JUMPI PUSH1 0x0 DUP1 REVERT JUMPDEST POP POP DUP2 CALLDATALOAD SWAP4 PUSH1 0x20 DUP4 ADD CALLDATALOAD SWAP4 POP PUSH1 0x40 SWAP1 SWAP3 ADD CALLDATALOAD SWAP2 SWAP1 POP JUMP JUMPDEST PUSH4 0x4E487B71 PUSH1 0xE0 SHL PUSH1 0x0 MSTORE PUSH1 0x32 PUSH1 0x4 MSTORE PUSH1 0x24 PUSH1 0x0 REVERT JUMPDEST PUSH1 0x20 DUP1 DUP3 MSTORE PUSH1 0x1A SWAP1 DUP3 ADD MSTORE PUSH32 0x6D75737420626520616E20617070726F7665642077616C6C6574000000000000 PUSH1 0x40 DUP3 ADD MSTORE PUSH1 0x60 ADD SWAP1 JUMP JUMPDEST PUSH4 0x4E487B71 PUSH1 0xE0 SHL PUSH1 0x0 MSTORE PUSH1 0x11 PUSH1 0x4 MSTORE PUSH1 0x24 PUSH1 0x0 REVERT JUMPDEST DUP1 DUP3 ADD DUP1 DUP3 GT ISZERO PUSH2 0x3D7 JUMPI PUSH2 0x3D7 PUSH2 0x150E JUMP JUMPDEST DUP1 DUP3 MUL DUP2 ISZERO DUP3 DUP3 DIV DUP5 EQ OR PUSH2 0x3D7 JUMPI PUSH2 0x3D7 PUSH2 0x150E JUMP JUMPDEST PUSH1 0x0 PUSH1 0x1 DUP3 ADD PUSH2 0x1560 JUMPI PUSH2 0x1560 PUSH2 0x150E JUMP JUMPDEST POP PUSH1 0x1 ADD SWAP1 JUMP JUMPDEST PUSH1 0x1 DUP2 DUP2 SHR SWAP1 DUP3 AND DUP1 PUSH2 0x157B JUMPI PUSH1 0x7F DUP3 AND SWAP2 POP JUMPDEST PUSH1 0x20 DUP3 LT DUP2 SUB PUSH2 0x159B JUMPI PUSH4 0x4E487B71 PUSH1 0xE0 SHL PUSH1 0x0 MSTORE PUSH1 0x22 PUSH1 0x4 MSTORE PUSH1 0x24 PUSH1 0x0 REVERT JUMPDEST POP SWAP2 SWAP1 POP JUMP JUMPDEST PUSH1 0x1F DUP3 GT ISZERO PUSH2 0x1162 JUMPI PUSH1 0x0 DUP2 DUP2 MSTORE PUSH1 0x20 DUP2 KECCAK256 PUSH1 0x1F DUP6 ADD PUSH1 0x5 SHR DUP2 ADD PUSH1 0x20 DUP7 LT ISZERO PUSH2 0x15C8 JUMPI POP DUP1 JUMPDEST PUSH1 0x1F DUP6 ADD PUSH1 0x5 SHR DUP3 ADD SWAP2 POP JUMPDEST DUP2 DUP2 LT ISZERO PUSH2 0x15E7 JUMPI DUP3 DUP2 SSTORE PUSH1 0x1 ADD PUSH2 0x15D4 JUMP JUMPDEST POP POP POP POP POP POP JUMP JUMPDEST DUP2 MLOAD PUSH8 0xFFFFFFFFFFFFFFFF DUP2 GT ISZERO PUSH2 0x1609 JUMPI PUSH2 0x1609 PUSH2 0x1353 JUMP JUMPDEST PUSH2 0x161D DUP2 PUSH2 0x1617 DUP5 SLOAD PUSH2 0x1567 JUMP JUMPDEST DUP5 PUSH2 0x15A1 JUMP JUMPDEST PUSH1 0x20 DUP1 PUSH1 0x1F DUP4 GT PUSH1 0x1 DUP2 EQ PUSH2 0x1652 JUMPI PUSH1 0x0 DUP5 ISZERO PUSH2 0x163A JUMPI POP DUP6 DUP4 ADD MLOAD JUMPDEST PUSH1 0x0 NOT PUSH1 0x3 DUP7 SWAP1 SHL SHR NOT AND PUSH1 0x1 DUP6 SWAP1 SHL OR DUP6 SSTORE PUSH2 0x15E7 JUMP JUMPDEST PUSH1 0x0 DUP6 DUP2 MSTORE PUSH1 0x20 DUP2 KECCAK256 PUSH1 0x1F NOT DUP7 AND SWAP2 JUMPDEST DUP3 DUP2 LT ISZERO PUSH2 0x1681 JUMPI DUP9 DUP7 ADD MLOAD DUP3 SSTORE SWAP5 DUP5 ADD SWAP5 PUSH1 0x1 SWAP1 SWAP2 ADD SWAP1 DUP5 ADD PUSH2 0x1662 JUMP JUMPDEST POP DUP6 DUP3 LT ISZERO PUSH2 0x169F JUMPI DUP8 DUP6 ADD MLOAD PUSH1 0x0 NOT PUSH1 0x3 DUP9 SWAP1 SHL PUSH1 0xF8 AND SHR NOT AND DUP2 SSTORE JUMPDEST POP POP POP POP POP PUSH1 0x1 SWAP1 DUP2 SHL ADD SWAP1 SSTORE POP JUMP JUMPDEST DUP2 DUP2 SUB DUP2 DUP2 GT ISZERO PUSH2 0x3D7 JUMPI PUSH2 0x3D7 PUSH2 0x150E JUMP JUMPDEST PUSH1 0x0 DUP3 PUSH2 0x16DF JUMPI PUSH4 0x4E487B71 PUSH1 0xE0 SHL PUSH1 0x0 MSTORE PUSH1 0x12 PUSH1 0x4 MSTORE PUSH1 0x24 PUSH1 0x0 REVERT JUMPDEST POP DIV SWAP1 JUMP JUMPDEST PUSH1 0x0 PUSH1 0x20 DUP3 DUP5 SUB SLT ISZERO PUSH2 0x16F6 JUMPI PUSH1 0x0 DUP1 REVERT JUMPDEST DUP2 MLOAD DUP1 ISZERO ISZERO DUP2 EQ PUSH2 0x11A9 JUMPI PUSH1 0x0 DUP1 REVERT JUMPDEST PUSH1 0x0 JUMPDEST DUP4 DUP2 LT ISZERO PUSH2 0x1721 JUMPI DUP2 DUP2 ADD MLOAD DUP4 DUP3 ADD MSTORE PUSH1 0x20 ADD PUSH2 0x1709 JUMP JUMPDEST POP POP PUSH1 0x0 SWAP2 ADD MSTORE JUMP JUMPDEST PUSH1 0x0 DUP3 MLOAD PUSH2 0x173C DUP2 DUP5 PUSH1 0x20 DUP8 ADD PUSH2 0x1706 JUMP JUMPDEST SWAP2 SWAP1 SWAP2 ADD SWAP3 SWAP2 POP POP JUMP JUMPDEST PUSH1 0x20 DUP2 MSTORE PUSH1 0x0 DUP3 MLOAD DUP1 PUSH1 0x20 DUP5 ADD MSTORE PUSH2 0x1765 DUP2 PUSH1 0x40 DUP6 ADD PUSH1 0x20 DUP8 ADD PUSH2 0x1706 JUMP JUMPDEST PUSH1 0x1F ADD PUSH1 0x1F NOT AND SWAP2 SWAP1 SWAP2 ADD PUSH1 0x40 ADD SWAP3 SWAP2 POP POP JUMP INVALID LOG2 PUSH5 0x6970667358 0x22 SLT KECCAK256 SWAP8 DUP3 0x2A PUSH8 0x9BCEE06A49C27C96 0xC6 DUP16 0xE8 0x5E 0x4A GAS AND PUSH8 0x31D1B2424C2043BE CALLVALUE BALANCE DUP4 PUSH32 0x64736F6C63430008140033000000000000000000000000000000000000000000 "},"methodIdentifiers":{"addNewVault(string,address,address)":"96240876","allocateSaltToVault(uint256,uint256,uint256,uint256,uint256,uint256)":"a6e1034d","depositProfitsAndcalculateVaultRewardPoints(uint256,uint256)":"0888357b","getCompoundingRateForIndex(uint256,uint256)":"3f36237e","getContinousMonthsCompoundingForIndex(uint256,uint256)":"572ddb4c","getDepositedSaltForIndex(uint256,uint256)":"d7b8788a","getIsIndexEligibleForBonusDuringSaltDeposit(uint256,uint256)":"0fbcdcbf","rewardVaultIndex(uint256,uint256,uint256)":"dd5d0b00","setCompoundingRate(uint256,uint256,uint256)":"f82b94d8"}}}}}