{"contracts/facets/GemTokenChallengeFacet.sol":{"GemTokenChallengeFacet":{"abi":[{"inputs":[{"internalType":"address","name":"token","type":"address"}],"name":"SafeERC20FailedOperation","type":"error"},{"anonymous":false,"inputs":[{"indexed":true,"internalType":"address","name":"depositor","type":"address"},{"indexed":false,"internalType":"uint256","name":"amount","type":"uint256"}],"name":"RewardsDeposited","type":"event"},{"anonymous":false,"inputs":[{"indexed":true,"internalType":"address","name":"from","type":"address"},{"indexed":true,"internalType":"address","name":"to","type":"address"},{"indexed":true,"internalType":"uint256","name":"tokenId","type":"uint256"}],"name":"Transfer","type":"event"},{"inputs":[{"internalType":"address","name":"_owner","type":"address"}],"name":"_walletOfOwnerForGemTokens","outputs":[{"internalType":"uint256[]","name":"","type":"uint256[]"}],"stateMutability":"view","type":"function"},{"inputs":[{"internalType":"uint256[]","name":"batch","type":"uint256[]"}],"name":"addShuffledIndexesBatch","outputs":[],"stateMutability":"nonpayable","type":"function"},{"inputs":[{"internalType":"uint256","name":"start","type":"uint256"},{"internalType":"uint256","name":"end","type":"uint256"},{"internalType":"uint256","name":"value","type":"uint256"},{"internalType":"string","name":"color","type":"string"}],"name":"bulkPopulateTokens","outputs":[],"stateMutability":"nonpayable","type":"function"},{"inputs":[],"name":"burnAndClaimSpot","outputs":[],"stateMutability":"nonpayable","type":"function"},{"inputs":[],"name":"checkIfWinner","outputs":[{"internalType":"bool","name":"","type":"bool"}],"stateMutability":"view","type":"function"},{"inputs":[],"name":"checkTokenScoreForWallet","outputs":[{"internalType":"uint256","name":"primaryColorPoints","type":"uint256"},{"internalType":"uint256","name":"pointsAllColors","type":"uint256"}],"stateMutability":"view","type":"function"},{"inputs":[{"internalType":"uint256","name":"_amount","type":"uint256"}],"name":"depositRewardsForGame","outputs":[],"stateMutability":"nonpayable","type":"function"},{"inputs":[],"name":"getCurrentGameDetails","outputs":[{"internalType":"uint256","name":"","type":"uint256"},{"internalType":"string","name":"","type":"string"},{"internalType":"uint256","name":"","type":"uint256"},{"internalType":"bool","name":"","type":"bool"},{"internalType":"bool","name":"","type":"bool"},{"internalType":"uint256[]","name":"","type":"uint256[]"},{"internalType":"uint256","name":"","type":"uint256"}],"stateMutability":"view","type":"function"},{"inputs":[],"name":"getCurrentGemTokenRewardBalance","outputs":[{"internalType":"uint256","name":"","type":"uint256"}],"stateMutability":"view","type":"function"},{"inputs":[{"internalType":"uint256","name":"tokenIndex","type":"uint256"}],"name":"getGemToken","outputs":[{"internalType":"uint256","name":"","type":"uint256"},{"internalType":"uint256","name":"","type":"uint256"},{"internalType":"string","name":"","type":"string"}],"stateMutability":"view","type":"function"},{"inputs":[],"name":"getGtcWinners","outputs":[{"internalType":"address[]","name":"","type":"address[]"}],"stateMutability":"view","type":"function"},{"inputs":[{"internalType":"uint256","name":"_winningValue","type":"uint256"},{"internalType":"string","name":"_primaryColor","type":"string"},{"internalType":"uint256","name":"_numberOfWinningSpots","type":"uint256"},{"internalType":"uint256[]","name":"_payoutDistribution","type":"uint256[]"}],"name":"setGameParameters","outputs":[],"stateMutability":"nonpayable","type":"function"},{"inputs":[],"name":"setSingleToken","outputs":[],"stateMutability":"nonpayable","type":"function"}],"evm":{"bytecode":{"linkReferences":{},"object":"608060405234801561001057600080fd5b506124ac806100206000396000f3fe608060405234801561001057600080fd5b50600436106100cf5760003560e01c8063a6b371a91161008c578063b844007c11610066578063b844007c146101ad578063cb78a3c1146101c5578063da4bd360146101d8578063ecc2cda4146101eb57600080fd5b8063a6b371a91461015d578063ad37ff311461016e578063ae93f49d1461019057600080fd5b80630a0e0194146100d457806335a5cff2146100fd5780635bbec7f614610118578063633ed8201461012d5780636d5d07fa146101355780639a2dc07a14610148575b600080fd5b6100e76100e2366004611d1e565b6101f3565b6040516100f49190611d82565b60405180910390f35b6101056102db565b6040516100f49796959493929190611de5565b61012b610126366004611e3b565b610405565b005b61012b610524565b61012b610143366004611f0b565b6105e2565b61015061089d565b6040516100f49190611fe9565b600a546040519081526020016100f4565b61018161017c366004611e3b565b610902565b6040516100f493929190612036565b6101986109eb565b604080519283526020830191909152016100f4565b6101b5610aed565b60405190151581526020016100f4565b61012b6101d336600461205e565b610c17565b61012b6101e63660046120d3565b610c72565b61012b610d97565b601f546001600160a01b0390811660009081526058602090815260408083209385168352929052908120546060918167ffffffffffffffff81111561023a5761023a611e54565b604051908082528060200260200182016040528015610263578160200160208202803683370190505b50905060005b828110156102d357601f546001600160a01b039081166000908152605b6020908152604080832093891683529281528282208483529052205482518390839081106102b6576102b661212d565b6020908102919091010152806102cb81612159565b915050610269565b509392505050565b602754602a54602d546029546028805460009560609587958695869589958795949193919260ff8084169361010090041691602c9190869061031c90612172565b80601f016020809104026020016040519081016040528092919081815260200182805461034890612172565b80156103955780601f1061036a57610100808354040283529160200191610395565b820191906000526020600020905b81548152906001019060200180831161037857829003601f168201915b50505050509550818054806020026020016040519081016040528092919081815260200182805480156103e757602002820191906000526020600020905b8154815260200190600101908083116103d3575b50505050509150965096509650965096509650965090919293949596565b336000908152602f602052604090205460ff166104625760405162461bcd60e51b8152602060048201526016602482015275139bdd08185b88185c1c1c9bdd9959081dd85b1b195d60521b60448201526064015b60405180910390fd5b6001546001600160a01b03166104ba5760405162461bcd60e51b815260206004820152601e60248201527f4d75737420736574202453565420636f6e7472616374206164647265737300006044820152606401610459565b6001546104d2906001600160a01b03163330846110d1565b806000600a0160008282546104e791906121ac565b909155505060405181815233907fb8b27d0db504fa5d914f1fd330347096e88d5ff94b6c612d32797e7c12a8f66f9060200160405180910390a250565b6040805160608101825260018082526005602080840191825284518086018652600381526214995960ea1b8183015294840194855260009290925290805281517f156774b33c8bc7cb83eda4cbc43b36c7c9490ff8913c488ccd5132cfc71344ea90815590517f156774b33c8bc7cb83eda4cbc43b36c7c9490ff8913c488ccd5132cfc71344eb5591519091907f156774b33c8bc7cb83eda4cbc43b36c7c9490ff8913c488ccd5132cfc71344ec906105dd9082612205565b505050565b336000908152602f602052604090205460ff1661063a5760405162461bcd60e51b8152602060048201526016602482015275139bdd08185b88185c1c1c9bdd9959081dd85b1b195d60521b6044820152606401610459565b60405160249061064b9085906122c5565b9081526040519081900360200190205460ff1661069a5760405162461bcd60e51b815260206004820152600d60248201526c24b73b30b634b21021b7b637b960991b6044820152606401610459565b600a546106f55760405162461bcd60e51b8152602060048201526024808201527f4d757374206465706f7369742053565420696e746f20636f6e747261637420666044820152631a5c9cdd60e21b6064820152608401610459565b602c54602a54146107485760405162461bcd60e51b815260206004820152601b60248201527f7061796f757420737472756374757265206d757374206d6174636800000000006044820152606401610459565b602d54610100900460ff16156107975760405162461bcd60e51b815260206004820152601460248201527347616d65206973207374696c6c2061637469766560601b6044820152606401610459565b6000805b82518110156107dd578281815181106107b6576107b661212d565b6020026020010151826107c991906121ac565b9150806107d581612159565b91505061079b565b508060641461083f5760405162461bcd60e51b815260206004820152602860248201527f546f74616c207061796f757420646973747269627574696f6e206d757374206560448201526707175616c203130360c41b6064820152608401610459565b602d805461ff001916610100179055815161086190602c906020850190611c46565b50602785905560286108738582612205565b50602a83905542602955610889602b6000611c91565b5050602d805460ff19166001179055505050565b60606000602b018054806020026020016040519081016040528092919081815260200182805480156108f857602002820191906000526020600020905b81546001600160a01b031681526001909101906020018083116108da575b5050505050905090565b60008060606000806020016000868152602001908152602001600020604051806060016040529081600082015481526020016001820154815260200160028201805461094d90612172565b80601f016020809104026020016040519081016040528092919081815260200182805461097990612172565b80156109c65780601f1061099b576101008083540402835291602001916109c6565b820191906000526020600020905b8154815290600101906020018083116109a957829003601f168201915b5050509190925250508151602083015160409093015190989297509550909350505050565b60008060006109f9336101f3565b602e54909150600090610a0f90620151806122e1565b602954610a1c90426122f8565b1180159150610ad45760005b8251811015610ad257600080610a56858481518110610a4957610a4961212d565b6020026020010151610902565b6040519194509250610a6e915060289060200161230b565b6040516020818303038152906040528051906020012081604051602001610a9591906122c5565b6040516020818303038152906040528051906020012003610abd57610aba82886121ac565b96505b50508080610aca90612159565b915050610a28565b505b610ae5610ae0336101f3565b611131565b925050509091565b60008080610afa336101f3565b602e54909150600090610b1090620151806122e1565b602954610b1d90426122f8565b1115905060008115610bec5760005b8351811015610bc957600080610b4d868481518110610a4957610a4961212d565b6040519194509250610b65915060289060200161230b565b6040516020818303038152906040528051906020012081604051602001610b8c91906122c5565b6040516020818303038152906040528051906020012003610bb457610bb182886121ac565b96505b50508080610bc190612159565b915050610b2c565b5060275484148015610be55750610be2610ae0336101f3565b84145b9050610bff565b610bf8610ae0336101f3565b6027541490505b808015610c0e5750602d5460ff165b94505050505090565b610c1f611182565b60005b818110156105dd576026838383818110610c3e57610c3e61212d565b8354600181018555600094855260209485902091909402929092013591909201555080610c6a81612159565b915050610c22565b610c7a611182565b82841115610cba5760405162461bcd60e51b815260206004820152600d60248201526c496e76616c69642072616e676560981b6044820152606401610459565b604051602490610ccb9083906122c5565b9081526040519081900360200190205460ff16610d1a5760405162461bcd60e51b815260206004820152600d60248201526c24b73b30b634b21021b7b637b960991b6044820152606401610459565b835b838111158015610d2e57506021548111155b15610d9057604080516060810182528281526020808201868152828401868152600086815292805293909120825181559051600182015591519091906002820190610d799082612205565b509050508080610d8890612159565b915050610d1c565b5050505050565b602d5460ff16610dda5760405162461bcd60e51b815260206004820152600e60248201526d11d85b59481a5cc818db1bdcd95960921b6044820152606401610459565b600e54600103610e2c5760405162461bcd60e51b815260206004820152601960248201527f5265656e7472616e637920666c616720747269676765726564000000000000006044820152606401610459565b6001600e55610e39610aed565b156110ca57601f546001600160a01b03166000908152605a60209081526040808320338452825280832030845290915290205460ff16610ecc5760405162461bcd60e51b815260206004820152602860248201527f436f6e7472616374206e6f7420617070726f76656420746f207472616e7366656044820152677220746f6b656e7360c01b6064820152608401610459565b600080610ed8336101f3565b602e54909150600090610eee90620151806122e1565b602954610efb90426122f8565b1115905060005b8251811015610fb657600080610f23858481518110610a4957610a4961212d565b92509250508315610f9457604051610f409060289060200161230b565b6040516020818303038152906040528051906020012081604051602001610f6791906122c5565b6040516020818303038152906040528051906020012003610f8f57610f8c82876121ac565b95505b610fa1565b610f9e82876121ac565b95505b50508080610fae90612159565b915050610f02565b506027548314610fff5760405162461bcd60e51b8152602060048201526014602482015273139bdd0818481dda5b9b9a5b99c81dd85b1b195d60621b6044820152606401610459565b60005b825181101561105957601f546005548451611047926001600160a01b0390811692339291169087908690811061103a5761103a61212d565b602002602001015161120b565b8061105181612159565b915050611002565b50602a54602b5410156110a957602b80546001810182556000919091527f11c44e4875b74d31ff9fd779bf2566af7bd15b87fc985d01f5094b89e3669e4f0180546001600160a01b031916331790555b602a54602b54036110c657602d805460ff191690556110c66113dd565b5050505b6000600e55565b604080516001600160a01b0385811660248301528416604482015260648082018490528251808303909101815260849091019091526020810180516001600160e01b03166323b872dd60e01b17905261112b90859061158f565b50505050565b600080805b835181101561117b576000611156858381518110610a4957610a4961212d565b509150611165905081846121ac565b925050808061117390612159565b915050611136565b5092915050565b7fc8fcad8db84d3cc18b4c41d551ea0ee66dd599cde068d998e57d5e09332c131c600401546001600160a01b031633146112095760405162461bcd60e51b815260206004820152602260248201527f4c69624469616d6f6e643a204d75737420626520636f6e7472616374206f776e60448201526132b960f11b6064820152608401610459565b565b6001600160a01b03848116600090815260576020908152604080832085845290915281205490918581169116146112545760405162461bcd60e51b815260040161045990612381565b6001600160a01b0383166112b65760405162461bcd60e51b8152602060048201526024808201527f4552433732313a207472616e7366657220746f20746865207a65726f206164646044820152637265737360e01b6064820152608401610459565b6112c48585858560016115f2565b6001600160a01b038581166000908152605783016020908152604080832086845290915290205481169085161461130d5760405162461bcd60e51b815260040161045990612381565b6001600160a01b03851660009081526059820160209081526040808320858452909152902080546001600160a01b031916905561134a8583611772565b6001600160a01b038581166000818152605884016020908152604080832089861680855290835281842080546000190190559488168084528184208054600101905593835260578601825280832087845290915280822080546001600160a01b03191684179055518593917fddf252ad1be2c89b69c2b068fc378daa952ba7f163c4a11628f55a4df523b3ef91a4610d90565b602d5460ff16156114255760405162461bcd60e51b815260206004820152601260248201527123b0b6b29034b99039ba34b6361037b832b760711b6044820152606401610459565b602d54610100900460ff1661147c5760405162461bcd60e51b815260206004820152601960248201527f47616d65206d757374207374696c6c20626520616374697665000000000000006044820152606401610459565b600a546040805160608101909152602180825282916114a3916124566020830139836117c9565b600060646000602c016000815481106114be576114be61212d565b9060005260206000200154846114d491906122e1565b6114de91906123c6565b9050806000600b01600080602b016000815481106114fe576114fe61212d565b60009182526020808320909101546001600160a01b03168352820192909252604001812080549091906115329084906121ac565b90915550611542905081836122f8565b9150811561157a576002546001600160a01b03166000908152600b6020526040812080548492906115749084906121ac565b90915550505b5050602d805461ff0019169055506000600a55565b60006115a46001600160a01b03841683611812565b905080516000141580156115c95750808060200190518101906115c791906123e8565b155b156105dd57604051635274afe760e01b81526001600160a01b0384166004820152602401610459565b60018111156116615760405162461bcd60e51b815260206004820152603560248201527f455243373231456e756d657261626c653a20636f6e7365637574697665207472604482015274185b9cd9995c9cc81b9bdd081cdd5c1c1bdc9d1959605a1b6064820152608401610459565b816001600160a01b0385166116b7576001600160a01b0386166000908152605d602081815260408084208054605e84528286208787528452918520829055928252600181018355918352909120018190556116db565b836001600160a01b0316856001600160a01b0316146116db576116db86868361185d565b6001600160a01b0384166116f8576116f38682611967565b61176a565b846001600160a01b0316846001600160a01b03161461176a576001600160a01b03808716600081815260586020908152604080832094891680845294825280832054848452605b83528184209584529482528083208584528252808320869055928252605c8152828220858352905220555b505050505050565b6001600160a01b0382166000908152605f60209081526040808320848452909152812054156105dd576001600160a01b0383166000908152605f82016020908152604080832085845290915281206105dd91611caf565b61180e82826040516024016117df92919061240a565b60408051601f198184030181529190526020810180516001600160e01b0316632d839cb360e21b179052611a96565b5050565b606061185483836040518060400160405280601e81526020017f416464726573733a206c6f772d6c6576656c2063616c6c206661696c65640000815250611aa2565b90505b92915050565b6001600160a01b0383811660009081526058602090815260408083209386168352929052908120548190611893906001906122f8565b6001600160a01b0386166000908152605c840160209081526040808320878452909152902054909150808214611916576001600160a01b038681166000818152605b860160209081526040808320948a168352938152838220868352815283822054858352848320819055928252605c8701815283822092825291909152208190555b506001600160a01b039485166000818152605c840160209081526040808320968352958152858220829055918152605b90930181528383209490951682529284528181209281529190925290812055565b6001600160a01b0382166000908152605d6020526040812054819061198e906001906122f8565b6001600160a01b0385166000818152605e850160209081526040808320888452825280832054938352605d8701909152812080549394509192909190849081106119da576119da61212d565b906000526020600020015490508084605d016000886001600160a01b03166001600160a01b031681526020019081526020016000208381548110611a2057611a2061212d565b6000918252602080832091909101929092556001600160a01b038816808252605e8701835260408083208584528452808320869055888352808320839055908252605d870190925220805480611a7857611a7861242c565b60019003818190600052602060002001600090559055505050505050565b611a9f81611abb565b50565b6060611ab18484600085611adc565b90505b9392505050565b60006a636f6e736f6c652e6c6f679050600080835160208501845afa505050565b606082471015611b3d5760405162461bcd60e51b815260206004820152602660248201527f416464726573733a20696e73756666696369656e742062616c616e636520666f6044820152651c8818d85b1b60d21b6064820152608401610459565b6001600160a01b0385163b611b945760405162461bcd60e51b815260206004820152601d60248201527f416464726573733a2063616c6c20746f206e6f6e2d636f6e74726163740000006044820152606401610459565b600080866001600160a01b03168587604051611bb091906122c5565b60006040518083038185875af1925050503d8060008114611bed576040519150601f19603f3d011682016040523d82523d6000602084013e611bf2565b606091505b5091509150611c02828286611c0d565b979650505050505050565b60608315611c1c575081611ab4565b825115611c2c5782518084602001fd5b8160405162461bcd60e51b81526004016104599190612442565b828054828255906000526020600020908101928215611c81579160200282015b82811115611c81578251825591602001919060010190611c66565b50611c8d929150611cd0565b5090565b5080546000825590600052602060002090810190611a9f9190611cd0565b5080546000825560040290600052602060002090810190611a9f9190611ce5565b5b80821115611c8d5760008155600101611cd1565b5b80821115611c8d5760008082556001820180546001600160a01b0319169055600282015560038101805460ff19169055600401611ce6565b600060208284031215611d3057600080fd5b81356001600160a01b0381168114611ab457600080fd5b600081518084526020808501945080840160005b83811015611d7757815187529582019590820190600101611d5b565b509495945050505050565b6020815260006118546020830184611d47565b60005b83811015611db0578181015183820152602001611d98565b50506000910152565b60008151808452611dd1816020860160208601611d95565b601f01601f19169290920160200192915050565b87815260e060208201526000611dfe60e0830189611db9565b8760408401528615156060840152851515608084015282810360a0840152611e268186611d47565b9150508260c083015298975050505050505050565b600060208284031215611e4d57600080fd5b5035919050565b634e487b7160e01b600052604160045260246000fd5b604051601f8201601f1916810167ffffffffffffffff81118282101715611e9357611e93611e54565b604052919050565b600082601f830112611eac57600080fd5b813567ffffffffffffffff811115611ec657611ec6611e54565b611ed9601f8201601f1916602001611e6a565b818152846020838601011115611eee57600080fd5b816020850160208301376000918101602001919091529392505050565b60008060008060808587031215611f2157600080fd5b8435935060208086013567ffffffffffffffff80821115611f4157600080fd5b611f4d89838a01611e9b565b9550604088013594506060880135915080821115611f6a57600080fd5b818801915088601f830112611f7e57600080fd5b813581811115611f9057611f90611e54565b8060051b9150611fa1848301611e6a565b818152918301840191848101908b841115611fbb57600080fd5b938501935b83851015611fd957843582529385019390850190611fc0565b989b979a50959850505050505050565b6020808252825182820181905260009190848201906040850190845b8181101561202a5783516001600160a01b031683529284019291840191600101612005565b50909695505050505050565b8381528260208201526060604082015260006120556060830184611db9565b95945050505050565b6000806020838503121561207157600080fd5b823567ffffffffffffffff8082111561208957600080fd5b818501915085601f83011261209d57600080fd5b8135818111156120ac57600080fd5b8660208260051b85010111156120c157600080fd5b60209290920196919550909350505050565b600080600080608085870312156120e957600080fd5b843593506020850135925060408501359150606085013567ffffffffffffffff81111561211557600080fd5b61212187828801611e9b565b91505092959194509250565b634e487b7160e01b600052603260045260246000fd5b634e487b7160e01b600052601160045260246000fd5b60006001820161216b5761216b612143565b5060010190565b600181811c9082168061218657607f821691505b6020821081036121a657634e487b7160e01b600052602260045260246000fd5b50919050565b8082018082111561185757611857612143565b601f8211156105dd57600081815260208120601f850160051c810160208610156121e65750805b601f850160051c820191505b8181101561176a578281556001016121f2565b815167ffffffffffffffff81111561221f5761221f611e54565b6122338161222d8454612172565b846121bf565b602080601f83116001811461226857600084156122505750858301515b600019600386901b1c1916600185901b17855561176a565b600085815260208120601f198616915b8281101561229757888601518255948401946001909101908401612278565b50858210156122b55787850151600019600388901b60f8161c191681555b5050505050600190811b01905550565b600082516122d7818460208701611d95565b9190910192915050565b808202811582820484141761185757611857612143565b8181038181111561185757611857612143565b600080835461231981612172565b60018281168015612331576001811461234657612375565b60ff1984168752821515830287019450612375565b8760005260208060002060005b8581101561236c5781548a820152908401908201612353565b50505082870194505b50929695505050505050565b60208082526025908201527f4552433732313a207472616e736665722066726f6d20696e636f72726563742060408201526437bbb732b960d91b606082015260800190565b6000826123e357634e487b7160e01b600052601260045260246000fd5b500490565b6000602082840312156123fa57600080fd5b81518015158114611ab457600080fd5b60408152600061241d6040830185611db9565b90508260208301529392505050565b634e487b7160e01b600052603160045260246000fd5b6020815260006118546020830184611db956fe546f74616c205265776172642042616c616e636520546f2053746172743a202573a2646970667358221220bb03466031d2a893c9a613a26277f417fc67995504191d34b552c6ea3e7842b564736f6c63430008140033","opcodes":"PUSH1 0x80 PUSH1 0x40 MSTORE CALLVALUE DUP1 ISZERO PUSH2 0x10 JUMPI PUSH1 0x0 DUP1 REVERT JUMPDEST POP PUSH2 0x24AC DUP1 PUSH2 0x20 PUSH1 0x0 CODECOPY PUSH1 0x0 RETURN INVALID PUSH1 0x80 PUSH1 0x40 MSTORE CALLVALUE DUP1 ISZERO PUSH2 0x10 JUMPI PUSH1 0x0 DUP1 REVERT JUMPDEST POP PUSH1 0x4 CALLDATASIZE LT PUSH2 0xCF JUMPI PUSH1 0x0 CALLDATALOAD PUSH1 0xE0 SHR DUP1 PUSH4 0xA6B371A9 GT PUSH2 0x8C JUMPI DUP1 PUSH4 0xB844007C GT PUSH2 0x66 JUMPI DUP1 PUSH4 0xB844007C EQ PUSH2 0x1AD JUMPI DUP1 PUSH4 0xCB78A3C1 EQ PUSH2 0x1C5 JUMPI DUP1 PUSH4 0xDA4BD360 EQ PUSH2 0x1D8 JUMPI DUP1 PUSH4 0xECC2CDA4 EQ PUSH2 0x1EB JUMPI PUSH1 0x0 DUP1 REVERT JUMPDEST DUP1 PUSH4 0xA6B371A9 EQ PUSH2 0x15D JUMPI DUP1 PUSH4 0xAD37FF31 EQ PUSH2 0x16E JUMPI DUP1 PUSH4 0xAE93F49D EQ PUSH2 0x190 JUMPI PUSH1 0x0 DUP1 REVERT JUMPDEST DUP1 PUSH4 0xA0E0194 EQ PUSH2 0xD4 JUMPI DUP1 PUSH4 0x35A5CFF2 EQ PUSH2 0xFD JUMPI DUP1 PUSH4 0x5BBEC7F6 EQ PUSH2 0x118 JUMPI DUP1 PUSH4 0x633ED820 EQ PUSH2 0x12D JUMPI DUP1 PUSH4 0x6D5D07FA EQ PUSH2 0x135 JUMPI DUP1 PUSH4 0x9A2DC07A EQ PUSH2 0x148 JUMPI JUMPDEST PUSH1 0x0 DUP1 REVERT JUMPDEST PUSH2 0xE7 PUSH2 0xE2 CALLDATASIZE PUSH1 0x4 PUSH2 0x1D1E JUMP JUMPDEST PUSH2 0x1F3 JUMP JUMPDEST PUSH1 0x40 MLOAD PUSH2 0xF4 SWAP2 SWAP1 PUSH2 0x1D82 JUMP JUMPDEST PUSH1 0x40 MLOAD DUP1 SWAP2 SUB SWAP1 RETURN JUMPDEST PUSH2 0x105 PUSH2 0x2DB JUMP JUMPDEST PUSH1 0x40 MLOAD PUSH2 0xF4 SWAP8 SWAP7 SWAP6 SWAP5 SWAP4 SWAP3 SWAP2 SWAP1 PUSH2 0x1DE5 JUMP JUMPDEST PUSH2 0x12B PUSH2 0x126 CALLDATASIZE PUSH1 0x4 PUSH2 0x1E3B JUMP JUMPDEST PUSH2 0x405 JUMP JUMPDEST STOP JUMPDEST PUSH2 0x12B PUSH2 0x524 JUMP JUMPDEST PUSH2 0x12B PUSH2 0x143 CALLDATASIZE PUSH1 0x4 PUSH2 0x1F0B JUMP JUMPDEST PUSH2 0x5E2 JUMP JUMPDEST PUSH2 0x150 PUSH2 0x89D JUMP JUMPDEST PUSH1 0x40 MLOAD PUSH2 0xF4 SWAP2 SWAP1 PUSH2 0x1FE9 JUMP JUMPDEST PUSH1 0xA SLOAD PUSH1 0x40 MLOAD SWAP1 DUP2 MSTORE PUSH1 0x20 ADD PUSH2 0xF4 JUMP JUMPDEST PUSH2 0x181 PUSH2 0x17C CALLDATASIZE PUSH1 0x4 PUSH2 0x1E3B JUMP JUMPDEST PUSH2 0x902 JUMP JUMPDEST PUSH1 0x40 MLOAD PUSH2 0xF4 SWAP4 SWAP3 SWAP2 SWAP1 PUSH2 0x2036 JUMP JUMPDEST PUSH2 0x198 PUSH2 0x9EB JUMP JUMPDEST PUSH1 0x40 DUP1 MLOAD SWAP3 DUP4 MSTORE PUSH1 0x20 DUP4 ADD SWAP2 SWAP1 SWAP2 MSTORE ADD PUSH2 0xF4 JUMP JUMPDEST PUSH2 0x1B5 PUSH2 0xAED JUMP JUMPDEST PUSH1 0x40 MLOAD SWAP1 ISZERO ISZERO DUP2 MSTORE PUSH1 0x20 ADD PUSH2 0xF4 JUMP JUMPDEST PUSH2 0x12B PUSH2 0x1D3 CALLDATASIZE PUSH1 0x4 PUSH2 0x205E JUMP JUMPDEST PUSH2 0xC17 JUMP JUMPDEST PUSH2 0x12B PUSH2 0x1E6 CALLDATASIZE PUSH1 0x4 PUSH2 0x20D3 JUMP JUMPDEST PUSH2 0xC72 JUMP JUMPDEST PUSH2 0x12B PUSH2 0xD97 JUMP JUMPDEST PUSH1 0x1F SLOAD PUSH1 0x1 PUSH1 0x1 PUSH1 0xA0 SHL SUB SWAP1 DUP2 AND PUSH1 0x0 SWAP1 DUP2 MSTORE PUSH1 0x58 PUSH1 0x20 SWAP1 DUP2 MSTORE PUSH1 0x40 DUP1 DUP4 KECCAK256 SWAP4 DUP6 AND DUP4 MSTORE SWAP3 SWAP1 MSTORE SWAP1 DUP2 KECCAK256 SLOAD PUSH1 0x60 SWAP2 DUP2 PUSH8 0xFFFFFFFFFFFFFFFF DUP2 GT ISZERO PUSH2 0x23A JUMPI PUSH2 0x23A PUSH2 0x1E54 JUMP JUMPDEST PUSH1 0x40 MLOAD SWAP1 DUP1 DUP3 MSTORE DUP1 PUSH1 0x20 MUL PUSH1 0x20 ADD DUP3 ADD PUSH1 0x40 MSTORE DUP1 ISZERO PUSH2 0x263 JUMPI DUP2 PUSH1 0x20 ADD PUSH1 0x20 DUP3 MUL DUP1 CALLDATASIZE DUP4 CALLDATACOPY ADD SWAP1 POP JUMPDEST POP SWAP1 POP PUSH1 0x0 JUMPDEST DUP3 DUP2 LT ISZERO PUSH2 0x2D3 JUMPI PUSH1 0x1F SLOAD PUSH1 0x1 PUSH1 0x1 PUSH1 0xA0 SHL SUB SWAP1 DUP2 AND PUSH1 0x0 SWAP1 DUP2 MSTORE PUSH1 0x5B PUSH1 0x20 SWAP1 DUP2 MSTORE PUSH1 0x40 DUP1 DUP4 KECCAK256 SWAP4 DUP10 AND DUP4 MSTORE SWAP3 DUP2 MSTORE DUP3 DUP3 KECCAK256 DUP5 DUP4 MSTORE SWAP1 MSTORE KECCAK256 SLOAD DUP3 MLOAD DUP4 SWAP1 DUP4 SWAP1 DUP2 LT PUSH2 0x2B6 JUMPI PUSH2 0x2B6 PUSH2 0x212D JUMP JUMPDEST PUSH1 0x20 SWAP1 DUP2 MUL SWAP2 SWAP1 SWAP2 ADD ADD MSTORE DUP1 PUSH2 0x2CB DUP2 PUSH2 0x2159 JUMP JUMPDEST SWAP2 POP POP PUSH2 0x269 JUMP JUMPDEST POP SWAP4 SWAP3 POP POP POP JUMP JUMPDEST PUSH1 0x27 SLOAD PUSH1 0x2A SLOAD PUSH1 0x2D SLOAD PUSH1 0x29 SLOAD PUSH1 0x28 DUP1 SLOAD PUSH1 0x0 SWAP6 PUSH1 0x60 SWAP6 DUP8 SWAP6 DUP7 SWAP6 DUP7 SWAP6 DUP10 SWAP6 DUP8 SWAP6 SWAP5 SWAP2 SWAP4 SWAP2 SWAP3 PUSH1 0xFF DUP1 DUP5 AND SWAP4 PUSH2 0x100 SWAP1 DIV AND SWAP2 PUSH1 0x2C SWAP2 SWAP1 DUP7 SWAP1 PUSH2 0x31C SWAP1 PUSH2 0x2172 JUMP JUMPDEST DUP1 PUSH1 0x1F ADD PUSH1 0x20 DUP1 SWAP2 DIV MUL PUSH1 0x20 ADD PUSH1 0x40 MLOAD SWAP1 DUP2 ADD PUSH1 0x40 MSTORE DUP1 SWAP3 SWAP2 SWAP1 DUP2 DUP2 MSTORE PUSH1 0x20 ADD DUP3 DUP1 SLOAD PUSH2 0x348 SWAP1 PUSH2 0x2172 JUMP JUMPDEST DUP1 ISZERO PUSH2 0x395 JUMPI DUP1 PUSH1 0x1F LT PUSH2 0x36A JUMPI PUSH2 0x100 DUP1 DUP4 SLOAD DIV MUL DUP4 MSTORE SWAP2 PUSH1 0x20 ADD SWAP2 PUSH2 0x395 JUMP JUMPDEST DUP3 ADD SWAP2 SWAP1 PUSH1 0x0 MSTORE PUSH1 0x20 PUSH1 0x0 KECCAK256 SWAP1 JUMPDEST DUP2 SLOAD DUP2 MSTORE SWAP1 PUSH1 0x1 ADD SWAP1 PUSH1 0x20 ADD DUP1 DUP4 GT PUSH2 0x378 JUMPI DUP3 SWAP1 SUB PUSH1 0x1F AND DUP3 ADD SWAP2 JUMPDEST POP POP POP POP POP SWAP6 POP DUP2 DUP1 SLOAD DUP1 PUSH1 0x20 MUL PUSH1 0x20 ADD PUSH1 0x40 MLOAD SWAP1 DUP2 ADD PUSH1 0x40 MSTORE DUP1 SWAP3 SWAP2 SWAP1 DUP2 DUP2 MSTORE PUSH1 0x20 ADD DUP3 DUP1 SLOAD DUP1 ISZERO PUSH2 0x3E7 JUMPI PUSH1 0x20 MUL DUP3 ADD SWAP2 SWAP1 PUSH1 0x0 MSTORE PUSH1 0x20 PUSH1 0x0 KECCAK256 SWAP1 JUMPDEST DUP2 SLOAD DUP2 MSTORE PUSH1 0x20 ADD SWAP1 PUSH1 0x1 ADD SWAP1 DUP1 DUP4 GT PUSH2 0x3D3 JUMPI JUMPDEST POP POP POP POP POP SWAP2 POP SWAP7 POP SWAP7 POP SWAP7 POP SWAP7 POP SWAP7 POP SWAP7 POP SWAP7 POP SWAP1 SWAP2 SWAP3 SWAP4 SWAP5 SWAP6 SWAP7 JUMP JUMPDEST CALLER PUSH1 0x0 SWAP1 DUP2 MSTORE PUSH1 0x2F PUSH1 0x20 MSTORE PUSH1 0x40 SWAP1 KECCAK256 SLOAD PUSH1 0xFF AND PUSH2 0x462 JUMPI PUSH1 0x40 MLOAD PUSH3 0x461BCD PUSH1 0xE5 SHL DUP2 MSTORE PUSH1 0x20 PUSH1 0x4 DUP3 ADD MSTORE PUSH1 0x16 PUSH1 0x24 DUP3 ADD MSTORE PUSH22 0x139BDD08185B88185C1C1C9BDD9959081DD85B1B195D PUSH1 0x52 SHL PUSH1 0x44 DUP3 ADD MSTORE PUSH1 0x64 ADD JUMPDEST PUSH1 0x40 MLOAD DUP1 SWAP2 SUB SWAP1 REVERT JUMPDEST PUSH1 0x1 SLOAD PUSH1 0x1 PUSH1 0x1 PUSH1 0xA0 SHL SUB AND PUSH2 0x4BA JUMPI PUSH1 0x40 MLOAD PUSH3 0x461BCD PUSH1 0xE5 SHL DUP2 MSTORE PUSH1 0x20 PUSH1 0x4 DUP3 ADD MSTORE PUSH1 0x1E PUSH1 0x24 DUP3 ADD MSTORE PUSH32 0x4D75737420736574202453565420636F6E747261637420616464726573730000 PUSH1 0x44 DUP3 ADD MSTORE PUSH1 0x64 ADD PUSH2 0x459 JUMP JUMPDEST PUSH1 0x1 SLOAD PUSH2 0x4D2 SWAP1 PUSH1 0x1 PUSH1 0x1 PUSH1 0xA0 SHL SUB AND CALLER ADDRESS DUP5 PUSH2 0x10D1 JUMP JUMPDEST DUP1 PUSH1 0x0 PUSH1 0xA ADD PUSH1 0x0 DUP3 DUP3 SLOAD PUSH2 0x4E7 SWAP2 SWAP1 PUSH2 0x21AC JUMP JUMPDEST SWAP1 SWAP2 SSTORE POP POP PUSH1 0x40 MLOAD DUP2 DUP2 MSTORE CALLER SWAP1 PUSH32 0xB8B27D0DB504FA5D914F1FD330347096E88D5FF94B6C612D32797E7C12A8F66F SWAP1 PUSH1 0x20 ADD PUSH1 0x40 MLOAD DUP1 SWAP2 SUB SWAP1 LOG2 POP JUMP JUMPDEST PUSH1 0x40 DUP1 MLOAD PUSH1 0x60 DUP2 ADD DUP3 MSTORE PUSH1 0x1 DUP1 DUP3 MSTORE PUSH1 0x5 PUSH1 0x20 DUP1 DUP5 ADD SWAP2 DUP3 MSTORE DUP5 MLOAD DUP1 DUP7 ADD DUP7 MSTORE PUSH1 0x3 DUP2 MSTORE PUSH3 0x149959 PUSH1 0xEA SHL DUP2 DUP4 ADD MSTORE SWAP5 DUP5 ADD SWAP5 DUP6 MSTORE PUSH1 0x0 SWAP3 SWAP1 SWAP3 MSTORE SWAP1 DUP1 MSTORE DUP2 MLOAD PUSH32 0x156774B33C8BC7CB83EDA4CBC43B36C7C9490FF8913C488CCD5132CFC71344EA SWAP1 DUP2 SSTORE SWAP1 MLOAD PUSH32 0x156774B33C8BC7CB83EDA4CBC43B36C7C9490FF8913C488CCD5132CFC71344EB SSTORE SWAP2 MLOAD SWAP1 SWAP2 SWAP1 PUSH32 0x156774B33C8BC7CB83EDA4CBC43B36C7C9490FF8913C488CCD5132CFC71344EC SWAP1 PUSH2 0x5DD SWAP1 DUP3 PUSH2 0x2205 JUMP JUMPDEST POP POP POP JUMP JUMPDEST CALLER PUSH1 0x0 SWAP1 DUP2 MSTORE PUSH1 0x2F PUSH1 0x20 MSTORE PUSH1 0x40 SWAP1 KECCAK256 SLOAD PUSH1 0xFF AND PUSH2 0x63A JUMPI PUSH1 0x40 MLOAD PUSH3 0x461BCD PUSH1 0xE5 SHL DUP2 MSTORE PUSH1 0x20 PUSH1 0x4 DUP3 ADD MSTORE PUSH1 0x16 PUSH1 0x24 DUP3 ADD MSTORE PUSH22 0x139BDD08185B88185C1C1C9BDD9959081DD85B1B195D PUSH1 0x52 SHL PUSH1 0x44 DUP3 ADD MSTORE PUSH1 0x64 ADD PUSH2 0x459 JUMP JUMPDEST PUSH1 0x40 MLOAD PUSH1 0x24 SWAP1 PUSH2 0x64B SWAP1 DUP6 SWAP1 PUSH2 0x22C5 JUMP JUMPDEST SWAP1 DUP2 MSTORE PUSH1 0x40 MLOAD SWAP1 DUP2 SWAP1 SUB PUSH1 0x20 ADD SWAP1 KECCAK256 SLOAD PUSH1 0xFF AND PUSH2 0x69A JUMPI PUSH1 0x40 MLOAD PUSH3 0x461BCD PUSH1 0xE5 SHL DUP2 MSTORE PUSH1 0x20 PUSH1 0x4 DUP3 ADD MSTORE PUSH1 0xD PUSH1 0x24 DUP3 ADD MSTORE PUSH13 0x24B73B30B634B21021B7B637B9 PUSH1 0x99 SHL PUSH1 0x44 DUP3 ADD MSTORE PUSH1 0x64 ADD PUSH2 0x459 JUMP JUMPDEST PUSH1 0xA SLOAD PUSH2 0x6F5 JUMPI PUSH1 0x40 MLOAD PUSH3 0x461BCD PUSH1 0xE5 SHL DUP2 MSTORE PUSH1 0x20 PUSH1 0x4 DUP3 ADD MSTORE PUSH1 0x24 DUP1 DUP3 ADD MSTORE PUSH32 0x4D757374206465706F7369742053565420696E746F20636F6E74726163742066 PUSH1 0x44 DUP3 ADD MSTORE PUSH4 0x1A5C9CDD PUSH1 0xE2 SHL PUSH1 0x64 DUP3 ADD MSTORE PUSH1 0x84 ADD PUSH2 0x459 JUMP JUMPDEST PUSH1 0x2C SLOAD PUSH1 0x2A SLOAD EQ PUSH2 0x748 JUMPI PUSH1 0x40 MLOAD PUSH3 0x461BCD PUSH1 0xE5 SHL DUP2 MSTORE PUSH1 0x20 PUSH1 0x4 DUP3 ADD MSTORE PUSH1 0x1B PUSH1 0x24 DUP3 ADD MSTORE PUSH32 0x7061796F757420737472756374757265206D757374206D617463680000000000 PUSH1 0x44 DUP3 ADD MSTORE PUSH1 0x64 ADD PUSH2 0x459 JUMP JUMPDEST PUSH1 0x2D SLOAD PUSH2 0x100 SWAP1 DIV PUSH1 0xFF AND ISZERO PUSH2 0x797 JUMPI PUSH1 0x40 MLOAD PUSH3 0x461BCD PUSH1 0xE5 SHL DUP2 MSTORE PUSH1 0x20 PUSH1 0x4 DUP3 ADD MSTORE PUSH1 0x14 PUSH1 0x24 DUP3 ADD MSTORE PUSH20 0x47616D65206973207374696C6C20616374697665 PUSH1 0x60 SHL PUSH1 0x44 DUP3 ADD MSTORE PUSH1 0x64 ADD PUSH2 0x459 JUMP JUMPDEST PUSH1 0x0 DUP1 JUMPDEST DUP3 MLOAD DUP2 LT ISZERO PUSH2 0x7DD JUMPI DUP3 DUP2 DUP2 MLOAD DUP2 LT PUSH2 0x7B6 JUMPI PUSH2 0x7B6 PUSH2 0x212D JUMP JUMPDEST PUSH1 0x20 MUL PUSH1 0x20 ADD ADD MLOAD DUP3 PUSH2 0x7C9 SWAP2 SWAP1 PUSH2 0x21AC JUMP JUMPDEST SWAP2 POP DUP1 PUSH2 0x7D5 DUP2 PUSH2 0x2159 JUMP JUMPDEST SWAP2 POP POP PUSH2 0x79B JUMP JUMPDEST POP DUP1 PUSH1 0x64 EQ PUSH2 0x83F JUMPI PUSH1 0x40 MLOAD PUSH3 0x461BCD PUSH1 0xE5 SHL DUP2 MSTORE PUSH1 0x20 PUSH1 0x4 DUP3 ADD MSTORE PUSH1 0x28 PUSH1 0x24 DUP3 ADD MSTORE PUSH32 0x546F74616C207061796F757420646973747269627574696F6E206D7573742065 PUSH1 0x44 DUP3 ADD MSTORE PUSH8 0x7175616C2031303 PUSH1 0xC4 SHL PUSH1 0x64 DUP3 ADD MSTORE PUSH1 0x84 ADD PUSH2 0x459 JUMP JUMPDEST PUSH1 0x2D DUP1 SLOAD PUSH2 0xFF00 NOT AND PUSH2 0x100 OR SWAP1 SSTORE DUP2 MLOAD PUSH2 0x861 SWAP1 PUSH1 0x2C SWAP1 PUSH1 0x20 DUP6 ADD SWAP1 PUSH2 0x1C46 JUMP JUMPDEST POP PUSH1 0x27 DUP6 SWAP1 SSTORE PUSH1 0x28 PUSH2 0x873 DUP6 DUP3 PUSH2 0x2205 JUMP JUMPDEST POP PUSH1 0x2A DUP4 SWAP1 SSTORE TIMESTAMP PUSH1 0x29 SSTORE PUSH2 0x889 PUSH1 0x2B PUSH1 0x0 PUSH2 0x1C91 JUMP JUMPDEST POP POP PUSH1 0x2D DUP1 SLOAD PUSH1 0xFF NOT AND PUSH1 0x1 OR SWAP1 SSTORE POP POP POP JUMP JUMPDEST PUSH1 0x60 PUSH1 0x0 PUSH1 0x2B ADD DUP1 SLOAD DUP1 PUSH1 0x20 MUL PUSH1 0x20 ADD PUSH1 0x40 MLOAD SWAP1 DUP2 ADD PUSH1 0x40 MSTORE DUP1 SWAP3 SWAP2 SWAP1 DUP2 DUP2 MSTORE PUSH1 0x20 ADD DUP3 DUP1 SLOAD DUP1 ISZERO PUSH2 0x8F8 JUMPI PUSH1 0x20 MUL DUP3 ADD SWAP2 SWAP1 PUSH1 0x0 MSTORE PUSH1 0x20 PUSH1 0x0 KECCAK256 SWAP1 JUMPDEST DUP2 SLOAD PUSH1 0x1 PUSH1 0x1 PUSH1 0xA0 SHL SUB AND DUP2 MSTORE PUSH1 0x1 SWAP1 SWAP2 ADD SWAP1 PUSH1 0x20 ADD DUP1 DUP4 GT PUSH2 0x8DA JUMPI JUMPDEST POP POP POP POP POP SWAP1 POP SWAP1 JUMP JUMPDEST PUSH1 0x0 DUP1 PUSH1 0x60 PUSH1 0x0 DUP1 PUSH1 0x20 ADD PUSH1 0x0 DUP7 DUP2 MSTORE PUSH1 0x20 ADD SWAP1 DUP2 MSTORE PUSH1 0x20 ADD PUSH1 0x0 KECCAK256 PUSH1 0x40 MLOAD DUP1 PUSH1 0x60 ADD PUSH1 0x40 MSTORE SWAP1 DUP2 PUSH1 0x0 DUP3 ADD SLOAD DUP2 MSTORE PUSH1 0x20 ADD PUSH1 0x1 DUP3 ADD SLOAD DUP2 MSTORE PUSH1 0x20 ADD PUSH1 0x2 DUP3 ADD DUP1 SLOAD PUSH2 0x94D SWAP1 PUSH2 0x2172 JUMP JUMPDEST DUP1 PUSH1 0x1F ADD PUSH1 0x20 DUP1 SWAP2 DIV MUL PUSH1 0x20 ADD PUSH1 0x40 MLOAD SWAP1 DUP2 ADD PUSH1 0x40 MSTORE DUP1 SWAP3 SWAP2 SWAP1 DUP2 DUP2 MSTORE PUSH1 0x20 ADD DUP3 DUP1 SLOAD PUSH2 0x979 SWAP1 PUSH2 0x2172 JUMP JUMPDEST DUP1 ISZERO PUSH2 0x9C6 JUMPI DUP1 PUSH1 0x1F LT PUSH2 0x99B JUMPI PUSH2 0x100 DUP1 DUP4 SLOAD DIV MUL DUP4 MSTORE SWAP2 PUSH1 0x20 ADD SWAP2 PUSH2 0x9C6 JUMP JUMPDEST DUP3 ADD SWAP2 SWAP1 PUSH1 0x0 MSTORE PUSH1 0x20 PUSH1 0x0 KECCAK256 SWAP1 JUMPDEST DUP2 SLOAD DUP2 MSTORE SWAP1 PUSH1 0x1 ADD SWAP1 PUSH1 0x20 ADD DUP1 DUP4 GT PUSH2 0x9A9 JUMPI DUP3 SWAP1 SUB PUSH1 0x1F AND DUP3 ADD SWAP2 JUMPDEST POP POP POP SWAP2 SWAP1 SWAP3 MSTORE POP POP DUP2 MLOAD PUSH1 0x20 DUP4 ADD MLOAD PUSH1 0x40 SWAP1 SWAP4 ADD MLOAD SWAP1 SWAP9 SWAP3 SWAP8 POP SWAP6 POP SWAP1 SWAP4 POP POP POP POP JUMP JUMPDEST PUSH1 0x0 DUP1 PUSH1 0x0 PUSH2 0x9F9 CALLER PUSH2 0x1F3 JUMP JUMPDEST PUSH1 0x2E SLOAD SWAP1 SWAP2 POP PUSH1 0x0 SWAP1 PUSH2 0xA0F SWAP1 PUSH3 0x15180 PUSH2 0x22E1 JUMP JUMPDEST PUSH1 0x29 SLOAD PUSH2 0xA1C SWAP1 TIMESTAMP PUSH2 0x22F8 JUMP JUMPDEST GT DUP1 ISZERO SWAP2 POP PUSH2 0xAD4 JUMPI PUSH1 0x0 JUMPDEST DUP3 MLOAD DUP2 LT ISZERO PUSH2 0xAD2 JUMPI PUSH1 0x0 DUP1 PUSH2 0xA56 DUP6 DUP5 DUP2 MLOAD DUP2 LT PUSH2 0xA49 JUMPI PUSH2 0xA49 PUSH2 0x212D JUMP JUMPDEST PUSH1 0x20 MUL PUSH1 0x20 ADD ADD MLOAD PUSH2 0x902 JUMP JUMPDEST PUSH1 0x40 MLOAD SWAP2 SWAP5 POP SWAP3 POP PUSH2 0xA6E SWAP2 POP PUSH1 0x28 SWAP1 PUSH1 0x20 ADD PUSH2 0x230B JUMP JUMPDEST PUSH1 0x40 MLOAD PUSH1 0x20 DUP2 DUP4 SUB SUB DUP2 MSTORE SWAP1 PUSH1 0x40 MSTORE DUP1 MLOAD SWAP1 PUSH1 0x20 ADD KECCAK256 DUP2 PUSH1 0x40 MLOAD PUSH1 0x20 ADD PUSH2 0xA95 SWAP2 SWAP1 PUSH2 0x22C5 JUMP JUMPDEST PUSH1 0x40 MLOAD PUSH1 0x20 DUP2 DUP4 SUB SUB DUP2 MSTORE SWAP1 PUSH1 0x40 MSTORE DUP1 MLOAD SWAP1 PUSH1 0x20 ADD KECCAK256 SUB PUSH2 0xABD JUMPI PUSH2 0xABA DUP3 DUP9 PUSH2 0x21AC JUMP JUMPDEST SWAP7 POP JUMPDEST POP POP DUP1 DUP1 PUSH2 0xACA SWAP1 PUSH2 0x2159 JUMP JUMPDEST SWAP2 POP POP PUSH2 0xA28 JUMP JUMPDEST POP JUMPDEST PUSH2 0xAE5 PUSH2 0xAE0 CALLER PUSH2 0x1F3 JUMP JUMPDEST PUSH2 0x1131 JUMP JUMPDEST SWAP3 POP POP POP SWAP1 SWAP2 JUMP JUMPDEST PUSH1 0x0 DUP1 DUP1 PUSH2 0xAFA CALLER PUSH2 0x1F3 JUMP JUMPDEST PUSH1 0x2E SLOAD SWAP1 SWAP2 POP PUSH1 0x0 SWAP1 PUSH2 0xB10 SWAP1 PUSH3 0x15180 PUSH2 0x22E1 JUMP JUMPDEST PUSH1 0x29 SLOAD PUSH2 0xB1D SWAP1 TIMESTAMP PUSH2 0x22F8 JUMP JUMPDEST GT ISZERO SWAP1 POP PUSH1 0x0 DUP2 ISZERO PUSH2 0xBEC JUMPI PUSH1 0x0 JUMPDEST DUP4 MLOAD DUP2 LT ISZERO PUSH2 0xBC9 JUMPI PUSH1 0x0 DUP1 PUSH2 0xB4D DUP7 DUP5 DUP2 MLOAD DUP2 LT PUSH2 0xA49 JUMPI PUSH2 0xA49 PUSH2 0x212D JUMP JUMPDEST PUSH1 0x40 MLOAD SWAP2 SWAP5 POP SWAP3 POP PUSH2 0xB65 SWAP2 POP PUSH1 0x28 SWAP1 PUSH1 0x20 ADD PUSH2 0x230B JUMP JUMPDEST PUSH1 0x40 MLOAD PUSH1 0x20 DUP2 DUP4 SUB SUB DUP2 MSTORE SWAP1 PUSH1 0x40 MSTORE DUP1 MLOAD SWAP1 PUSH1 0x20 ADD KECCAK256 DUP2 PUSH1 0x40 MLOAD PUSH1 0x20 ADD PUSH2 0xB8C SWAP2 SWAP1 PUSH2 0x22C5 JUMP JUMPDEST PUSH1 0x40 MLOAD PUSH1 0x20 DUP2 DUP4 SUB SUB DUP2 MSTORE SWAP1 PUSH1 0x40 MSTORE DUP1 MLOAD SWAP1 PUSH1 0x20 ADD KECCAK256 SUB PUSH2 0xBB4 JUMPI PUSH2 0xBB1 DUP3 DUP9 PUSH2 0x21AC JUMP JUMPDEST SWAP7 POP JUMPDEST POP POP DUP1 DUP1 PUSH2 0xBC1 SWAP1 PUSH2 0x2159 JUMP JUMPDEST SWAP2 POP POP PUSH2 0xB2C JUMP JUMPDEST POP PUSH1 0x27 SLOAD DUP5 EQ DUP1 ISZERO PUSH2 0xBE5 JUMPI POP PUSH2 0xBE2 PUSH2 0xAE0 CALLER PUSH2 0x1F3 JUMP JUMPDEST DUP5 EQ JUMPDEST SWAP1 POP PUSH2 0xBFF JUMP JUMPDEST PUSH2 0xBF8 PUSH2 0xAE0 CALLER PUSH2 0x1F3 JUMP JUMPDEST PUSH1 0x27 SLOAD EQ SWAP1 POP JUMPDEST DUP1 DUP1 ISZERO PUSH2 0xC0E JUMPI POP PUSH1 0x2D SLOAD PUSH1 0xFF AND JUMPDEST SWAP5 POP POP POP POP POP SWAP1 JUMP JUMPDEST PUSH2 0xC1F PUSH2 0x1182 JUMP JUMPDEST PUSH1 0x0 JUMPDEST DUP2 DUP2 LT ISZERO PUSH2 0x5DD JUMPI PUSH1 0x26 DUP4 DUP4 DUP4 DUP2 DUP2 LT PUSH2 0xC3E JUMPI PUSH2 0xC3E PUSH2 0x212D JUMP JUMPDEST DUP4 SLOAD PUSH1 0x1 DUP2 ADD DUP6 SSTORE PUSH1 0x0 SWAP5 DUP6 MSTORE PUSH1 0x20 SWAP5 DUP6 SWAP1 KECCAK256 SWAP2 SWAP1 SWAP5 MUL SWAP3 SWAP1 SWAP3 ADD CALLDATALOAD SWAP2 SWAP1 SWAP3 ADD SSTORE POP DUP1 PUSH2 0xC6A DUP2 PUSH2 0x2159 JUMP JUMPDEST SWAP2 POP POP PUSH2 0xC22 JUMP JUMPDEST PUSH2 0xC7A PUSH2 0x1182 JUMP JUMPDEST DUP3 DUP5 GT ISZERO PUSH2 0xCBA JUMPI PUSH1 0x40 MLOAD PUSH3 0x461BCD PUSH1 0xE5 SHL DUP2 MSTORE PUSH1 0x20 PUSH1 0x4 DUP3 ADD MSTORE PUSH1 0xD PUSH1 0x24 DUP3 ADD MSTORE PUSH13 0x496E76616C69642072616E6765 PUSH1 0x98 SHL PUSH1 0x44 DUP3 ADD MSTORE PUSH1 0x64 ADD PUSH2 0x459 JUMP JUMPDEST PUSH1 0x40 MLOAD PUSH1 0x24 SWAP1 PUSH2 0xCCB SWAP1 DUP4 SWAP1 PUSH2 0x22C5 JUMP JUMPDEST SWAP1 DUP2 MSTORE PUSH1 0x40 MLOAD SWAP1 DUP2 SWAP1 SUB PUSH1 0x20 ADD SWAP1 KECCAK256 SLOAD PUSH1 0xFF AND PUSH2 0xD1A JUMPI PUSH1 0x40 MLOAD PUSH3 0x461BCD PUSH1 0xE5 SHL DUP2 MSTORE PUSH1 0x20 PUSH1 0x4 DUP3 ADD MSTORE PUSH1 0xD PUSH1 0x24 DUP3 ADD MSTORE PUSH13 0x24B73B30B634B21021B7B637B9 PUSH1 0x99 SHL PUSH1 0x44 DUP3 ADD MSTORE PUSH1 0x64 ADD PUSH2 0x459 JUMP JUMPDEST DUP4 JUMPDEST DUP4 DUP2 GT ISZERO DUP1 ISZERO PUSH2 0xD2E JUMPI POP PUSH1 0x21 SLOAD DUP2 GT ISZERO JUMPDEST ISZERO PUSH2 0xD90 JUMPI PUSH1 0x40 DUP1 MLOAD PUSH1 0x60 DUP2 ADD DUP3 MSTORE DUP3 DUP2 MSTORE PUSH1 0x20 DUP1 DUP3 ADD DUP7 DUP2 MSTORE DUP3 DUP5 ADD DUP7 DUP2 MSTORE PUSH1 0x0 DUP7 DUP2 MSTORE SWAP3 DUP1 MSTORE SWAP4 SWAP1 SWAP2 KECCAK256 DUP3 MLOAD DUP2 SSTORE SWAP1 MLOAD PUSH1 0x1 DUP3 ADD SSTORE SWAP2 MLOAD SWAP1 SWAP2 SWAP1 PUSH1 0x2 DUP3 ADD SWAP1 PUSH2 0xD79 SWAP1 DUP3 PUSH2 0x2205 JUMP JUMPDEST POP SWAP1 POP POP DUP1 DUP1 PUSH2 0xD88 SWAP1 PUSH2 0x2159 JUMP JUMPDEST SWAP2 POP POP PUSH2 0xD1C JUMP JUMPDEST POP POP POP POP POP JUMP JUMPDEST PUSH1 0x2D SLOAD PUSH1 0xFF AND PUSH2 0xDDA JUMPI PUSH1 0x40 MLOAD PUSH3 0x461BCD PUSH1 0xE5 SHL DUP2 MSTORE PUSH1 0x20 PUSH1 0x4 DUP3 ADD MSTORE PUSH1 0xE PUSH1 0x24 DUP3 ADD MSTORE PUSH14 0x11D85B59481A5CC818DB1BDCD959 PUSH1 0x92 SHL PUSH1 0x44 DUP3 ADD MSTORE PUSH1 0x64 ADD PUSH2 0x459 JUMP JUMPDEST PUSH1 0xE SLOAD PUSH1 0x1 SUB PUSH2 0xE2C JUMPI PUSH1 0x40 MLOAD PUSH3 0x461BCD PUSH1 0xE5 SHL DUP2 MSTORE PUSH1 0x20 PUSH1 0x4 DUP3 ADD MSTORE PUSH1 0x19 PUSH1 0x24 DUP3 ADD MSTORE PUSH32 0x5265656E7472616E637920666C61672074726967676572656400000000000000 PUSH1 0x44 DUP3 ADD MSTORE PUSH1 0x64 ADD PUSH2 0x459 JUMP JUMPDEST PUSH1 0x1 PUSH1 0xE SSTORE PUSH2 0xE39 PUSH2 0xAED JUMP JUMPDEST ISZERO PUSH2 0x10CA JUMPI PUSH1 0x1F SLOAD PUSH1 0x1 PUSH1 0x1 PUSH1 0xA0 SHL SUB AND PUSH1 0x0 SWAP1 DUP2 MSTORE PUSH1 0x5A PUSH1 0x20 SWAP1 DUP2 MSTORE PUSH1 0x40 DUP1 DUP4 KECCAK256 CALLER DUP5 MSTORE DUP3 MSTORE DUP1 DUP4 KECCAK256 ADDRESS DUP5 MSTORE SWAP1 SWAP2 MSTORE SWAP1 KECCAK256 SLOAD PUSH1 0xFF AND PUSH2 0xECC JUMPI PUSH1 0x40 MLOAD PUSH3 0x461BCD PUSH1 0xE5 SHL DUP2 MSTORE PUSH1 0x20 PUSH1 0x4 DUP3 ADD MSTORE PUSH1 0x28 PUSH1 0x24 DUP3 ADD MSTORE PUSH32 0x436F6E7472616374206E6F7420617070726F76656420746F207472616E736665 PUSH1 0x44 DUP3 ADD MSTORE PUSH8 0x7220746F6B656E73 PUSH1 0xC0 SHL PUSH1 0x64 DUP3 ADD MSTORE PUSH1 0x84 ADD PUSH2 0x459 JUMP JUMPDEST PUSH1 0x0 DUP1 PUSH2 0xED8 CALLER PUSH2 0x1F3 JUMP JUMPDEST PUSH1 0x2E SLOAD SWAP1 SWAP2 POP PUSH1 0x0 SWAP1 PUSH2 0xEEE SWAP1 PUSH3 0x15180 PUSH2 0x22E1 JUMP JUMPDEST PUSH1 0x29 SLOAD PUSH2 0xEFB SWAP1 TIMESTAMP PUSH2 0x22F8 JUMP JUMPDEST GT ISZERO SWAP1 POP PUSH1 0x0 JUMPDEST DUP3 MLOAD DUP2 LT ISZERO PUSH2 0xFB6 JUMPI PUSH1 0x0 DUP1 PUSH2 0xF23 DUP6 DUP5 DUP2 MLOAD DUP2 LT PUSH2 0xA49 JUMPI PUSH2 0xA49 PUSH2 0x212D JUMP JUMPDEST SWAP3 POP SWAP3 POP POP DUP4 ISZERO PUSH2 0xF94 JUMPI PUSH1 0x40 MLOAD PUSH2 0xF40 SWAP1 PUSH1 0x28 SWAP1 PUSH1 0x20 ADD PUSH2 0x230B JUMP JUMPDEST PUSH1 0x40 MLOAD PUSH1 0x20 DUP2 DUP4 SUB SUB DUP2 MSTORE SWAP1 PUSH1 0x40 MSTORE DUP1 MLOAD SWAP1 PUSH1 0x20 ADD KECCAK256 DUP2 PUSH1 0x40 MLOAD PUSH1 0x20 ADD PUSH2 0xF67 SWAP2 SWAP1 PUSH2 0x22C5 JUMP JUMPDEST PUSH1 0x40 MLOAD PUSH1 0x20 DUP2 DUP4 SUB SUB DUP2 MSTORE SWAP1 PUSH1 0x40 MSTORE DUP1 MLOAD SWAP1 PUSH1 0x20 ADD KECCAK256 SUB PUSH2 0xF8F JUMPI PUSH2 0xF8C DUP3 DUP8 PUSH2 0x21AC JUMP JUMPDEST SWAP6 POP JUMPDEST PUSH2 0xFA1 JUMP JUMPDEST PUSH2 0xF9E DUP3 DUP8 PUSH2 0x21AC JUMP JUMPDEST SWAP6 POP JUMPDEST POP POP DUP1 DUP1 PUSH2 0xFAE SWAP1 PUSH2 0x2159 JUMP JUMPDEST SWAP2 POP POP PUSH2 0xF02 JUMP JUMPDEST POP PUSH1 0x27 SLOAD DUP4 EQ PUSH2 0xFFF JUMPI PUSH1 0x40 MLOAD PUSH3 0x461BCD PUSH1 0xE5 SHL DUP2 MSTORE PUSH1 0x20 PUSH1 0x4 DUP3 ADD MSTORE PUSH1 0x14 PUSH1 0x24 DUP3 ADD MSTORE PUSH20 0x139BDD0818481DDA5B9B9A5B99C81DD85B1B195D PUSH1 0x62 SHL PUSH1 0x44 DUP3 ADD MSTORE PUSH1 0x64 ADD PUSH2 0x459 JUMP JUMPDEST PUSH1 0x0 JUMPDEST DUP3 MLOAD DUP2 LT ISZERO PUSH2 0x1059 JUMPI PUSH1 0x1F SLOAD PUSH1 0x5 SLOAD DUP5 MLOAD PUSH2 0x1047 SWAP3 PUSH1 0x1 PUSH1 0x1 PUSH1 0xA0 SHL SUB SWAP1 DUP2 AND SWAP3 CALLER SWAP3 SWAP2 AND SWAP1 DUP8 SWAP1 DUP7 SWAP1 DUP2 LT PUSH2 0x103A JUMPI PUSH2 0x103A PUSH2 0x212D JUMP JUMPDEST PUSH1 0x20 MUL PUSH1 0x20 ADD ADD MLOAD PUSH2 0x120B JUMP JUMPDEST DUP1 PUSH2 0x1051 DUP2 PUSH2 0x2159 JUMP JUMPDEST SWAP2 POP POP PUSH2 0x1002 JUMP JUMPDEST POP PUSH1 0x2A SLOAD PUSH1 0x2B SLOAD LT ISZERO PUSH2 0x10A9 JUMPI PUSH1 0x2B DUP1 SLOAD PUSH1 0x1 DUP2 ADD DUP3 SSTORE PUSH1 0x0 SWAP2 SWAP1 SWAP2 MSTORE PUSH32 0x11C44E4875B74D31FF9FD779BF2566AF7BD15B87FC985D01F5094B89E3669E4F ADD DUP1 SLOAD PUSH1 0x1 PUSH1 0x1 PUSH1 0xA0 SHL SUB NOT AND CALLER OR SWAP1 SSTORE JUMPDEST PUSH1 0x2A SLOAD PUSH1 0x2B SLOAD SUB PUSH2 0x10C6 JUMPI PUSH1 0x2D DUP1 SLOAD PUSH1 0xFF NOT AND SWAP1 SSTORE PUSH2 0x10C6 PUSH2 0x13DD JUMP JUMPDEST POP POP POP JUMPDEST PUSH1 0x0 PUSH1 0xE SSTORE JUMP JUMPDEST PUSH1 0x40 DUP1 MLOAD PUSH1 0x1 PUSH1 0x1 PUSH1 0xA0 SHL SUB DUP6 DUP2 AND PUSH1 0x24 DUP4 ADD MSTORE DUP5 AND PUSH1 0x44 DUP3 ADD MSTORE PUSH1 0x64 DUP1 DUP3 ADD DUP5 SWAP1 MSTORE DUP3 MLOAD DUP1 DUP4 SUB SWAP1 SWAP2 ADD DUP2 MSTORE PUSH1 0x84 SWAP1 SWAP2 ADD SWAP1 SWAP2 MSTORE PUSH1 0x20 DUP2 ADD DUP1 MLOAD PUSH1 0x1 PUSH1 0x1 PUSH1 0xE0 SHL SUB AND PUSH4 0x23B872DD PUSH1 0xE0 SHL OR SWAP1 MSTORE PUSH2 0x112B SWAP1 DUP6 SWAP1 PUSH2 0x158F JUMP JUMPDEST POP POP POP POP JUMP JUMPDEST PUSH1 0x0 DUP1 DUP1 JUMPDEST DUP4 MLOAD DUP2 LT ISZERO PUSH2 0x117B JUMPI PUSH1 0x0 PUSH2 0x1156 DUP6 DUP4 DUP2 MLOAD DUP2 LT PUSH2 0xA49 JUMPI PUSH2 0xA49 PUSH2 0x212D JUMP JUMPDEST POP SWAP2 POP PUSH2 0x1165 SWAP1 POP DUP2 DUP5 PUSH2 0x21AC JUMP JUMPDEST SWAP3 POP POP DUP1 DUP1 PUSH2 0x1173 SWAP1 PUSH2 0x2159 JUMP JUMPDEST SWAP2 POP POP PUSH2 0x1136 JUMP JUMPDEST POP SWAP3 SWAP2 POP POP JUMP JUMPDEST PUSH32 0xC8FCAD8DB84D3CC18B4C41D551EA0EE66DD599CDE068D998E57D5E09332C131C PUSH1 0x4 ADD SLOAD PUSH1 0x1 PUSH1 0x1 PUSH1 0xA0 SHL SUB AND CALLER EQ PUSH2 0x1209 JUMPI PUSH1 0x40 MLOAD PUSH3 0x461BCD PUSH1 0xE5 SHL DUP2 MSTORE PUSH1 0x20 PUSH1 0x4 DUP3 ADD MSTORE PUSH1 0x22 PUSH1 0x24 DUP3 ADD MSTORE PUSH32 0x4C69624469616D6F6E643A204D75737420626520636F6E7472616374206F776E PUSH1 0x44 DUP3 ADD MSTORE PUSH2 0x32B9 PUSH1 0xF1 SHL PUSH1 0x64 DUP3 ADD MSTORE PUSH1 0x84 ADD PUSH2 0x459 JUMP JUMPDEST JUMP JUMPDEST PUSH1 0x1 PUSH1 0x1 PUSH1 0xA0 SHL SUB DUP5 DUP2 AND PUSH1 0x0 SWAP1 DUP2 MSTORE PUSH1 0x57 PUSH1 0x20 SWAP1 DUP2 MSTORE PUSH1 0x40 DUP1 DUP4 KECCAK256 DUP6 DUP5 MSTORE SWAP1 SWAP2 MSTORE DUP2 KECCAK256 SLOAD SWAP1 SWAP2 DUP6 DUP2 AND SWAP2 AND EQ PUSH2 0x1254 JUMPI PUSH1 0x40 MLOAD PUSH3 0x461BCD PUSH1 0xE5 SHL DUP2 MSTORE PUSH1 0x4 ADD PUSH2 0x459 SWAP1 PUSH2 0x2381 JUMP JUMPDEST PUSH1 0x1 PUSH1 0x1 PUSH1 0xA0 SHL SUB DUP4 AND PUSH2 0x12B6 JUMPI PUSH1 0x40 MLOAD PUSH3 0x461BCD PUSH1 0xE5 SHL DUP2 MSTORE PUSH1 0x20 PUSH1 0x4 DUP3 ADD MSTORE PUSH1 0x24 DUP1 DUP3 ADD MSTORE PUSH32 0x4552433732313A207472616E7366657220746F20746865207A65726F20616464 PUSH1 0x44 DUP3 ADD MSTORE PUSH4 0x72657373 PUSH1 0xE0 SHL PUSH1 0x64 DUP3 ADD MSTORE PUSH1 0x84 ADD PUSH2 0x459 JUMP JUMPDEST PUSH2 0x12C4 DUP6 DUP6 DUP6 DUP6 PUSH1 0x1 PUSH2 0x15F2 JUMP JUMPDEST PUSH1 0x1 PUSH1 0x1 PUSH1 0xA0 SHL SUB DUP6 DUP2 AND PUSH1 0x0 SWAP1 DUP2 MSTORE PUSH1 0x57 DUP4 ADD PUSH1 0x20 SWAP1 DUP2 MSTORE PUSH1 0x40 DUP1 DUP4 KECCAK256 DUP7 DUP5 MSTORE SWAP1 SWAP2 MSTORE SWAP1 KECCAK256 SLOAD DUP2 AND SWAP1 DUP6 AND EQ PUSH2 0x130D JUMPI PUSH1 0x40 MLOAD PUSH3 0x461BCD PUSH1 0xE5 SHL DUP2 MSTORE PUSH1 0x4 ADD PUSH2 0x459 SWAP1 PUSH2 0x2381 JUMP JUMPDEST PUSH1 0x1 PUSH1 0x1 PUSH1 0xA0 SHL SUB DUP6 AND PUSH1 0x0 SWAP1 DUP2 MSTORE PUSH1 0x59 DUP3 ADD PUSH1 0x20 SWAP1 DUP2 MSTORE PUSH1 0x40 DUP1 DUP4 KECCAK256 DUP6 DUP5 MSTORE SWAP1 SWAP2 MSTORE SWAP1 KECCAK256 DUP1 SLOAD PUSH1 0x1 PUSH1 0x1 PUSH1 0xA0 SHL SUB NOT AND SWAP1 SSTORE PUSH2 0x134A DUP6 DUP4 PUSH2 0x1772 JUMP JUMPDEST PUSH1 0x1 PUSH1 0x1 PUSH1 0xA0 SHL SUB DUP6 DUP2 AND PUSH1 0x0 DUP2 DUP2 MSTORE PUSH1 0x58 DUP5 ADD PUSH1 0x20 SWAP1 DUP2 MSTORE PUSH1 0x40 DUP1 DUP4 KECCAK256 DUP10 DUP7 AND DUP1 DUP6 MSTORE SWAP1 DUP4 MSTORE DUP2 DUP5 KECCAK256 DUP1 SLOAD PUSH1 0x0 NOT ADD SWAP1 SSTORE SWAP5 DUP9 AND DUP1 DUP5 MSTORE DUP2 DUP5 KECCAK256 DUP1 SLOAD PUSH1 0x1 ADD SWAP1 SSTORE SWAP4 DUP4 MSTORE PUSH1 0x57 DUP7 ADD DUP3 MSTORE DUP1 DUP4 KECCAK256 DUP8 DUP5 MSTORE SWAP1 SWAP2 MSTORE DUP1 DUP3 KECCAK256 DUP1 SLOAD PUSH1 0x1 PUSH1 0x1 PUSH1 0xA0 SHL SUB NOT AND DUP5 OR SWAP1 SSTORE MLOAD DUP6 SWAP4 SWAP2 PUSH32 0xDDF252AD1BE2C89B69C2B068FC378DAA952BA7F163C4A11628F55A4DF523B3EF SWAP2 LOG4 PUSH2 0xD90 JUMP JUMPDEST PUSH1 0x2D SLOAD PUSH1 0xFF AND ISZERO PUSH2 0x1425 JUMPI PUSH1 0x40 MLOAD PUSH3 0x461BCD PUSH1 0xE5 SHL DUP2 MSTORE PUSH1 0x20 PUSH1 0x4 DUP3 ADD MSTORE PUSH1 0x12 PUSH1 0x24 DUP3 ADD MSTORE PUSH18 0x23B0B6B29034B99039BA34B6361037B832B7 PUSH1 0x71 SHL PUSH1 0x44 DUP3 ADD MSTORE PUSH1 0x64 ADD PUSH2 0x459 JUMP JUMPDEST PUSH1 0x2D SLOAD PUSH2 0x100 SWAP1 DIV PUSH1 0xFF AND PUSH2 0x147C JUMPI PUSH1 0x40 MLOAD PUSH3 0x461BCD PUSH1 0xE5 SHL DUP2 MSTORE PUSH1 0x20 PUSH1 0x4 DUP3 ADD MSTORE PUSH1 0x19 PUSH1 0x24 DUP3 ADD MSTORE PUSH32 0x47616D65206D757374207374696C6C2062652061637469766500000000000000 PUSH1 0x44 DUP3 ADD MSTORE PUSH1 0x64 ADD PUSH2 0x459 JUMP JUMPDEST PUSH1 0xA SLOAD PUSH1 0x40 DUP1 MLOAD PUSH1 0x60 DUP2 ADD SWAP1 SWAP2 MSTORE PUSH1 0x21 DUP1 DUP3 MSTORE DUP3 SWAP2 PUSH2 0x14A3 SWAP2 PUSH2 0x2456 PUSH1 0x20 DUP4 ADD CODECOPY DUP4 PUSH2 0x17C9 JUMP JUMPDEST PUSH1 0x0 PUSH1 0x64 PUSH1 0x0 PUSH1 0x2C ADD PUSH1 0x0 DUP2 SLOAD DUP2 LT PUSH2 0x14BE JUMPI PUSH2 0x14BE PUSH2 0x212D JUMP JUMPDEST SWAP1 PUSH1 0x0 MSTORE PUSH1 0x20 PUSH1 0x0 KECCAK256 ADD SLOAD DUP5 PUSH2 0x14D4 SWAP2 SWAP1 PUSH2 0x22E1 JUMP JUMPDEST PUSH2 0x14DE SWAP2 SWAP1 PUSH2 0x23C6 JUMP JUMPDEST SWAP1 POP DUP1 PUSH1 0x0 PUSH1 0xB ADD PUSH1 0x0 DUP1 PUSH1 0x2B ADD PUSH1 0x0 DUP2 SLOAD DUP2 LT PUSH2 0x14FE JUMPI PUSH2 0x14FE PUSH2 0x212D JUMP JUMPDEST PUSH1 0x0 SWAP2 DUP3 MSTORE PUSH1 0x20 DUP1 DUP4 KECCAK256 SWAP1 SWAP2 ADD SLOAD PUSH1 0x1 PUSH1 0x1 PUSH1 0xA0 SHL SUB AND DUP4 MSTORE DUP3 ADD SWAP3 SWAP1 SWAP3 MSTORE PUSH1 0x40 ADD DUP2 KECCAK256 DUP1 SLOAD SWAP1 SWAP2 SWAP1 PUSH2 0x1532 SWAP1 DUP5 SWAP1 PUSH2 0x21AC JUMP JUMPDEST SWAP1 SWAP2 SSTORE POP PUSH2 0x1542 SWAP1 POP DUP2 DUP4 PUSH2 0x22F8 JUMP JUMPDEST SWAP2 POP DUP2 ISZERO PUSH2 0x157A JUMPI PUSH1 0x2 SLOAD PUSH1 0x1 PUSH1 0x1 PUSH1 0xA0 SHL SUB AND PUSH1 0x0 SWAP1 DUP2 MSTORE PUSH1 0xB PUSH1 0x20 MSTORE PUSH1 0x40 DUP2 KECCAK256 DUP1 SLOAD DUP5 SWAP3 SWAP1 PUSH2 0x1574 SWAP1 DUP5 SWAP1 PUSH2 0x21AC JUMP JUMPDEST SWAP1 SWAP2 SSTORE POP POP JUMPDEST POP POP PUSH1 0x2D DUP1 SLOAD PUSH2 0xFF00 NOT AND SWAP1 SSTORE POP PUSH1 0x0 PUSH1 0xA SSTORE JUMP JUMPDEST PUSH1 0x0 PUSH2 0x15A4 PUSH1 0x1 PUSH1 0x1 PUSH1 0xA0 SHL SUB DUP5 AND DUP4 PUSH2 0x1812 JUMP JUMPDEST SWAP1 POP DUP1 MLOAD PUSH1 0x0 EQ ISZERO DUP1 ISZERO PUSH2 0x15C9 JUMPI POP DUP1 DUP1 PUSH1 0x20 ADD SWAP1 MLOAD DUP2 ADD SWAP1 PUSH2 0x15C7 SWAP2 SWAP1 PUSH2 0x23E8 JUMP JUMPDEST ISZERO JUMPDEST ISZERO PUSH2 0x5DD JUMPI PUSH1 0x40 MLOAD PUSH4 0x5274AFE7 PUSH1 0xE0 SHL DUP2 MSTORE PUSH1 0x1 PUSH1 0x1 PUSH1 0xA0 SHL SUB DUP5 AND PUSH1 0x4 DUP3 ADD MSTORE PUSH1 0x24 ADD PUSH2 0x459 JUMP JUMPDEST PUSH1 0x1 DUP2 GT ISZERO PUSH2 0x1661 JUMPI PUSH1 0x40 MLOAD PUSH3 0x461BCD PUSH1 0xE5 SHL DUP2 MSTORE PUSH1 0x20 PUSH1 0x4 DUP3 ADD MSTORE PUSH1 0x35 PUSH1 0x24 DUP3 ADD MSTORE PUSH32 0x455243373231456E756D657261626C653A20636F6E7365637574697665207472 PUSH1 0x44 DUP3 ADD MSTORE PUSH21 0x185B9CD9995C9CC81B9BDD081CDD5C1C1BDC9D1959 PUSH1 0x5A SHL PUSH1 0x64 DUP3 ADD MSTORE PUSH1 0x84 ADD PUSH2 0x459 JUMP JUMPDEST DUP2 PUSH1 0x1 PUSH1 0x1 PUSH1 0xA0 SHL SUB DUP6 AND PUSH2 0x16B7 JUMPI PUSH1 0x1 PUSH1 0x1 PUSH1 0xA0 SHL SUB DUP7 AND PUSH1 0x0 SWAP1 DUP2 MSTORE PUSH1 0x5D PUSH1 0x20 DUP2 DUP2 MSTORE PUSH1 0x40 DUP1 DUP5 KECCAK256 DUP1 SLOAD PUSH1 0x5E DUP5 MSTORE DUP3 DUP7 KECCAK256 DUP8 DUP8 MSTORE DUP5 MSTORE SWAP2 DUP6 KECCAK256 DUP3 SWAP1 SSTORE SWAP3 DUP3 MSTORE PUSH1 0x1 DUP2 ADD DUP4 SSTORE SWAP2 DUP4 MSTORE SWAP1 SWAP2 KECCAK256 ADD DUP2 SWAP1 SSTORE PUSH2 0x16DB JUMP JUMPDEST DUP4 PUSH1 0x1 PUSH1 0x1 PUSH1 0xA0 SHL SUB AND DUP6 PUSH1 0x1 PUSH1 0x1 PUSH1 0xA0 SHL SUB AND EQ PUSH2 0x16DB JUMPI PUSH2 0x16DB DUP7 DUP7 DUP4 PUSH2 0x185D JUMP JUMPDEST PUSH1 0x1 PUSH1 0x1 PUSH1 0xA0 SHL SUB DUP5 AND PUSH2 0x16F8 JUMPI PUSH2 0x16F3 DUP7 DUP3 PUSH2 0x1967 JUMP JUMPDEST PUSH2 0x176A JUMP JUMPDEST DUP5 PUSH1 0x1 PUSH1 0x1 PUSH1 0xA0 SHL SUB AND DUP5 PUSH1 0x1 PUSH1 0x1 PUSH1 0xA0 SHL SUB AND EQ PUSH2 0x176A JUMPI PUSH1 0x1 PUSH1 0x1 PUSH1 0xA0 SHL SUB DUP1 DUP8 AND PUSH1 0x0 DUP2 DUP2 MSTORE PUSH1 0x58 PUSH1 0x20 SWAP1 DUP2 MSTORE PUSH1 0x40 DUP1 DUP4 KECCAK256 SWAP5 DUP10 AND DUP1 DUP5 MSTORE SWAP5 DUP3 MSTORE DUP1 DUP4 KECCAK256 SLOAD DUP5 DUP5 MSTORE PUSH1 0x5B DUP4 MSTORE DUP2 DUP5 KECCAK256 SWAP6 DUP5 MSTORE SWAP5 DUP3 MSTORE DUP1 DUP4 KECCAK256 DUP6 DUP5 MSTORE DUP3 MSTORE DUP1 DUP4 KECCAK256 DUP7 SWAP1 SSTORE SWAP3 DUP3 MSTORE PUSH1 0x5C DUP2 MSTORE DUP3 DUP3 KECCAK256 DUP6 DUP4 MSTORE SWAP1 MSTORE KECCAK256 SSTORE JUMPDEST POP POP POP POP POP POP JUMP JUMPDEST PUSH1 0x1 PUSH1 0x1 PUSH1 0xA0 SHL SUB DUP3 AND PUSH1 0x0 SWAP1 DUP2 MSTORE PUSH1 0x5F PUSH1 0x20 SWAP1 DUP2 MSTORE PUSH1 0x40 DUP1 DUP4 KECCAK256 DUP5 DUP5 MSTORE SWAP1 SWAP2 MSTORE DUP2 KECCAK256 SLOAD ISZERO PUSH2 0x5DD JUMPI PUSH1 0x1 PUSH1 0x1 PUSH1 0xA0 SHL SUB DUP4 AND PUSH1 0x0 SWAP1 DUP2 MSTORE PUSH1 0x5F DUP3 ADD PUSH1 0x20 SWAP1 DUP2 MSTORE PUSH1 0x40 DUP1 DUP4 KECCAK256 DUP6 DUP5 MSTORE SWAP1 SWAP2 MSTORE DUP2 KECCAK256 PUSH2 0x5DD SWAP2 PUSH2 0x1CAF JUMP JUMPDEST PUSH2 0x180E DUP3 DUP3 PUSH1 0x40 MLOAD PUSH1 0x24 ADD PUSH2 0x17DF SWAP3 SWAP2 SWAP1 PUSH2 0x240A JUMP JUMPDEST PUSH1 0x40 DUP1 MLOAD PUSH1 0x1F NOT DUP2 DUP5 SUB ADD DUP2 MSTORE SWAP2 SWAP1 MSTORE PUSH1 0x20 DUP2 ADD DUP1 MLOAD PUSH1 0x1 PUSH1 0x1 PUSH1 0xE0 SHL SUB AND PUSH4 0x2D839CB3 PUSH1 0xE2 SHL OR SWAP1 MSTORE PUSH2 0x1A96 JUMP JUMPDEST POP POP JUMP JUMPDEST PUSH1 0x60 PUSH2 0x1854 DUP4 DUP4 PUSH1 0x40 MLOAD DUP1 PUSH1 0x40 ADD PUSH1 0x40 MSTORE DUP1 PUSH1 0x1E DUP2 MSTORE PUSH1 0x20 ADD PUSH32 0x416464726573733A206C6F772D6C6576656C2063616C6C206661696C65640000 DUP2 MSTORE POP PUSH2 0x1AA2 JUMP JUMPDEST SWAP1 POP JUMPDEST SWAP3 SWAP2 POP POP JUMP JUMPDEST PUSH1 0x1 PUSH1 0x1 PUSH1 0xA0 SHL SUB DUP4 DUP2 AND PUSH1 0x0 SWAP1 DUP2 MSTORE PUSH1 0x58 PUSH1 0x20 SWAP1 DUP2 MSTORE PUSH1 0x40 DUP1 DUP4 KECCAK256 SWAP4 DUP7 AND DUP4 MSTORE SWAP3 SWAP1 MSTORE SWAP1 DUP2 KECCAK256 SLOAD DUP2 SWAP1 PUSH2 0x1893 SWAP1 PUSH1 0x1 SWAP1 PUSH2 0x22F8 JUMP JUMPDEST PUSH1 0x1 PUSH1 0x1 PUSH1 0xA0 SHL SUB DUP7 AND PUSH1 0x0 SWAP1 DUP2 MSTORE PUSH1 0x5C DUP5 ADD PUSH1 0x20 SWAP1 DUP2 MSTORE PUSH1 0x40 DUP1 DUP4 KECCAK256 DUP8 DUP5 MSTORE SWAP1 SWAP2 MSTORE SWAP1 KECCAK256 SLOAD SWAP1 SWAP2 POP DUP1 DUP3 EQ PUSH2 0x1916 JUMPI PUSH1 0x1 PUSH1 0x1 PUSH1 0xA0 SHL SUB DUP7 DUP2 AND PUSH1 0x0 DUP2 DUP2 MSTORE PUSH1 0x5B DUP7 ADD PUSH1 0x20 SWAP1 DUP2 MSTORE PUSH1 0x40 DUP1 DUP4 KECCAK256 SWAP5 DUP11 AND DUP4 MSTORE SWAP4 DUP2 MSTORE DUP4 DUP3 KECCAK256 DUP7 DUP4 MSTORE DUP2 MSTORE DUP4 DUP3 KECCAK256 SLOAD DUP6 DUP4 MSTORE DUP5 DUP4 KECCAK256 DUP2 SWAP1 SSTORE SWAP3 DUP3 MSTORE PUSH1 0x5C DUP8 ADD DUP2 MSTORE DUP4 DUP3 KECCAK256 SWAP3 DUP3 MSTORE SWAP2 SWAP1 SWAP2 MSTORE KECCAK256 DUP2 SWAP1 SSTORE JUMPDEST POP PUSH1 0x1 PUSH1 0x1 PUSH1 0xA0 SHL SUB SWAP5 DUP6 AND PUSH1 0x0 DUP2 DUP2 MSTORE PUSH1 0x5C DUP5 ADD PUSH1 0x20 SWAP1 DUP2 MSTORE PUSH1 0x40 DUP1 DUP4 KECCAK256 SWAP7 DUP4 MSTORE SWAP6 DUP2 MSTORE DUP6 DUP3 KECCAK256 DUP3 SWAP1 SSTORE SWAP2 DUP2 MSTORE PUSH1 0x5B SWAP1 SWAP4 ADD DUP2 MSTORE DUP4 DUP4 KECCAK256 SWAP5 SWAP1 SWAP6 AND DUP3 MSTORE SWAP3 DUP5 MSTORE DUP2 DUP2 KECCAK256 SWAP3 DUP2 MSTORE SWAP2 SWAP1 SWAP3 MSTORE SWAP1 DUP2 KECCAK256 SSTORE JUMP JUMPDEST PUSH1 0x1 PUSH1 0x1 PUSH1 0xA0 SHL SUB DUP3 AND PUSH1 0x0 SWAP1 DUP2 MSTORE PUSH1 0x5D PUSH1 0x20 MSTORE PUSH1 0x40 DUP2 KECCAK256 SLOAD DUP2 SWAP1 PUSH2 0x198E SWAP1 PUSH1 0x1 SWAP1 PUSH2 0x22F8 JUMP JUMPDEST PUSH1 0x1 PUSH1 0x1 PUSH1 0xA0 SHL SUB DUP6 AND PUSH1 0x0 DUP2 DUP2 MSTORE PUSH1 0x5E DUP6 ADD PUSH1 0x20 SWAP1 DUP2 MSTORE PUSH1 0x40 DUP1 DUP4 KECCAK256 DUP9 DUP5 MSTORE DUP3 MSTORE DUP1 DUP4 KECCAK256 SLOAD SWAP4 DUP4 MSTORE PUSH1 0x5D DUP8 ADD SWAP1 SWAP2 MSTORE DUP2 KECCAK256 DUP1 SLOAD SWAP4 SWAP5 POP SWAP2 SWAP3 SWAP1 SWAP2 SWAP1 DUP5 SWAP1 DUP2 LT PUSH2 0x19DA JUMPI PUSH2 0x19DA PUSH2 0x212D JUMP JUMPDEST SWAP1 PUSH1 0x0 MSTORE PUSH1 0x20 PUSH1 0x0 KECCAK256 ADD SLOAD SWAP1 POP DUP1 DUP5 PUSH1 0x5D ADD PUSH1 0x0 DUP9 PUSH1 0x1 PUSH1 0x1 PUSH1 0xA0 SHL SUB AND PUSH1 0x1 PUSH1 0x1 PUSH1 0xA0 SHL SUB AND DUP2 MSTORE PUSH1 0x20 ADD SWAP1 DUP2 MSTORE PUSH1 0x20 ADD PUSH1 0x0 KECCAK256 DUP4 DUP2 SLOAD DUP2 LT PUSH2 0x1A20 JUMPI PUSH2 0x1A20 PUSH2 0x212D JUMP JUMPDEST PUSH1 0x0 SWAP2 DUP3 MSTORE PUSH1 0x20 DUP1 DUP4 KECCAK256 SWAP2 SWAP1 SWAP2 ADD SWAP3 SWAP1 SWAP3 SSTORE PUSH1 0x1 PUSH1 0x1 PUSH1 0xA0 SHL SUB DUP9 AND DUP1 DUP3 MSTORE PUSH1 0x5E DUP8 ADD DUP4 MSTORE PUSH1 0x40 DUP1 DUP4 KECCAK256 DUP6 DUP5 MSTORE DUP5 MSTORE DUP1 DUP4 KECCAK256 DUP7 SWAP1 SSTORE DUP9 DUP4 MSTORE DUP1 DUP4 KECCAK256 DUP4 SWAP1 SSTORE SWAP1 DUP3 MSTORE PUSH1 0x5D DUP8 ADD SWAP1 SWAP3 MSTORE KECCAK256 DUP1 SLOAD DUP1 PUSH2 0x1A78 JUMPI PUSH2 0x1A78 PUSH2 0x242C JUMP JUMPDEST PUSH1 0x1 SWAP1 SUB DUP2 DUP2 SWAP1 PUSH1 0x0 MSTORE PUSH1 0x20 PUSH1 0x0 KECCAK256 ADD PUSH1 0x0 SWAP1 SSTORE SWAP1 SSTORE POP POP POP POP POP POP JUMP JUMPDEST PUSH2 0x1A9F DUP2 PUSH2 0x1ABB JUMP JUMPDEST POP JUMP JUMPDEST PUSH1 0x60 PUSH2 0x1AB1 DUP5 DUP5 PUSH1 0x0 DUP6 PUSH2 0x1ADC JUMP JUMPDEST SWAP1 POP JUMPDEST SWAP4 SWAP3 POP POP POP JUMP JUMPDEST PUSH1 0x0 PUSH11 0x636F6E736F6C652E6C6F67 SWAP1 POP PUSH1 0x0 DUP1 DUP4 MLOAD PUSH1 0x20 DUP6 ADD DUP5 GAS STATICCALL POP POP POP JUMP JUMPDEST PUSH1 0x60 DUP3 SELFBALANCE LT ISZERO PUSH2 0x1B3D JUMPI PUSH1 0x40 MLOAD PUSH3 0x461BCD PUSH1 0xE5 SHL DUP2 MSTORE PUSH1 0x20 PUSH1 0x4 DUP3 ADD MSTORE PUSH1 0x26 PUSH1 0x24 DUP3 ADD MSTORE PUSH32 0x416464726573733A20696E73756666696369656E742062616C616E636520666F PUSH1 0x44 DUP3 ADD MSTORE PUSH6 0x1C8818D85B1B PUSH1 0xD2 SHL PUSH1 0x64 DUP3 ADD MSTORE PUSH1 0x84 ADD PUSH2 0x459 JUMP JUMPDEST PUSH1 0x1 PUSH1 0x1 PUSH1 0xA0 SHL SUB DUP6 AND EXTCODESIZE PUSH2 0x1B94 JUMPI PUSH1 0x40 MLOAD PUSH3 0x461BCD PUSH1 0xE5 SHL DUP2 MSTORE PUSH1 0x20 PUSH1 0x4 DUP3 ADD MSTORE PUSH1 0x1D PUSH1 0x24 DUP3 ADD MSTORE PUSH32 0x416464726573733A2063616C6C20746F206E6F6E2D636F6E7472616374000000 PUSH1 0x44 DUP3 ADD MSTORE PUSH1 0x64 ADD PUSH2 0x459 JUMP JUMPDEST PUSH1 0x0 DUP1 DUP7 PUSH1 0x1 PUSH1 0x1 PUSH1 0xA0 SHL SUB AND DUP6 DUP8 PUSH1 0x40 MLOAD PUSH2 0x1BB0 SWAP2 SWAP1 PUSH2 0x22C5 JUMP JUMPDEST PUSH1 0x0 PUSH1 0x40 MLOAD DUP1 DUP4 SUB DUP2 DUP6 DUP8 GAS CALL SWAP3 POP POP POP RETURNDATASIZE DUP1 PUSH1 0x0 DUP2 EQ PUSH2 0x1BED JUMPI PUSH1 0x40 MLOAD SWAP2 POP PUSH1 0x1F NOT PUSH1 0x3F RETURNDATASIZE ADD AND DUP3 ADD PUSH1 0x40 MSTORE RETURNDATASIZE DUP3 MSTORE RETURNDATASIZE PUSH1 0x0 PUSH1 0x20 DUP5 ADD RETURNDATACOPY PUSH2 0x1BF2 JUMP JUMPDEST PUSH1 0x60 SWAP2 POP JUMPDEST POP SWAP2 POP SWAP2 POP PUSH2 0x1C02 DUP3 DUP3 DUP7 PUSH2 0x1C0D JUMP JUMPDEST SWAP8 SWAP7 POP POP POP POP POP POP POP JUMP JUMPDEST PUSH1 0x60 DUP4 ISZERO PUSH2 0x1C1C JUMPI POP DUP2 PUSH2 0x1AB4 JUMP JUMPDEST DUP3 MLOAD ISZERO PUSH2 0x1C2C JUMPI DUP3 MLOAD DUP1 DUP5 PUSH1 0x20 ADD REVERT JUMPDEST DUP2 PUSH1 0x40 MLOAD PUSH3 0x461BCD PUSH1 0xE5 SHL DUP2 MSTORE PUSH1 0x4 ADD PUSH2 0x459 SWAP2 SWAP1 PUSH2 0x2442 JUMP JUMPDEST DUP3 DUP1 SLOAD DUP3 DUP3 SSTORE SWAP1 PUSH1 0x0 MSTORE PUSH1 0x20 PUSH1 0x0 KECCAK256 SWAP1 DUP2 ADD SWAP3 DUP3 ISZERO PUSH2 0x1C81 JUMPI SWAP2 PUSH1 0x20 MUL DUP3 ADD JUMPDEST DUP3 DUP2 GT ISZERO PUSH2 0x1C81 JUMPI DUP3 MLOAD DUP3 SSTORE SWAP2 PUSH1 0x20 ADD SWAP2 SWAP1 PUSH1 0x1 ADD SWAP1 PUSH2 0x1C66 JUMP JUMPDEST POP PUSH2 0x1C8D SWAP3 SWAP2 POP PUSH2 0x1CD0 JUMP JUMPDEST POP SWAP1 JUMP JUMPDEST POP DUP1 SLOAD PUSH1 0x0 DUP3 SSTORE SWAP1 PUSH1 0x0 MSTORE PUSH1 0x20 PUSH1 0x0 KECCAK256 SWAP1 DUP2 ADD SWAP1 PUSH2 0x1A9F SWAP2 SWAP1 PUSH2 0x1CD0 JUMP JUMPDEST POP DUP1 SLOAD PUSH1 0x0 DUP3 SSTORE PUSH1 0x4 MUL SWAP1 PUSH1 0x0 MSTORE PUSH1 0x20 PUSH1 0x0 KECCAK256 SWAP1 DUP2 ADD SWAP1 PUSH2 0x1A9F SWAP2 SWAP1 PUSH2 0x1CE5 JUMP JUMPDEST JUMPDEST DUP1 DUP3 GT ISZERO PUSH2 0x1C8D JUMPI PUSH1 0x0 DUP2 SSTORE PUSH1 0x1 ADD PUSH2 0x1CD1 JUMP JUMPDEST JUMPDEST DUP1 DUP3 GT ISZERO PUSH2 0x1C8D JUMPI PUSH1 0x0 DUP1 DUP3 SSTORE PUSH1 0x1 DUP3 ADD DUP1 SLOAD PUSH1 0x1 PUSH1 0x1 PUSH1 0xA0 SHL SUB NOT AND SWAP1 SSTORE PUSH1 0x2 DUP3 ADD SSTORE PUSH1 0x3 DUP2 ADD DUP1 SLOAD PUSH1 0xFF NOT AND SWAP1 SSTORE PUSH1 0x4 ADD PUSH2 0x1CE6 JUMP JUMPDEST PUSH1 0x0 PUSH1 0x20 DUP3 DUP5 SUB SLT ISZERO PUSH2 0x1D30 JUMPI PUSH1 0x0 DUP1 REVERT JUMPDEST DUP2 CALLDATALOAD PUSH1 0x1 PUSH1 0x1 PUSH1 0xA0 SHL SUB DUP2 AND DUP2 EQ PUSH2 0x1AB4 JUMPI PUSH1 0x0 DUP1 REVERT JUMPDEST PUSH1 0x0 DUP2 MLOAD DUP1 DUP5 MSTORE PUSH1 0x20 DUP1 DUP6 ADD SWAP5 POP DUP1 DUP5 ADD PUSH1 0x0 JUMPDEST DUP4 DUP2 LT ISZERO PUSH2 0x1D77 JUMPI DUP2 MLOAD DUP8 MSTORE SWAP6 DUP3 ADD SWAP6 SWAP1 DUP3 ADD SWAP1 PUSH1 0x1 ADD PUSH2 0x1D5B JUMP JUMPDEST POP SWAP5 SWAP6 SWAP5 POP POP POP POP POP JUMP JUMPDEST PUSH1 0x20 DUP2 MSTORE PUSH1 0x0 PUSH2 0x1854 PUSH1 0x20 DUP4 ADD DUP5 PUSH2 0x1D47 JUMP JUMPDEST PUSH1 0x0 JUMPDEST DUP4 DUP2 LT ISZERO PUSH2 0x1DB0 JUMPI DUP2 DUP2 ADD MLOAD DUP4 DUP3 ADD MSTORE PUSH1 0x20 ADD PUSH2 0x1D98 JUMP JUMPDEST POP POP PUSH1 0x0 SWAP2 ADD MSTORE JUMP JUMPDEST PUSH1 0x0 DUP2 MLOAD DUP1 DUP5 MSTORE PUSH2 0x1DD1 DUP2 PUSH1 0x20 DUP7 ADD PUSH1 0x20 DUP7 ADD PUSH2 0x1D95 JUMP JUMPDEST PUSH1 0x1F ADD PUSH1 0x1F NOT AND SWAP3 SWAP1 SWAP3 ADD PUSH1 0x20 ADD SWAP3 SWAP2 POP POP JUMP JUMPDEST DUP8 DUP2 MSTORE PUSH1 0xE0 PUSH1 0x20 DUP3 ADD MSTORE PUSH1 0x0 PUSH2 0x1DFE PUSH1 0xE0 DUP4 ADD DUP10 PUSH2 0x1DB9 JUMP JUMPDEST DUP8 PUSH1 0x40 DUP5 ADD MSTORE DUP7 ISZERO ISZERO PUSH1 0x60 DUP5 ADD MSTORE DUP6 ISZERO ISZERO PUSH1 0x80 DUP5 ADD MSTORE DUP3 DUP2 SUB PUSH1 0xA0 DUP5 ADD MSTORE PUSH2 0x1E26 DUP2 DUP7 PUSH2 0x1D47 JUMP JUMPDEST SWAP2 POP POP DUP3 PUSH1 0xC0 DUP4 ADD MSTORE SWAP9 SWAP8 POP POP POP POP POP POP POP POP JUMP JUMPDEST PUSH1 0x0 PUSH1 0x20 DUP3 DUP5 SUB SLT ISZERO PUSH2 0x1E4D JUMPI PUSH1 0x0 DUP1 REVERT JUMPDEST POP CALLDATALOAD SWAP2 SWAP1 POP JUMP JUMPDEST PUSH4 0x4E487B71 PUSH1 0xE0 SHL PUSH1 0x0 MSTORE PUSH1 0x41 PUSH1 0x4 MSTORE PUSH1 0x24 PUSH1 0x0 REVERT JUMPDEST PUSH1 0x40 MLOAD PUSH1 0x1F DUP3 ADD PUSH1 0x1F NOT AND DUP2 ADD PUSH8 0xFFFFFFFFFFFFFFFF DUP2 GT DUP3 DUP3 LT OR ISZERO PUSH2 0x1E93 JUMPI PUSH2 0x1E93 PUSH2 0x1E54 JUMP JUMPDEST PUSH1 0x40 MSTORE SWAP2 SWAP1 POP JUMP JUMPDEST PUSH1 0x0 DUP3 PUSH1 0x1F DUP4 ADD SLT PUSH2 0x1EAC JUMPI PUSH1 0x0 DUP1 REVERT JUMPDEST DUP2 CALLDATALOAD PUSH8 0xFFFFFFFFFFFFFFFF DUP2 GT ISZERO PUSH2 0x1EC6 JUMPI PUSH2 0x1EC6 PUSH2 0x1E54 JUMP JUMPDEST PUSH2 0x1ED9 PUSH1 0x1F DUP3 ADD PUSH1 0x1F NOT AND PUSH1 0x20 ADD PUSH2 0x1E6A JUMP JUMPDEST DUP2 DUP2 MSTORE DUP5 PUSH1 0x20 DUP4 DUP7 ADD ADD GT ISZERO PUSH2 0x1EEE JUMPI PUSH1 0x0 DUP1 REVERT JUMPDEST DUP2 PUSH1 0x20 DUP6 ADD PUSH1 0x20 DUP4 ADD CALLDATACOPY PUSH1 0x0 SWAP2 DUP2 ADD PUSH1 0x20 ADD SWAP2 SWAP1 SWAP2 MSTORE SWAP4 SWAP3 POP POP POP JUMP JUMPDEST PUSH1 0x0 DUP1 PUSH1 0x0 DUP1 PUSH1 0x80 DUP6 DUP8 SUB SLT ISZERO PUSH2 0x1F21 JUMPI PUSH1 0x0 DUP1 REVERT JUMPDEST DUP5 CALLDATALOAD SWAP4 POP PUSH1 0x20 DUP1 DUP7 ADD CALLDATALOAD PUSH8 0xFFFFFFFFFFFFFFFF DUP1 DUP3 GT ISZERO PUSH2 0x1F41 JUMPI PUSH1 0x0 DUP1 REVERT JUMPDEST PUSH2 0x1F4D DUP10 DUP4 DUP11 ADD PUSH2 0x1E9B JUMP JUMPDEST SWAP6 POP PUSH1 0x40 DUP9 ADD CALLDATALOAD SWAP5 POP PUSH1 0x60 DUP9 ADD CALLDATALOAD SWAP2 POP DUP1 DUP3 GT ISZERO PUSH2 0x1F6A JUMPI PUSH1 0x0 DUP1 REVERT JUMPDEST DUP2 DUP9 ADD SWAP2 POP DUP9 PUSH1 0x1F DUP4 ADD SLT PUSH2 0x1F7E JUMPI PUSH1 0x0 DUP1 REVERT JUMPDEST DUP2 CALLDATALOAD DUP2 DUP2 GT ISZERO PUSH2 0x1F90 JUMPI PUSH2 0x1F90 PUSH2 0x1E54 JUMP JUMPDEST DUP1 PUSH1 0x5 SHL SWAP2 POP PUSH2 0x1FA1 DUP5 DUP4 ADD PUSH2 0x1E6A JUMP JUMPDEST DUP2 DUP2 MSTORE SWAP2 DUP4 ADD DUP5 ADD SWAP2 DUP5 DUP2 ADD SWAP1 DUP12 DUP5 GT ISZERO PUSH2 0x1FBB JUMPI PUSH1 0x0 DUP1 REVERT JUMPDEST SWAP4 DUP6 ADD SWAP4 JUMPDEST DUP4 DUP6 LT ISZERO PUSH2 0x1FD9 JUMPI DUP5 CALLDATALOAD DUP3 MSTORE SWAP4 DUP6 ADD SWAP4 SWAP1 DUP6 ADD SWAP1 PUSH2 0x1FC0 JUMP JUMPDEST SWAP9 SWAP12 SWAP8 SWAP11 POP SWAP6 SWAP9 POP POP POP POP POP POP POP JUMP JUMPDEST PUSH1 0x20 DUP1 DUP3 MSTORE DUP3 MLOAD DUP3 DUP3 ADD DUP2 SWAP1 MSTORE PUSH1 0x0 SWAP2 SWAP1 DUP5 DUP3 ADD SWAP1 PUSH1 0x40 DUP6 ADD SWAP1 DUP5 JUMPDEST DUP2 DUP2 LT ISZERO PUSH2 0x202A JUMPI DUP4 MLOAD PUSH1 0x1 PUSH1 0x1 PUSH1 0xA0 SHL SUB AND DUP4 MSTORE SWAP3 DUP5 ADD SWAP3 SWAP2 DUP5 ADD SWAP2 PUSH1 0x1 ADD PUSH2 0x2005 JUMP JUMPDEST POP SWAP1 SWAP7 SWAP6 POP POP POP POP POP POP JUMP JUMPDEST DUP4 DUP2 MSTORE DUP3 PUSH1 0x20 DUP3 ADD MSTORE PUSH1 0x60 PUSH1 0x40 DUP3 ADD MSTORE PUSH1 0x0 PUSH2 0x2055 PUSH1 0x60 DUP4 ADD DUP5 PUSH2 0x1DB9 JUMP JUMPDEST SWAP6 SWAP5 POP POP POP POP POP JUMP JUMPDEST PUSH1 0x0 DUP1 PUSH1 0x20 DUP4 DUP6 SUB SLT ISZERO PUSH2 0x2071 JUMPI PUSH1 0x0 DUP1 REVERT JUMPDEST DUP3 CALLDATALOAD PUSH8 0xFFFFFFFFFFFFFFFF DUP1 DUP3 GT ISZERO PUSH2 0x2089 JUMPI PUSH1 0x0 DUP1 REVERT JUMPDEST DUP2 DUP6 ADD SWAP2 POP DUP6 PUSH1 0x1F DUP4 ADD SLT PUSH2 0x209D JUMPI PUSH1 0x0 DUP1 REVERT JUMPDEST DUP2 CALLDATALOAD DUP2 DUP2 GT ISZERO PUSH2 0x20AC JUMPI PUSH1 0x0 DUP1 REVERT JUMPDEST DUP7 PUSH1 0x20 DUP3 PUSH1 0x5 SHL DUP6 ADD ADD GT ISZERO PUSH2 0x20C1 JUMPI PUSH1 0x0 DUP1 REVERT JUMPDEST PUSH1 0x20 SWAP3 SWAP1 SWAP3 ADD SWAP7 SWAP2 SWAP6 POP SWAP1 SWAP4 POP POP POP POP JUMP JUMPDEST PUSH1 0x0 DUP1 PUSH1 0x0 DUP1 PUSH1 0x80 DUP6 DUP8 SUB SLT ISZERO PUSH2 0x20E9 JUMPI PUSH1 0x0 DUP1 REVERT JUMPDEST DUP5 CALLDATALOAD SWAP4 POP PUSH1 0x20 DUP6 ADD CALLDATALOAD SWAP3 POP PUSH1 0x40 DUP6 ADD CALLDATALOAD SWAP2 POP PUSH1 0x60 DUP6 ADD CALLDATALOAD PUSH8 0xFFFFFFFFFFFFFFFF DUP2 GT ISZERO PUSH2 0x2115 JUMPI PUSH1 0x0 DUP1 REVERT JUMPDEST PUSH2 0x2121 DUP8 DUP3 DUP9 ADD PUSH2 0x1E9B JUMP JUMPDEST SWAP2 POP POP SWAP3 SWAP6 SWAP2 SWAP5 POP SWAP3 POP JUMP JUMPDEST PUSH4 0x4E487B71 PUSH1 0xE0 SHL PUSH1 0x0 MSTORE PUSH1 0x32 PUSH1 0x4 MSTORE PUSH1 0x24 PUSH1 0x0 REVERT JUMPDEST PUSH4 0x4E487B71 PUSH1 0xE0 SHL PUSH1 0x0 MSTORE PUSH1 0x11 PUSH1 0x4 MSTORE PUSH1 0x24 PUSH1 0x0 REVERT JUMPDEST PUSH1 0x0 PUSH1 0x1 DUP3 ADD PUSH2 0x216B JUMPI PUSH2 0x216B PUSH2 0x2143 JUMP JUMPDEST POP PUSH1 0x1 ADD SWAP1 JUMP JUMPDEST PUSH1 0x1 DUP2 DUP2 SHR SWAP1 DUP3 AND DUP1 PUSH2 0x2186 JUMPI PUSH1 0x7F DUP3 AND SWAP2 POP JUMPDEST PUSH1 0x20 DUP3 LT DUP2 SUB PUSH2 0x21A6 JUMPI PUSH4 0x4E487B71 PUSH1 0xE0 SHL PUSH1 0x0 MSTORE PUSH1 0x22 PUSH1 0x4 MSTORE PUSH1 0x24 PUSH1 0x0 REVERT JUMPDEST POP SWAP2 SWAP1 POP JUMP JUMPDEST DUP1 DUP3 ADD DUP1 DUP3 GT ISZERO PUSH2 0x1857 JUMPI PUSH2 0x1857 PUSH2 0x2143 JUMP JUMPDEST PUSH1 0x1F DUP3 GT ISZERO PUSH2 0x5DD JUMPI PUSH1 0x0 DUP2 DUP2 MSTORE PUSH1 0x20 DUP2 KECCAK256 PUSH1 0x1F DUP6 ADD PUSH1 0x5 SHR DUP2 ADD PUSH1 0x20 DUP7 LT ISZERO PUSH2 0x21E6 JUMPI POP DUP1 JUMPDEST PUSH1 0x1F DUP6 ADD PUSH1 0x5 SHR DUP3 ADD SWAP2 POP JUMPDEST DUP2 DUP2 LT ISZERO PUSH2 0x176A JUMPI DUP3 DUP2 SSTORE PUSH1 0x1 ADD PUSH2 0x21F2 JUMP JUMPDEST DUP2 MLOAD PUSH8 0xFFFFFFFFFFFFFFFF DUP2 GT ISZERO PUSH2 0x221F JUMPI PUSH2 0x221F PUSH2 0x1E54 JUMP JUMPDEST PUSH2 0x2233 DUP2 PUSH2 0x222D DUP5 SLOAD PUSH2 0x2172 JUMP JUMPDEST DUP5 PUSH2 0x21BF JUMP JUMPDEST PUSH1 0x20 DUP1 PUSH1 0x1F DUP4 GT PUSH1 0x1 DUP2 EQ PUSH2 0x2268 JUMPI PUSH1 0x0 DUP5 ISZERO PUSH2 0x2250 JUMPI POP DUP6 DUP4 ADD MLOAD JUMPDEST PUSH1 0x0 NOT PUSH1 0x3 DUP7 SWAP1 SHL SHR NOT AND PUSH1 0x1 DUP6 SWAP1 SHL OR DUP6 SSTORE PUSH2 0x176A JUMP JUMPDEST PUSH1 0x0 DUP6 DUP2 MSTORE PUSH1 0x20 DUP2 KECCAK256 PUSH1 0x1F NOT DUP7 AND SWAP2 JUMPDEST DUP3 DUP2 LT ISZERO PUSH2 0x2297 JUMPI DUP9 DUP7 ADD MLOAD DUP3 SSTORE SWAP5 DUP5 ADD SWAP5 PUSH1 0x1 SWAP1 SWAP2 ADD SWAP1 DUP5 ADD PUSH2 0x2278 JUMP JUMPDEST POP DUP6 DUP3 LT ISZERO PUSH2 0x22B5 JUMPI DUP8 DUP6 ADD MLOAD PUSH1 0x0 NOT PUSH1 0x3 DUP9 SWAP1 SHL PUSH1 0xF8 AND SHR NOT AND DUP2 SSTORE JUMPDEST POP POP POP POP POP PUSH1 0x1 SWAP1 DUP2 SHL ADD SWAP1 SSTORE POP JUMP JUMPDEST PUSH1 0x0 DUP3 MLOAD PUSH2 0x22D7 DUP2 DUP5 PUSH1 0x20 DUP8 ADD PUSH2 0x1D95 JUMP JUMPDEST SWAP2 SWAP1 SWAP2 ADD SWAP3 SWAP2 POP POP JUMP JUMPDEST DUP1 DUP3 MUL DUP2 ISZERO DUP3 DUP3 DIV DUP5 EQ OR PUSH2 0x1857 JUMPI PUSH2 0x1857 PUSH2 0x2143 JUMP JUMPDEST DUP2 DUP2 SUB DUP2 DUP2 GT ISZERO PUSH2 0x1857 JUMPI PUSH2 0x1857 PUSH2 0x2143 JUMP JUMPDEST PUSH1 0x0 DUP1 DUP4 SLOAD PUSH2 0x2319 DUP2 PUSH2 0x2172 JUMP JUMPDEST PUSH1 0x1 DUP3 DUP2 AND DUP1 ISZERO PUSH2 0x2331 JUMPI PUSH1 0x1 DUP2 EQ PUSH2 0x2346 JUMPI PUSH2 0x2375 JUMP JUMPDEST PUSH1 0xFF NOT DUP5 AND DUP8 MSTORE DUP3 ISZERO ISZERO DUP4 MUL DUP8 ADD SWAP5 POP PUSH2 0x2375 JUMP JUMPDEST DUP8 PUSH1 0x0 MSTORE PUSH1 0x20 DUP1 PUSH1 0x0 KECCAK256 PUSH1 0x0 JUMPDEST DUP6 DUP2 LT ISZERO PUSH2 0x236C JUMPI DUP2 SLOAD DUP11 DUP3 ADD MSTORE SWAP1 DUP5 ADD SWAP1 DUP3 ADD PUSH2 0x2353 JUMP JUMPDEST POP POP POP DUP3 DUP8 ADD SWAP5 POP JUMPDEST POP SWAP3 SWAP7 SWAP6 POP POP POP POP POP POP JUMP JUMPDEST PUSH1 0x20 DUP1 DUP3 MSTORE PUSH1 0x25 SWAP1 DUP3 ADD MSTORE PUSH32 0x4552433732313A207472616E736665722066726F6D20696E636F727265637420 PUSH1 0x40 DUP3 ADD MSTORE PUSH5 0x37BBB732B9 PUSH1 0xD9 SHL PUSH1 0x60 DUP3 ADD MSTORE PUSH1 0x80 ADD SWAP1 JUMP JUMPDEST PUSH1 0x0 DUP3 PUSH2 0x23E3 JUMPI PUSH4 0x4E487B71 PUSH1 0xE0 SHL PUSH1 0x0 MSTORE PUSH1 0x12 PUSH1 0x4 MSTORE PUSH1 0x24 PUSH1 0x0 REVERT JUMPDEST POP DIV SWAP1 JUMP JUMPDEST PUSH1 0x0 PUSH1 0x20 DUP3 DUP5 SUB SLT ISZERO PUSH2 0x23FA JUMPI PUSH1 0x0 DUP1 REVERT JUMPDEST DUP2 MLOAD DUP1 ISZERO ISZERO DUP2 EQ PUSH2 0x1AB4 JUMPI PUSH1 0x0 DUP1 REVERT JUMPDEST PUSH1 0x40 DUP2 MSTORE PUSH1 0x0 PUSH2 0x241D PUSH1 0x40 DUP4 ADD DUP6 PUSH2 0x1DB9 JUMP JUMPDEST SWAP1 POP DUP3 PUSH1 0x20 DUP4 ADD MSTORE SWAP4 SWAP3 POP POP POP JUMP JUMPDEST PUSH4 0x4E487B71 PUSH1 0xE0 SHL PUSH1 0x0 MSTORE PUSH1 0x31 PUSH1 0x4 MSTORE PUSH1 0x24 PUSH1 0x0 REVERT JUMPDEST PUSH1 0x20 DUP2 MSTORE PUSH1 0x0 PUSH2 0x1854 PUSH1 0x20 DUP4 ADD DUP5 PUSH2 0x1DB9 JUMP INVALID SLOAD PUSH16 0x74616C205265776172642042616C616E PUSH4 0x6520546F KECCAK256 MSTORE8 PUSH21 0x6172743A202573A2646970667358221220BB034660 BALANCE 0xD2 0xA8 SWAP4 0xC9 0xA6 SGT LOG2 PUSH3 0x77F417 0xFC PUSH8 0x995504191D34B552 0xC6 0xEA RETURNDATACOPY PUSH25 0x42B564736F6C63430008140033000000000000000000000000 "},"methodIdentifiers":{"_walletOfOwnerForGemTokens(address)":"0a0e0194","addShuffledIndexesBatch(uint256[])":"cb78a3c1","bulkPopulateTokens(uint256,uint256,uint256,string)":"da4bd360","burnAndClaimSpot()":"ecc2cda4","checkIfWinner()":"b844007c","checkTokenScoreForWallet()":"ae93f49d","depositRewardsForGame(uint256)":"5bbec7f6","getCurrentGameDetails()":"35a5cff2","getCurrentGemTokenRewardBalance()":"a6b371a9","getGemToken(uint256)":"ad37ff31","getGtcWinners()":"9a2dc07a","setGameParameters(uint256,string,uint256,uint256[])":"6d5d07fa","setSingleToken()":"633ed820"}}}}}