{"contracts/ExternalContracts/SaltVaultToken.sol":{"SaltVaultToken":{"abi":[{"inputs":[],"stateMutability":"nonpayable","type":"constructor"},{"anonymous":false,"inputs":[{"indexed":true,"internalType":"address","name":"owner","type":"address"},{"indexed":true,"internalType":"address","name":"spender","type":"address"},{"indexed":false,"internalType":"uint256","name":"value","type":"uint256"}],"name":"Approval","type":"event"},{"anonymous":false,"inputs":[{"indexed":false,"internalType":"address","name":"from","type":"address"},{"indexed":false,"internalType":"uint256","name":"amountTokensErased","type":"uint256"}],"name":"Burn","type":"event"},{"anonymous":false,"inputs":[{"indexed":false,"internalType":"uint256","name":"amountTokensErased","type":"uint256"}],"name":"GarbageCollected","type":"event"},{"anonymous":false,"inputs":[{"indexed":false,"internalType":"address","name":"recipient","type":"address"},{"indexed":false,"internalType":"uint256","name":"numTokens","type":"uint256"}],"name":"Minted","type":"event"},{"anonymous":false,"inputs":[{"indexed":true,"internalType":"address","name":"previousOwner","type":"address"},{"indexed":true,"internalType":"address","name":"newOwner","type":"address"}],"name":"OwnershipTransferred","type":"event"},{"anonymous":false,"inputs":[{"indexed":false,"internalType":"uint256","name":"previousPrice","type":"uint256"},{"indexed":false,"internalType":"uint256","name":"currentPrice","type":"uint256"},{"indexed":false,"internalType":"uint256","name":"totalSupply","type":"uint256"}],"name":"PriceChange","type":"event"},{"anonymous":false,"inputs":[{"indexed":false,"internalType":"address","name":"seller","type":"address"},{"indexed":false,"internalType":"uint256","name":"amountSVT","type":"uint256"},{"indexed":false,"internalType":"uint256","name":"amountUSDC","type":"uint256"}],"name":"Redeemed","type":"event"},{"anonymous":false,"inputs":[{"indexed":false,"internalType":"address","name":"account","type":"address"}],"name":"SellDownAccount","type":"event"},{"anonymous":false,"inputs":[{"indexed":false,"internalType":"address","name":"addr","type":"address"},{"indexed":false,"internalType":"bool","name":"value","type":"bool"}],"name":"SetContract","type":"event"},{"anonymous":false,"inputs":[{"indexed":false,"internalType":"address","name":"newReceiver","type":"address"}],"name":"SetFeeReceiver","type":"event"},{"anonymous":false,"inputs":[{"indexed":false,"internalType":"uint256","name":"newPercentage","type":"uint256"}],"name":"SetFeeReceiverPercentage","type":"event"},{"anonymous":false,"inputs":[{"indexed":false,"internalType":"uint256","name":"mintFee","type":"uint256"},{"indexed":false,"internalType":"uint256","name":"transferFee","type":"uint256"},{"indexed":false,"internalType":"uint256","name":"sellFee","type":"uint256"},{"indexed":false,"internalType":"uint256","name":"contractFee","type":"uint256"}],"name":"SetFees","type":"event"},{"anonymous":false,"inputs":[{"indexed":false,"internalType":"address","name":"Contract","type":"address"},{"indexed":false,"internalType":"bool","name":"feeExempt","type":"bool"}],"name":"SetPermissions","type":"event"},{"anonymous":false,"inputs":[{"indexed":false,"internalType":"address","name":"underlying","type":"address"}],"name":"SetUnderlying","type":"event"},{"anonymous":false,"inputs":[{"indexed":false,"internalType":"uint256","name":"blockNo","type":"uint256"}],"name":"TokenActivated","type":"event"},{"anonymous":false,"inputs":[{"indexed":true,"internalType":"address","name":"from","type":"address"},{"indexed":true,"internalType":"address","name":"to","type":"address"},{"indexed":false,"internalType":"uint256","name":"value","type":"uint256"}],"name":"Transfer","type":"event"},{"anonymous":false,"inputs":[{"indexed":false,"internalType":"bool","name":"flag","type":"bool"}],"name":"presaleStatus","type":"event"},{"inputs":[{"internalType":"bool","name":"_flag","type":"bool"}],"name":"activateToken","outputs":[],"stateMutability":"nonpayable","type":"function"},{"inputs":[{"internalType":"address","name":"holder","type":"address"},{"internalType":"address","name":"spender","type":"address"}],"name":"allowance","outputs":[{"internalType":"uint256","name":"","type":"uint256"}],"stateMutability":"view","type":"function"},{"inputs":[{"internalType":"address","name":"spender","type":"address"},{"internalType":"uint256","name":"amount","type":"uint256"}],"name":"approve","outputs":[{"internalType":"bool","name":"","type":"bool"}],"stateMutability":"nonpayable","type":"function"},{"inputs":[{"internalType":"address","name":"account","type":"address"}],"name":"balanceOf","outputs":[{"internalType":"uint256","name":"","type":"uint256"}],"stateMutability":"view","type":"function"},{"inputs":[{"internalType":"uint256","name":"amount","type":"uint256"}],"name":"burn","outputs":[],"stateMutability":"nonpayable","type":"function"},{"inputs":[],"name":"calculatePrice","outputs":[{"internalType":"uint256","name":"","type":"uint256"}],"stateMutability":"view","type":"function"},{"inputs":[],"name":"contractFee","outputs":[{"internalType":"uint256","name":"","type":"uint256"}],"stateMutability":"view","type":"function"},{"inputs":[{"internalType":"address","name":"","type":"address"}],"name":"contracts","outputs":[{"internalType":"bool","name":"","type":"bool"}],"stateMutability":"view","type":"function"},{"inputs":[{"internalType":"address","name":"","type":"address"}],"name":"customFee","outputs":[{"internalType":"uint256","name":"","type":"uint256"}],"stateMutability":"view","type":"function"},{"inputs":[],"name":"decimals","outputs":[{"internalType":"uint8","name":"","type":"uint8"}],"stateMutability":"pure","type":"function"},{"inputs":[{"internalType":"address","name":"_address","type":"address"}],"name":"determineFeeForAddress","outputs":[{"internalType":"uint256","name":"","type":"uint256"}],"stateMutability":"view","type":"function"},{"inputs":[],"name":"feeReceiver","outputs":[{"internalType":"address","name":"","type":"address"}],"stateMutability":"view","type":"function"},{"inputs":[],"name":"feeReceiverPercentage","outputs":[{"internalType":"uint256","name":"","type":"uint256"}],"stateMutability":"view","type":"function"},{"inputs":[{"internalType":"address","name":"holder","type":"address"}],"name":"getValueOfHoldings","outputs":[{"internalType":"uint256","name":"","type":"uint256"}],"stateMutability":"view","type":"function"},{"inputs":[{"internalType":"address","name":"","type":"address"}],"name":"hasCustomFee","outputs":[{"internalType":"bool","name":"","type":"bool"}],"stateMutability":"view","type":"function"},{"inputs":[{"internalType":"address","name":"","type":"address"}],"name":"isApprovedCaller","outputs":[{"internalType":"bool","name":"","type":"bool"}],"stateMutability":"view","type":"function"},{"inputs":[{"internalType":"address","name":"_address","type":"address"}],"name":"isCurrentContractFeeExempt","outputs":[{"internalType":"bool","name":"","type":"bool"}],"stateMutability":"view","type":"function"},{"inputs":[{"internalType":"address","name":"_address","type":"address"}],"name":"isReadyForTrdContracts","outputs":[{"internalType":"bool","name":"","type":"bool"}],"stateMutability":"view","type":"function"},{"inputs":[{"internalType":"address","name":"","type":"address"}],"name":"isTransferFeeExempt","outputs":[{"internalType":"bool","name":"","type":"bool"}],"stateMutability":"view","type":"function"},{"inputs":[],"name":"mintFee","outputs":[{"internalType":"uint256","name":"","type":"uint256"}],"stateMutability":"view","type":"function"},{"inputs":[{"internalType":"uint256","name":"numTokens","type":"uint256"}],"name":"mintWithBacking","outputs":[{"internalType":"uint256","name":"","type":"uint256"}],"stateMutability":"nonpayable","type":"function"},{"inputs":[],"name":"name","outputs":[{"internalType":"string","name":"","type":"string"}],"stateMutability":"pure","type":"function"},{"inputs":[],"name":"non_holder","outputs":[{"internalType":"uint256","name":"","type":"uint256"}],"stateMutability":"view","type":"function"},{"inputs":[],"name":"owner","outputs":[{"internalType":"address","name":"","type":"address"}],"stateMutability":"view","type":"function"},{"inputs":[{"internalType":"address","name":"","type":"address"}],"name":"preSaleAmount","outputs":[{"internalType":"uint256","name":"","type":"uint256"}],"stateMutability":"view","type":"function"},{"inputs":[],"name":"presaleOpen","outputs":[{"internalType":"bool","name":"","type":"bool"}],"stateMutability":"view","type":"function"},{"inputs":[{"internalType":"bool","name":"_flag","type":"bool"}],"name":"presaleToggle","outputs":[],"stateMutability":"nonpayable","type":"function"},{"inputs":[{"internalType":"address","name":"_address","type":"address"}],"name":"removeCustomFee","outputs":[],"stateMutability":"nonpayable","type":"function"},{"inputs":[],"name":"renounceOwnership","outputs":[],"stateMutability":"nonpayable","type":"function"},{"inputs":[],"name":"saltVaultBulls","outputs":[{"internalType":"address","name":"","type":"address"}],"stateMutability":"view","type":"function"},{"inputs":[{"internalType":"uint256","name":"tokenAmount","type":"uint256"}],"name":"sell","outputs":[{"internalType":"uint256","name":"","type":"uint256"}],"stateMutability":"nonpayable","type":"function"},{"inputs":[{"internalType":"address","name":"account","type":"address"}],"name":"sellDownExternalAccount","outputs":[],"stateMutability":"nonpayable","type":"function"},{"inputs":[],"name":"sellFee","outputs":[{"internalType":"uint256","name":"","type":"uint256"}],"stateMutability":"view","type":"function"},{"inputs":[{"internalType":"uint256","name":"tokenAmount","type":"uint256"},{"internalType":"address","name":"recipient","type":"address"}],"name":"sellTo","outputs":[{"internalType":"uint256","name":"","type":"uint256"}],"stateMutability":"nonpayable","type":"function"},{"inputs":[{"internalType":"address","name":"_address","type":"address"},{"internalType":"bool","name":"value","type":"bool"}],"name":"setApprovedCallerRole","outputs":[],"stateMutability":"nonpayable","type":"function"},{"inputs":[{"internalType":"address","name":"_add","type":"address"},{"internalType":"bool","name":"_value","type":"bool"}],"name":"setContract","outputs":[],"stateMutability":"nonpayable","type":"function"},{"inputs":[{"internalType":"address[]","name":"_address","type":"address[]"},{"internalType":"uint256[]","name":"_fee","type":"uint256[]"}],"name":"setCustomFee","outputs":[],"stateMutability":"nonpayable","type":"function"},{"inputs":[{"internalType":"address","name":"newReceiver","type":"address"}],"name":"setFeeReceiver","outputs":[],"stateMutability":"nonpayable","type":"function"},{"inputs":[{"internalType":"uint256","name":"newPercentage","type":"uint256"}],"name":"setFeeReceiverPercentage","outputs":[],"stateMutability":"nonpayable","type":"function"},{"inputs":[{"internalType":"uint256","name":"_mintFee","type":"uint256"},{"internalType":"uint256","name":"_transferFee","type":"uint256"},{"internalType":"uint256","name":"_sellFee","type":"uint256"},{"internalType":"uint256","name":"_contractFee","type":"uint256"}],"name":"setFees","outputs":[],"stateMutability":"nonpayable","type":"function"},{"inputs":[{"internalType":"address[]","name":"_addresses","type":"address[]"},{"internalType":"uint256","name":"_allocation","type":"uint256"}],"name":"setPresaleAmountBulk","outputs":[],"stateMutability":"nonpayable","type":"function"},{"inputs":[{"internalType":"address","name":"_address","type":"address"},{"internalType":"uint256","name":"_allocation","type":"uint256"}],"name":"setPresaleAmountFromApprovedCaller","outputs":[],"stateMutability":"nonpayable","type":"function"},{"inputs":[{"internalType":"address","name":"_saltVaultBulls","type":"address"}],"name":"setSaltVaultBullsAddress","outputs":[],"stateMutability":"nonpayable","type":"function"},{"inputs":[{"internalType":"address","name":"Contract","type":"address"},{"internalType":"bool","name":"transferFeeExempt","type":"bool"}],"name":"setTransferFeeExempt","outputs":[],"stateMutability":"nonpayable","type":"function"},{"inputs":[{"internalType":"address","name":"_underlyingToken","type":"address"}],"name":"setUnderlyingToken","outputs":[],"stateMutability":"nonpayable","type":"function"},{"inputs":[],"name":"symbol","outputs":[{"internalType":"string","name":"","type":"string"}],"stateMutability":"pure","type":"function"},{"inputs":[],"name":"tokenActivated","outputs":[{"internalType":"bool","name":"","type":"bool"}],"stateMutability":"view","type":"function"},{"inputs":[],"name":"totalSupply","outputs":[{"internalType":"uint256","name":"","type":"uint256"}],"stateMutability":"view","type":"function"},{"inputs":[{"internalType":"address","name":"recipient","type":"address"},{"internalType":"uint256","name":"amount","type":"uint256"}],"name":"transfer","outputs":[{"internalType":"bool","name":"","type":"bool"}],"stateMutability":"nonpayable","type":"function"},{"inputs":[],"name":"transferFee","outputs":[{"internalType":"uint256","name":"","type":"uint256"}],"stateMutability":"view","type":"function"},{"inputs":[{"internalType":"address","name":"sender","type":"address"},{"internalType":"address","name":"recipient","type":"address"},{"internalType":"uint256","name":"amount","type":"uint256"}],"name":"transferFrom","outputs":[{"internalType":"bool","name":"","type":"bool"}],"stateMutability":"nonpayable","type":"function"},{"inputs":[{"internalType":"address","name":"newOwner","type":"address"}],"name":"transferOwnership","outputs":[],"stateMutability":"nonpayable","type":"function"},{"inputs":[],"name":"underlying","outputs":[{"internalType":"contract IERC20","name":"","type":"address"}],"stateMutability":"view","type":"function"},{"inputs":[],"name":"underlyingBalance","outputs":[{"internalType":"uint256","name":"","type":"uint256"}],"stateMutability":"view","type":"function"},{"inputs":[{"internalType":"contract IERC20","name":"token","type":"address"}],"name":"withdrawNonStableToken","outputs":[],"stateMutability":"nonpayable","type":"function"},{"stateMutability":"payable","type":"receive"}],"evm":{"bytecode":{"linkReferences":{},"object":"608060405262017318600d5562017318600e5562017318600f556201731860105562015f9060115534801561003357600080fd5b5061003d3361004c565b6001805561ea6060135561009c565b600080546001600160a01b038381166001600160a01b0319831681178455604051919092169283917f8be0079c531659141344cd1fd0a4f28419497f9722a3daafe3b4186f6b6457e09190a35050565b612d4d80620000ac6000396000f3fe6080604052600436106103545760003560e01c80637dfcabd9116101c6578063cea9e192116100f7578063e8cacd7211610095578063efdcd9741161006f578063efdcd97414610a92578063f1e4bb6c14610ab2578063f2fde38b14610ad2578063f542c86714610af257600080fd5b8063e8cacd7214610a32578063ea991ce214610a52578063eaeaddee14610a7257600080fd5b8063d41977cd116100d1578063d41977cd14610996578063d90b03b7146109ac578063dd62ed3e146109cc578063e4849b3214610a1257600080fd5b8063cea9e19214610941578063cf8f0d0614610961578063d348b4091461098157600080fd5b8063aaffb0a511610164578063bee6348a1161013e578063bee6348a146108a7578063c2b1d734146108c8578063c4b5b06a146108e8578063ccc8d8771461090857600080fd5b8063aaffb0a514610851578063acb2ad6f14610871578063b3f006741461088757600080fd5b806391309118116101a057806391309118146107bf57806395d89b41146107ef578063a56c4ced1461081b578063a9059cbb1461083157600080fd5b80637dfcabd9146107615780638da5cb5b146107815780638fe672561461079f57600080fd5b806342966c68116102a057806369dc9ff31161023e5780636fcba377116102185780636fcba377146106c657806370a08231146106e6578063715018a61461071c578063721eaecd1461073157600080fd5b806369dc9ff31461063e5780636e7cf03f1461066e5780636f307dc3146106a657600080fd5b8063549b47291161027a578063549b47291461059f57806355445017146105cf57806359356c5c146105f057806367392e481461060557600080fd5b806342966c68146105325780634b719b47146105525780634d419abc1461057257600080fd5b80631aa5a82d1161030d5780632b14ca56116102e75780632b14ca56146104c05780632b4a6c51146104d6578063313ce567146104f65780633f5f18251461051257600080fd5b80631aa5a82d146104605780631f02a29c1461048057806323b872dd146104a057600080fd5b806306fdde0314610369578063095ea7b3146103b4578063113c2ba3146103e4578063132620fe1461041f57806313966db51461043557806318160ddd1461044b57600080fd5b366103645761036230610b12565b005b600080fd5b34801561037557600080fd5b5060408051808201909152601081526f29b0b63a102b30bab63a102a37b5b2b760811b60208201525b6040516103ab91906127a2565b60405180910390f35b3480156103c057600080fd5b506103d46103cf366004612805565b610bd8565b60405190151581526020016103ab565b3480156103f057600080fd5b506104116103ff366004612831565b60096020526000908152604090205481565b6040519081526020016103ab565b34801561042b57600080fd5b5061041160115481565b34801561044157600080fd5b50610411600d5481565b34801561045757600080fd5b50600354610411565b34801561046c57600080fd5b5061036261047b366004612831565b610c45565b34801561048c57600080fd5b5061041161049b366004612831565b610db7565b3480156104ac57600080fd5b506103d46104bb36600461284e565b610dd9565b3480156104cc57600080fd5b50610411600e5481565b3480156104e257600080fd5b506103626104f1366004612831565b610e80565b34801561050257600080fd5b50604051600681526020016103ab565b34801561051e57600080fd5b5061041161052d36600461288f565b610f03565b34801561053e57600080fd5b5061036261054d36600461288f565b610f30565b34801561055e57600080fd5b5061036261056d366004612987565b611003565b34801561057e57600080fd5b5061041161058d366004612831565b60076020526000908152604090205481565b3480156105ab57600080fd5b506103d46105ba366004612831565b60066020526000908152604090205460ff1681565b3480156105db57600080fd5b50600c546103d490600160a01b900460ff1681565b3480156105fc57600080fd5b50610411611156565b34801561061157600080fd5b506103d4610620366004612831565b6001600160a01b03166000908152600b602052604090205460ff1690565b34801561064a57600080fd5b506103d4610659366004612831565b600a6020526000908152604090205460ff1681565b34801561067a57600080fd5b50600c5461068e906001600160a01b031681565b6040516001600160a01b0390911681526020016103ab565b3480156106b257600080fd5b5060025461068e906001600160a01b031681565b3480156106d257600080fd5b506103626106e1366004612a42565b6111c8565b3480156106f257600080fd5b50610411610701366004612831565b6001600160a01b031660009081526004602052604090205490565b34801561072857600080fd5b50610362611272565b34801561073d57600080fd5b506103d461074c366004612831565b60086020526000908152604090205460ff1681565b34801561076d57600080fd5b5061036261077c366004612a82565b611286565b34801561078d57600080fd5b506000546001600160a01b031661068e565b3480156107ab57600080fd5b506104116107ba366004612831565b611318565b3480156107cb57600080fd5b506103d46107da366004612831565b600b6020526000908152604090205460ff1681565b3480156107fb57600080fd5b5060408051808201909152600381526214d59560ea1b602082015261039e565b34801561082757600080fd5b5061041160135481565b34801561083d57600080fd5b506103d461084c366004612805565b61146e565b34801561085d57600080fd5b5061036261086c366004612805565b61148e565b34801561087d57600080fd5b50610411600f5481565b34801561089357600080fd5b5060125461068e906001600160a01b031681565b3480156108b357600080fd5b50600c546103d490600160a81b900460ff1681565b3480156108d457600080fd5b506103626108e3366004612abb565b611523565b3480156108f457600080fd5b50610362610903366004612a82565b611626565b34801561091457600080fd5b506103d4610923366004612831565b6001600160a01b031660009081526006602052604090205460ff1690565b34801561094d57600080fd5b5061036261095c36600461288f565b611659565b34801561096d57600080fd5b5061036261097c366004612831565b6116f4565b34801561098d57600080fd5b50610411611736565b3480156109a257600080fd5b5061041160105481565b3480156109b857600080fd5b506103626109c7366004612abb565b611740565b3480156109d857600080fd5b506104116109e7366004612ad8565b6001600160a01b03918216600090815260056020908152604080832093909416825291909152205490565b348015610a1e57600080fd5b50610411610a2d36600461288f565b611851565b348015610a3e57600080fd5b50610362610a4d366004612a82565b611866565b348015610a5e57600080fd5b50610362610a6d366004612b06565b61192e565b348015610a7e57600080fd5b50610362610a8d366004612831565b6119a8565b348015610a9e57600080fd5b50610362610aad366004612831565b6119d1565b348015610abe57600080fd5b50610362610acd366004612831565b611a4d565b348015610ade57600080fd5b50610362610aed366004612831565b611b6e565b348015610afe57600080fd5b50610411610b0d366004612b4b565b611be4565b6001600160a01b0381166000908152600460205260409020546103e8811115610bd4576000610b3f611bf9565b9050610b4a82611c2e565b610b548383611c83565b6040518281527f8a1c945864c85a9dee42b8734075761f7a16095a8384ab751f2417c5767e227e9060200160405180910390a17f046aa811b2923fd55b4ca06375b4045117d4584c66fc40880a8ab8ee32d88ed181610bb1611bf9565b6003546040805193845260208401929092529082015260600160405180910390a1505b5050565b3360008181526005602090815260408083206001600160a01b038716808552925280832085905551919290917f8c5be1e5ebec7d5bd14f71427d1e84f3dd0314c0f7b2291e5b200ac8c7c3b92590610c339086815260200190565b60405180910390a35060015b92915050565b610c4d611d60565b6002546001600160a01b0390811690821603610cb05760405162461bcd60e51b815260206004820181905260248201527f43616e6e6f7420576974686472617720556e6465726c79696e6720417373657460448201526064015b60405180910390fd5b6001600160a01b038116610cd65760405162461bcd60e51b8152600401610ca790612b70565b6040516370a0823160e01b81523060048201526001600160a01b0382169063a9059cbb90339083906370a0823190602401602060405180830381865afa158015610d24573d6000803e3d6000fd5b505050506040513d601f19601f82011682018060405250810190610d489190612b96565b6040516001600160e01b031960e085901b1681526001600160a01b03909216600483015260248201526044016020604051808303816000875af1158015610d93573d6000803e3d6000fd5b505050506040513d601f19601f82011682018060405250810190610bd49190612baf565b6001600160a01b038116600090815260046020526040812054610c3f90611dba565b6000610de3611dcf565b6040805180820182526016815275496e73756666696369656e7420416c6c6f77616e636560501b6020808301919091526001600160a01b0387166000908152600582528381203382529091529190912054610e3f918490611e28565b6001600160a01b0385166000908152600560209081526040808320338452909152902055610e6e848484611e54565b9050610e7960018055565b9392505050565b610e88611d60565b6001600160a01b038116610eae5760405162461bcd60e51b8152600401610ca790612b70565b600280546001600160a01b0319166001600160a01b0383169081179091556040519081527f9280fa092f9e80f9befbee5157d2c0b8ea9876a99c0a5207433a5e4efe813b15906020015b60405180910390a150565b6000610f0d611dcf565b610f1630610b12565b610f208233612084565b9050610f2b60018055565b919050565b610f38611dcf565b33600090815260046020526040902054818110801590610f585750600081115b610f945760405162461bcd60e51b815260206004820152600d60248201526c5a65726f20486f6c64696e677360981b6044820152606401610ca7565b6000610f9e611bf9565b9050610fa983611c2e565b610fb33384611c83565b610fbc816121d6565b60408051338152602081018590527fcc16f5dbb4873280815c1ee09dbd06736cffcc184412cf7a71a0fdb75d397ca5910160405180910390a1505061100060018055565b50565b61100b611d60565b60005b82518110156111515762015f9082828151811061102d5761102d612bcc565b60200260200101511015801561105f5750620186a082828151811061105457611054612bcc565b602002602001015111155b6110995760405162461bcd60e51b815260206004820152600b60248201526a496e76616c69642066656560a81b6044820152606401610ca7565b8181815181106110ab576110ab612bcc565b6020026020010151600760008584815181106110c9576110c9612bcc565b60200260200101516001600160a01b03166001600160a01b031681526020019081526020016000208190555060016008600085848151811061110d5761110d612bcc565b6020908102919091018101516001600160a01b03168252810191909152604001600020805460ff19169115159190911790558061114981612bf8565b91505061100e565b505050565b6002546040516370a0823160e01b81523060048201526000916001600160a01b0316906370a0823190602401602060405180830381865afa15801561119f573d6000803e3d6000fd5b505050506040513d601f19601f820116820180604052508101906111c39190612b96565b905090565b6111d0611d60565b620173188410156111e057600080fd5b620173188310156111f057600080fd5b6201731882101561120057600080fd5b6201731881101561121057600080fd5b600d849055600f839055600e82905560108190556040805185815260208101859052908101839052606081018290527f747eaccb30a9769474f1620ae0dd833b1ffb89520dcac6833b33df942b7c0c499060800160405180910390a150505050565b61127a611d60565b6112846000612268565b565b61128e611d60565b6001600160a01b0382166112b45760405162461bcd60e51b8152600401610ca790612b70565b6001600160a01b038216600081815260066020908152604091829020805460ff19168515159081179091558251938452908301527fd0444b45a0ac5fd0ea9b910a05d75621679a6fa7c73922fe24c17c5824cd3ff391015b60405180910390a15050565b6001600160a01b03811660009081526008602052604081205460ff161561135557506001600160a01b031660009081526007602052604090205490565b600c5460405163246b9cf360e01b81526001600160a01b03848116600483015290911690600090829063246b9cf390602401602060405180830381865afa1580156113a4573d6000803e3d6000fd5b505050506040513d601f19601f820116820180604052508101906113c89190612b96565b9050806000036113de575062015f909392505050565b6101f48110156113f45750620173189392505050565b6103e881101561140a5750620174129392505050565b6109c481101561142057506201750c9392505050565b6113888110156114365750620176069392505050565b611d4c81101561144c5750620177009392505050565b6127108110156114625750620177fa9392505050565b50620178f49392505050565b6000611478611dcf565b611483338484611e54565b9050610c3f60018055565b336000908152600b602052604090205460ff1615156001146114f25760405162461bcd60e51b815260206004820152601860248201527f4e6f7420416e20417574686f72697a65642043616c6c657200000000000000006044820152606401610ca7565b6001600160a01b0382166000908152600960205260408120805483929061151a908490612c11565b90915550505050565b61152b611d60565b600c546001600160a01b03166000908152600b602052604090205460ff1661158f5760405162461bcd60e51b81526020600482015260176024820152766d757374207365742073616c745661756c7442756c6c7360481b6044820152606401610ca7565b6002546001600160a01b03166115b75760405162461bcd60e51b8152600401610ca790612c24565b6012546001600160a01b03166115df5760405162461bcd60e51b8152600401610ca790612c67565b600c805460ff60a01b1916600160a01b831515021790556040514381527f43f7deefc1f4e825772604a0bc01b8362eb1eef895e6bd4db39bfab68c1e94c890602001610ef8565b61162e611d60565b6001600160a01b03919091166000908152600b60205260409020805460ff1916911515919091179055565b611661611d60565b600a611671620186a06009612cab565b61167b9190612cc2565b8111156116bf5760405162461bcd60e51b8152602060048201526012602482015271496e76616c69642050657263656e7461676560701b6044820152606401610ca7565b60138190556040518181527fe91c6023755286bf3e349700ba6c7ec17636b08b007390b26d2e0e149b66c85d90602001610ef8565b6116fc611d60565b600c80546001600160a01b039092166001600160a01b0319909216821790556000908152600b60205260409020805460ff19166001179055565b60006111c3611bf9565b611748611d60565b600c546001600160a01b03166000908152600b602052604090205460ff166117ac5760405162461bcd60e51b81526020600482015260176024820152766d757374207365742073616c745661756c7442756c6c7360481b6044820152606401610ca7565b6002546001600160a01b03166117d45760405162461bcd60e51b8152600401610ca790612c24565b6012546001600160a01b03166117fc5760405162461bcd60e51b8152600401610ca790612c67565b600c805460ff60a81b1916600160a81b8315158102919091179182905560405160ff9190920416151581527f64f8c3a5b7a33da2ab28de4e739fc25fecb37dadaac9df12049ec3bbc8fd20ed90602001610ef8565b600061185b611dcf565b610f203383336122b8565b61186e611d60565b6001600160a01b0382166000908152600a602052604090205481151560ff9091161515036118d25760405162461bcd60e51b815260206004820152601160248201527015985b1d5948185b1c9958591e481cd95d607a1b6044820152606401610ca7565b6001600160a01b0382166000818152600a6020908152604091829020805460ff19168515159081179091558251938452908301527f48ecc5804384517c5752d692233964a86b36b97b08d38098b5d7f192023f9535910161130c565b611936611d60565b60005b825181101561115157816009600085848151811061195957611959612bcc565b60200260200101516001600160a01b03166001600160a01b0316815260200190815260200160002060008282546119909190612c11565b909155508190506119a081612bf8565b915050611939565b6119b0611d60565b6001600160a01b03166000908152600860205260409020805460ff19169055565b6119d9611d60565b6001600160a01b0381166119ff5760405162461bcd60e51b8152600401610ca790612b70565b601280546001600160a01b0319166001600160a01b0383169081179091556040519081527fffb40bfdfd246e95f543d08d9713c339f1d90fa9265e39b4f562f9011d7c919f90602001610ef8565b611a55611dcf565b611a5d611d60565b6001600160a01b038116611a835760405162461bcd60e51b8152600401610ca790612b70565b6001600160a01b038116600090815260046020526040902054611ad65760405162461bcd60e51b815260206004820152600b60248201526a16995c9bc8105b5bdd5b9d60aa1b6044820152606401610ca7565b6001600160a01b0381166000908152600660209081526040808320805460ff191660011790556004909152902054611b10908290816122b8565b506001600160a01b038116600081815260066020908152604091829020805460ff1916905590519182527f454fcc66032b4de006483c9f681cd97d7c4cc4c285b201a55fddc6faa2303e5e910160405180910390a161100060018055565b611b76611d60565b6001600160a01b038116611bdb5760405162461bcd60e51b815260206004820152602660248201527f4f776e61626c653a206e6577206f776e657220697320746865207a65726f206160448201526564647265737360d01b6064820152608401610ca7565b61100081612268565b6000611bee611dcf565b6114833384846122b8565b6000600354600014611c26576111c3600354611c20620f4240611c1a611156565b906124aa565b906124b6565b50620f424090565b6000620186a060135483611c429190612cab565b611c4c9190612cc2565b9050600081118015611c6857506012546001600160a01b031615155b15610bd457601254610bd4906001600160a01b0316826124c2565b6040805180820182526014815273496e73756666696369656e742042616c616e636560601b6020808301919091526001600160a01b038516600090815260049091529190912054611cd5918390611e28565b6001600160a01b038316600090815260046020908152604091829020929092558051808201909152600f81526e4e6567617469766520537570706c7960881b91810191909152600354611d29918390611e28565b6003556040518181526000906001600160a01b03841690600080516020612cf8833981519152906020015b60405180910390a35050565b6000546001600160a01b031633146112845760405162461bcd60e51b815260206004820181905260248201527f4f776e61626c653a2063616c6c6572206973206e6f7420746865206f776e65726044820152606401610ca7565b6000610c3f620f4240611c2084611c1a611bf9565b600260015403611e215760405162461bcd60e51b815260206004820152601f60248201527f5265656e7472616e637947756172643a207265656e7472616e742063616c6c006044820152606401610ca7565b6002600155565b60008184841115611e4c5760405162461bcd60e51b8152600401610ca791906127a2565b505050900390565b60006001600160a01b03831615801590611e7657506001600160a01b03841615155b611eb55760405162461bcd60e51b815260206004820152601060248201526f5472616e7366657220546f205a65726f60801b6044820152606401610ca7565b60008211611ef95760405162461bcd60e51b81526020600482015260116024820152705472616e7366657220416d74205a65726f60781b6044820152606401610ca7565b6000611f03611bf9565b90506000611f1086611318565b90506000611f25620186a0611c2087856124aa565b90506000611f33868361253a565b9050611f9b8660405180604001604052806014815260200173496e73756666696369656e742042616c616e636560601b815250600460008c6001600160a01b03166001600160a01b0316815260200190815260200160002054611e289092919063ffffffff16565b6001600160a01b03808a166000908152600460205260408082209390935590891681522054611fca9083612546565b6001600160a01b038816600090815260046020526040902055801561203257611ff281611c2e565b600354611fff908261253a565b6003556040518181526000906001600160a01b038a1690600080516020612cf88339815191529060200160405180910390a35b61203b846121d6565b866001600160a01b0316886001600160a01b0316600080516020612cf88339815191528460405161206e91815260200190565b60405180910390a3506001979650505050505050565b600c54600090600160a01b900460ff166120d65760405162461bcd60e51b8152602060048201526013602482015272151bdad95b88139bdd081058dd1a5d985d1959606a1b6044820152606401610ca7565b6002546040516370a0823160e01b81526001600160a01b03848116600483015260009216906370a0823190602401602060405180830381865afa158015612121573d6000803e3d6000fd5b505050506040513d601f19601f820116820180604052508101906121459190612b96565b90506000811180156121575750808411155b61219a5760405162461bcd60e51b8152602060048201526014602482015273496e73756666696369656e742042616c616e636560601b6044820152606401610ca7565b60006121a4611bf9565b905060006121b0611156565b905060006121bd87612552565b90506121cb8682848661267a565b979650505050505050565b60006121e0611bf9565b9050818110156122265760405162461bcd60e51b8152602060048201526011602482015270141c9a58d94810d85b9b9bdd0811985b1b607a1b6044820152606401610ca7565b6003546040805184815260208101849052908101919091527f046aa811b2923fd55b4ca06375b4045117d4584c66fc40880a8ab8ee32d88ed19060600161130c565b600080546001600160a01b038381166001600160a01b0319831681178455604051919092169283917f8be0079c531659141344cd1fd0a4f28419497f9722a3daafe3b4186f6b6457e09190a35050565b600080831180156122e157506001600160a01b0384166000908152600460205260409020548311155b6122ea57600080fd5b6001600160a01b0384161580159061230a57506001600160a01b03821615155b61231357600080fd5b600061231d611bf9565b9050600061232a86611318565b9050600061233f620186a0611c2088856124aa565b9050600061234c82611dba565b3360009081526006602052604090205490915060ff1661237f576000612372888461253a565b905061237d81611c2e565b505b6123898888611c83565b60025460405163a9059cbb60e01b81526001600160a01b038881166004830152602482018490529091169063a9059cbb906044016020604051808303816000875af11580156123dc573d6000803e3d6000fd5b505050506040513d601f19601f820116820180604052508101906124009190612baf565b61244c5760405162461bcd60e51b815260206004820152601b60248201527f556e6465726c79696e67205472616e73666572204661696c75726500000000006044820152606401610ca7565b612455846121d6565b604080516001600160a01b038a168152602081018990529081018290527ff3a670cd3af7d64b488926880889d08a8585a138ff455227af6737339a1ec2629060600160405180910390a1979650505050505050565b6000610e798284612cab565b6000610e798284612cc2565b6001600160a01b0382166000908152600460205260409020546124e59082612546565b6001600160a01b03831660009081526004602052604090205560035461250b9082612546565b6003556040518181526001600160a01b03831690600090600080516020612cf883398151915290602001611d54565b6000610e798284612ce4565b6000610e798284612c11565b60008061255d611156565b6002546040516323b872dd60e01b8152336004820152306024820152604481018690529192506001600160a01b0316906323b872dd906064016020604051808303816000875af11580156125b5573d6000803e3d6000fd5b505050506040513d601f19601f820116820180604052508101906125d99190612baf565b61261d5760405162461bcd60e51b81526020600482015260156024820152744661696c757265205472616e736665722046726f6d60581b6044820152606401610ca7565b6000612627611156565b90508181116126685760405162461bcd60e51b815260206004820152600d60248201526c16995c9bc8149958d95a5d9959609a1b6044820152606401610ca7565b6126728282612ce4565b949350505050565b6000806003546000146126a5576126a084611c20876003546124aa90919063ffffffff16565b6126a7565b845b905060006126b487611318565b905060006126c9620186a0611c2085856124aa565b9050600081116127095760405162461bcd60e51b815260206004820152600b60248201526a16995c9bc8105b5bdd5b9d60aa1b6044820152606401610ca7565b61271388826124c2565b6001600160a01b03881660009081526006602052604090205460ff1661274c57600061273f848361253a565b905061274a81611c2e565b505b612755856121d6565b604080516001600160a01b038a168152602081018390527f30385c845b448a36257a6a1716e6ad2e1bc2cbe333cde1e69fe849ad6511adfe910160405180910390a1979650505050505050565b600060208083528351808285015260005b818110156127cf578581018301518582016040015282016127b3565b506000604082860101526040601f19601f8301168501019250505092915050565b6001600160a01b038116811461100057600080fd5b6000806040838503121561281857600080fd5b8235612823816127f0565b946020939093013593505050565b60006020828403121561284357600080fd5b8135610e79816127f0565b60008060006060848603121561286357600080fd5b833561286e816127f0565b9250602084013561287e816127f0565b929592945050506040919091013590565b6000602082840312156128a157600080fd5b5035919050565b634e487b7160e01b600052604160045260246000fd5b604051601f8201601f1916810167ffffffffffffffff811182821017156128e7576128e76128a8565b604052919050565b600067ffffffffffffffff821115612909576129096128a8565b5060051b60200190565b600082601f83011261292457600080fd5b81356020612939612934836128ef565b6128be565b82815260059290921b8401810191818101908684111561295857600080fd5b8286015b8481101561297c57803561296f816127f0565b835291830191830161295c565b509695505050505050565b6000806040838503121561299a57600080fd5b823567ffffffffffffffff808211156129b257600080fd5b6129be86838701612913565b93506020915081850135818111156129d557600080fd5b85019050601f810186136129e857600080fd5b80356129f6612934826128ef565b81815260059190911b82018301908381019088831115612a1557600080fd5b928401925b82841015612a3357833582529284019290840190612a1a565b80955050505050509250929050565b60008060008060808587031215612a5857600080fd5b5050823594602084013594506040840135936060013592509050565b801515811461100057600080fd5b60008060408385031215612a9557600080fd5b8235612aa0816127f0565b91506020830135612ab081612a74565b809150509250929050565b600060208284031215612acd57600080fd5b8135610e7981612a74565b60008060408385031215612aeb57600080fd5b8235612af6816127f0565b91506020830135612ab0816127f0565b60008060408385031215612b1957600080fd5b823567ffffffffffffffff811115612b3057600080fd5b612b3c85828601612913565b95602094909401359450505050565b60008060408385031215612b5e57600080fd5b823591506020830135612ab0816127f0565b6020808252600c908201526b5a65726f204164647265737360a01b604082015260600190565b600060208284031215612ba857600080fd5b5051919050565b600060208284031215612bc157600080fd5b8151610e7981612a74565b634e487b7160e01b600052603260045260246000fd5b634e487b7160e01b600052601160045260246000fd5b600060018201612c0a57612c0a612be2565b5060010190565b80820180821115610c3f57610c3f612be2565b60208082526023908201527f4d757374207365742074686520756e6465726c79696e6720746f6b656e2066696040820152621c9cdd60ea1b606082015260800190565b60208082526024908201527f4d757374207365742074686520666565526563656976657220746f6b656e20666040820152631a5c9cdd60e21b606082015260800190565b8082028115828204841417610c3f57610c3f612be2565b600082612cdf57634e487b7160e01b600052601260045260246000fd5b500490565b81810381811115610c3f57610c3f612be256feddf252ad1be2c89b69c2b068fc378daa952ba7f163c4a11628f55a4df523b3efa2646970667358221220499fabd837010018089c6b36d78d18d97d091529ae050348315ed9182ec41aec64736f6c63430008140033","opcodes":"PUSH1 0x80 PUSH1 0x40 MSTORE PUSH3 0x17318 PUSH1 0xD SSTORE PUSH3 0x17318 PUSH1 0xE SSTORE PUSH3 0x17318 PUSH1 0xF SSTORE PUSH3 0x17318 PUSH1 0x10 SSTORE PUSH3 0x15F90 PUSH1 0x11 SSTORE CALLVALUE DUP1 ISZERO PUSH2 0x33 JUMPI PUSH1 0x0 DUP1 REVERT JUMPDEST POP PUSH2 0x3D CALLER PUSH2 0x4C JUMP JUMPDEST PUSH1 0x1 DUP1 SSTORE PUSH2 0xEA60 PUSH1 0x13 SSTORE PUSH2 0x9C JUMP JUMPDEST PUSH1 0x0 DUP1 SLOAD PUSH1 0x1 PUSH1 0x1 PUSH1 0xA0 SHL SUB DUP4 DUP2 AND PUSH1 0x1 PUSH1 0x1 PUSH1 0xA0 SHL SUB NOT DUP4 AND DUP2 OR DUP5 SSTORE PUSH1 0x40 MLOAD SWAP2 SWAP1 SWAP3 AND SWAP3 DUP4 SWAP2 PUSH32 0x8BE0079C531659141344CD1FD0A4F28419497F9722A3DAAFE3B4186F6B6457E0 SWAP2 SWAP1 LOG3 POP POP JUMP JUMPDEST PUSH2 0x2D4D DUP1 PUSH3 0xAC PUSH1 0x0 CODECOPY PUSH1 0x0 RETURN INVALID PUSH1 0x80 PUSH1 0x40 MSTORE PUSH1 0x4 CALLDATASIZE LT PUSH2 0x354 JUMPI PUSH1 0x0 CALLDATALOAD PUSH1 0xE0 SHR DUP1 PUSH4 0x7DFCABD9 GT PUSH2 0x1C6 JUMPI DUP1 PUSH4 0xCEA9E192 GT PUSH2 0xF7 JUMPI DUP1 PUSH4 0xE8CACD72 GT PUSH2 0x95 JUMPI DUP1 PUSH4 0xEFDCD974 GT PUSH2 0x6F JUMPI DUP1 PUSH4 0xEFDCD974 EQ PUSH2 0xA92 JUMPI DUP1 PUSH4 0xF1E4BB6C EQ PUSH2 0xAB2 JUMPI DUP1 PUSH4 0xF2FDE38B EQ PUSH2 0xAD2 JUMPI DUP1 PUSH4 0xF542C867 EQ PUSH2 0xAF2 JUMPI PUSH1 0x0 DUP1 REVERT JUMPDEST DUP1 PUSH4 0xE8CACD72 EQ PUSH2 0xA32 JUMPI DUP1 PUSH4 0xEA991CE2 EQ PUSH2 0xA52 JUMPI DUP1 PUSH4 0xEAEADDEE EQ PUSH2 0xA72 JUMPI PUSH1 0x0 DUP1 REVERT JUMPDEST DUP1 PUSH4 0xD41977CD GT PUSH2 0xD1 JUMPI DUP1 PUSH4 0xD41977CD EQ PUSH2 0x996 JUMPI DUP1 PUSH4 0xD90B03B7 EQ PUSH2 0x9AC JUMPI DUP1 PUSH4 0xDD62ED3E EQ PUSH2 0x9CC JUMPI DUP1 PUSH4 0xE4849B32 EQ PUSH2 0xA12 JUMPI PUSH1 0x0 DUP1 REVERT JUMPDEST DUP1 PUSH4 0xCEA9E192 EQ PUSH2 0x941 JUMPI DUP1 PUSH4 0xCF8F0D06 EQ PUSH2 0x961 JUMPI DUP1 PUSH4 0xD348B409 EQ PUSH2 0x981 JUMPI PUSH1 0x0 DUP1 REVERT JUMPDEST DUP1 PUSH4 0xAAFFB0A5 GT PUSH2 0x164 JUMPI DUP1 PUSH4 0xBEE6348A GT PUSH2 0x13E JUMPI DUP1 PUSH4 0xBEE6348A EQ PUSH2 0x8A7 JUMPI DUP1 PUSH4 0xC2B1D734 EQ PUSH2 0x8C8 JUMPI DUP1 PUSH4 0xC4B5B06A EQ PUSH2 0x8E8 JUMPI DUP1 PUSH4 0xCCC8D877 EQ PUSH2 0x908 JUMPI PUSH1 0x0 DUP1 REVERT JUMPDEST DUP1 PUSH4 0xAAFFB0A5 EQ PUSH2 0x851 JUMPI DUP1 PUSH4 0xACB2AD6F EQ PUSH2 0x871 JUMPI DUP1 PUSH4 0xB3F00674 EQ PUSH2 0x887 JUMPI PUSH1 0x0 DUP1 REVERT JUMPDEST DUP1 PUSH4 0x91309118 GT PUSH2 0x1A0 JUMPI DUP1 PUSH4 0x91309118 EQ PUSH2 0x7BF JUMPI DUP1 PUSH4 0x95D89B41 EQ PUSH2 0x7EF JUMPI DUP1 PUSH4 0xA56C4CED EQ PUSH2 0x81B JUMPI DUP1 PUSH4 0xA9059CBB EQ PUSH2 0x831 JUMPI PUSH1 0x0 DUP1 REVERT JUMPDEST DUP1 PUSH4 0x7DFCABD9 EQ PUSH2 0x761 JUMPI DUP1 PUSH4 0x8DA5CB5B EQ PUSH2 0x781 JUMPI DUP1 PUSH4 0x8FE67256 EQ PUSH2 0x79F JUMPI PUSH1 0x0 DUP1 REVERT JUMPDEST DUP1 PUSH4 0x42966C68 GT PUSH2 0x2A0 JUMPI DUP1 PUSH4 0x69DC9FF3 GT PUSH2 0x23E JUMPI DUP1 PUSH4 0x6FCBA377 GT PUSH2 0x218 JUMPI DUP1 PUSH4 0x6FCBA377 EQ PUSH2 0x6C6 JUMPI DUP1 PUSH4 0x70A08231 EQ PUSH2 0x6E6 JUMPI DUP1 PUSH4 0x715018A6 EQ PUSH2 0x71C JUMPI DUP1 PUSH4 0x721EAECD EQ PUSH2 0x731 JUMPI PUSH1 0x0 DUP1 REVERT JUMPDEST DUP1 PUSH4 0x69DC9FF3 EQ PUSH2 0x63E JUMPI DUP1 PUSH4 0x6E7CF03F EQ PUSH2 0x66E JUMPI DUP1 PUSH4 0x6F307DC3 EQ PUSH2 0x6A6 JUMPI PUSH1 0x0 DUP1 REVERT JUMPDEST DUP1 PUSH4 0x549B4729 GT PUSH2 0x27A JUMPI DUP1 PUSH4 0x549B4729 EQ PUSH2 0x59F JUMPI DUP1 PUSH4 0x55445017 EQ PUSH2 0x5CF JUMPI DUP1 PUSH4 0x59356C5C EQ PUSH2 0x5F0 JUMPI DUP1 PUSH4 0x67392E48 EQ PUSH2 0x605 JUMPI PUSH1 0x0 DUP1 REVERT JUMPDEST DUP1 PUSH4 0x42966C68 EQ PUSH2 0x532 JUMPI DUP1 PUSH4 0x4B719B47 EQ PUSH2 0x552 JUMPI DUP1 PUSH4 0x4D419ABC EQ PUSH2 0x572 JUMPI PUSH1 0x0 DUP1 REVERT JUMPDEST DUP1 PUSH4 0x1AA5A82D GT PUSH2 0x30D JUMPI DUP1 PUSH4 0x2B14CA56 GT PUSH2 0x2E7 JUMPI DUP1 PUSH4 0x2B14CA56 EQ PUSH2 0x4C0 JUMPI DUP1 PUSH4 0x2B4A6C51 EQ PUSH2 0x4D6 JUMPI DUP1 PUSH4 0x313CE567 EQ PUSH2 0x4F6 JUMPI DUP1 PUSH4 0x3F5F1825 EQ PUSH2 0x512 JUMPI PUSH1 0x0 DUP1 REVERT JUMPDEST DUP1 PUSH4 0x1AA5A82D EQ PUSH2 0x460 JUMPI DUP1 PUSH4 0x1F02A29C EQ PUSH2 0x480 JUMPI DUP1 PUSH4 0x23B872DD EQ PUSH2 0x4A0 JUMPI PUSH1 0x0 DUP1 REVERT JUMPDEST DUP1 PUSH4 0x6FDDE03 EQ PUSH2 0x369 JUMPI DUP1 PUSH4 0x95EA7B3 EQ PUSH2 0x3B4 JUMPI DUP1 PUSH4 0x113C2BA3 EQ PUSH2 0x3E4 JUMPI DUP1 PUSH4 0x132620FE EQ PUSH2 0x41F JUMPI DUP1 PUSH4 0x13966DB5 EQ PUSH2 0x435 JUMPI DUP1 PUSH4 0x18160DDD EQ PUSH2 0x44B JUMPI PUSH1 0x0 DUP1 REVERT JUMPDEST CALLDATASIZE PUSH2 0x364 JUMPI PUSH2 0x362 ADDRESS PUSH2 0xB12 JUMP JUMPDEST STOP JUMPDEST PUSH1 0x0 DUP1 REVERT JUMPDEST CALLVALUE DUP1 ISZERO PUSH2 0x375 JUMPI PUSH1 0x0 DUP1 REVERT JUMPDEST POP PUSH1 0x40 DUP1 MLOAD DUP1 DUP3 ADD SWAP1 SWAP2 MSTORE PUSH1 0x10 DUP2 MSTORE PUSH16 0x29B0B63A102B30BAB63A102A37B5B2B7 PUSH1 0x81 SHL PUSH1 0x20 DUP3 ADD MSTORE JUMPDEST PUSH1 0x40 MLOAD PUSH2 0x3AB SWAP2 SWAP1 PUSH2 0x27A2 JUMP JUMPDEST PUSH1 0x40 MLOAD DUP1 SWAP2 SUB SWAP1 RETURN JUMPDEST CALLVALUE DUP1 ISZERO PUSH2 0x3C0 JUMPI PUSH1 0x0 DUP1 REVERT JUMPDEST POP PUSH2 0x3D4 PUSH2 0x3CF CALLDATASIZE PUSH1 0x4 PUSH2 0x2805 JUMP JUMPDEST PUSH2 0xBD8 JUMP JUMPDEST PUSH1 0x40 MLOAD SWAP1 ISZERO ISZERO DUP2 MSTORE PUSH1 0x20 ADD PUSH2 0x3AB JUMP JUMPDEST CALLVALUE DUP1 ISZERO PUSH2 0x3F0 JUMPI PUSH1 0x0 DUP1 REVERT JUMPDEST POP PUSH2 0x411 PUSH2 0x3FF CALLDATASIZE PUSH1 0x4 PUSH2 0x2831 JUMP JUMPDEST PUSH1 0x9 PUSH1 0x20 MSTORE PUSH1 0x0 SWAP1 DUP2 MSTORE PUSH1 0x40 SWAP1 KECCAK256 SLOAD DUP2 JUMP JUMPDEST PUSH1 0x40 MLOAD SWAP1 DUP2 MSTORE PUSH1 0x20 ADD PUSH2 0x3AB JUMP JUMPDEST CALLVALUE DUP1 ISZERO PUSH2 0x42B JUMPI PUSH1 0x0 DUP1 REVERT JUMPDEST POP PUSH2 0x411 PUSH1 0x11 SLOAD DUP2 JUMP JUMPDEST CALLVALUE DUP1 ISZERO PUSH2 0x441 JUMPI PUSH1 0x0 DUP1 REVERT JUMPDEST POP PUSH2 0x411 PUSH1 0xD SLOAD DUP2 JUMP JUMPDEST CALLVALUE DUP1 ISZERO PUSH2 0x457 JUMPI PUSH1 0x0 DUP1 REVERT JUMPDEST POP PUSH1 0x3 SLOAD PUSH2 0x411 JUMP JUMPDEST CALLVALUE DUP1 ISZERO PUSH2 0x46C JUMPI PUSH1 0x0 DUP1 REVERT JUMPDEST POP PUSH2 0x362 PUSH2 0x47B CALLDATASIZE PUSH1 0x4 PUSH2 0x2831 JUMP JUMPDEST PUSH2 0xC45 JUMP JUMPDEST CALLVALUE DUP1 ISZERO PUSH2 0x48C JUMPI PUSH1 0x0 DUP1 REVERT JUMPDEST POP PUSH2 0x411 PUSH2 0x49B CALLDATASIZE PUSH1 0x4 PUSH2 0x2831 JUMP JUMPDEST PUSH2 0xDB7 JUMP JUMPDEST CALLVALUE DUP1 ISZERO PUSH2 0x4AC JUMPI PUSH1 0x0 DUP1 REVERT JUMPDEST POP PUSH2 0x3D4 PUSH2 0x4BB CALLDATASIZE PUSH1 0x4 PUSH2 0x284E JUMP JUMPDEST PUSH2 0xDD9 JUMP JUMPDEST CALLVALUE DUP1 ISZERO PUSH2 0x4CC JUMPI PUSH1 0x0 DUP1 REVERT JUMPDEST POP PUSH2 0x411 PUSH1 0xE SLOAD DUP2 JUMP JUMPDEST CALLVALUE DUP1 ISZERO PUSH2 0x4E2 JUMPI PUSH1 0x0 DUP1 REVERT JUMPDEST POP PUSH2 0x362 PUSH2 0x4F1 CALLDATASIZE PUSH1 0x4 PUSH2 0x2831 JUMP JUMPDEST PUSH2 0xE80 JUMP JUMPDEST CALLVALUE DUP1 ISZERO PUSH2 0x502 JUMPI PUSH1 0x0 DUP1 REVERT JUMPDEST POP PUSH1 0x40 MLOAD PUSH1 0x6 DUP2 MSTORE PUSH1 0x20 ADD PUSH2 0x3AB JUMP JUMPDEST CALLVALUE DUP1 ISZERO PUSH2 0x51E JUMPI PUSH1 0x0 DUP1 REVERT JUMPDEST POP PUSH2 0x411 PUSH2 0x52D CALLDATASIZE PUSH1 0x4 PUSH2 0x288F JUMP JUMPDEST PUSH2 0xF03 JUMP JUMPDEST CALLVALUE DUP1 ISZERO PUSH2 0x53E JUMPI PUSH1 0x0 DUP1 REVERT JUMPDEST POP PUSH2 0x362 PUSH2 0x54D CALLDATASIZE PUSH1 0x4 PUSH2 0x288F JUMP JUMPDEST PUSH2 0xF30 JUMP JUMPDEST CALLVALUE DUP1 ISZERO PUSH2 0x55E JUMPI PUSH1 0x0 DUP1 REVERT JUMPDEST POP PUSH2 0x362 PUSH2 0x56D CALLDATASIZE PUSH1 0x4 PUSH2 0x2987 JUMP JUMPDEST PUSH2 0x1003 JUMP JUMPDEST CALLVALUE DUP1 ISZERO PUSH2 0x57E JUMPI PUSH1 0x0 DUP1 REVERT JUMPDEST POP PUSH2 0x411 PUSH2 0x58D CALLDATASIZE PUSH1 0x4 PUSH2 0x2831 JUMP JUMPDEST PUSH1 0x7 PUSH1 0x20 MSTORE PUSH1 0x0 SWAP1 DUP2 MSTORE PUSH1 0x40 SWAP1 KECCAK256 SLOAD DUP2 JUMP JUMPDEST CALLVALUE DUP1 ISZERO PUSH2 0x5AB JUMPI PUSH1 0x0 DUP1 REVERT JUMPDEST POP PUSH2 0x3D4 PUSH2 0x5BA CALLDATASIZE PUSH1 0x4 PUSH2 0x2831 JUMP JUMPDEST PUSH1 0x6 PUSH1 0x20 MSTORE PUSH1 0x0 SWAP1 DUP2 MSTORE PUSH1 0x40 SWAP1 KECCAK256 SLOAD PUSH1 0xFF AND DUP2 JUMP JUMPDEST CALLVALUE DUP1 ISZERO PUSH2 0x5DB JUMPI PUSH1 0x0 DUP1 REVERT JUMPDEST POP PUSH1 0xC SLOAD PUSH2 0x3D4 SWAP1 PUSH1 0x1 PUSH1 0xA0 SHL SWAP1 DIV PUSH1 0xFF AND DUP2 JUMP JUMPDEST CALLVALUE DUP1 ISZERO PUSH2 0x5FC JUMPI PUSH1 0x0 DUP1 REVERT JUMPDEST POP PUSH2 0x411 PUSH2 0x1156 JUMP JUMPDEST CALLVALUE DUP1 ISZERO PUSH2 0x611 JUMPI PUSH1 0x0 DUP1 REVERT JUMPDEST POP PUSH2 0x3D4 PUSH2 0x620 CALLDATASIZE PUSH1 0x4 PUSH2 0x2831 JUMP JUMPDEST PUSH1 0x1 PUSH1 0x1 PUSH1 0xA0 SHL SUB AND PUSH1 0x0 SWAP1 DUP2 MSTORE PUSH1 0xB PUSH1 0x20 MSTORE PUSH1 0x40 SWAP1 KECCAK256 SLOAD PUSH1 0xFF AND SWAP1 JUMP JUMPDEST CALLVALUE DUP1 ISZERO PUSH2 0x64A JUMPI PUSH1 0x0 DUP1 REVERT JUMPDEST POP PUSH2 0x3D4 PUSH2 0x659 CALLDATASIZE PUSH1 0x4 PUSH2 0x2831 JUMP JUMPDEST PUSH1 0xA PUSH1 0x20 MSTORE PUSH1 0x0 SWAP1 DUP2 MSTORE PUSH1 0x40 SWAP1 KECCAK256 SLOAD PUSH1 0xFF AND DUP2 JUMP JUMPDEST CALLVALUE DUP1 ISZERO PUSH2 0x67A JUMPI PUSH1 0x0 DUP1 REVERT JUMPDEST POP PUSH1 0xC SLOAD PUSH2 0x68E SWAP1 PUSH1 0x1 PUSH1 0x1 PUSH1 0xA0 SHL SUB AND DUP2 JUMP JUMPDEST PUSH1 0x40 MLOAD PUSH1 0x1 PUSH1 0x1 PUSH1 0xA0 SHL SUB SWAP1 SWAP2 AND DUP2 MSTORE PUSH1 0x20 ADD PUSH2 0x3AB JUMP JUMPDEST CALLVALUE DUP1 ISZERO PUSH2 0x6B2 JUMPI PUSH1 0x0 DUP1 REVERT JUMPDEST POP PUSH1 0x2 SLOAD PUSH2 0x68E SWAP1 PUSH1 0x1 PUSH1 0x1 PUSH1 0xA0 SHL SUB AND DUP2 JUMP JUMPDEST CALLVALUE DUP1 ISZERO PUSH2 0x6D2 JUMPI PUSH1 0x0 DUP1 REVERT JUMPDEST POP PUSH2 0x362 PUSH2 0x6E1 CALLDATASIZE PUSH1 0x4 PUSH2 0x2A42 JUMP JUMPDEST PUSH2 0x11C8 JUMP JUMPDEST CALLVALUE DUP1 ISZERO PUSH2 0x6F2 JUMPI PUSH1 0x0 DUP1 REVERT JUMPDEST POP PUSH2 0x411 PUSH2 0x701 CALLDATASIZE PUSH1 0x4 PUSH2 0x2831 JUMP JUMPDEST PUSH1 0x1 PUSH1 0x1 PUSH1 0xA0 SHL SUB AND PUSH1 0x0 SWAP1 DUP2 MSTORE PUSH1 0x4 PUSH1 0x20 MSTORE PUSH1 0x40 SWAP1 KECCAK256 SLOAD SWAP1 JUMP JUMPDEST CALLVALUE DUP1 ISZERO PUSH2 0x728 JUMPI PUSH1 0x0 DUP1 REVERT JUMPDEST POP PUSH2 0x362 PUSH2 0x1272 JUMP JUMPDEST CALLVALUE DUP1 ISZERO PUSH2 0x73D JUMPI PUSH1 0x0 DUP1 REVERT JUMPDEST POP PUSH2 0x3D4 PUSH2 0x74C CALLDATASIZE PUSH1 0x4 PUSH2 0x2831 JUMP JUMPDEST PUSH1 0x8 PUSH1 0x20 MSTORE PUSH1 0x0 SWAP1 DUP2 MSTORE PUSH1 0x40 SWAP1 KECCAK256 SLOAD PUSH1 0xFF AND DUP2 JUMP JUMPDEST CALLVALUE DUP1 ISZERO PUSH2 0x76D JUMPI PUSH1 0x0 DUP1 REVERT JUMPDEST POP PUSH2 0x362 PUSH2 0x77C CALLDATASIZE PUSH1 0x4 PUSH2 0x2A82 JUMP JUMPDEST PUSH2 0x1286 JUMP JUMPDEST CALLVALUE DUP1 ISZERO PUSH2 0x78D JUMPI PUSH1 0x0 DUP1 REVERT JUMPDEST POP PUSH1 0x0 SLOAD PUSH1 0x1 PUSH1 0x1 PUSH1 0xA0 SHL SUB AND PUSH2 0x68E JUMP JUMPDEST CALLVALUE DUP1 ISZERO PUSH2 0x7AB JUMPI PUSH1 0x0 DUP1 REVERT JUMPDEST POP PUSH2 0x411 PUSH2 0x7BA CALLDATASIZE PUSH1 0x4 PUSH2 0x2831 JUMP JUMPDEST PUSH2 0x1318 JUMP JUMPDEST CALLVALUE DUP1 ISZERO PUSH2 0x7CB JUMPI PUSH1 0x0 DUP1 REVERT JUMPDEST POP PUSH2 0x3D4 PUSH2 0x7DA CALLDATASIZE PUSH1 0x4 PUSH2 0x2831 JUMP JUMPDEST PUSH1 0xB PUSH1 0x20 MSTORE PUSH1 0x0 SWAP1 DUP2 MSTORE PUSH1 0x40 SWAP1 KECCAK256 SLOAD PUSH1 0xFF AND DUP2 JUMP JUMPDEST CALLVALUE DUP1 ISZERO PUSH2 0x7FB JUMPI PUSH1 0x0 DUP1 REVERT JUMPDEST POP PUSH1 0x40 DUP1 MLOAD DUP1 DUP3 ADD SWAP1 SWAP2 MSTORE PUSH1 0x3 DUP2 MSTORE PUSH3 0x14D595 PUSH1 0xEA SHL PUSH1 0x20 DUP3 ADD MSTORE PUSH2 0x39E JUMP JUMPDEST CALLVALUE DUP1 ISZERO PUSH2 0x827 JUMPI PUSH1 0x0 DUP1 REVERT JUMPDEST POP PUSH2 0x411 PUSH1 0x13 SLOAD DUP2 JUMP JUMPDEST CALLVALUE DUP1 ISZERO PUSH2 0x83D JUMPI PUSH1 0x0 DUP1 REVERT JUMPDEST POP PUSH2 0x3D4 PUSH2 0x84C CALLDATASIZE PUSH1 0x4 PUSH2 0x2805 JUMP JUMPDEST PUSH2 0x146E JUMP JUMPDEST CALLVALUE DUP1 ISZERO PUSH2 0x85D JUMPI PUSH1 0x0 DUP1 REVERT JUMPDEST POP PUSH2 0x362 PUSH2 0x86C CALLDATASIZE PUSH1 0x4 PUSH2 0x2805 JUMP JUMPDEST PUSH2 0x148E JUMP JUMPDEST CALLVALUE DUP1 ISZERO PUSH2 0x87D JUMPI PUSH1 0x0 DUP1 REVERT JUMPDEST POP PUSH2 0x411 PUSH1 0xF SLOAD DUP2 JUMP JUMPDEST CALLVALUE DUP1 ISZERO PUSH2 0x893 JUMPI PUSH1 0x0 DUP1 REVERT JUMPDEST POP PUSH1 0x12 SLOAD PUSH2 0x68E SWAP1 PUSH1 0x1 PUSH1 0x1 PUSH1 0xA0 SHL SUB AND DUP2 JUMP JUMPDEST CALLVALUE DUP1 ISZERO PUSH2 0x8B3 JUMPI PUSH1 0x0 DUP1 REVERT JUMPDEST POP PUSH1 0xC SLOAD PUSH2 0x3D4 SWAP1 PUSH1 0x1 PUSH1 0xA8 SHL SWAP1 DIV PUSH1 0xFF AND DUP2 JUMP JUMPDEST CALLVALUE DUP1 ISZERO PUSH2 0x8D4 JUMPI PUSH1 0x0 DUP1 REVERT JUMPDEST POP PUSH2 0x362 PUSH2 0x8E3 CALLDATASIZE PUSH1 0x4 PUSH2 0x2ABB JUMP JUMPDEST PUSH2 0x1523 JUMP JUMPDEST CALLVALUE DUP1 ISZERO PUSH2 0x8F4 JUMPI PUSH1 0x0 DUP1 REVERT JUMPDEST POP PUSH2 0x362 PUSH2 0x903 CALLDATASIZE PUSH1 0x4 PUSH2 0x2A82 JUMP JUMPDEST PUSH2 0x1626 JUMP JUMPDEST CALLVALUE DUP1 ISZERO PUSH2 0x914 JUMPI PUSH1 0x0 DUP1 REVERT JUMPDEST POP PUSH2 0x3D4 PUSH2 0x923 CALLDATASIZE PUSH1 0x4 PUSH2 0x2831 JUMP JUMPDEST PUSH1 0x1 PUSH1 0x1 PUSH1 0xA0 SHL SUB AND PUSH1 0x0 SWAP1 DUP2 MSTORE PUSH1 0x6 PUSH1 0x20 MSTORE PUSH1 0x40 SWAP1 KECCAK256 SLOAD PUSH1 0xFF AND SWAP1 JUMP JUMPDEST CALLVALUE DUP1 ISZERO PUSH2 0x94D JUMPI PUSH1 0x0 DUP1 REVERT JUMPDEST POP PUSH2 0x362 PUSH2 0x95C CALLDATASIZE PUSH1 0x4 PUSH2 0x288F JUMP JUMPDEST PUSH2 0x1659 JUMP JUMPDEST CALLVALUE DUP1 ISZERO PUSH2 0x96D JUMPI PUSH1 0x0 DUP1 REVERT JUMPDEST POP PUSH2 0x362 PUSH2 0x97C CALLDATASIZE PUSH1 0x4 PUSH2 0x2831 JUMP JUMPDEST PUSH2 0x16F4 JUMP JUMPDEST CALLVALUE DUP1 ISZERO PUSH2 0x98D JUMPI PUSH1 0x0 DUP1 REVERT JUMPDEST POP PUSH2 0x411 PUSH2 0x1736 JUMP JUMPDEST CALLVALUE DUP1 ISZERO PUSH2 0x9A2 JUMPI PUSH1 0x0 DUP1 REVERT JUMPDEST POP PUSH2 0x411 PUSH1 0x10 SLOAD DUP2 JUMP JUMPDEST CALLVALUE DUP1 ISZERO PUSH2 0x9B8 JUMPI PUSH1 0x0 DUP1 REVERT JUMPDEST POP PUSH2 0x362 PUSH2 0x9C7 CALLDATASIZE PUSH1 0x4 PUSH2 0x2ABB JUMP JUMPDEST PUSH2 0x1740 JUMP JUMPDEST CALLVALUE DUP1 ISZERO PUSH2 0x9D8 JUMPI PUSH1 0x0 DUP1 REVERT JUMPDEST POP PUSH2 0x411 PUSH2 0x9E7 CALLDATASIZE PUSH1 0x4 PUSH2 0x2AD8 JUMP JUMPDEST PUSH1 0x1 PUSH1 0x1 PUSH1 0xA0 SHL SUB SWAP2 DUP3 AND PUSH1 0x0 SWAP1 DUP2 MSTORE PUSH1 0x5 PUSH1 0x20 SWAP1 DUP2 MSTORE PUSH1 0x40 DUP1 DUP4 KECCAK256 SWAP4 SWAP1 SWAP5 AND DUP3 MSTORE SWAP2 SWAP1 SWAP2 MSTORE KECCAK256 SLOAD SWAP1 JUMP JUMPDEST CALLVALUE DUP1 ISZERO PUSH2 0xA1E JUMPI PUSH1 0x0 DUP1 REVERT JUMPDEST POP PUSH2 0x411 PUSH2 0xA2D CALLDATASIZE PUSH1 0x4 PUSH2 0x288F JUMP JUMPDEST PUSH2 0x1851 JUMP JUMPDEST CALLVALUE DUP1 ISZERO PUSH2 0xA3E JUMPI PUSH1 0x0 DUP1 REVERT JUMPDEST POP PUSH2 0x362 PUSH2 0xA4D CALLDATASIZE PUSH1 0x4 PUSH2 0x2A82 JUMP JUMPDEST PUSH2 0x1866 JUMP JUMPDEST CALLVALUE DUP1 ISZERO PUSH2 0xA5E JUMPI PUSH1 0x0 DUP1 REVERT JUMPDEST POP PUSH2 0x362 PUSH2 0xA6D CALLDATASIZE PUSH1 0x4 PUSH2 0x2B06 JUMP JUMPDEST PUSH2 0x192E JUMP JUMPDEST CALLVALUE DUP1 ISZERO PUSH2 0xA7E JUMPI PUSH1 0x0 DUP1 REVERT JUMPDEST POP PUSH2 0x362 PUSH2 0xA8D CALLDATASIZE PUSH1 0x4 PUSH2 0x2831 JUMP JUMPDEST PUSH2 0x19A8 JUMP JUMPDEST CALLVALUE DUP1 ISZERO PUSH2 0xA9E JUMPI PUSH1 0x0 DUP1 REVERT JUMPDEST POP PUSH2 0x362 PUSH2 0xAAD CALLDATASIZE PUSH1 0x4 PUSH2 0x2831 JUMP JUMPDEST PUSH2 0x19D1 JUMP JUMPDEST CALLVALUE DUP1 ISZERO PUSH2 0xABE JUMPI PUSH1 0x0 DUP1 REVERT JUMPDEST POP PUSH2 0x362 PUSH2 0xACD CALLDATASIZE PUSH1 0x4 PUSH2 0x2831 JUMP JUMPDEST PUSH2 0x1A4D JUMP JUMPDEST CALLVALUE DUP1 ISZERO PUSH2 0xADE JUMPI PUSH1 0x0 DUP1 REVERT JUMPDEST POP PUSH2 0x362 PUSH2 0xAED CALLDATASIZE PUSH1 0x4 PUSH2 0x2831 JUMP JUMPDEST PUSH2 0x1B6E JUMP JUMPDEST CALLVALUE DUP1 ISZERO PUSH2 0xAFE JUMPI PUSH1 0x0 DUP1 REVERT JUMPDEST POP PUSH2 0x411 PUSH2 0xB0D CALLDATASIZE PUSH1 0x4 PUSH2 0x2B4B JUMP JUMPDEST PUSH2 0x1BE4 JUMP JUMPDEST PUSH1 0x1 PUSH1 0x1 PUSH1 0xA0 SHL SUB DUP2 AND PUSH1 0x0 SWAP1 DUP2 MSTORE PUSH1 0x4 PUSH1 0x20 MSTORE PUSH1 0x40 SWAP1 KECCAK256 SLOAD PUSH2 0x3E8 DUP2 GT ISZERO PUSH2 0xBD4 JUMPI PUSH1 0x0 PUSH2 0xB3F PUSH2 0x1BF9 JUMP JUMPDEST SWAP1 POP PUSH2 0xB4A DUP3 PUSH2 0x1C2E JUMP JUMPDEST PUSH2 0xB54 DUP4 DUP4 PUSH2 0x1C83 JUMP JUMPDEST PUSH1 0x40 MLOAD DUP3 DUP2 MSTORE PUSH32 0x8A1C945864C85A9DEE42B8734075761F7A16095A8384AB751F2417C5767E227E SWAP1 PUSH1 0x20 ADD PUSH1 0x40 MLOAD DUP1 SWAP2 SUB SWAP1 LOG1 PUSH32 0x46AA811B2923FD55B4CA06375B4045117D4584C66FC40880A8AB8EE32D88ED1 DUP2 PUSH2 0xBB1 PUSH2 0x1BF9 JUMP JUMPDEST PUSH1 0x3 SLOAD PUSH1 0x40 DUP1 MLOAD SWAP4 DUP5 MSTORE PUSH1 0x20 DUP5 ADD SWAP3 SWAP1 SWAP3 MSTORE SWAP1 DUP3 ADD MSTORE PUSH1 0x60 ADD PUSH1 0x40 MLOAD DUP1 SWAP2 SUB SWAP1 LOG1 POP JUMPDEST POP POP JUMP JUMPDEST CALLER PUSH1 0x0 DUP2 DUP2 MSTORE PUSH1 0x5 PUSH1 0x20 SWAP1 DUP2 MSTORE PUSH1 0x40 DUP1 DUP4 KECCAK256 PUSH1 0x1 PUSH1 0x1 PUSH1 0xA0 SHL SUB DUP8 AND DUP1 DUP6 MSTORE SWAP3 MSTORE DUP1 DUP4 KECCAK256 DUP6 SWAP1 SSTORE MLOAD SWAP2 SWAP3 SWAP1 SWAP2 PUSH32 0x8C5BE1E5EBEC7D5BD14F71427D1E84F3DD0314C0F7B2291E5B200AC8C7C3B925 SWAP1 PUSH2 0xC33 SWAP1 DUP7 DUP2 MSTORE PUSH1 0x20 ADD SWAP1 JUMP JUMPDEST PUSH1 0x40 MLOAD DUP1 SWAP2 SUB SWAP1 LOG3 POP PUSH1 0x1 JUMPDEST SWAP3 SWAP2 POP POP JUMP JUMPDEST PUSH2 0xC4D PUSH2 0x1D60 JUMP JUMPDEST PUSH1 0x2 SLOAD PUSH1 0x1 PUSH1 0x1 PUSH1 0xA0 SHL SUB SWAP1 DUP2 AND SWAP1 DUP3 AND SUB PUSH2 0xCB0 JUMPI PUSH1 0x40 MLOAD PUSH3 0x461BCD PUSH1 0xE5 SHL DUP2 MSTORE PUSH1 0x20 PUSH1 0x4 DUP3 ADD DUP2 SWAP1 MSTORE PUSH1 0x24 DUP3 ADD MSTORE PUSH32 0x43616E6E6F7420576974686472617720556E6465726C79696E67204173736574 PUSH1 0x44 DUP3 ADD MSTORE PUSH1 0x64 ADD JUMPDEST PUSH1 0x40 MLOAD DUP1 SWAP2 SUB SWAP1 REVERT JUMPDEST PUSH1 0x1 PUSH1 0x1 PUSH1 0xA0 SHL SUB DUP2 AND PUSH2 0xCD6 JUMPI PUSH1 0x40 MLOAD PUSH3 0x461BCD PUSH1 0xE5 SHL DUP2 MSTORE PUSH1 0x4 ADD PUSH2 0xCA7 SWAP1 PUSH2 0x2B70 JUMP JUMPDEST PUSH1 0x40 MLOAD PUSH4 0x70A08231 PUSH1 0xE0 SHL DUP2 MSTORE ADDRESS PUSH1 0x4 DUP3 ADD MSTORE PUSH1 0x1 PUSH1 0x1 PUSH1 0xA0 SHL SUB DUP3 AND SWAP1 PUSH4 0xA9059CBB SWAP1 CALLER SWAP1 DUP4 SWAP1 PUSH4 0x70A08231 SWAP1 PUSH1 0x24 ADD PUSH1 0x20 PUSH1 0x40 MLOAD DUP1 DUP4 SUB DUP2 DUP7 GAS STATICCALL ISZERO DUP1 ISZERO PUSH2 0xD24 JUMPI RETURNDATASIZE PUSH1 0x0 DUP1 RETURNDATACOPY RETURNDATASIZE PUSH1 0x0 REVERT JUMPDEST POP POP POP POP PUSH1 0x40 MLOAD RETURNDATASIZE PUSH1 0x1F NOT PUSH1 0x1F DUP3 ADD AND DUP3 ADD DUP1 PUSH1 0x40 MSTORE POP DUP2 ADD SWAP1 PUSH2 0xD48 SWAP2 SWAP1 PUSH2 0x2B96 JUMP JUMPDEST PUSH1 0x40 MLOAD PUSH1 0x1 PUSH1 0x1 PUSH1 0xE0 SHL SUB NOT PUSH1 0xE0 DUP6 SWAP1 SHL AND DUP2 MSTORE PUSH1 0x1 PUSH1 0x1 PUSH1 0xA0 SHL SUB SWAP1 SWAP3 AND PUSH1 0x4 DUP4 ADD MSTORE PUSH1 0x24 DUP3 ADD MSTORE PUSH1 0x44 ADD PUSH1 0x20 PUSH1 0x40 MLOAD DUP1 DUP4 SUB DUP2 PUSH1 0x0 DUP8 GAS CALL ISZERO DUP1 ISZERO PUSH2 0xD93 JUMPI RETURNDATASIZE PUSH1 0x0 DUP1 RETURNDATACOPY RETURNDATASIZE PUSH1 0x0 REVERT JUMPDEST POP POP POP POP PUSH1 0x40 MLOAD RETURNDATASIZE PUSH1 0x1F NOT PUSH1 0x1F DUP3 ADD AND DUP3 ADD DUP1 PUSH1 0x40 MSTORE POP DUP2 ADD SWAP1 PUSH2 0xBD4 SWAP2 SWAP1 PUSH2 0x2BAF JUMP JUMPDEST PUSH1 0x1 PUSH1 0x1 PUSH1 0xA0 SHL SUB DUP2 AND PUSH1 0x0 SWAP1 DUP2 MSTORE PUSH1 0x4 PUSH1 0x20 MSTORE PUSH1 0x40 DUP2 KECCAK256 SLOAD PUSH2 0xC3F SWAP1 PUSH2 0x1DBA JUMP JUMPDEST PUSH1 0x0 PUSH2 0xDE3 PUSH2 0x1DCF JUMP JUMPDEST PUSH1 0x40 DUP1 MLOAD DUP1 DUP3 ADD DUP3 MSTORE PUSH1 0x16 DUP2 MSTORE PUSH22 0x496E73756666696369656E7420416C6C6F77616E6365 PUSH1 0x50 SHL PUSH1 0x20 DUP1 DUP4 ADD SWAP2 SWAP1 SWAP2 MSTORE PUSH1 0x1 PUSH1 0x1 PUSH1 0xA0 SHL SUB DUP8 AND PUSH1 0x0 SWAP1 DUP2 MSTORE PUSH1 0x5 DUP3 MSTORE DUP4 DUP2 KECCAK256 CALLER DUP3 MSTORE SWAP1 SWAP2 MSTORE SWAP2 SWAP1 SWAP2 KECCAK256 SLOAD PUSH2 0xE3F SWAP2 DUP5 SWAP1 PUSH2 0x1E28 JUMP JUMPDEST PUSH1 0x1 PUSH1 0x1 PUSH1 0xA0 SHL SUB DUP6 AND PUSH1 0x0 SWAP1 DUP2 MSTORE PUSH1 0x5 PUSH1 0x20 SWAP1 DUP2 MSTORE PUSH1 0x40 DUP1 DUP4 KECCAK256 CALLER DUP5 MSTORE SWAP1 SWAP2 MSTORE SWAP1 KECCAK256 SSTORE PUSH2 0xE6E DUP5 DUP5 DUP5 PUSH2 0x1E54 JUMP JUMPDEST SWAP1 POP PUSH2 0xE79 PUSH1 0x1 DUP1 SSTORE JUMP JUMPDEST SWAP4 SWAP3 POP POP POP JUMP JUMPDEST PUSH2 0xE88 PUSH2 0x1D60 JUMP JUMPDEST PUSH1 0x1 PUSH1 0x1 PUSH1 0xA0 SHL SUB DUP2 AND PUSH2 0xEAE JUMPI PUSH1 0x40 MLOAD PUSH3 0x461BCD PUSH1 0xE5 SHL DUP2 MSTORE PUSH1 0x4 ADD PUSH2 0xCA7 SWAP1 PUSH2 0x2B70 JUMP JUMPDEST PUSH1 0x2 DUP1 SLOAD PUSH1 0x1 PUSH1 0x1 PUSH1 0xA0 SHL SUB NOT AND PUSH1 0x1 PUSH1 0x1 PUSH1 0xA0 SHL SUB DUP4 AND SWAP1 DUP2 OR SWAP1 SWAP2 SSTORE PUSH1 0x40 MLOAD SWAP1 DUP2 MSTORE PUSH32 0x9280FA092F9E80F9BEFBEE5157D2C0B8EA9876A99C0A5207433A5E4EFE813B15 SWAP1 PUSH1 0x20 ADD JUMPDEST PUSH1 0x40 MLOAD DUP1 SWAP2 SUB SWAP1 LOG1 POP JUMP JUMPDEST PUSH1 0x0 PUSH2 0xF0D PUSH2 0x1DCF JUMP JUMPDEST PUSH2 0xF16 ADDRESS PUSH2 0xB12 JUMP JUMPDEST PUSH2 0xF20 DUP3 CALLER PUSH2 0x2084 JUMP JUMPDEST SWAP1 POP PUSH2 0xF2B PUSH1 0x1 DUP1 SSTORE JUMP JUMPDEST SWAP2 SWAP1 POP JUMP JUMPDEST PUSH2 0xF38 PUSH2 0x1DCF JUMP JUMPDEST CALLER PUSH1 0x0 SWAP1 DUP2 MSTORE PUSH1 0x4 PUSH1 0x20 MSTORE PUSH1 0x40 SWAP1 KECCAK256 SLOAD DUP2 DUP2 LT DUP1 ISZERO SWAP1 PUSH2 0xF58 JUMPI POP PUSH1 0x0 DUP2 GT JUMPDEST PUSH2 0xF94 JUMPI PUSH1 0x40 MLOAD PUSH3 0x461BCD PUSH1 0xE5 SHL DUP2 MSTORE PUSH1 0x20 PUSH1 0x4 DUP3 ADD MSTORE PUSH1 0xD PUSH1 0x24 DUP3 ADD MSTORE PUSH13 0x5A65726F20486F6C64696E6773 PUSH1 0x98 SHL PUSH1 0x44 DUP3 ADD MSTORE PUSH1 0x64 ADD PUSH2 0xCA7 JUMP JUMPDEST PUSH1 0x0 PUSH2 0xF9E PUSH2 0x1BF9 JUMP JUMPDEST SWAP1 POP PUSH2 0xFA9 DUP4 PUSH2 0x1C2E JUMP JUMPDEST PUSH2 0xFB3 CALLER DUP5 PUSH2 0x1C83 JUMP JUMPDEST PUSH2 0xFBC DUP2 PUSH2 0x21D6 JUMP JUMPDEST PUSH1 0x40 DUP1 MLOAD CALLER DUP2 MSTORE PUSH1 0x20 DUP2 ADD DUP6 SWAP1 MSTORE PUSH32 0xCC16F5DBB4873280815C1EE09DBD06736CFFCC184412CF7A71A0FDB75D397CA5 SWAP2 ADD PUSH1 0x40 MLOAD DUP1 SWAP2 SUB SWAP1 LOG1 POP POP PUSH2 0x1000 PUSH1 0x1 DUP1 SSTORE JUMP JUMPDEST POP JUMP JUMPDEST PUSH2 0x100B PUSH2 0x1D60 JUMP JUMPDEST PUSH1 0x0 JUMPDEST DUP3 MLOAD DUP2 LT ISZERO PUSH2 0x1151 JUMPI PUSH3 0x15F90 DUP3 DUP3 DUP2 MLOAD DUP2 LT PUSH2 0x102D JUMPI PUSH2 0x102D PUSH2 0x2BCC JUMP JUMPDEST PUSH1 0x20 MUL PUSH1 0x20 ADD ADD MLOAD LT ISZERO DUP1 ISZERO PUSH2 0x105F JUMPI POP PUSH3 0x186A0 DUP3 DUP3 DUP2 MLOAD DUP2 LT PUSH2 0x1054 JUMPI PUSH2 0x1054 PUSH2 0x2BCC JUMP JUMPDEST PUSH1 0x20 MUL PUSH1 0x20 ADD ADD MLOAD GT ISZERO JUMPDEST PUSH2 0x1099 JUMPI PUSH1 0x40 MLOAD PUSH3 0x461BCD PUSH1 0xE5 SHL DUP2 MSTORE PUSH1 0x20 PUSH1 0x4 DUP3 ADD MSTORE PUSH1 0xB PUSH1 0x24 DUP3 ADD MSTORE PUSH11 0x496E76616C696420666565 PUSH1 0xA8 SHL PUSH1 0x44 DUP3 ADD MSTORE PUSH1 0x64 ADD PUSH2 0xCA7 JUMP JUMPDEST DUP2 DUP2 DUP2 MLOAD DUP2 LT PUSH2 0x10AB JUMPI PUSH2 0x10AB PUSH2 0x2BCC JUMP JUMPDEST PUSH1 0x20 MUL PUSH1 0x20 ADD ADD MLOAD PUSH1 0x7 PUSH1 0x0 DUP6 DUP5 DUP2 MLOAD DUP2 LT PUSH2 0x10C9 JUMPI PUSH2 0x10C9 PUSH2 0x2BCC JUMP JUMPDEST PUSH1 0x20 MUL PUSH1 0x20 ADD ADD MLOAD PUSH1 0x1 PUSH1 0x1 PUSH1 0xA0 SHL SUB AND PUSH1 0x1 PUSH1 0x1 PUSH1 0xA0 SHL SUB AND DUP2 MSTORE PUSH1 0x20 ADD SWAP1 DUP2 MSTORE PUSH1 0x20 ADD PUSH1 0x0 KECCAK256 DUP2 SWAP1 SSTORE POP PUSH1 0x1 PUSH1 0x8 PUSH1 0x0 DUP6 DUP5 DUP2 MLOAD DUP2 LT PUSH2 0x110D JUMPI PUSH2 0x110D PUSH2 0x2BCC JUMP JUMPDEST PUSH1 0x20 SWAP1 DUP2 MUL SWAP2 SWAP1 SWAP2 ADD DUP2 ADD MLOAD PUSH1 0x1 PUSH1 0x1 PUSH1 0xA0 SHL SUB AND DUP3 MSTORE DUP2 ADD SWAP2 SWAP1 SWAP2 MSTORE PUSH1 0x40 ADD PUSH1 0x0 KECCAK256 DUP1 SLOAD PUSH1 0xFF NOT AND SWAP2 ISZERO ISZERO SWAP2 SWAP1 SWAP2 OR SWAP1 SSTORE DUP1 PUSH2 0x1149 DUP2 PUSH2 0x2BF8 JUMP JUMPDEST SWAP2 POP POP PUSH2 0x100E JUMP JUMPDEST POP POP POP JUMP JUMPDEST PUSH1 0x2 SLOAD PUSH1 0x40 MLOAD PUSH4 0x70A08231 PUSH1 0xE0 SHL DUP2 MSTORE ADDRESS PUSH1 0x4 DUP3 ADD MSTORE PUSH1 0x0 SWAP2 PUSH1 0x1 PUSH1 0x1 PUSH1 0xA0 SHL SUB AND SWAP1 PUSH4 0x70A08231 SWAP1 PUSH1 0x24 ADD PUSH1 0x20 PUSH1 0x40 MLOAD DUP1 DUP4 SUB DUP2 DUP7 GAS STATICCALL ISZERO DUP1 ISZERO PUSH2 0x119F JUMPI RETURNDATASIZE PUSH1 0x0 DUP1 RETURNDATACOPY RETURNDATASIZE PUSH1 0x0 REVERT JUMPDEST POP POP POP POP PUSH1 0x40 MLOAD RETURNDATASIZE PUSH1 0x1F NOT PUSH1 0x1F DUP3 ADD AND DUP3 ADD DUP1 PUSH1 0x40 MSTORE POP DUP2 ADD SWAP1 PUSH2 0x11C3 SWAP2 SWAP1 PUSH2 0x2B96 JUMP JUMPDEST SWAP1 POP SWAP1 JUMP JUMPDEST PUSH2 0x11D0 PUSH2 0x1D60 JUMP JUMPDEST PUSH3 0x17318 DUP5 LT ISZERO PUSH2 0x11E0 JUMPI PUSH1 0x0 DUP1 REVERT JUMPDEST PUSH3 0x17318 DUP4 LT ISZERO PUSH2 0x11F0 JUMPI PUSH1 0x0 DUP1 REVERT JUMPDEST PUSH3 0x17318 DUP3 LT ISZERO PUSH2 0x1200 JUMPI PUSH1 0x0 DUP1 REVERT JUMPDEST PUSH3 0x17318 DUP2 LT ISZERO PUSH2 0x1210 JUMPI PUSH1 0x0 DUP1 REVERT JUMPDEST PUSH1 0xD DUP5 SWAP1 SSTORE PUSH1 0xF DUP4 SWAP1 SSTORE PUSH1 0xE DUP3 SWAP1 SSTORE PUSH1 0x10 DUP2 SWAP1 SSTORE PUSH1 0x40 DUP1 MLOAD DUP6 DUP2 MSTORE PUSH1 0x20 DUP2 ADD DUP6 SWAP1 MSTORE SWAP1 DUP2 ADD DUP4 SWAP1 MSTORE PUSH1 0x60 DUP2 ADD DUP3 SWAP1 MSTORE PUSH32 0x747EACCB30A9769474F1620AE0DD833B1FFB89520DCAC6833B33DF942B7C0C49 SWAP1 PUSH1 0x80 ADD PUSH1 0x40 MLOAD DUP1 SWAP2 SUB SWAP1 LOG1 POP POP POP POP JUMP JUMPDEST PUSH2 0x127A PUSH2 0x1D60 JUMP JUMPDEST PUSH2 0x1284 PUSH1 0x0 PUSH2 0x2268 JUMP JUMPDEST JUMP JUMPDEST PUSH2 0x128E PUSH2 0x1D60 JUMP JUMPDEST PUSH1 0x1 PUSH1 0x1 PUSH1 0xA0 SHL SUB DUP3 AND PUSH2 0x12B4 JUMPI PUSH1 0x40 MLOAD PUSH3 0x461BCD PUSH1 0xE5 SHL DUP2 MSTORE PUSH1 0x4 ADD PUSH2 0xCA7 SWAP1 PUSH2 0x2B70 JUMP JUMPDEST PUSH1 0x1 PUSH1 0x1 PUSH1 0xA0 SHL SUB DUP3 AND PUSH1 0x0 DUP2 DUP2 MSTORE PUSH1 0x6 PUSH1 0x20 SWAP1 DUP2 MSTORE PUSH1 0x40 SWAP2 DUP3 SWAP1 KECCAK256 DUP1 SLOAD PUSH1 0xFF NOT AND DUP6 ISZERO ISZERO SWAP1 DUP2 OR SWAP1 SWAP2 SSTORE DUP3 MLOAD SWAP4 DUP5 MSTORE SWAP1 DUP4 ADD MSTORE PUSH32 0xD0444B45A0AC5FD0EA9B910A05D75621679A6FA7C73922FE24C17C5824CD3FF3 SWAP2 ADD JUMPDEST PUSH1 0x40 MLOAD DUP1 SWAP2 SUB SWAP1 LOG1 POP POP JUMP JUMPDEST PUSH1 0x1 PUSH1 0x1 PUSH1 0xA0 SHL SUB DUP2 AND PUSH1 0x0 SWAP1 DUP2 MSTORE PUSH1 0x8 PUSH1 0x20 MSTORE PUSH1 0x40 DUP2 KECCAK256 SLOAD PUSH1 0xFF AND ISZERO PUSH2 0x1355 JUMPI POP PUSH1 0x1 PUSH1 0x1 PUSH1 0xA0 SHL SUB AND PUSH1 0x0 SWAP1 DUP2 MSTORE PUSH1 0x7 PUSH1 0x20 MSTORE PUSH1 0x40 SWAP1 KECCAK256 SLOAD SWAP1 JUMP JUMPDEST PUSH1 0xC SLOAD PUSH1 0x40 MLOAD PUSH4 0x246B9CF3 PUSH1 0xE0 SHL DUP2 MSTORE PUSH1 0x1 PUSH1 0x1 PUSH1 0xA0 SHL SUB DUP5 DUP2 AND PUSH1 0x4 DUP4 ADD MSTORE SWAP1 SWAP2 AND SWAP1 PUSH1 0x0 SWAP1 DUP3 SWAP1 PUSH4 0x246B9CF3 SWAP1 PUSH1 0x24 ADD PUSH1 0x20 PUSH1 0x40 MLOAD DUP1 DUP4 SUB DUP2 DUP7 GAS STATICCALL ISZERO DUP1 ISZERO PUSH2 0x13A4 JUMPI RETURNDATASIZE PUSH1 0x0 DUP1 RETURNDATACOPY RETURNDATASIZE PUSH1 0x0 REVERT JUMPDEST POP POP POP POP PUSH1 0x40 MLOAD RETURNDATASIZE PUSH1 0x1F NOT PUSH1 0x1F DUP3 ADD AND DUP3 ADD DUP1 PUSH1 0x40 MSTORE POP DUP2 ADD SWAP1 PUSH2 0x13C8 SWAP2 SWAP1 PUSH2 0x2B96 JUMP JUMPDEST SWAP1 POP DUP1 PUSH1 0x0 SUB PUSH2 0x13DE JUMPI POP PUSH3 0x15F90 SWAP4 SWAP3 POP POP POP JUMP JUMPDEST PUSH2 0x1F4 DUP2 LT ISZERO PUSH2 0x13F4 JUMPI POP PUSH3 0x17318 SWAP4 SWAP3 POP POP POP JUMP JUMPDEST PUSH2 0x3E8 DUP2 LT ISZERO PUSH2 0x140A JUMPI POP PUSH3 0x17412 SWAP4 SWAP3 POP POP POP JUMP JUMPDEST PUSH2 0x9C4 DUP2 LT ISZERO PUSH2 0x1420 JUMPI POP PUSH3 0x1750C SWAP4 SWAP3 POP POP POP JUMP JUMPDEST PUSH2 0x1388 DUP2 LT ISZERO PUSH2 0x1436 JUMPI POP PUSH3 0x17606 SWAP4 SWAP3 POP POP POP JUMP JUMPDEST PUSH2 0x1D4C DUP2 LT ISZERO PUSH2 0x144C JUMPI POP PUSH3 0x17700 SWAP4 SWAP3 POP POP POP JUMP JUMPDEST PUSH2 0x2710 DUP2 LT ISZERO PUSH2 0x1462 JUMPI POP PUSH3 0x177FA SWAP4 SWAP3 POP POP POP JUMP JUMPDEST POP PUSH3 0x178F4 SWAP4 SWAP3 POP POP POP JUMP JUMPDEST PUSH1 0x0 PUSH2 0x1478 PUSH2 0x1DCF JUMP JUMPDEST PUSH2 0x1483 CALLER DUP5 DUP5 PUSH2 0x1E54 JUMP JUMPDEST SWAP1 POP PUSH2 0xC3F PUSH1 0x1 DUP1 SSTORE JUMP JUMPDEST CALLER PUSH1 0x0 SWAP1 DUP2 MSTORE PUSH1 0xB PUSH1 0x20 MSTORE PUSH1 0x40 SWAP1 KECCAK256 SLOAD PUSH1 0xFF AND ISZERO ISZERO PUSH1 0x1 EQ PUSH2 0x14F2 JUMPI PUSH1 0x40 MLOAD PUSH3 0x461BCD PUSH1 0xE5 SHL DUP2 MSTORE PUSH1 0x20 PUSH1 0x4 DUP3 ADD MSTORE PUSH1 0x18 PUSH1 0x24 DUP3 ADD MSTORE PUSH32 0x4E6F7420416E20417574686F72697A65642043616C6C65720000000000000000 PUSH1 0x44 DUP3 ADD MSTORE PUSH1 0x64 ADD PUSH2 0xCA7 JUMP JUMPDEST PUSH1 0x1 PUSH1 0x1 PUSH1 0xA0 SHL SUB DUP3 AND PUSH1 0x0 SWAP1 DUP2 MSTORE PUSH1 0x9 PUSH1 0x20 MSTORE PUSH1 0x40 DUP2 KECCAK256 DUP1 SLOAD DUP4 SWAP3 SWAP1 PUSH2 0x151A SWAP1 DUP5 SWAP1 PUSH2 0x2C11 JUMP JUMPDEST SWAP1 SWAP2 SSTORE POP POP POP POP JUMP JUMPDEST PUSH2 0x152B PUSH2 0x1D60 JUMP JUMPDEST PUSH1 0xC SLOAD PUSH1 0x1 PUSH1 0x1 PUSH1 0xA0 SHL SUB AND PUSH1 0x0 SWAP1 DUP2 MSTORE PUSH1 0xB PUSH1 0x20 MSTORE PUSH1 0x40 SWAP1 KECCAK256 SLOAD PUSH1 0xFF AND PUSH2 0x158F JUMPI PUSH1 0x40 MLOAD PUSH3 0x461BCD PUSH1 0xE5 SHL DUP2 MSTORE PUSH1 0x20 PUSH1 0x4 DUP3 ADD MSTORE PUSH1 0x17 PUSH1 0x24 DUP3 ADD MSTORE PUSH23 0x6D757374207365742073616C745661756C7442756C6C73 PUSH1 0x48 SHL PUSH1 0x44 DUP3 ADD MSTORE PUSH1 0x64 ADD PUSH2 0xCA7 JUMP JUMPDEST PUSH1 0x2 SLOAD PUSH1 0x1 PUSH1 0x1 PUSH1 0xA0 SHL SUB AND PUSH2 0x15B7 JUMPI PUSH1 0x40 MLOAD PUSH3 0x461BCD PUSH1 0xE5 SHL DUP2 MSTORE PUSH1 0x4 ADD PUSH2 0xCA7 SWAP1 PUSH2 0x2C24 JUMP JUMPDEST PUSH1 0x12 SLOAD PUSH1 0x1 PUSH1 0x1 PUSH1 0xA0 SHL SUB AND PUSH2 0x15DF JUMPI PUSH1 0x40 MLOAD PUSH3 0x461BCD PUSH1 0xE5 SHL DUP2 MSTORE PUSH1 0x4 ADD PUSH2 0xCA7 SWAP1 PUSH2 0x2C67 JUMP JUMPDEST PUSH1 0xC DUP1 SLOAD PUSH1 0xFF PUSH1 0xA0 SHL NOT AND PUSH1 0x1 PUSH1 0xA0 SHL DUP4 ISZERO ISZERO MUL OR SWAP1 SSTORE PUSH1 0x40 MLOAD NUMBER DUP2 MSTORE PUSH32 0x43F7DEEFC1F4E825772604A0BC01B8362EB1EEF895E6BD4DB39BFAB68C1E94C8 SWAP1 PUSH1 0x20 ADD PUSH2 0xEF8 JUMP JUMPDEST PUSH2 0x162E PUSH2 0x1D60 JUMP JUMPDEST PUSH1 0x1 PUSH1 0x1 PUSH1 0xA0 SHL SUB SWAP2 SWAP1 SWAP2 AND PUSH1 0x0 SWAP1 DUP2 MSTORE PUSH1 0xB PUSH1 0x20 MSTORE PUSH1 0x40 SWAP1 KECCAK256 DUP1 SLOAD PUSH1 0xFF NOT AND SWAP2 ISZERO ISZERO SWAP2 SWAP1 SWAP2 OR SWAP1 SSTORE JUMP JUMPDEST PUSH2 0x1661 PUSH2 0x1D60 JUMP JUMPDEST PUSH1 0xA PUSH2 0x1671 PUSH3 0x186A0 PUSH1 0x9 PUSH2 0x2CAB JUMP JUMPDEST PUSH2 0x167B SWAP2 SWAP1 PUSH2 0x2CC2 JUMP JUMPDEST DUP2 GT ISZERO PUSH2 0x16BF JUMPI PUSH1 0x40 MLOAD PUSH3 0x461BCD PUSH1 0xE5 SHL DUP2 MSTORE PUSH1 0x20 PUSH1 0x4 DUP3 ADD MSTORE PUSH1 0x12 PUSH1 0x24 DUP3 ADD MSTORE PUSH18 0x496E76616C69642050657263656E74616765 PUSH1 0x70 SHL PUSH1 0x44 DUP3 ADD MSTORE PUSH1 0x64 ADD PUSH2 0xCA7 JUMP JUMPDEST PUSH1 0x13 DUP2 SWAP1 SSTORE PUSH1 0x40 MLOAD DUP2 DUP2 MSTORE PUSH32 0xE91C6023755286BF3E349700BA6C7EC17636B08B007390B26D2E0E149B66C85D SWAP1 PUSH1 0x20 ADD PUSH2 0xEF8 JUMP JUMPDEST PUSH2 0x16FC PUSH2 0x1D60 JUMP JUMPDEST PUSH1 0xC DUP1 SLOAD PUSH1 0x1 PUSH1 0x1 PUSH1 0xA0 SHL SUB SWAP1 SWAP3 AND PUSH1 0x1 PUSH1 0x1 PUSH1 0xA0 SHL SUB NOT SWAP1 SWAP3 AND DUP3 OR SWAP1 SSTORE PUSH1 0x0 SWAP1 DUP2 MSTORE PUSH1 0xB PUSH1 0x20 MSTORE PUSH1 0x40 SWAP1 KECCAK256 DUP1 SLOAD PUSH1 0xFF NOT AND PUSH1 0x1 OR SWAP1 SSTORE JUMP JUMPDEST PUSH1 0x0 PUSH2 0x11C3 PUSH2 0x1BF9 JUMP JUMPDEST PUSH2 0x1748 PUSH2 0x1D60 JUMP JUMPDEST PUSH1 0xC SLOAD PUSH1 0x1 PUSH1 0x1 PUSH1 0xA0 SHL SUB AND PUSH1 0x0 SWAP1 DUP2 MSTORE PUSH1 0xB PUSH1 0x20 MSTORE PUSH1 0x40 SWAP1 KECCAK256 SLOAD PUSH1 0xFF AND PUSH2 0x17AC JUMPI PUSH1 0x40 MLOAD PUSH3 0x461BCD PUSH1 0xE5 SHL DUP2 MSTORE PUSH1 0x20 PUSH1 0x4 DUP3 ADD MSTORE PUSH1 0x17 PUSH1 0x24 DUP3 ADD MSTORE PUSH23 0x6D757374207365742073616C745661756C7442756C6C73 PUSH1 0x48 SHL PUSH1 0x44 DUP3 ADD MSTORE PUSH1 0x64 ADD PUSH2 0xCA7 JUMP JUMPDEST PUSH1 0x2 SLOAD PUSH1 0x1 PUSH1 0x1 PUSH1 0xA0 SHL SUB AND PUSH2 0x17D4 JUMPI PUSH1 0x40 MLOAD PUSH3 0x461BCD PUSH1 0xE5 SHL DUP2 MSTORE PUSH1 0x4 ADD PUSH2 0xCA7 SWAP1 PUSH2 0x2C24 JUMP JUMPDEST PUSH1 0x12 SLOAD PUSH1 0x1 PUSH1 0x1 PUSH1 0xA0 SHL SUB AND PUSH2 0x17FC JUMPI PUSH1 0x40 MLOAD PUSH3 0x461BCD PUSH1 0xE5 SHL DUP2 MSTORE PUSH1 0x4 ADD PUSH2 0xCA7 SWAP1 PUSH2 0x2C67 JUMP JUMPDEST PUSH1 0xC DUP1 SLOAD PUSH1 0xFF PUSH1 0xA8 SHL NOT AND PUSH1 0x1 PUSH1 0xA8 SHL DUP4 ISZERO ISZERO DUP2 MUL SWAP2 SWAP1 SWAP2 OR SWAP2 DUP3 SWAP1 SSTORE PUSH1 0x40 MLOAD PUSH1 0xFF SWAP2 SWAP1 SWAP3 DIV AND ISZERO ISZERO DUP2 MSTORE PUSH32 0x64F8C3A5B7A33DA2AB28DE4E739FC25FECB37DADAAC9DF12049EC3BBC8FD20ED SWAP1 PUSH1 0x20 ADD PUSH2 0xEF8 JUMP JUMPDEST PUSH1 0x0 PUSH2 0x185B PUSH2 0x1DCF JUMP JUMPDEST PUSH2 0xF20 CALLER DUP4 CALLER PUSH2 0x22B8 JUMP JUMPDEST PUSH2 0x186E PUSH2 0x1D60 JUMP JUMPDEST PUSH1 0x1 PUSH1 0x1 PUSH1 0xA0 SHL SUB DUP3 AND PUSH1 0x0 SWAP1 DUP2 MSTORE PUSH1 0xA PUSH1 0x20 MSTORE PUSH1 0x40 SWAP1 KECCAK256 SLOAD DUP2 ISZERO ISZERO PUSH1 0xFF SWAP1 SWAP2 AND ISZERO ISZERO SUB PUSH2 0x18D2 JUMPI PUSH1 0x40 MLOAD PUSH3 0x461BCD PUSH1 0xE5 SHL DUP2 MSTORE PUSH1 0x20 PUSH1 0x4 DUP3 ADD MSTORE PUSH1 0x11 PUSH1 0x24 DUP3 ADD MSTORE PUSH17 0x15985B1D5948185B1C9958591E481CD95D PUSH1 0x7A SHL PUSH1 0x44 DUP3 ADD MSTORE PUSH1 0x64 ADD PUSH2 0xCA7 JUMP JUMPDEST PUSH1 0x1 PUSH1 0x1 PUSH1 0xA0 SHL SUB DUP3 AND PUSH1 0x0 DUP2 DUP2 MSTORE PUSH1 0xA PUSH1 0x20 SWAP1 DUP2 MSTORE PUSH1 0x40 SWAP2 DUP3 SWAP1 KECCAK256 DUP1 SLOAD PUSH1 0xFF NOT AND DUP6 ISZERO ISZERO SWAP1 DUP2 OR SWAP1 SWAP2 SSTORE DUP3 MLOAD SWAP4 DUP5 MSTORE SWAP1 DUP4 ADD MSTORE PUSH32 0x48ECC5804384517C5752D692233964A86B36B97B08D38098B5D7F192023F9535 SWAP2 ADD PUSH2 0x130C JUMP JUMPDEST PUSH2 0x1936 PUSH2 0x1D60 JUMP JUMPDEST PUSH1 0x0 JUMPDEST DUP3 MLOAD DUP2 LT ISZERO PUSH2 0x1151 JUMPI DUP2 PUSH1 0x9 PUSH1 0x0 DUP6 DUP5 DUP2 MLOAD DUP2 LT PUSH2 0x1959 JUMPI PUSH2 0x1959 PUSH2 0x2BCC JUMP JUMPDEST PUSH1 0x20 MUL PUSH1 0x20 ADD ADD MLOAD PUSH1 0x1 PUSH1 0x1 PUSH1 0xA0 SHL SUB AND PUSH1 0x1 PUSH1 0x1 PUSH1 0xA0 SHL SUB AND DUP2 MSTORE PUSH1 0x20 ADD SWAP1 DUP2 MSTORE PUSH1 0x20 ADD PUSH1 0x0 KECCAK256 PUSH1 0x0 DUP3 DUP3 SLOAD PUSH2 0x1990 SWAP2 SWAP1 PUSH2 0x2C11 JUMP JUMPDEST SWAP1 SWAP2 SSTORE POP DUP2 SWAP1 POP PUSH2 0x19A0 DUP2 PUSH2 0x2BF8 JUMP JUMPDEST SWAP2 POP POP PUSH2 0x1939 JUMP JUMPDEST PUSH2 0x19B0 PUSH2 0x1D60 JUMP JUMPDEST PUSH1 0x1 PUSH1 0x1 PUSH1 0xA0 SHL SUB AND PUSH1 0x0 SWAP1 DUP2 MSTORE PUSH1 0x8 PUSH1 0x20 MSTORE PUSH1 0x40 SWAP1 KECCAK256 DUP1 SLOAD PUSH1 0xFF NOT AND SWAP1 SSTORE JUMP JUMPDEST PUSH2 0x19D9 PUSH2 0x1D60 JUMP JUMPDEST PUSH1 0x1 PUSH1 0x1 PUSH1 0xA0 SHL SUB DUP2 AND PUSH2 0x19FF JUMPI PUSH1 0x40 MLOAD PUSH3 0x461BCD PUSH1 0xE5 SHL DUP2 MSTORE PUSH1 0x4 ADD PUSH2 0xCA7 SWAP1 PUSH2 0x2B70 JUMP JUMPDEST PUSH1 0x12 DUP1 SLOAD PUSH1 0x1 PUSH1 0x1 PUSH1 0xA0 SHL SUB NOT AND PUSH1 0x1 PUSH1 0x1 PUSH1 0xA0 SHL SUB DUP4 AND SWAP1 DUP2 OR SWAP1 SWAP2 SSTORE PUSH1 0x40 MLOAD SWAP1 DUP2 MSTORE PUSH32 0xFFB40BFDFD246E95F543D08D9713C339F1D90FA9265E39B4F562F9011D7C919F SWAP1 PUSH1 0x20 ADD PUSH2 0xEF8 JUMP JUMPDEST PUSH2 0x1A55 PUSH2 0x1DCF JUMP JUMPDEST PUSH2 0x1A5D PUSH2 0x1D60 JUMP JUMPDEST PUSH1 0x1 PUSH1 0x1 PUSH1 0xA0 SHL SUB DUP2 AND PUSH2 0x1A83 JUMPI PUSH1 0x40 MLOAD PUSH3 0x461BCD PUSH1 0xE5 SHL DUP2 MSTORE PUSH1 0x4 ADD PUSH2 0xCA7 SWAP1 PUSH2 0x2B70 JUMP JUMPDEST PUSH1 0x1 PUSH1 0x1 PUSH1 0xA0 SHL SUB DUP2 AND PUSH1 0x0 SWAP1 DUP2 MSTORE PUSH1 0x4 PUSH1 0x20 MSTORE PUSH1 0x40 SWAP1 KECCAK256 SLOAD PUSH2 0x1AD6 JUMPI PUSH1 0x40 MLOAD PUSH3 0x461BCD PUSH1 0xE5 SHL DUP2 MSTORE PUSH1 0x20 PUSH1 0x4 DUP3 ADD MSTORE PUSH1 0xB PUSH1 0x24 DUP3 ADD MSTORE PUSH11 0x16995C9BC8105B5BDD5B9D PUSH1 0xAA SHL PUSH1 0x44 DUP3 ADD MSTORE PUSH1 0x64 ADD PUSH2 0xCA7 JUMP JUMPDEST PUSH1 0x1 PUSH1 0x1 PUSH1 0xA0 SHL SUB DUP2 AND PUSH1 0x0 SWAP1 DUP2 MSTORE PUSH1 0x6 PUSH1 0x20 SWAP1 DUP2 MSTORE PUSH1 0x40 DUP1 DUP4 KECCAK256 DUP1 SLOAD PUSH1 0xFF NOT AND PUSH1 0x1 OR SWAP1 SSTORE PUSH1 0x4 SWAP1 SWAP2 MSTORE SWAP1 KECCAK256 SLOAD PUSH2 0x1B10 SWAP1 DUP3 SWAP1 DUP2 PUSH2 0x22B8 JUMP JUMPDEST POP PUSH1 0x1 PUSH1 0x1 PUSH1 0xA0 SHL SUB DUP2 AND PUSH1 0x0 DUP2 DUP2 MSTORE PUSH1 0x6 PUSH1 0x20 SWAP1 DUP2 MSTORE PUSH1 0x40 SWAP2 DUP3 SWAP1 KECCAK256 DUP1 SLOAD PUSH1 0xFF NOT AND SWAP1 SSTORE SWAP1 MLOAD SWAP2 DUP3 MSTORE PUSH32 0x454FCC66032B4DE006483C9F681CD97D7C4CC4C285B201A55FDDC6FAA2303E5E SWAP2 ADD PUSH1 0x40 MLOAD DUP1 SWAP2 SUB SWAP1 LOG1 PUSH2 0x1000 PUSH1 0x1 DUP1 SSTORE JUMP JUMPDEST PUSH2 0x1B76 PUSH2 0x1D60 JUMP JUMPDEST PUSH1 0x1 PUSH1 0x1 PUSH1 0xA0 SHL SUB DUP2 AND PUSH2 0x1BDB JUMPI PUSH1 0x40 MLOAD PUSH3 0x461BCD PUSH1 0xE5 SHL DUP2 MSTORE PUSH1 0x20 PUSH1 0x4 DUP3 ADD MSTORE PUSH1 0x26 PUSH1 0x24 DUP3 ADD MSTORE PUSH32 0x4F776E61626C653A206E6577206F776E657220697320746865207A65726F2061 PUSH1 0x44 DUP3 ADD MSTORE PUSH6 0x646472657373 PUSH1 0xD0 SHL PUSH1 0x64 DUP3 ADD MSTORE PUSH1 0x84 ADD PUSH2 0xCA7 JUMP JUMPDEST PUSH2 0x1000 DUP2 PUSH2 0x2268 JUMP JUMPDEST PUSH1 0x0 PUSH2 0x1BEE PUSH2 0x1DCF JUMP JUMPDEST PUSH2 0x1483 CALLER DUP5 DUP5 PUSH2 0x22B8 JUMP JUMPDEST PUSH1 0x0 PUSH1 0x3 SLOAD PUSH1 0x0 EQ PUSH2 0x1C26 JUMPI PUSH2 0x11C3 PUSH1 0x3 SLOAD PUSH2 0x1C20 PUSH3 0xF4240 PUSH2 0x1C1A PUSH2 0x1156 JUMP JUMPDEST SWAP1 PUSH2 0x24AA JUMP JUMPDEST SWAP1 PUSH2 0x24B6 JUMP JUMPDEST POP PUSH3 0xF4240 SWAP1 JUMP JUMPDEST PUSH1 0x0 PUSH3 0x186A0 PUSH1 0x13 SLOAD DUP4 PUSH2 0x1C42 SWAP2 SWAP1 PUSH2 0x2CAB JUMP JUMPDEST PUSH2 0x1C4C SWAP2 SWAP1 PUSH2 0x2CC2 JUMP JUMPDEST SWAP1 POP PUSH1 0x0 DUP2 GT DUP1 ISZERO PUSH2 0x1C68 JUMPI POP PUSH1 0x12 SLOAD PUSH1 0x1 PUSH1 0x1 PUSH1 0xA0 SHL SUB AND ISZERO ISZERO JUMPDEST ISZERO PUSH2 0xBD4 JUMPI PUSH1 0x12 SLOAD PUSH2 0xBD4 SWAP1 PUSH1 0x1 PUSH1 0x1 PUSH1 0xA0 SHL SUB AND DUP3 PUSH2 0x24C2 JUMP JUMPDEST PUSH1 0x40 DUP1 MLOAD DUP1 DUP3 ADD DUP3 MSTORE PUSH1 0x14 DUP2 MSTORE PUSH20 0x496E73756666696369656E742042616C616E6365 PUSH1 0x60 SHL PUSH1 0x20 DUP1 DUP4 ADD SWAP2 SWAP1 SWAP2 MSTORE PUSH1 0x1 PUSH1 0x1 PUSH1 0xA0 SHL SUB DUP6 AND PUSH1 0x0 SWAP1 DUP2 MSTORE PUSH1 0x4 SWAP1 SWAP2 MSTORE SWAP2 SWAP1 SWAP2 KECCAK256 SLOAD PUSH2 0x1CD5 SWAP2 DUP4 SWAP1 PUSH2 0x1E28 JUMP JUMPDEST PUSH1 0x1 PUSH1 0x1 PUSH1 0xA0 SHL SUB DUP4 AND PUSH1 0x0 SWAP1 DUP2 MSTORE PUSH1 0x4 PUSH1 0x20 SWAP1 DUP2 MSTORE PUSH1 0x40 SWAP2 DUP3 SWAP1 KECCAK256 SWAP3 SWAP1 SWAP3 SSTORE DUP1 MLOAD DUP1 DUP3 ADD SWAP1 SWAP2 MSTORE PUSH1 0xF DUP2 MSTORE PUSH15 0x4E6567617469766520537570706C79 PUSH1 0x88 SHL SWAP2 DUP2 ADD SWAP2 SWAP1 SWAP2 MSTORE PUSH1 0x3 SLOAD PUSH2 0x1D29 SWAP2 DUP4 SWAP1 PUSH2 0x1E28 JUMP JUMPDEST PUSH1 0x3 SSTORE PUSH1 0x40 MLOAD DUP2 DUP2 MSTORE PUSH1 0x0 SWAP1 PUSH1 0x1 PUSH1 0x1 PUSH1 0xA0 SHL SUB DUP5 AND SWAP1 PUSH1 0x0 DUP1 MLOAD PUSH1 0x20 PUSH2 0x2CF8 DUP4 CODECOPY DUP2 MLOAD SWAP2 MSTORE SWAP1 PUSH1 0x20 ADD JUMPDEST PUSH1 0x40 MLOAD DUP1 SWAP2 SUB SWAP1 LOG3 POP POP JUMP JUMPDEST PUSH1 0x0 SLOAD PUSH1 0x1 PUSH1 0x1 PUSH1 0xA0 SHL SUB AND CALLER EQ PUSH2 0x1284 JUMPI PUSH1 0x40 MLOAD PUSH3 0x461BCD PUSH1 0xE5 SHL DUP2 MSTORE PUSH1 0x20 PUSH1 0x4 DUP3 ADD DUP2 SWAP1 MSTORE PUSH1 0x24 DUP3 ADD MSTORE PUSH32 0x4F776E61626C653A2063616C6C6572206973206E6F7420746865206F776E6572 PUSH1 0x44 DUP3 ADD MSTORE PUSH1 0x64 ADD PUSH2 0xCA7 JUMP JUMPDEST PUSH1 0x0 PUSH2 0xC3F PUSH3 0xF4240 PUSH2 0x1C20 DUP5 PUSH2 0x1C1A PUSH2 0x1BF9 JUMP JUMPDEST PUSH1 0x2 PUSH1 0x1 SLOAD SUB PUSH2 0x1E21 JUMPI PUSH1 0x40 MLOAD PUSH3 0x461BCD PUSH1 0xE5 SHL DUP2 MSTORE PUSH1 0x20 PUSH1 0x4 DUP3 ADD MSTORE PUSH1 0x1F PUSH1 0x24 DUP3 ADD MSTORE PUSH32 0x5265656E7472616E637947756172643A207265656E7472616E742063616C6C00 PUSH1 0x44 DUP3 ADD MSTORE PUSH1 0x64 ADD PUSH2 0xCA7 JUMP JUMPDEST PUSH1 0x2 PUSH1 0x1 SSTORE JUMP JUMPDEST PUSH1 0x0 DUP2 DUP5 DUP5 GT ISZERO PUSH2 0x1E4C JUMPI PUSH1 0x40 MLOAD PUSH3 0x461BCD PUSH1 0xE5 SHL DUP2 MSTORE PUSH1 0x4 ADD PUSH2 0xCA7 SWAP2 SWAP1 PUSH2 0x27A2 JUMP JUMPDEST POP POP POP SWAP1 SUB SWAP1 JUMP JUMPDEST PUSH1 0x0 PUSH1 0x1 PUSH1 0x1 PUSH1 0xA0 SHL SUB DUP4 AND ISZERO DUP1 ISZERO SWAP1 PUSH2 0x1E76 JUMPI POP PUSH1 0x1 PUSH1 0x1 PUSH1 0xA0 SHL SUB DUP5 AND ISZERO ISZERO JUMPDEST PUSH2 0x1EB5 JUMPI PUSH1 0x40 MLOAD PUSH3 0x461BCD PUSH1 0xE5 SHL DUP2 MSTORE PUSH1 0x20 PUSH1 0x4 DUP3 ADD MSTORE PUSH1 0x10 PUSH1 0x24 DUP3 ADD MSTORE PUSH16 0x5472616E7366657220546F205A65726F PUSH1 0x80 SHL PUSH1 0x44 DUP3 ADD MSTORE PUSH1 0x64 ADD PUSH2 0xCA7 JUMP JUMPDEST PUSH1 0x0 DUP3 GT PUSH2 0x1EF9 JUMPI PUSH1 0x40 MLOAD PUSH3 0x461BCD PUSH1 0xE5 SHL DUP2 MSTORE PUSH1 0x20 PUSH1 0x4 DUP3 ADD MSTORE PUSH1 0x11 PUSH1 0x24 DUP3 ADD MSTORE PUSH17 0x5472616E7366657220416D74205A65726F PUSH1 0x78 SHL PUSH1 0x44 DUP3 ADD MSTORE PUSH1 0x64 ADD PUSH2 0xCA7 JUMP JUMPDEST PUSH1 0x0 PUSH2 0x1F03 PUSH2 0x1BF9 JUMP JUMPDEST SWAP1 POP PUSH1 0x0 PUSH2 0x1F10 DUP7 PUSH2 0x1318 JUMP JUMPDEST SWAP1 POP PUSH1 0x0 PUSH2 0x1F25 PUSH3 0x186A0 PUSH2 0x1C20 DUP8 DUP6 PUSH2 0x24AA JUMP JUMPDEST SWAP1 POP PUSH1 0x0 PUSH2 0x1F33 DUP7 DUP4 PUSH2 0x253A JUMP JUMPDEST SWAP1 POP PUSH2 0x1F9B DUP7 PUSH1 0x40 MLOAD DUP1 PUSH1 0x40 ADD PUSH1 0x40 MSTORE DUP1 PUSH1 0x14 DUP2 MSTORE PUSH1 0x20 ADD PUSH20 0x496E73756666696369656E742042616C616E6365 PUSH1 0x60 SHL DUP2 MSTORE POP PUSH1 0x4 PUSH1 0x0 DUP13 PUSH1 0x1 PUSH1 0x1 PUSH1 0xA0 SHL SUB AND PUSH1 0x1 PUSH1 0x1 PUSH1 0xA0 SHL SUB AND DUP2 MSTORE PUSH1 0x20 ADD SWAP1 DUP2 MSTORE PUSH1 0x20 ADD PUSH1 0x0 KECCAK256 SLOAD PUSH2 0x1E28 SWAP1 SWAP3 SWAP2 SWAP1 PUSH4 0xFFFFFFFF AND JUMP JUMPDEST PUSH1 0x1 PUSH1 0x1 PUSH1 0xA0 SHL SUB DUP1 DUP11 AND PUSH1 0x0 SWAP1 DUP2 MSTORE PUSH1 0x4 PUSH1 0x20 MSTORE PUSH1 0x40 DUP1 DUP3 KECCAK256 SWAP4 SWAP1 SWAP4 SSTORE SWAP1 DUP10 AND DUP2 MSTORE KECCAK256 SLOAD PUSH2 0x1FCA SWAP1 DUP4 PUSH2 0x2546 JUMP JUMPDEST PUSH1 0x1 PUSH1 0x1 PUSH1 0xA0 SHL SUB DUP9 AND PUSH1 0x0 SWAP1 DUP2 MSTORE PUSH1 0x4 PUSH1 0x20 MSTORE PUSH1 0x40 SWAP1 KECCAK256 SSTORE DUP1 ISZERO PUSH2 0x2032 JUMPI PUSH2 0x1FF2 DUP2 PUSH2 0x1C2E JUMP JUMPDEST PUSH1 0x3 SLOAD PUSH2 0x1FFF SWAP1 DUP3 PUSH2 0x253A JUMP JUMPDEST PUSH1 0x3 SSTORE PUSH1 0x40 MLOAD DUP2 DUP2 MSTORE PUSH1 0x0 SWAP1 PUSH1 0x1 PUSH1 0x1 PUSH1 0xA0 SHL SUB DUP11 AND SWAP1 PUSH1 0x0 DUP1 MLOAD PUSH1 0x20 PUSH2 0x2CF8 DUP4 CODECOPY DUP2 MLOAD SWAP2 MSTORE SWAP1 PUSH1 0x20 ADD PUSH1 0x40 MLOAD DUP1 SWAP2 SUB SWAP1 LOG3 JUMPDEST PUSH2 0x203B DUP5 PUSH2 0x21D6 JUMP JUMPDEST DUP7 PUSH1 0x1 PUSH1 0x1 PUSH1 0xA0 SHL SUB AND DUP9 PUSH1 0x1 PUSH1 0x1 PUSH1 0xA0 SHL SUB AND PUSH1 0x0 DUP1 MLOAD PUSH1 0x20 PUSH2 0x2CF8 DUP4 CODECOPY DUP2 MLOAD SWAP2 MSTORE DUP5 PUSH1 0x40 MLOAD PUSH2 0x206E SWAP2 DUP2 MSTORE PUSH1 0x20 ADD SWAP1 JUMP JUMPDEST PUSH1 0x40 MLOAD DUP1 SWAP2 SUB SWAP1 LOG3 POP PUSH1 0x1 SWAP8 SWAP7 POP POP POP POP POP POP POP JUMP JUMPDEST PUSH1 0xC SLOAD PUSH1 0x0 SWAP1 PUSH1 0x1 PUSH1 0xA0 SHL SWAP1 DIV PUSH1 0xFF AND PUSH2 0x20D6 JUMPI PUSH1 0x40 MLOAD PUSH3 0x461BCD PUSH1 0xE5 SHL DUP2 MSTORE PUSH1 0x20 PUSH1 0x4 DUP3 ADD MSTORE PUSH1 0x13 PUSH1 0x24 DUP3 ADD MSTORE PUSH19 0x151BDAD95B88139BDD081058DD1A5D985D1959 PUSH1 0x6A SHL PUSH1 0x44 DUP3 ADD MSTORE PUSH1 0x64 ADD PUSH2 0xCA7 JUMP JUMPDEST PUSH1 0x2 SLOAD PUSH1 0x40 MLOAD PUSH4 0x70A08231 PUSH1 0xE0 SHL DUP2 MSTORE PUSH1 0x1 PUSH1 0x1 PUSH1 0xA0 SHL SUB DUP5 DUP2 AND PUSH1 0x4 DUP4 ADD MSTORE PUSH1 0x0 SWAP3 AND SWAP1 PUSH4 0x70A08231 SWAP1 PUSH1 0x24 ADD PUSH1 0x20 PUSH1 0x40 MLOAD DUP1 DUP4 SUB DUP2 DUP7 GAS STATICCALL ISZERO DUP1 ISZERO PUSH2 0x2121 JUMPI RETURNDATASIZE PUSH1 0x0 DUP1 RETURNDATACOPY RETURNDATASIZE PUSH1 0x0 REVERT JUMPDEST POP POP POP POP PUSH1 0x40 MLOAD RETURNDATASIZE PUSH1 0x1F NOT PUSH1 0x1F DUP3 ADD AND DUP3 ADD DUP1 PUSH1 0x40 MSTORE POP DUP2 ADD SWAP1 PUSH2 0x2145 SWAP2 SWAP1 PUSH2 0x2B96 JUMP JUMPDEST SWAP1 POP PUSH1 0x0 DUP2 GT DUP1 ISZERO PUSH2 0x2157 JUMPI POP DUP1 DUP5 GT ISZERO JUMPDEST PUSH2 0x219A JUMPI PUSH1 0x40 MLOAD PUSH3 0x461BCD PUSH1 0xE5 SHL DUP2 MSTORE PUSH1 0x20 PUSH1 0x4 DUP3 ADD MSTORE PUSH1 0x14 PUSH1 0x24 DUP3 ADD MSTORE PUSH20 0x496E73756666696369656E742042616C616E6365 PUSH1 0x60 SHL PUSH1 0x44 DUP3 ADD MSTORE PUSH1 0x64 ADD PUSH2 0xCA7 JUMP JUMPDEST PUSH1 0x0 PUSH2 0x21A4 PUSH2 0x1BF9 JUMP JUMPDEST SWAP1 POP PUSH1 0x0 PUSH2 0x21B0 PUSH2 0x1156 JUMP JUMPDEST SWAP1 POP PUSH1 0x0 PUSH2 0x21BD DUP8 PUSH2 0x2552 JUMP JUMPDEST SWAP1 POP PUSH2 0x21CB DUP7 DUP3 DUP5 DUP7 PUSH2 0x267A JUMP JUMPDEST SWAP8 SWAP7 POP POP POP POP POP POP POP JUMP JUMPDEST PUSH1 0x0 PUSH2 0x21E0 PUSH2 0x1BF9 JUMP JUMPDEST SWAP1 POP DUP2 DUP2 LT ISZERO PUSH2 0x2226 JUMPI PUSH1 0x40 MLOAD PUSH3 0x461BCD PUSH1 0xE5 SHL DUP2 MSTORE PUSH1 0x20 PUSH1 0x4 DUP3 ADD MSTORE PUSH1 0x11 PUSH1 0x24 DUP3 ADD MSTORE PUSH17 0x141C9A58D94810D85B9B9BDD0811985B1B PUSH1 0x7A SHL PUSH1 0x44 DUP3 ADD MSTORE PUSH1 0x64 ADD PUSH2 0xCA7 JUMP JUMPDEST PUSH1 0x3 SLOAD PUSH1 0x40 DUP1 MLOAD DUP5 DUP2 MSTORE PUSH1 0x20 DUP2 ADD DUP5 SWAP1 MSTORE SWAP1 DUP2 ADD SWAP2 SWAP1 SWAP2 MSTORE PUSH32 0x46AA811B2923FD55B4CA06375B4045117D4584C66FC40880A8AB8EE32D88ED1 SWAP1 PUSH1 0x60 ADD PUSH2 0x130C JUMP JUMPDEST PUSH1 0x0 DUP1 SLOAD PUSH1 0x1 PUSH1 0x1 PUSH1 0xA0 SHL SUB DUP4 DUP2 AND PUSH1 0x1 PUSH1 0x1 PUSH1 0xA0 SHL SUB NOT DUP4 AND DUP2 OR DUP5 SSTORE PUSH1 0x40 MLOAD SWAP2 SWAP1 SWAP3 AND SWAP3 DUP4 SWAP2 PUSH32 0x8BE0079C531659141344CD1FD0A4F28419497F9722A3DAAFE3B4186F6B6457E0 SWAP2 SWAP1 LOG3 POP POP JUMP JUMPDEST PUSH1 0x0 DUP1 DUP4 GT DUP1 ISZERO PUSH2 0x22E1 JUMPI POP PUSH1 0x1 PUSH1 0x1 PUSH1 0xA0 SHL SUB DUP5 AND PUSH1 0x0 SWAP1 DUP2 MSTORE PUSH1 0x4 PUSH1 0x20 MSTORE PUSH1 0x40 SWAP1 KECCAK256 SLOAD DUP4 GT ISZERO JUMPDEST PUSH2 0x22EA JUMPI PUSH1 0x0 DUP1 REVERT JUMPDEST PUSH1 0x1 PUSH1 0x1 PUSH1 0xA0 SHL SUB DUP5 AND ISZERO DUP1 ISZERO SWAP1 PUSH2 0x230A JUMPI POP PUSH1 0x1 PUSH1 0x1 PUSH1 0xA0 SHL SUB DUP3 AND ISZERO ISZERO JUMPDEST PUSH2 0x2313 JUMPI PUSH1 0x0 DUP1 REVERT JUMPDEST PUSH1 0x0 PUSH2 0x231D PUSH2 0x1BF9 JUMP JUMPDEST SWAP1 POP PUSH1 0x0 PUSH2 0x232A DUP7 PUSH2 0x1318 JUMP JUMPDEST SWAP1 POP PUSH1 0x0 PUSH2 0x233F PUSH3 0x186A0 PUSH2 0x1C20 DUP9 DUP6 PUSH2 0x24AA JUMP JUMPDEST SWAP1 POP PUSH1 0x0 PUSH2 0x234C DUP3 PUSH2 0x1DBA JUMP JUMPDEST CALLER PUSH1 0x0 SWAP1 DUP2 MSTORE PUSH1 0x6 PUSH1 0x20 MSTORE PUSH1 0x40 SWAP1 KECCAK256 SLOAD SWAP1 SWAP2 POP PUSH1 0xFF AND PUSH2 0x237F JUMPI PUSH1 0x0 PUSH2 0x2372 DUP9 DUP5 PUSH2 0x253A JUMP JUMPDEST SWAP1 POP PUSH2 0x237D DUP2 PUSH2 0x1C2E JUMP JUMPDEST POP JUMPDEST PUSH2 0x2389 DUP9 DUP9 PUSH2 0x1C83 JUMP JUMPDEST PUSH1 0x2 SLOAD PUSH1 0x40 MLOAD PUSH4 0xA9059CBB PUSH1 0xE0 SHL DUP2 MSTORE PUSH1 0x1 PUSH1 0x1 PUSH1 0xA0 SHL SUB DUP9 DUP2 AND PUSH1 0x4 DUP4 ADD MSTORE PUSH1 0x24 DUP3 ADD DUP5 SWAP1 MSTORE SWAP1 SWAP2 AND SWAP1 PUSH4 0xA9059CBB SWAP1 PUSH1 0x44 ADD PUSH1 0x20 PUSH1 0x40 MLOAD DUP1 DUP4 SUB DUP2 PUSH1 0x0 DUP8 GAS CALL ISZERO DUP1 ISZERO PUSH2 0x23DC JUMPI RETURNDATASIZE PUSH1 0x0 DUP1 RETURNDATACOPY RETURNDATASIZE PUSH1 0x0 REVERT JUMPDEST POP POP POP POP PUSH1 0x40 MLOAD RETURNDATASIZE PUSH1 0x1F NOT PUSH1 0x1F DUP3 ADD AND DUP3 ADD DUP1 PUSH1 0x40 MSTORE POP DUP2 ADD SWAP1 PUSH2 0x2400 SWAP2 SWAP1 PUSH2 0x2BAF JUMP JUMPDEST PUSH2 0x244C JUMPI PUSH1 0x40 MLOAD PUSH3 0x461BCD PUSH1 0xE5 SHL DUP2 MSTORE PUSH1 0x20 PUSH1 0x4 DUP3 ADD MSTORE PUSH1 0x1B PUSH1 0x24 DUP3 ADD MSTORE PUSH32 0x556E6465726C79696E67205472616E73666572204661696C7572650000000000 PUSH1 0x44 DUP3 ADD MSTORE PUSH1 0x64 ADD PUSH2 0xCA7 JUMP JUMPDEST PUSH2 0x2455 DUP5 PUSH2 0x21D6 JUMP JUMPDEST PUSH1 0x40 DUP1 MLOAD PUSH1 0x1 PUSH1 0x1 PUSH1 0xA0 SHL SUB DUP11 AND DUP2 MSTORE PUSH1 0x20 DUP2 ADD DUP10 SWAP1 MSTORE SWAP1 DUP2 ADD DUP3 SWAP1 MSTORE PUSH32 0xF3A670CD3AF7D64B488926880889D08A8585A138FF455227AF6737339A1EC262 SWAP1 PUSH1 0x60 ADD PUSH1 0x40 MLOAD DUP1 SWAP2 SUB SWAP1 LOG1 SWAP8 SWAP7 POP POP POP POP POP POP POP JUMP JUMPDEST PUSH1 0x0 PUSH2 0xE79 DUP3 DUP5 PUSH2 0x2CAB JUMP JUMPDEST PUSH1 0x0 PUSH2 0xE79 DUP3 DUP5 PUSH2 0x2CC2 JUMP JUMPDEST PUSH1 0x1 PUSH1 0x1 PUSH1 0xA0 SHL SUB DUP3 AND PUSH1 0x0 SWAP1 DUP2 MSTORE PUSH1 0x4 PUSH1 0x20 MSTORE PUSH1 0x40 SWAP1 KECCAK256 SLOAD PUSH2 0x24E5 SWAP1 DUP3 PUSH2 0x2546 JUMP JUMPDEST PUSH1 0x1 PUSH1 0x1 PUSH1 0xA0 SHL SUB DUP4 AND PUSH1 0x0 SWAP1 DUP2 MSTORE PUSH1 0x4 PUSH1 0x20 MSTORE PUSH1 0x40 SWAP1 KECCAK256 SSTORE PUSH1 0x3 SLOAD PUSH2 0x250B SWAP1 DUP3 PUSH2 0x2546 JUMP JUMPDEST PUSH1 0x3 SSTORE PUSH1 0x40 MLOAD DUP2 DUP2 MSTORE PUSH1 0x1 PUSH1 0x1 PUSH1 0xA0 SHL SUB DUP4 AND SWAP1 PUSH1 0x0 SWAP1 PUSH1 0x0 DUP1 MLOAD PUSH1 0x20 PUSH2 0x2CF8 DUP4 CODECOPY DUP2 MLOAD SWAP2 MSTORE SWAP1 PUSH1 0x20 ADD PUSH2 0x1D54 JUMP JUMPDEST PUSH1 0x0 PUSH2 0xE79 DUP3 DUP5 PUSH2 0x2CE4 JUMP JUMPDEST PUSH1 0x0 PUSH2 0xE79 DUP3 DUP5 PUSH2 0x2C11 JUMP JUMPDEST PUSH1 0x0 DUP1 PUSH2 0x255D PUSH2 0x1156 JUMP JUMPDEST PUSH1 0x2 SLOAD PUSH1 0x40 MLOAD PUSH4 0x23B872DD PUSH1 0xE0 SHL DUP2 MSTORE CALLER PUSH1 0x4 DUP3 ADD MSTORE ADDRESS PUSH1 0x24 DUP3 ADD MSTORE PUSH1 0x44 DUP2 ADD DUP7 SWAP1 MSTORE SWAP2 SWAP3 POP PUSH1 0x1 PUSH1 0x1 PUSH1 0xA0 SHL SUB AND SWAP1 PUSH4 0x23B872DD SWAP1 PUSH1 0x64 ADD PUSH1 0x20 PUSH1 0x40 MLOAD DUP1 DUP4 SUB DUP2 PUSH1 0x0 DUP8 GAS CALL ISZERO DUP1 ISZERO PUSH2 0x25B5 JUMPI RETURNDATASIZE PUSH1 0x0 DUP1 RETURNDATACOPY RETURNDATASIZE PUSH1 0x0 REVERT JUMPDEST POP POP POP POP PUSH1 0x40 MLOAD RETURNDATASIZE PUSH1 0x1F NOT PUSH1 0x1F DUP3 ADD AND DUP3 ADD DUP1 PUSH1 0x40 MSTORE POP DUP2 ADD SWAP1 PUSH2 0x25D9 SWAP2 SWAP1 PUSH2 0x2BAF JUMP JUMPDEST PUSH2 0x261D JUMPI PUSH1 0x40 MLOAD PUSH3 0x461BCD PUSH1 0xE5 SHL DUP2 MSTORE PUSH1 0x20 PUSH1 0x4 DUP3 ADD MSTORE PUSH1 0x15 PUSH1 0x24 DUP3 ADD MSTORE PUSH21 0x4661696C757265205472616E736665722046726F6D PUSH1 0x58 SHL PUSH1 0x44 DUP3 ADD MSTORE PUSH1 0x64 ADD PUSH2 0xCA7 JUMP JUMPDEST PUSH1 0x0 PUSH2 0x2627 PUSH2 0x1156 JUMP JUMPDEST SWAP1 POP DUP2 DUP2 GT PUSH2 0x2668 JUMPI PUSH1 0x40 MLOAD PUSH3 0x461BCD PUSH1 0xE5 SHL DUP2 MSTORE PUSH1 0x20 PUSH1 0x4 DUP3 ADD MSTORE PUSH1 0xD PUSH1 0x24 DUP3 ADD MSTORE PUSH13 0x16995C9BC8149958D95A5D9959 PUSH1 0x9A SHL PUSH1 0x44 DUP3 ADD MSTORE PUSH1 0x64 ADD PUSH2 0xCA7 JUMP JUMPDEST PUSH2 0x2672 DUP3 DUP3 PUSH2 0x2CE4 JUMP JUMPDEST SWAP5 SWAP4 POP POP POP POP JUMP JUMPDEST PUSH1 0x0 DUP1 PUSH1 0x3 SLOAD PUSH1 0x0 EQ PUSH2 0x26A5 JUMPI PUSH2 0x26A0 DUP5 PUSH2 0x1C20 DUP8 PUSH1 0x3 SLOAD PUSH2 0x24AA SWAP1 SWAP2 SWAP1 PUSH4 0xFFFFFFFF AND JUMP JUMPDEST PUSH2 0x26A7 JUMP JUMPDEST DUP5 JUMPDEST SWAP1 POP PUSH1 0x0 PUSH2 0x26B4 DUP8 PUSH2 0x1318 JUMP JUMPDEST SWAP1 POP PUSH1 0x0 PUSH2 0x26C9 PUSH3 0x186A0 PUSH2 0x1C20 DUP6 DUP6 PUSH2 0x24AA JUMP JUMPDEST SWAP1 POP PUSH1 0x0 DUP2 GT PUSH2 0x2709 JUMPI PUSH1 0x40 MLOAD PUSH3 0x461BCD PUSH1 0xE5 SHL DUP2 MSTORE PUSH1 0x20 PUSH1 0x4 DUP3 ADD MSTORE PUSH1 0xB PUSH1 0x24 DUP3 ADD MSTORE PUSH11 0x16995C9BC8105B5BDD5B9D PUSH1 0xAA SHL PUSH1 0x44 DUP3 ADD MSTORE PUSH1 0x64 ADD PUSH2 0xCA7 JUMP JUMPDEST PUSH2 0x2713 DUP9 DUP3 PUSH2 0x24C2 JUMP JUMPDEST PUSH1 0x1 PUSH1 0x1 PUSH1 0xA0 SHL SUB DUP9 AND PUSH1 0x0 SWAP1 DUP2 MSTORE PUSH1 0x6 PUSH1 0x20 MSTORE PUSH1 0x40 SWAP1 KECCAK256 SLOAD PUSH1 0xFF AND PUSH2 0x274C JUMPI PUSH1 0x0 PUSH2 0x273F DUP5 DUP4 PUSH2 0x253A JUMP JUMPDEST SWAP1 POP PUSH2 0x274A DUP2 PUSH2 0x1C2E JUMP JUMPDEST POP JUMPDEST PUSH2 0x2755 DUP6 PUSH2 0x21D6 JUMP JUMPDEST PUSH1 0x40 DUP1 MLOAD PUSH1 0x1 PUSH1 0x1 PUSH1 0xA0 SHL SUB DUP11 AND DUP2 MSTORE PUSH1 0x20 DUP2 ADD DUP4 SWAP1 MSTORE PUSH32 0x30385C845B448A36257A6A1716E6AD2E1BC2CBE333CDE1E69FE849AD6511ADFE SWAP2 ADD PUSH1 0x40 MLOAD DUP1 SWAP2 SUB SWAP1 LOG1 SWAP8 SWAP7 POP POP POP POP POP POP POP JUMP JUMPDEST PUSH1 0x0 PUSH1 0x20 DUP1 DUP4 MSTORE DUP4 MLOAD DUP1 DUP3 DUP6 ADD MSTORE PUSH1 0x0 JUMPDEST DUP2 DUP2 LT ISZERO PUSH2 0x27CF JUMPI DUP6 DUP2 ADD DUP4 ADD MLOAD DUP6 DUP3 ADD PUSH1 0x40 ADD MSTORE DUP3 ADD PUSH2 0x27B3 JUMP JUMPDEST POP PUSH1 0x0 PUSH1 0x40 DUP3 DUP7 ADD ADD MSTORE PUSH1 0x40 PUSH1 0x1F NOT PUSH1 0x1F DUP4 ADD AND DUP6 ADD ADD SWAP3 POP POP POP SWAP3 SWAP2 POP POP JUMP JUMPDEST PUSH1 0x1 PUSH1 0x1 PUSH1 0xA0 SHL SUB DUP2 AND DUP2 EQ PUSH2 0x1000 JUMPI PUSH1 0x0 DUP1 REVERT JUMPDEST PUSH1 0x0 DUP1 PUSH1 0x40 DUP4 DUP6 SUB SLT ISZERO PUSH2 0x2818 JUMPI PUSH1 0x0 DUP1 REVERT JUMPDEST DUP3 CALLDATALOAD PUSH2 0x2823 DUP2 PUSH2 0x27F0 JUMP JUMPDEST SWAP5 PUSH1 0x20 SWAP4 SWAP1 SWAP4 ADD CALLDATALOAD SWAP4 POP POP POP JUMP JUMPDEST PUSH1 0x0 PUSH1 0x20 DUP3 DUP5 SUB SLT ISZERO PUSH2 0x2843 JUMPI PUSH1 0x0 DUP1 REVERT JUMPDEST DUP2 CALLDATALOAD PUSH2 0xE79 DUP2 PUSH2 0x27F0 JUMP JUMPDEST PUSH1 0x0 DUP1 PUSH1 0x0 PUSH1 0x60 DUP5 DUP7 SUB SLT ISZERO PUSH2 0x2863 JUMPI PUSH1 0x0 DUP1 REVERT JUMPDEST DUP4 CALLDATALOAD PUSH2 0x286E DUP2 PUSH2 0x27F0 JUMP JUMPDEST SWAP3 POP PUSH1 0x20 DUP5 ADD CALLDATALOAD PUSH2 0x287E DUP2 PUSH2 0x27F0 JUMP JUMPDEST SWAP3 SWAP6 SWAP3 SWAP5 POP POP POP PUSH1 0x40 SWAP2 SWAP1 SWAP2 ADD CALLDATALOAD SWAP1 JUMP JUMPDEST PUSH1 0x0 PUSH1 0x20 DUP3 DUP5 SUB SLT ISZERO PUSH2 0x28A1 JUMPI PUSH1 0x0 DUP1 REVERT JUMPDEST POP CALLDATALOAD SWAP2 SWAP1 POP JUMP JUMPDEST PUSH4 0x4E487B71 PUSH1 0xE0 SHL PUSH1 0x0 MSTORE PUSH1 0x41 PUSH1 0x4 MSTORE PUSH1 0x24 PUSH1 0x0 REVERT JUMPDEST PUSH1 0x40 MLOAD PUSH1 0x1F DUP3 ADD PUSH1 0x1F NOT AND DUP2 ADD PUSH8 0xFFFFFFFFFFFFFFFF DUP2 GT DUP3 DUP3 LT OR ISZERO PUSH2 0x28E7 JUMPI PUSH2 0x28E7 PUSH2 0x28A8 JUMP JUMPDEST PUSH1 0x40 MSTORE SWAP2 SWAP1 POP JUMP JUMPDEST PUSH1 0x0 PUSH8 0xFFFFFFFFFFFFFFFF DUP3 GT ISZERO PUSH2 0x2909 JUMPI PUSH2 0x2909 PUSH2 0x28A8 JUMP JUMPDEST POP PUSH1 0x5 SHL PUSH1 0x20 ADD SWAP1 JUMP JUMPDEST PUSH1 0x0 DUP3 PUSH1 0x1F DUP4 ADD SLT PUSH2 0x2924 JUMPI PUSH1 0x0 DUP1 REVERT JUMPDEST DUP2 CALLDATALOAD PUSH1 0x20 PUSH2 0x2939 PUSH2 0x2934 DUP4 PUSH2 0x28EF JUMP JUMPDEST PUSH2 0x28BE JUMP JUMPDEST DUP3 DUP2 MSTORE PUSH1 0x5 SWAP3 SWAP1 SWAP3 SHL DUP5 ADD DUP2 ADD SWAP2 DUP2 DUP2 ADD SWAP1 DUP7 DUP5 GT ISZERO PUSH2 0x2958 JUMPI PUSH1 0x0 DUP1 REVERT JUMPDEST DUP3 DUP7 ADD JUMPDEST DUP5 DUP2 LT ISZERO PUSH2 0x297C JUMPI DUP1 CALLDATALOAD PUSH2 0x296F DUP2 PUSH2 0x27F0 JUMP JUMPDEST DUP4 MSTORE SWAP2 DUP4 ADD SWAP2 DUP4 ADD PUSH2 0x295C JUMP JUMPDEST POP SWAP7 SWAP6 POP POP POP POP POP POP JUMP JUMPDEST PUSH1 0x0 DUP1 PUSH1 0x40 DUP4 DUP6 SUB SLT ISZERO PUSH2 0x299A JUMPI PUSH1 0x0 DUP1 REVERT JUMPDEST DUP3 CALLDATALOAD PUSH8 0xFFFFFFFFFFFFFFFF DUP1 DUP3 GT ISZERO PUSH2 0x29B2 JUMPI PUSH1 0x0 DUP1 REVERT JUMPDEST PUSH2 0x29BE DUP7 DUP4 DUP8 ADD PUSH2 0x2913 JUMP JUMPDEST SWAP4 POP PUSH1 0x20 SWAP2 POP DUP2 DUP6 ADD CALLDATALOAD DUP2 DUP2 GT ISZERO PUSH2 0x29D5 JUMPI PUSH1 0x0 DUP1 REVERT JUMPDEST DUP6 ADD SWAP1 POP PUSH1 0x1F DUP2 ADD DUP7 SGT PUSH2 0x29E8 JUMPI PUSH1 0x0 DUP1 REVERT JUMPDEST DUP1 CALLDATALOAD PUSH2 0x29F6 PUSH2 0x2934 DUP3 PUSH2 0x28EF JUMP JUMPDEST DUP2 DUP2 MSTORE PUSH1 0x5 SWAP2 SWAP1 SWAP2 SHL DUP3 ADD DUP4 ADD SWAP1 DUP4 DUP2 ADD SWAP1 DUP9 DUP4 GT ISZERO PUSH2 0x2A15 JUMPI PUSH1 0x0 DUP1 REVERT JUMPDEST SWAP3 DUP5 ADD SWAP3 JUMPDEST DUP3 DUP5 LT ISZERO PUSH2 0x2A33 JUMPI DUP4 CALLDATALOAD DUP3 MSTORE SWAP3 DUP5 ADD SWAP3 SWAP1 DUP5 ADD SWAP1 PUSH2 0x2A1A JUMP JUMPDEST DUP1 SWAP6 POP POP POP POP POP POP SWAP3 POP SWAP3 SWAP1 POP JUMP JUMPDEST PUSH1 0x0 DUP1 PUSH1 0x0 DUP1 PUSH1 0x80 DUP6 DUP8 SUB SLT ISZERO PUSH2 0x2A58 JUMPI PUSH1 0x0 DUP1 REVERT JUMPDEST POP POP DUP3 CALLDATALOAD SWAP5 PUSH1 0x20 DUP5 ADD CALLDATALOAD SWAP5 POP PUSH1 0x40 DUP5 ADD CALLDATALOAD SWAP4 PUSH1 0x60 ADD CALLDATALOAD SWAP3 POP SWAP1 POP JUMP JUMPDEST DUP1 ISZERO ISZERO DUP2 EQ PUSH2 0x1000 JUMPI PUSH1 0x0 DUP1 REVERT JUMPDEST PUSH1 0x0 DUP1 PUSH1 0x40 DUP4 DUP6 SUB SLT ISZERO PUSH2 0x2A95 JUMPI PUSH1 0x0 DUP1 REVERT JUMPDEST DUP3 CALLDATALOAD PUSH2 0x2AA0 DUP2 PUSH2 0x27F0 JUMP JUMPDEST SWAP2 POP PUSH1 0x20 DUP4 ADD CALLDATALOAD PUSH2 0x2AB0 DUP2 PUSH2 0x2A74 JUMP JUMPDEST DUP1 SWAP2 POP POP SWAP3 POP SWAP3 SWAP1 POP JUMP JUMPDEST PUSH1 0x0 PUSH1 0x20 DUP3 DUP5 SUB SLT ISZERO PUSH2 0x2ACD JUMPI PUSH1 0x0 DUP1 REVERT JUMPDEST DUP2 CALLDATALOAD PUSH2 0xE79 DUP2 PUSH2 0x2A74 JUMP JUMPDEST PUSH1 0x0 DUP1 PUSH1 0x40 DUP4 DUP6 SUB SLT ISZERO PUSH2 0x2AEB JUMPI PUSH1 0x0 DUP1 REVERT JUMPDEST DUP3 CALLDATALOAD PUSH2 0x2AF6 DUP2 PUSH2 0x27F0 JUMP JUMPDEST SWAP2 POP PUSH1 0x20 DUP4 ADD CALLDATALOAD PUSH2 0x2AB0 DUP2 PUSH2 0x27F0 JUMP JUMPDEST PUSH1 0x0 DUP1 PUSH1 0x40 DUP4 DUP6 SUB SLT ISZERO PUSH2 0x2B19 JUMPI PUSH1 0x0 DUP1 REVERT JUMPDEST DUP3 CALLDATALOAD PUSH8 0xFFFFFFFFFFFFFFFF DUP2 GT ISZERO PUSH2 0x2B30 JUMPI PUSH1 0x0 DUP1 REVERT JUMPDEST PUSH2 0x2B3C DUP6 DUP3 DUP7 ADD PUSH2 0x2913 JUMP JUMPDEST SWAP6 PUSH1 0x20 SWAP5 SWAP1 SWAP5 ADD CALLDATALOAD SWAP5 POP POP POP POP JUMP JUMPDEST PUSH1 0x0 DUP1 PUSH1 0x40 DUP4 DUP6 SUB SLT ISZERO PUSH2 0x2B5E JUMPI PUSH1 0x0 DUP1 REVERT JUMPDEST DUP3 CALLDATALOAD SWAP2 POP PUSH1 0x20 DUP4 ADD CALLDATALOAD PUSH2 0x2AB0 DUP2 PUSH2 0x27F0 JUMP JUMPDEST PUSH1 0x20 DUP1 DUP3 MSTORE PUSH1 0xC SWAP1 DUP3 ADD MSTORE PUSH12 0x5A65726F2041646472657373 PUSH1 0xA0 SHL PUSH1 0x40 DUP3 ADD MSTORE PUSH1 0x60 ADD SWAP1 JUMP JUMPDEST PUSH1 0x0 PUSH1 0x20 DUP3 DUP5 SUB SLT ISZERO PUSH2 0x2BA8 JUMPI PUSH1 0x0 DUP1 REVERT JUMPDEST POP MLOAD SWAP2 SWAP1 POP JUMP JUMPDEST PUSH1 0x0 PUSH1 0x20 DUP3 DUP5 SUB SLT ISZERO PUSH2 0x2BC1 JUMPI PUSH1 0x0 DUP1 REVERT JUMPDEST DUP2 MLOAD PUSH2 0xE79 DUP2 PUSH2 0x2A74 JUMP JUMPDEST PUSH4 0x4E487B71 PUSH1 0xE0 SHL PUSH1 0x0 MSTORE PUSH1 0x32 PUSH1 0x4 MSTORE PUSH1 0x24 PUSH1 0x0 REVERT JUMPDEST PUSH4 0x4E487B71 PUSH1 0xE0 SHL PUSH1 0x0 MSTORE PUSH1 0x11 PUSH1 0x4 MSTORE PUSH1 0x24 PUSH1 0x0 REVERT JUMPDEST PUSH1 0x0 PUSH1 0x1 DUP3 ADD PUSH2 0x2C0A JUMPI PUSH2 0x2C0A PUSH2 0x2BE2 JUMP JUMPDEST POP PUSH1 0x1 ADD SWAP1 JUMP JUMPDEST DUP1 DUP3 ADD DUP1 DUP3 GT ISZERO PUSH2 0xC3F JUMPI PUSH2 0xC3F PUSH2 0x2BE2 JUMP JUMPDEST PUSH1 0x20 DUP1 DUP3 MSTORE PUSH1 0x23 SWAP1 DUP3 ADD MSTORE PUSH32 0x4D757374207365742074686520756E6465726C79696E6720746F6B656E206669 PUSH1 0x40 DUP3 ADD MSTORE PUSH3 0x1C9CDD PUSH1 0xEA SHL PUSH1 0x60 DUP3 ADD MSTORE PUSH1 0x80 ADD SWAP1 JUMP JUMPDEST PUSH1 0x20 DUP1 DUP3 MSTORE PUSH1 0x24 SWAP1 DUP3 ADD MSTORE PUSH32 0x4D757374207365742074686520666565526563656976657220746F6B656E2066 PUSH1 0x40 DUP3 ADD MSTORE PUSH4 0x1A5C9CDD PUSH1 0xE2 SHL PUSH1 0x60 DUP3 ADD MSTORE PUSH1 0x80 ADD SWAP1 JUMP JUMPDEST DUP1 DUP3 MUL DUP2 ISZERO DUP3 DUP3 DIV DUP5 EQ OR PUSH2 0xC3F JUMPI PUSH2 0xC3F PUSH2 0x2BE2 JUMP JUMPDEST PUSH1 0x0 DUP3 PUSH2 0x2CDF JUMPI PUSH4 0x4E487B71 PUSH1 0xE0 SHL PUSH1 0x0 MSTORE PUSH1 0x12 PUSH1 0x4 MSTORE PUSH1 0x24 PUSH1 0x0 REVERT JUMPDEST POP DIV SWAP1 JUMP JUMPDEST DUP2 DUP2 SUB DUP2 DUP2 GT ISZERO PUSH2 0xC3F JUMPI PUSH2 0xC3F PUSH2 0x2BE2 JUMP INVALID 0xDD CALLCODE MSTORE 0xAD SHL 0xE2 0xC8 SWAP12 PUSH10 0xC2B068FC378DAA952BA7 CALL PUSH4 0xC4A11628 CREATE2 GAS 0x4D CREATE2 0x23 0xB3 0xEF LOG2 PUSH5 0x6970667358 0x22 SLT KECCAK256 0x49 SWAP16 0xAB 0xD8 CALLDATACOPY ADD STOP XOR ADDMOD SWAP13 PUSH12 0x36D78D18D97D091529AE0503 BASEFEE BALANCE 0x5E 0xD9 XOR 0x2E 0xC4 BYTE 0xEC PUSH5 0x736F6C6343 STOP ADDMOD EQ STOP CALLER "},"methodIdentifiers":{"activateToken(bool)":"c2b1d734","allowance(address,address)":"dd62ed3e","approve(address,uint256)":"095ea7b3","balanceOf(address)":"70a08231","burn(uint256)":"42966c68","calculatePrice()":"d348b409","contractFee()":"d41977cd","contracts(address)":"69dc9ff3","customFee(address)":"4d419abc","decimals()":"313ce567","determineFeeForAddress(address)":"8fe67256","feeReceiver()":"b3f00674","feeReceiverPercentage()":"a56c4ced","getValueOfHoldings(address)":"1f02a29c","hasCustomFee(address)":"721eaecd","isApprovedCaller(address)":"91309118","isCurrentContractFeeExempt(address)":"ccc8d877","isReadyForTrdContracts(address)":"67392e48","isTransferFeeExempt(address)":"549b4729","mintFee()":"13966db5","mintWithBacking(uint256)":"3f5f1825","name()":"06fdde03","non_holder()":"132620fe","owner()":"8da5cb5b","preSaleAmount(address)":"113c2ba3","presaleOpen()":"bee6348a","presaleToggle(bool)":"d90b03b7","removeCustomFee(address)":"eaeaddee","renounceOwnership()":"715018a6","saltVaultBulls()":"6e7cf03f","sell(uint256)":"e4849b32","sellDownExternalAccount(address)":"f1e4bb6c","sellFee()":"2b14ca56","sellTo(uint256,address)":"f542c867","setApprovedCallerRole(address,bool)":"c4b5b06a","setContract(address,bool)":"e8cacd72","setCustomFee(address[],uint256[])":"4b719b47","setFeeReceiver(address)":"efdcd974","setFeeReceiverPercentage(uint256)":"cea9e192","setFees(uint256,uint256,uint256,uint256)":"6fcba377","setPresaleAmountBulk(address[],uint256)":"ea991ce2","setPresaleAmountFromApprovedCaller(address,uint256)":"aaffb0a5","setSaltVaultBullsAddress(address)":"cf8f0d06","setTransferFeeExempt(address,bool)":"7dfcabd9","setUnderlyingToken(address)":"2b4a6c51","symbol()":"95d89b41","tokenActivated()":"55445017","totalSupply()":"18160ddd","transfer(address,uint256)":"a9059cbb","transferFee()":"acb2ad6f","transferFrom(address,address,uint256)":"23b872dd","transferOwnership(address)":"f2fde38b","underlying()":"6f307dc3","underlyingBalance()":"59356c5c","withdrawNonStableToken(address)":"1aa5a82d"}}}}}