{
  "_format": "hh-sol-artifact-1",
  "contractName": "ERC721ReceiverMockCustomError",
  "sourceName": "contracts/test/ERC721ReceiverMockCustomError.sol",
  "abi": [
    {
      "inputs": [
        {
          "internalType": "bytes4",
          "name": "retval",
          "type": "bytes4"
        },
        {
          "internalType": "bool",
          "name": "reverts",
          "type": "bool"
        }
      ],
      "stateMutability": "nonpayable",
      "type": "constructor"
    },
    {
      "inputs": [],
      "name": "ERC721ReceiverMockRevert",
      "type": "error"
    },
    {
      "anonymous": false,
      "inputs": [
        {
          "indexed": false,
          "internalType": "address",
          "name": "operator",
          "type": "address"
        },
        {
          "indexed": false,
          "internalType": "address",
          "name": "from",
          "type": "address"
        },
        {
          "indexed": false,
          "internalType": "uint256",
          "name": "tokenId",
          "type": "uint256"
        },
        {
          "indexed": false,
          "internalType": "bytes",
          "name": "data",
          "type": "bytes"
        },
        {
          "indexed": false,
          "internalType": "uint256",
          "name": "gas",
          "type": "uint256"
        }
      ],
      "name": "Received",
      "type": "event"
    },
    {
      "inputs": [
        {
          "internalType": "address",
          "name": "operator",
          "type": "address"
        },
        {
          "internalType": "address",
          "name": "from",
          "type": "address"
        },
        {
          "internalType": "uint256",
          "name": "tokenId",
          "type": "uint256"
        },
        {
          "internalType": "bytes",
          "name": "data",
          "type": "bytes"
        }
      ],
      "name": "onERC721Received",
      "outputs": [
        {
          "internalType": "bytes4",
          "name": "",
          "type": "bytes4"
        }
      ],
      "stateMutability": "nonpayable",
      "type": "function"
    }
  ],
  "bytecode": "0x608060405234801561001057600080fd5b5060405161034b38038061034b83398101604081905261002f91610059565b600080549115156401000000000264ffffffffff1990921660e09390931c929092171790556100a5565b6000806040838503121561006c57600080fd5b82516001600160e01b03198116811461008457600080fd5b6020840151909250801515811461009a57600080fd5b809150509250929050565b610297806100b46000396000f3fe608060405234801561001057600080fd5b506004361061002b5760003560e01c8063150b7a0214610030575b600080fd5b61004361003e36600461010d565b610060565b6040516001600160e01b0319909116815260200160405180910390f35b60008054640100000000900460ff161561008d5760405163b58de7f160e01b815260040160405180910390fd5b7f28fa6e16458f9c24aa59ddd4085264573006dbe30304837873c7deafc702b038858585855a6040516100c49594939291906101e9565b60405180910390a15060005460e01b949350505050565b80356001600160a01b03811681146100f257600080fd5b919050565b634e487b7160e01b600052604160045260246000fd5b6000806000806080858703121561012357600080fd5b61012c856100db565b935061013a602086016100db565b925060408501359150606085013567ffffffffffffffff8082111561015e57600080fd5b818701915087601f83011261017257600080fd5b813581811115610184576101846100f7565b604051601f8201601f19908116603f011681019083821181831017156101ac576101ac6100f7565b816040528281528a60208487010111156101c557600080fd5b82602086016020830137600060208483010152809550505050505092959194509250565b600060018060a01b03808816835260208188168185015286604085015260a06060850152855191508160a085015260005b828110156102365786810182015185820160c00152810161021a565b5050600060c0828501015260c0601f19601f830116840101915050826080830152969550505050505056fea2646970667358221220324ab256886f55188d1e30d7dfac5ef86b6339baf62c78438b60c7fdab1398ec64736f6c63430008140033",
  "linkReferences": {},
  "deployedLinkReferences": {}
}