{
  "_format": "hh-sol-artifact-1",
  "contractName": "VaultCouncilFacet",
  "sourceName": "contracts/facets/VaultCouncilFacet.sol",
  "abi": [
    {
      "inputs": [
        {
          "internalType": "address",
          "name": "token",
          "type": "address"
        }
      ],
      "name": "SafeERC20FailedOperation",
      "type": "error"
    },
    {
      "inputs": [
        {
          "internalType": "uint256",
          "name": "profitAmount",
          "type": "uint256"
        }
      ],
      "name": "depositRewardsForVaultCouncil",
      "outputs": [],
      "stateMutability": "nonpayable",
      "type": "function"
    },
    {
      "inputs": [
        {
          "internalType": "uint256",
          "name": "amount",
          "type": "uint256"
        }
      ],
      "name": "distributeProfitsToCouncil",
      "outputs": [],
      "stateMutability": "nonpayable",
      "type": "function"
    }
  ],
  "bytecode": "0x608060405234801561001057600080fd5b50610643806100206000396000f3fe608060405234801561001057600080fd5b50600436106100365760003560e01c8063a39f5b801461003b578063e83a208414610050575b600080fd5b61004e6100493660046104d2565b610063565b005b61004e61005e3660046104d2565b61015f565b61006b6101ae565b603d5460009061007b9083610501565b905060005b603d5481101561011a57600080603d0182815481106100a1576100a1610523565b6000918252602080832090910154601e546001600160a01b03908116845260588352604080852083865284528085205490911680855260079093528320805491945091928692916100f3908490610539565b909155506101039050848661054c565b9450505080806101129061055f565b915050610080565b5081156101565781600060080160008282546101369190610539565b909155505060408054839190600090610150908490610539565b90915550505b50506000600b55565b600054610177906001600160a01b031633308461023c565b806000600b01600082825461018c9190610539565b9091555050604080548291906000906101a6908490610539565b909155505050565b7fc8fcad8db84d3cc18b4c41d551ea0ee66dd599cde068d998e57d5e09332c131c600401546001600160a01b0316331461023a5760405162461bcd60e51b815260206004820152602260248201527f4c69624469616d6f6e643a204d75737420626520636f6e7472616374206f776e60448201526132b960f11b60648201526084015b60405180910390fd5b565b604080516001600160a01b0385811660248301528416604482015260648082018490528251808303909101815260849091019091526020810180516001600160e01b03166323b872dd60e01b17905261029690859061029c565b50505050565b60006102b16001600160a01b03841683610304565b905080516000141580156102d65750808060200190518101906102d49190610578565b155b156102ff57604051635274afe760e01b81526001600160a01b0384166004820152602401610231565b505050565b606061034683836040518060400160405280601e81526020017f416464726573733a206c6f772d6c6576656c2063616c6c206661696c6564000081525061034f565b90505b92915050565b606061035e8484600085610368565b90505b9392505050565b6060824710156103c95760405162461bcd60e51b815260206004820152602660248201527f416464726573733a20696e73756666696369656e742062616c616e636520666f6044820152651c8818d85b1b60d21b6064820152608401610231565b6001600160a01b0385163b6104205760405162461bcd60e51b815260206004820152601d60248201527f416464726573733a2063616c6c20746f206e6f6e2d636f6e74726163740000006044820152606401610231565b600080866001600160a01b0316858760405161043c91906105be565b60006040518083038185875af1925050503d8060008114610479576040519150601f19603f3d011682016040523d82523d6000602084013e61047e565b606091505b509150915061048e828286610499565b979650505050505050565b606083156104a8575081610361565b8251156104b85782518084602001fd5b8160405162461bcd60e51b815260040161023191906105da565b6000602082840312156104e457600080fd5b5035919050565b634e487b7160e01b600052601160045260246000fd5b60008261051e57634e487b7160e01b600052601260045260246000fd5b500490565b634e487b7160e01b600052603260045260246000fd5b80820180821115610349576103496104eb565b81810381811115610349576103496104eb565b600060018201610571576105716104eb565b5060010190565b60006020828403121561058a57600080fd5b8151801515811461036157600080fd5b60005b838110156105b557818101518382015260200161059d565b50506000910152565b600082516105d081846020870161059a565b9190910192915050565b60208152600082518060208401526105f981604085016020870161059a565b601f01601f1916919091016040019291505056fea264697066735822122041af0e0e19cc69da1db096e9983e03d3d75ec234f5c69c6fb1bd61bbf227d01464736f6c63430008140033",
  "linkReferences": {},
  "deployedLinkReferences": {}
}