{
  "_format": "hh-sol-artifact-1",
  "contractName": "SaltRepositoryFacet",
  "sourceName": "contracts/facets/SaltRepositoryFacet.sol",
  "abi": [
    {
      "inputs": [
        {
          "internalType": "address",
          "name": "token",
          "type": "address"
        }
      ],
      "name": "SafeERC20FailedOperation",
      "type": "error"
    },
    {
      "anonymous": false,
      "inputs": [
        {
          "indexed": true,
          "internalType": "uint256",
          "name": "nftTokenId",
          "type": "uint256"
        },
        {
          "indexed": false,
          "internalType": "uint256",
          "name": "grains",
          "type": "uint256"
        },
        {
          "indexed": false,
          "internalType": "uint256",
          "name": "pillars",
          "type": "uint256"
        },
        {
          "indexed": false,
          "internalType": "uint256",
          "name": "sheets",
          "type": "uint256"
        },
        {
          "indexed": false,
          "internalType": "uint256",
          "name": "cubes",
          "type": "uint256"
        },
        {
          "indexed": false,
          "internalType": "uint256",
          "name": "totalCost",
          "type": "uint256"
        }
      ],
      "name": "SaltGrainsPurchased",
      "type": "event"
    },
    {
      "inputs": [
        {
          "internalType": "uint256[4]",
          "name": "amounts",
          "type": "uint256[4]"
        }
      ],
      "name": "getSaltGrainPurchasePrice",
      "outputs": [
        {
          "internalType": "uint256",
          "name": "",
          "type": "uint256"
        }
      ],
      "stateMutability": "view",
      "type": "function"
    },
    {
      "inputs": [
        {
          "internalType": "uint256",
          "name": "nftTokenId",
          "type": "uint256"
        },
        {
          "internalType": "uint256[4]",
          "name": "amounts",
          "type": "uint256[4]"
        }
      ],
      "name": "purchaseSaltGrains",
      "outputs": [],
      "stateMutability": "nonpayable",
      "type": "function"
    }
  ],
  "bytecode": "0x608060405234801561001057600080fd5b506108b4806100206000396000f3fe608060405234801561001057600080fd5b50600436106100365760003560e01c806343c744761461003b578063872736bf14610050575b600080fd5b61004e61004936600461073e565b610075565b005b61006361005e36600461076b565b6103af565b60405190815260200160405180910390f35b600f546001036100cc5760405162461bcd60e51b815260206004820152601960248201527f5265656e7472616e637920666c6167207472696767657265640000000000000060448201526064015b60405180910390fd5b6001600f55601e546001600160a01b0390811660009081526058602090815260408083208684529091529020541633146101485760405162461bcd60e51b815260206004820152601860248201527f596f7520646f206e6f74206f776e20746869732042756c6c000000000000000060448201526064016100c3565b610151816103af565b6000036101ac5760405162461bcd60e51b8152602060048201526024808201527f53616c7420636f756e7420746f2070757263686173652063616e2774206265206044820152637a65726f60e01b60648201526084016100c3565b8051602082015160408301516060840151603254600094939291906101d1908561079d565b6101db90866107b4565b6033549095506101eb908461079d565b6101f590866107b4565b603454909550610205908361079d565b61020f90866107b4565b60355490955061021f908261079d565b61022990866107b4565b600054909550610244906001600160a01b031633308861042e565b6000878152602080526040812060010180548692906102649084906107b4565b90915550506000878152602080526040812060020180548592906102899084906107b4565b90915550506000878152602080526040812060030180548492906102ae9084906107b4565b90915550506000878152602080526040812060040180548392906102d39084906107b4565b90915550606490506102e686600a61079d565b6102f091906107c7565b600880546000906103029084906107b4565b909155506064905061031586605a61079d565b61031f91906107c7565b600955606461032f86605a61079d565b61033991906107c7565b603f805460009061034b9084906107b4565b90915550506040805185815260208101859052908101839052606081018290526080810186905287907f9b2445360f835e5bd93b4aba736757467eedfd30b4c938e9b739da928f99f3fc9060a00160405180910390a250506000600f555050505050565b603254815160009182916103c3919061079d565b6103cd90826107b4565b60335460208501519192506103e19161079d565b6103eb90826107b4565b60345460408501519192506103ff9161079d565b61040990826107b4565b603554606085015191925061041d9161079d565b61042790826107b4565b9392505050565b604080516001600160a01b0385811660248301528416604482015260648082018490528251808303909101815260849091019091526020810180516001600160e01b03166323b872dd60e01b17905261048890859061048e565b50505050565b60006104a36001600160a01b038416836104f6565b905080516000141580156104c85750808060200190518101906104c691906107e9565b155b156104f157604051635274afe760e01b81526001600160a01b03841660048201526024016100c3565b505050565b606061053883836040518060400160405280601e81526020017f416464726573733a206c6f772d6c6576656c2063616c6c206661696c65640000815250610541565b90505b92915050565b60606105508484600085610558565b949350505050565b6060824710156105b95760405162461bcd60e51b815260206004820152602660248201527f416464726573733a20696e73756666696369656e742062616c616e636520666f6044820152651c8818d85b1b60d21b60648201526084016100c3565b6001600160a01b0385163b6106105760405162461bcd60e51b815260206004820152601d60248201527f416464726573733a2063616c6c20746f206e6f6e2d636f6e747261637400000060448201526064016100c3565b600080866001600160a01b0316858760405161062c919061082f565b60006040518083038185875af1925050503d8060008114610669576040519150601f19603f3d011682016040523d82523d6000602084013e61066e565b606091505b509150915061067e828286610689565b979650505050505050565b60608315610698575081610427565b8251156106a85782518084602001fd5b8160405162461bcd60e51b81526004016100c3919061084b565b600082601f8301126106d357600080fd5b6040516080810181811067ffffffffffffffff8211171561070457634e487b7160e01b600052604160045260246000fd5b60405280608084018581111561071957600080fd5b845b8181101561073357803583526020928301920161071b565b509195945050505050565b60008060a0838503121561075157600080fd5b8235915061076284602085016106c2565b90509250929050565b60006080828403121561077d57600080fd5b61053883836106c2565b634e487b7160e01b600052601160045260246000fd5b808202811582820484141761053b5761053b610787565b8082018082111561053b5761053b610787565b6000826107e457634e487b7160e01b600052601260045260246000fd5b500490565b6000602082840312156107fb57600080fd5b8151801515811461042757600080fd5b60005b8381101561082657818101518382015260200161080e565b50506000910152565b6000825161084181846020870161080b565b9190910192915050565b602081526000825180602084015261086a81604085016020870161080b565b601f01601f1916919091016040019291505056fea26469706673582212209aad2c258d5ecf9523a7c84631b1a5152d0b8bc4b2190e6da79a3237b29bba0f64736f6c63430008140033",
  "linkReferences": {},
  "deployedLinkReferences": {}
}