{
  "_format": "hh-sol-artifact-1",
  "contractName": "SVB_GemTokens",
  "sourceName": "contracts/ExternalContracts/SVB_GemTokens.sol",
  "abi": [
    {
      "inputs": [
        {
          "internalType": "address",
          "name": "_diamondAddress",
          "type": "address"
        }
      ],
      "stateMutability": "nonpayable",
      "type": "constructor"
    },
    {
      "anonymous": false,
      "inputs": [
        {
          "indexed": true,
          "internalType": "address",
          "name": "owner",
          "type": "address"
        },
        {
          "indexed": true,
          "internalType": "address",
          "name": "approved",
          "type": "address"
        },
        {
          "indexed": true,
          "internalType": "uint256",
          "name": "tokenId",
          "type": "uint256"
        }
      ],
      "name": "Approval",
      "type": "event"
    },
    {
      "anonymous": false,
      "inputs": [
        {
          "indexed": true,
          "internalType": "address",
          "name": "owner",
          "type": "address"
        },
        {
          "indexed": true,
          "internalType": "address",
          "name": "operator",
          "type": "address"
        },
        {
          "indexed": false,
          "internalType": "bool",
          "name": "approved",
          "type": "bool"
        }
      ],
      "name": "ApprovalForAll",
      "type": "event"
    },
    {
      "anonymous": false,
      "inputs": [
        {
          "indexed": true,
          "internalType": "address",
          "name": "previousOwner",
          "type": "address"
        },
        {
          "indexed": true,
          "internalType": "address",
          "name": "newOwner",
          "type": "address"
        }
      ],
      "name": "OwnershipTransferred",
      "type": "event"
    },
    {
      "anonymous": false,
      "inputs": [
        {
          "indexed": true,
          "internalType": "address",
          "name": "from",
          "type": "address"
        },
        {
          "indexed": true,
          "internalType": "address",
          "name": "to",
          "type": "address"
        },
        {
          "indexed": true,
          "internalType": "uint256",
          "name": "tokenId",
          "type": "uint256"
        }
      ],
      "name": "Transfer",
      "type": "event"
    },
    {
      "inputs": [
        {
          "internalType": "address",
          "name": "to",
          "type": "address"
        },
        {
          "internalType": "uint256",
          "name": "tokenId",
          "type": "uint256"
        }
      ],
      "name": "approve",
      "outputs": [],
      "stateMutability": "nonpayable",
      "type": "function"
    },
    {
      "inputs": [
        {
          "internalType": "address",
          "name": "_owner",
          "type": "address"
        }
      ],
      "name": "balanceOf",
      "outputs": [
        {
          "internalType": "uint256",
          "name": "",
          "type": "uint256"
        }
      ],
      "stateMutability": "view",
      "type": "function"
    },
    {
      "inputs": [
        {
          "internalType": "uint256",
          "name": "_quantity",
          "type": "uint256"
        }
      ],
      "name": "checkClaimEligibility",
      "outputs": [
        {
          "internalType": "string",
          "name": "",
          "type": "string"
        }
      ],
      "stateMutability": "view",
      "type": "function"
    },
    {
      "inputs": [],
      "name": "diamondAddress",
      "outputs": [
        {
          "internalType": "address",
          "name": "",
          "type": "address"
        }
      ],
      "stateMutability": "view",
      "type": "function"
    },
    {
      "inputs": [],
      "name": "getApprovalHistory",
      "outputs": [
        {
          "components": [
            {
              "internalType": "uint256",
              "name": "tokenId",
              "type": "uint256"
            },
            {
              "internalType": "address",
              "name": "approved",
              "type": "address"
            },
            {
              "internalType": "uint256",
              "name": "timestamp",
              "type": "uint256"
            },
            {
              "internalType": "bool",
              "name": "isApprovalActive",
              "type": "bool"
            }
          ],
          "internalType": "struct LibSharedStructs.IndividualApprovalRecord[]",
          "name": "individualApprovals",
          "type": "tuple[]"
        },
        {
          "components": [
            {
              "internalType": "address",
              "name": "operator",
              "type": "address"
            },
            {
              "internalType": "uint256",
              "name": "timestamp",
              "type": "uint256"
            },
            {
              "internalType": "bool",
              "name": "isApprovalActive",
              "type": "bool"
            }
          ],
          "internalType": "struct LibSharedStructs.OperatorApprovalRecord[]",
          "name": "operatorApprovals",
          "type": "tuple[]"
        }
      ],
      "stateMutability": "view",
      "type": "function"
    },
    {
      "inputs": [
        {
          "internalType": "uint256",
          "name": "tokenId",
          "type": "uint256"
        }
      ],
      "name": "getApproved",
      "outputs": [
        {
          "internalType": "address",
          "name": "",
          "type": "address"
        }
      ],
      "stateMutability": "view",
      "type": "function"
    },
    {
      "inputs": [],
      "name": "getAvailableFreeGemTokenMints",
      "outputs": [
        {
          "internalType": "uint256",
          "name": "",
          "type": "uint256"
        }
      ],
      "stateMutability": "view",
      "type": "function"
    },
    {
      "inputs": [
        {
          "internalType": "uint256",
          "name": "_quantity",
          "type": "uint256"
        }
      ],
      "name": "getCostAndMintEligibility",
      "outputs": [
        {
          "internalType": "uint256",
          "name": "",
          "type": "uint256"
        }
      ],
      "stateMutability": "view",
      "type": "function"
    },
    {
      "inputs": [
        {
          "internalType": "address",
          "name": "_owner",
          "type": "address"
        },
        {
          "internalType": "address",
          "name": "operator",
          "type": "address"
        }
      ],
      "name": "isApprovedForAll",
      "outputs": [
        {
          "internalType": "bool",
          "name": "",
          "type": "bool"
        }
      ],
      "stateMutability": "view",
      "type": "function"
    },
    {
      "inputs": [],
      "name": "isContractApprovedToMint",
      "outputs": [
        {
          "internalType": "bool",
          "name": "",
          "type": "bool"
        }
      ],
      "stateMutability": "view",
      "type": "function"
    },
    {
      "inputs": [],
      "name": "isMintingLive",
      "outputs": [
        {
          "internalType": "bool",
          "name": "",
          "type": "bool"
        }
      ],
      "stateMutability": "view",
      "type": "function"
    },
    {
      "inputs": [
        {
          "internalType": "uint256",
          "name": "_numberOfCreditsToUse",
          "type": "uint256"
        }
      ],
      "name": "mintWithCredits",
      "outputs": [],
      "stateMutability": "nonpayable",
      "type": "function"
    },
    {
      "inputs": [
        {
          "internalType": "uint256",
          "name": "_quantity",
          "type": "uint256"
        }
      ],
      "name": "mintWithUsdc",
      "outputs": [],
      "stateMutability": "nonpayable",
      "type": "function"
    },
    {
      "inputs": [],
      "name": "name",
      "outputs": [
        {
          "internalType": "string",
          "name": "",
          "type": "string"
        }
      ],
      "stateMutability": "view",
      "type": "function"
    },
    {
      "inputs": [],
      "name": "owner",
      "outputs": [
        {
          "internalType": "address",
          "name": "",
          "type": "address"
        }
      ],
      "stateMutability": "view",
      "type": "function"
    },
    {
      "inputs": [
        {
          "internalType": "uint256",
          "name": "tokenId",
          "type": "uint256"
        }
      ],
      "name": "ownerOf",
      "outputs": [
        {
          "internalType": "address",
          "name": "",
          "type": "address"
        }
      ],
      "stateMutability": "view",
      "type": "function"
    },
    {
      "inputs": [],
      "name": "procurementWallet",
      "outputs": [
        {
          "internalType": "address",
          "name": "",
          "type": "address"
        }
      ],
      "stateMutability": "view",
      "type": "function"
    },
    {
      "inputs": [],
      "name": "renounceOwnership",
      "outputs": [],
      "stateMutability": "nonpayable",
      "type": "function"
    },
    {
      "inputs": [],
      "name": "royaltiesWallet",
      "outputs": [
        {
          "internalType": "address",
          "name": "",
          "type": "address"
        }
      ],
      "stateMutability": "view",
      "type": "function"
    },
    {
      "inputs": [
        {
          "internalType": "uint256",
          "name": "_tokenId",
          "type": "uint256"
        },
        {
          "internalType": "uint256",
          "name": "_salePrice",
          "type": "uint256"
        }
      ],
      "name": "royaltyInfo",
      "outputs": [
        {
          "internalType": "address",
          "name": "",
          "type": "address"
        },
        {
          "internalType": "uint256",
          "name": "royaltyAmount",
          "type": "uint256"
        }
      ],
      "stateMutability": "view",
      "type": "function"
    },
    {
      "inputs": [
        {
          "internalType": "address",
          "name": "from",
          "type": "address"
        },
        {
          "internalType": "address",
          "name": "to",
          "type": "address"
        },
        {
          "internalType": "uint256",
          "name": "tokenId",
          "type": "uint256"
        }
      ],
      "name": "safeTransferFrom",
      "outputs": [],
      "stateMutability": "nonpayable",
      "type": "function"
    },
    {
      "inputs": [
        {
          "internalType": "address",
          "name": "from",
          "type": "address"
        },
        {
          "internalType": "address",
          "name": "to",
          "type": "address"
        },
        {
          "internalType": "uint256",
          "name": "tokenId",
          "type": "uint256"
        },
        {
          "internalType": "bytes",
          "name": "data",
          "type": "bytes"
        }
      ],
      "name": "safeTransferFrom",
      "outputs": [],
      "stateMutability": "nonpayable",
      "type": "function"
    },
    {
      "inputs": [],
      "name": "saltVaultBulls",
      "outputs": [
        {
          "internalType": "address",
          "name": "",
          "type": "address"
        }
      ],
      "stateMutability": "view",
      "type": "function"
    },
    {
      "inputs": [
        {
          "internalType": "address",
          "name": "operator",
          "type": "address"
        },
        {
          "internalType": "bool",
          "name": "approved",
          "type": "bool"
        }
      ],
      "name": "setApprovalForAll",
      "outputs": [],
      "stateMutability": "nonpayable",
      "type": "function"
    },
    {
      "inputs": [
        {
          "internalType": "string",
          "name": "_newBaseURI",
          "type": "string"
        }
      ],
      "name": "setBaseURI",
      "outputs": [],
      "stateMutability": "nonpayable",
      "type": "function"
    },
    {
      "inputs": [
        {
          "internalType": "address",
          "name": "_usdcContract",
          "type": "address"
        },
        {
          "internalType": "address",
          "name": "_procurementWallet",
          "type": "address"
        },
        {
          "internalType": "address",
          "name": "_royaltiesWallet",
          "type": "address"
        }
      ],
      "name": "setContractAddresses",
      "outputs": [],
      "stateMutability": "nonpayable",
      "type": "function"
    },
    {
      "inputs": [
        {
          "internalType": "bool",
          "name": "_bool",
          "type": "bool"
        }
      ],
      "name": "setMintingLive",
      "outputs": [],
      "stateMutability": "nonpayable",
      "type": "function"
    },
    {
      "inputs": [
        {
          "internalType": "bytes4",
          "name": "interfaceId",
          "type": "bytes4"
        }
      ],
      "name": "supportsInterface",
      "outputs": [
        {
          "internalType": "bool",
          "name": "",
          "type": "bool"
        }
      ],
      "stateMutability": "view",
      "type": "function"
    },
    {
      "inputs": [],
      "name": "symbol",
      "outputs": [
        {
          "internalType": "string",
          "name": "",
          "type": "string"
        }
      ],
      "stateMutability": "view",
      "type": "function"
    },
    {
      "inputs": [
        {
          "internalType": "uint256",
          "name": "index",
          "type": "uint256"
        }
      ],
      "name": "tokenByIndex",
      "outputs": [
        {
          "internalType": "uint256",
          "name": "",
          "type": "uint256"
        }
      ],
      "stateMutability": "view",
      "type": "function"
    },
    {
      "inputs": [
        {
          "internalType": "address",
          "name": "_owner",
          "type": "address"
        },
        {
          "internalType": "uint256",
          "name": "_index",
          "type": "uint256"
        }
      ],
      "name": "tokenOfOwnerByIndex",
      "outputs": [
        {
          "internalType": "uint256",
          "name": "",
          "type": "uint256"
        }
      ],
      "stateMutability": "view",
      "type": "function"
    },
    {
      "inputs": [
        {
          "internalType": "uint256",
          "name": "tokenId",
          "type": "uint256"
        }
      ],
      "name": "tokenURI",
      "outputs": [
        {
          "internalType": "string",
          "name": "",
          "type": "string"
        }
      ],
      "stateMutability": "view",
      "type": "function"
    },
    {
      "inputs": [],
      "name": "totalSupply",
      "outputs": [
        {
          "internalType": "uint256",
          "name": "",
          "type": "uint256"
        }
      ],
      "stateMutability": "view",
      "type": "function"
    },
    {
      "inputs": [
        {
          "internalType": "address",
          "name": "from",
          "type": "address"
        },
        {
          "internalType": "address",
          "name": "to",
          "type": "address"
        },
        {
          "internalType": "uint256",
          "name": "tokenId",
          "type": "uint256"
        }
      ],
      "name": "transferFrom",
      "outputs": [],
      "stateMutability": "nonpayable",
      "type": "function"
    },
    {
      "inputs": [
        {
          "internalType": "address",
          "name": "newOwner",
          "type": "address"
        }
      ],
      "name": "transferOwnership",
      "outputs": [],
      "stateMutability": "nonpayable",
      "type": "function"
    },
    {
      "inputs": [],
      "name": "usdcTokenContract",
      "outputs": [
        {
          "internalType": "address",
          "name": "",
          "type": "address"
        }
      ],
      "stateMutability": "view",
      "type": "function"
    },
    {
      "inputs": [
        {
          "internalType": "address",
          "name": "_owner",
          "type": "address"
        }
      ],
      "name": "walletOfOwner",
      "outputs": [
        {
          "internalType": "uint256[]",
          "name": "",
          "type": "uint256[]"
        }
      ],
      "stateMutability": "view",
      "type": "function"
    }
  ],
  "bytecode": "0x60806040523480156200001157600080fd5b50604051620027c7380380620027c7833981016040819052620000349162000356565b6040518060400160405280600e81526020016d5356422047656d20546f6b656e7360901b8152506040518060400160405280600581526020016414d59091d560da1b81525081600090816200008a919062000420565b50600162000099828262000420565b505050620000b6620000b0620002e360201b60201c565b620002e7565b6001600b55601180546001600160a01b0383166001600160a01b03199182168117909255600c80549091168217905560405163188ca9df60e21b815260806004820152600e60848201526d5356422047656d20546f6b656e7360901b60a482015260c06024820152600560c482018190526414d59091d560da1b60e4830152610100604483015260146101048301527f697066733a2f2f7374617274696e67446174612f000000000000000000000000610124830152610140606483015261014482015264173539b7b760d91b610164820152636232a77c9061018401600060405180830381600087803b158015620001ae57600080fd5b505af1158015620001c3573d6000803e3d6000fd5b5050600c5460405162244ab760e11b81523060048201526001600160a01b0390911692506248956e9150602401600060405180830381600087803b1580156200020b57600080fd5b505af115801562000220573d6000803e3d6000fd5b50505050600c60009054906101000a90046001600160a01b03166001600160a01b0316634863c1306040518163ffffffff1660e01b8152600401606060405180830381865afa15801562000278573d6000803e3d6000fd5b505050506040513d601f19601f820116820180604052508101906200029e9190620004ec565b600e80546001600160a01b03199081166001600160a01b0393841617909155600f8054821693831693909317909255600d805490921692169190911790555062000536565b3390565b600a80546001600160a01b038381166001600160a01b0319831681179093556040519116919082907f8be0079c531659141344cd1fd0a4f28419497f9722a3daafe3b4186f6b6457e090600090a35050565b80516001600160a01b03811681146200035157600080fd5b919050565b6000602082840312156200036957600080fd5b620003748262000339565b9392505050565b634e487b7160e01b600052604160045260246000fd5b600181811c90821680620003a657607f821691505b602082108103620003c757634e487b7160e01b600052602260045260246000fd5b50919050565b601f8211156200041b57600081815260208120601f850160051c81016020861015620003f65750805b601f850160051c820191505b81811015620004175782815560010162000402565b5050505b505050565b81516001600160401b038111156200043c576200043c6200037b565b62000454816200044d845462000391565b84620003cd565b602080601f8311600181146200048c5760008415620004735750858301515b600019600386901b1c1916600185901b17855562000417565b600085815260208120601f198616915b82811015620004bd578886015182559484019460019091019084016200049c565b5085821015620004dc5787850151600019600388901b60f8161c191681555b5050505050600190811b01905550565b6000806000606084860312156200050257600080fd5b6200050d8462000339565b92506200051d6020850162000339565b91506200052d6040850162000339565b90509250925092565b61228180620005466000396000f3fe608060405234801561001057600080fd5b50600436106102275760003560e01c80636e7cf03f11610130578063a22cb465116100b8578063db848d491161007c578063db848d49146104b6578063e05888e0146104c9578063e985e9c5146104dc578063f2fde38b146104ef578063f839e9df1461050257600080fd5b8063a22cb46514610462578063adf09b8514610475578063b88d4fde1461047d578063c0bc470214610490578063c87b56dd146104a357600080fd5b806385f80ae5116100ff57806385f80ae51461042657806388b509291461042e5780638ab63380146104365780638da5cb5b1461044957806395d89b411461045a57600080fd5b80636e7cf03f146103e557806370a08231146103f8578063715018a61461040b57806374697ce31461041357600080fd5b80632f745c59116101b35780634f6ccce7116101825780634f6ccce7146103865780635297639c1461039957806355f804b3146103ac5780636352211e146103bf5780636a60c3b7146103d257600080fd5b80632f745c591461032a5780632fe0c9ed1461033d57806342842e0e14610353578063438b63001461036657600080fd5b8063095ea7b3116101fa578063095ea7b3146102a757806318160ddd146102bc57806323b872dd146102d257806324d8dd4a146102e55780632a55205a146102f857600080fd5b806301ffc9a71461022c57806306fdde0314610254578063072dad7814610269578063081812fc1461027c575b600080fd5b61023f61023a36600461192f565b610515565b60405190151581526020015b60405180910390f35b61025c610540565b60405161024b91906119a9565b61025c6102773660046119bc565b6105b7565b61028f61028a3660046119bc565b610604565b6040516001600160a01b03909116815260200161024b565b6102ba6102b53660046119ea565b610673565b005b6102c46106e4565b60405190815260200161024b565b6102ba6102e0366004611a16565b610752565b6102c46102f33660046119bc565b6107da565b61030b610306366004611a57565b6108ea565b604080516001600160a01b03909316835260208301919091520161024b565b6102c46103383660046119ea565b61091a565b610345610997565b60405161024b929190611ad5565b6102ba610361366004611a16565b610a22565b610379610374366004611b4a565b610a39565b60405161024b9190611b67565b6102c46103943660046119bc565b610aac565b600e5461028f906001600160a01b031681565b6102ba6103ba366004611ca4565b610b3f565b61028f6103cd3660046119bc565b610bac565b60115461028f906001600160a01b031681565b60105461028f906001600160a01b031681565b6102c4610406366004611b4a565b610bde565b6102ba610c11565b6102ba610421366004611cfb565b610c25565b6102c4610dd1565b61023f610e2a565b6102ba610444366004611d18565b610e98565b600a546001600160a01b031661028f565b61025c610edf565b6102ba610470366004611d63565b610f29565b61023f610f69565b6102ba61048b366004611d9c565b610fb3565b600f5461028f906001600160a01b031681565b61025c6104b13660046119bc565b611021565b600d5461028f906001600160a01b031681565b6102ba6104d73660046119bc565b611093565b61023f6104ea366004611e1c565b611290565b6102ba6104fd366004611b4a565b611307565b6102ba6105103660046119bc565b61137d565b60006001600160e01b0319821663152a902d60e11b148061053a575061053a826114eb565b92915050565b600c5460408051630ed64f4360e21b815290516060926001600160a01b031691633b593d0c9160048083019260009291908290030181865afa15801561058a573d6000803e3d6000fd5b505050506040513d6000823e601f3d908101601f191682016040526105b29190810190611e4a565b905090565b606060006105c4836107da565b9050806000036105ee576040518060600160405280602b8152602001612221602b91399392505050565b5050604080516020810190915260008152919050565b600c54604051636e1e3cdd60e01b8152600481018390526000916001600160a01b031690636e1e3cdd906024015b602060405180830381865afa15801561064f573d6000803e3d6000fd5b505050506040513d601f19601f8201168201806040525081019061053a9190611ec1565b600c54604051637126309160e01b81523360048201526001600160a01b03848116602483015260448201849052909116906371263091906064015b600060405180830381600087803b1580156106c857600080fd5b505af11580156106dc573d6000803e3d6000fd5b505050505050565b600c54604080516316443cbf60e11b815290516000926001600160a01b031691632c88797e9160048083019260209291908290030181865afa15801561072e573d6000803e3d6000fd5b505050506040513d601f19601f820116820180604052508101906105b29190611ede565b600c546001600160a01b03166381623dd2335b6040516001600160e01b031960e084901b1681526001600160a01b0391821660048201528187166024820152908516604482015260648101849052608401600060405180830381600087803b1580156107bd57600080fd5b505af11580156107d1573d6000803e3d6000fd5b50505050505050565b600060148211156108325760405162461bcd60e51b815260206004820152601c60248201527f3230206f66206c657373206d696e747320706572207478206f6e6c790000000060448201526064015b60405180910390fd5b600182101561087c5760405162461bcd60e51b81526020600482015260166024820152757175616e746974792063616e2774206265207a65726f60501b6044820152606401610829565b600c5460405163ac4745d360e01b8152600481018490526001600160a01b039091169063ac4745d3906024015b602060405180830381865afa1580156108c6573d6000803e3d6000fd5b505050506040513d601f19601f8201168201806040525081019061053a9190611ede565b60008060646108fa846005611ef7565b6109049190611f1c565b600f546001600160a01b03169590945092505050565b600c5460405163c077a57f60e01b81526001600160a01b03848116600483015260248201849052600092169063c077a57f90604401602060405180830381865afa15801561096c573d6000803e3d6000fd5b505050506040513d601f19601f820116820180604052508101906109909190611ede565b9392505050565b600c5460609081906001600160a01b031663edc924a4336040516001600160e01b031960e084901b1681526001600160a01b039091166004820152602401600060405180830381865afa1580156109f2573d6000803e3d6000fd5b505050506040513d6000823e601f3d908101601f19168201604052610a1a9190810190612008565b915091509091565b600c546001600160a01b031663f709b90633610765565b600c546040516350ccdb0960e11b81526001600160a01b038381166004830152606092169063a199b61290602401600060405180830381865afa158015610a84573d6000803e3d6000fd5b505050506040513d6000823e601f3d908101601f1916820160405261053a9190810190612110565b6000610ab760085490565b8210610b1a5760405162461bcd60e51b815260206004820152602c60248201527f455243373231456e756d657261626c653a20676c6f62616c20696e646578206f60448201526b7574206f6620626f756e647360a01b6064820152608401610829565b60088281548110610b2d57610b2d612196565b90600052602060002001549050919050565b610b47611510565b600c54604051630df4ed5f60e31b81526001600160a01b0390911690636fa76af890610b779084906004016119a9565b600060405180830381600087803b158015610b9157600080fd5b505af1158015610ba5573d6000803e3d6000fd5b5050505050565b600c54604051636dc2410d60e01b8152600481018390526000916001600160a01b031690636dc2410d90602401610632565b600c54604051630484dd2d60e51b81526001600160a01b038381166004830152600092169063909ba5a0906024016108a9565b610c19611510565b610c23600061156a565b565b610c2d611510565b600d546001600160a01b03161580610c4e57506011546001600160a01b0316155b80610c625750600e546001600160a01b0316155b80610c765750600f546001600160a01b0316155b15610cc35760405162461bcd60e51b815260206004820152601d60248201527f416c6c2061646472657373206d757374206265207365742066697273740000006044820152606401610829565b600c60009054906101000a90046001600160a01b03166001600160a01b0316630560a0576040518163ffffffff1660e01b8152600401602060405180830381865afa158015610d16573d6000803e3d6000fd5b505050506040513d601f19601f82011682018060405250810190610d3a91906121ac565b1515600003610d9f5760405162461bcd60e51b815260206004820152602b60248201527f6e6f742073657420746f206d696e7420796574206f6e2074686520455243373260448201526a0c48199858d95d081e595d60aa1b6064820152608401610829565b600c54604051635b1905b960e11b815282151560048201526001600160a01b039091169063b6320b7290602401610b77565b600c546000906001600160a01b03166305ec0d87336040516001600160e01b031960e084901b1681526001600160a01b039091166004820152602401602060405180830381865afa15801561072e573d6000803e3d6000fd5b600c5460408051630560a05760e01b815290516000926001600160a01b031691630560a0579160048083019260209291908290030181865afa158015610e74573d6000803e3d6000fd5b505050506040513d601f19601f820116820180604052508101906105b291906121ac565b610ea0611510565b600d80546001600160a01b039485166001600160a01b031991821617909155600e805493851693821693909317909255600f8054919093169116179055565b600c5460408051630b4f6fc360e21b815290516060926001600160a01b031691632d3dbf0c9160048083019260009291908290030181865afa15801561058a573d6000803e3d6000fd5b600c546040516336ea1ad360e01b81523360048201526001600160a01b0384811660248301528315156044830152909116906336ea1ad3906064016106ae565b600c546040805163f030474b60e01b815290516000926001600160a01b03169163f030474b9160048083019260209291908290030181865afa158015610e74573d6000803e3d6000fd5b600c546001600160a01b03166325fba11f33868686866040518663ffffffff1660e01b8152600401610fe99594939291906121c9565b600060405180830381600087803b15801561100357600080fd5b505af1158015611017573d6000803e3d6000fd5b5050505050505050565b600c54604051632a5ccb4d60e01b8152600481018390526060916001600160a01b031690632a5ccb4d90602401600060405180830381865afa15801561106b573d6000803e3d6000fd5b505050506040513d6000823e601f3d908101601f1916820160405261053a9190810190611e4a565b61109b6115bc565b60006110a6826107da565b90508060000361112d5760405162461bcd60e51b815260206004820152604660248201527f4d696e74696e67206973206e6f74206c69766520666f722047656d546f6b656e60448201527f73207573696e672043726564697473206f72207468657920617265204d696e7460648201526519590813dd5d60d21b608482015260a401610829565b600c546000906001600160a01b03166305ec0d87336040516001600160e01b031960e084901b1681526001600160a01b039091166004820152602401602060405180830381865afa158015611186573d6000803e3d6000fd5b505050506040513d601f19601f820116820180604052508101906111aa9190611ede565b9050808311156112085760405162461bcd60e51b8152602060048201526024808201527f4578636565647320746865206372656469747320666f722074686973206164646044820152637265737360e01b6064820152608401610829565b600c546001600160a01b03166358c791e2336040516001600160e01b031960e084901b1681526001600160a01b0390911660048201526024810186905260006044820152606401600060405180830381600087803b15801561126957600080fd5b505af115801561127d573d6000803e3d6000fd5b50505050505061128d6001600b55565b50565b600c546040516305abebd960e31b81526001600160a01b03848116600483015283811660248301526000921690632d5f5ec890604401602060405180830381865afa1580156112e3573d6000803e3d6000fd5b505050506040513d601f19601f8201168201806040525081019061099091906121ac565b61130f611510565b6001600160a01b0381166113745760405162461bcd60e51b815260206004820152602660248201527f4f776e61626c653a206e6577206f776e657220697320746865207a65726f206160448201526564647265737360d01b6064820152608401610829565b61128d8161156a565b6113856115bc565b600081116113d55760405162461bcd60e51b815260206004820152601a60248201527f4d757374206d696e74206174206c65617374206f6e65204e46540000000000006044820152606401610829565b60006113e0826107da565b9050806000036114495760405162461bcd60e51b815260206004820152602e60248201527f4d696e74696e67206973206e6f74206c697665206f722074686973207261726960448201526d1d1e481a5cc81cdbdb19081bdd5d60921b6064820152608401610829565b61146733601154600d546001600160a01b0390811692911684611615565b600c546001600160a01b03166358c791e2336040516001600160e01b031960e084901b1681526001600160a01b0390911660048201526024810185905260448101849052606401600060405180830381600087803b1580156114c857600080fd5b505af11580156114dc573d6000803e3d6000fd5b505050505061128d6001600b55565b60006001600160e01b0319821663780e9d6360e01b148061053a575061053a82611675565b600a546001600160a01b03163314610c235760405162461bcd60e51b815260206004820181905260248201527f4f776e61626c653a2063616c6c6572206973206e6f7420746865206f776e65726044820152606401610829565b600a80546001600160a01b038381166001600160a01b0319831681179093556040519116919082907f8be0079c531659141344cd1fd0a4f28419497f9722a3daafe3b4186f6b6457e090600090a35050565b6002600b540361160e5760405162461bcd60e51b815260206004820152601f60248201527f5265656e7472616e637947756172643a207265656e7472616e742063616c6c006044820152606401610829565b6002600b55565b604080516001600160a01b0385811660248301528416604482015260648082018490528251808303909101815260849091019091526020810180516001600160e01b03166323b872dd60e01b17905261166f9085906116c5565b50505050565b60006001600160e01b031982166380ac58cd60e01b14806116a657506001600160e01b03198216635b5e139f60e01b145b8061053a57506301ffc9a760e01b6001600160e01b031983161461053a565b600061171a826040518060400160405280602081526020017f5361666545524332303a206c6f772d6c6576656c2063616c6c206661696c6564815250856001600160a01b031661179f9092919063ffffffff16565b905080516000148061173b57508080602001905181019061173b91906121ac565b61179a5760405162461bcd60e51b815260206004820152602a60248201527f5361666545524332303a204552433230206f7065726174696f6e20646964206e6044820152691bdd081cdd58d8d9595960b21b6064820152608401610829565b505050565b60606117ae84846000856117b6565b949350505050565b6060824710156118175760405162461bcd60e51b815260206004820152602660248201527f416464726573733a20696e73756666696369656e742062616c616e636520666f6044820152651c8818d85b1b60d21b6064820152608401610829565b600080866001600160a01b031685876040516118339190612204565b60006040518083038185875af1925050503d8060008114611870576040519150601f19603f3d011682016040523d82523d6000602084013e611875565b606091505b509150915061188687838387611891565b979650505050505050565b606083156119005782516000036118f9576001600160a01b0385163b6118f95760405162461bcd60e51b815260206004820152601d60248201527f416464726573733a2063616c6c20746f206e6f6e2d636f6e74726163740000006044820152606401610829565b50816117ae565b6117ae83838151156119155781518083602001fd5b8060405162461bcd60e51b815260040161082991906119a9565b60006020828403121561194157600080fd5b81356001600160e01b03198116811461099057600080fd5b60005b8381101561197457818101518382015260200161195c565b50506000910152565b60008151808452611995816020860160208601611959565b601f01601f19169290920160200192915050565b602081526000610990602083018461197d565b6000602082840312156119ce57600080fd5b5035919050565b6001600160a01b038116811461128d57600080fd5b600080604083850312156119fd57600080fd5b8235611a08816119d5565b946020939093013593505050565b600080600060608486031215611a2b57600080fd5b8335611a36816119d5565b92506020840135611a46816119d5565b929592945050506040919091013590565b60008060408385031215611a6a57600080fd5b50508035926020909101359150565b600081518084526020808501945080840160005b83811015611aca57815180516001600160a01b03168852838101518489015260409081015115159088015260609096019590820190600101611a8d565b509495945050505050565b6040808252835182820181905260009190606090818501906020808901865b83811015611b3657815180518652838101516001600160a01b031684870152878101518887015286015115158686015260809094019390820190600101611af4565b505086830390870152506118868187611a79565b600060208284031215611b5c57600080fd5b8135610990816119d5565b6020808252825182820181905260009190848201906040850190845b81811015611b9f57835183529284019291840191600101611b83565b50909695505050505050565b634e487b7160e01b600052604160045260246000fd5b6040516060810167ffffffffffffffff81118282101715611be457611be4611bab565b60405290565b6040516080810167ffffffffffffffff81118282101715611be457611be4611bab565b604051601f8201601f1916810167ffffffffffffffff81118282101715611c3657611c36611bab565b604052919050565b600067ffffffffffffffff821115611c5857611c58611bab565b50601f01601f191660200190565b6000611c79611c7484611c3e565b611c0d565b9050828152838383011115611c8d57600080fd5b828260208301376000602084830101529392505050565b600060208284031215611cb657600080fd5b813567ffffffffffffffff811115611ccd57600080fd5b8201601f81018413611cde57600080fd5b6117ae84823560208401611c66565b801515811461128d57600080fd5b600060208284031215611d0d57600080fd5b813561099081611ced565b600080600060608486031215611d2d57600080fd5b8335611d38816119d5565b92506020840135611d48816119d5565b91506040840135611d58816119d5565b809150509250925092565b60008060408385031215611d7657600080fd5b8235611d81816119d5565b91506020830135611d9181611ced565b809150509250929050565b60008060008060808587031215611db257600080fd5b8435611dbd816119d5565b93506020850135611dcd816119d5565b925060408501359150606085013567ffffffffffffffff811115611df057600080fd5b8501601f81018713611e0157600080fd5b611e1087823560208401611c66565b91505092959194509250565b60008060408385031215611e2f57600080fd5b8235611e3a816119d5565b91506020830135611d91816119d5565b600060208284031215611e5c57600080fd5b815167ffffffffffffffff811115611e7357600080fd5b8201601f81018413611e8457600080fd5b8051611e92611c7482611c3e565b818152856020838501011115611ea757600080fd5b611eb8826020830160208601611959565b95945050505050565b600060208284031215611ed357600080fd5b8151610990816119d5565b600060208284031215611ef057600080fd5b5051919050565b808202811582820484141761053a57634e487b7160e01b600052601160045260246000fd5b600082611f3957634e487b7160e01b600052601260045260246000fd5b500490565b600067ffffffffffffffff821115611f5857611f58611bab565b5060051b60200190565b600082601f830112611f7357600080fd5b81516020611f83611c7483611f3e565b82815260609283028501820192828201919087851115611fa257600080fd5b8387015b85811015611ffb5781818a031215611fbe5760008081fd5b611fc6611bc1565b8151611fd1816119d5565b81528186015186820152604080830151611fea81611ced565b908201528452928401928101611fa6565b5090979650505050505050565b600080604080848603121561201c57600080fd5b835167ffffffffffffffff8082111561203457600080fd5b818601915086601f83011261204857600080fd5b81516020612058611c7483611f3e565b82815260079290921b8401810191818101908a84111561207757600080fd5b948201945b838610156120df576080868c0312156120955760008081fd5b61209d611bea565b86518152838701516120ae816119d5565b8185015286880151888201526060808801516120c981611ced565b908201528252608095909501949082019061207c565b918901519197509094505050808311156120f857600080fd5b505061210685828601611f62565b9150509250929050565b6000602080838503121561212357600080fd5b825167ffffffffffffffff81111561213a57600080fd5b8301601f8101851361214b57600080fd5b8051612159611c7482611f3e565b81815260059190911b8201830190838101908783111561217857600080fd5b928401925b828410156118865783518252928401929084019061217d565b634e487b7160e01b600052603260045260246000fd5b6000602082840312156121be57600080fd5b815161099081611ced565b6001600160a01b0386811682528581166020830152841660408201526060810183905260a0608082018190526000906118869083018461197d565b60008251612216818460208701611959565b919091019291505056fe4d696e74206973206e6f74204c697665206f722047656d20546f6b656e732061726520736f6c64206f7574a2646970667358221220f373ef845d2d258cf7090c34e99e6c1724c5db69e911062b66bcac11da45a0d564736f6c63430008140033",
  "linkReferences": {},
  "deployedLinkReferences": {}
}